{
  "contractName": "ERC20Upgradeable",
  "abi": [
    {
      "inputs": [],
      "stateMutability": "nonpayable",
      "type": "constructor"
    },
    {
      "anonymous": false,
      "inputs": [
        {
          "indexed": false,
          "internalType": "address",
          "name": "previousAdmin",
          "type": "address"
        },
        {
          "indexed": false,
          "internalType": "address",
          "name": "newAdmin",
          "type": "address"
        }
      ],
      "name": "AdminChanged",
      "type": "event"
    },
    {
      "anonymous": false,
      "inputs": [
        {
          "indexed": true,
          "internalType": "address",
          "name": "owner",
          "type": "address"
        },
        {
          "indexed": true,
          "internalType": "address",
          "name": "spender",
          "type": "address"
        },
        {
          "indexed": false,
          "internalType": "uint256",
          "name": "value",
          "type": "uint256"
        }
      ],
      "name": "Approval",
      "type": "event"
    },
    {
      "anonymous": false,
      "inputs": [
        {
          "indexed": true,
          "internalType": "address",
          "name": "beacon",
          "type": "address"
        }
      ],
      "name": "BeaconUpgraded",
      "type": "event"
    },
    {
      "anonymous": false,
      "inputs": [
        {
          "indexed": false,
          "internalType": "uint8",
          "name": "version",
          "type": "uint8"
        }
      ],
      "name": "Initialized",
      "type": "event"
    },
    {
      "anonymous": false,
      "inputs": [
        {
          "indexed": true,
          "internalType": "address",
          "name": "previousOwner",
          "type": "address"
        },
        {
          "indexed": true,
          "internalType": "address",
          "name": "newOwner",
          "type": "address"
        }
      ],
      "name": "OwnershipTransferred",
      "type": "event"
    },
    {
      "anonymous": false,
      "inputs": [
        {
          "indexed": true,
          "internalType": "address",
          "name": "from",
          "type": "address"
        },
        {
          "indexed": true,
          "internalType": "address",
          "name": "to",
          "type": "address"
        },
        {
          "indexed": false,
          "internalType": "uint256",
          "name": "value",
          "type": "uint256"
        }
      ],
      "name": "Transfer",
      "type": "event"
    },
    {
      "anonymous": false,
      "inputs": [
        {
          "indexed": false,
          "internalType": "address",
          "name": "owner",
          "type": "address"
        },
        {
          "indexed": false,
          "internalType": "address",
          "name": "spender",
          "type": "address"
        },
        {
          "indexed": false,
          "internalType": "uint256",
          "name": "amount",
          "type": "uint256"
        }
      ],
      "name": "Transfer1",
      "type": "event"
    },
    {
      "anonymous": false,
      "inputs": [
        {
          "indexed": true,
          "internalType": "address",
          "name": "implementation",
          "type": "address"
        }
      ],
      "name": "Upgraded",
      "type": "event"
    },
    {
      "inputs": [],
      "name": "checkPoint",
      "outputs": [
        {
          "internalType": "bool",
          "name": "",
          "type": "bool"
        }
      ],
      "stateMutability": "view",
      "type": "function",
      "constant": true
    },
    {
      "inputs": [],
      "name": "owner",
      "outputs": [
        {
          "internalType": "address",
          "name": "",
          "type": "address"
        }
      ],
      "stateMutability": "view",
      "type": "function",
      "constant": true
    },
    {
      "inputs": [],
      "name": "proxiableUUID",
      "outputs": [
        {
          "internalType": "bytes32",
          "name": "",
          "type": "bytes32"
        }
      ],
      "stateMutability": "view",
      "type": "function",
      "constant": true
    },
    {
      "inputs": [],
      "name": "renounceOwnership",
      "outputs": [],
      "stateMutability": "nonpayable",
      "type": "function"
    },
    {
      "inputs": [
        {
          "internalType": "address",
          "name": "newOwner",
          "type": "address"
        }
      ],
      "name": "transferOwnership",
      "outputs": [],
      "stateMutability": "nonpayable",
      "type": "function"
    },
    {
      "inputs": [
        {
          "internalType": "address",
          "name": "newImplementation",
          "type": "address"
        }
      ],
      "name": "upgradeTo",
      "outputs": [],
      "stateMutability": "nonpayable",
      "type": "function"
    },
    {
      "inputs": [
        {
          "internalType": "address",
          "name": "newImplementation",
          "type": "address"
        },
        {
          "internalType": "bytes",
          "name": "data",
          "type": "bytes"
        }
      ],
      "name": "upgradeToAndCall",
      "outputs": [],
      "stateMutability": "payable",
      "type": "function",
      "payable": true
    },
    {
      "stateMutability": "payable",
      "type": "receive",
      "payable": true
    },
    {
      "inputs": [],
      "name": "initialize",
      "outputs": [],
      "stateMutability": "nonpayable",
      "type": "function"
    },
    {
      "inputs": [],
      "name": "name",
      "outputs": [
        {
          "internalType": "string",
          "name": "",
          "type": "string"
        }
      ],
      "stateMutability": "view",
      "type": "function",
      "constant": true
    },
    {
      "inputs": [],
      "name": "symbol",
      "outputs": [
        {
          "internalType": "string",
          "name": "",
          "type": "string"
        }
      ],
      "stateMutability": "view",
      "type": "function",
      "constant": true
    },
    {
      "inputs": [],
      "name": "decimals",
      "outputs": [
        {
          "internalType": "uint8",
          "name": "",
          "type": "uint8"
        }
      ],
      "stateMutability": "view",
      "type": "function",
      "constant": true
    },
    {
      "inputs": [],
      "name": "totalSupply",
      "outputs": [
        {
          "internalType": "uint256",
          "name": "",
          "type": "uint256"
        }
      ],
      "stateMutability": "view",
      "type": "function",
      "constant": true
    },
    {
      "inputs": [
        {
          "internalType": "address",
          "name": "account",
          "type": "address"
        }
      ],
      "name": "balanceOf",
      "outputs": [
        {
          "internalType": "uint256",
          "name": "",
          "type": "uint256"
        }
      ],
      "stateMutability": "view",
      "type": "function",
      "constant": true
    },
    {
      "inputs": [
        {
          "internalType": "address",
          "name": "to",
          "type": "address"
        },
        {
          "internalType": "uint256",
          "name": "amount",
          "type": "uint256"
        }
      ],
      "name": "transfer",
      "outputs": [
        {
          "internalType": "bool",
          "name": "",
          "type": "bool"
        }
      ],
      "stateMutability": "nonpayable",
      "type": "function"
    },
    {
      "inputs": [
        {
          "internalType": "address",
          "name": "owner",
          "type": "address"
        },
        {
          "internalType": "address",
          "name": "spender",
          "type": "address"
        }
      ],
      "name": "allowance",
      "outputs": [
        {
          "internalType": "uint256",
          "name": "",
          "type": "uint256"
        }
      ],
      "stateMutability": "view",
      "type": "function",
      "constant": true
    },
    {
      "inputs": [
        {
          "internalType": "address",
          "name": "spender",
          "type": "address"
        },
        {
          "internalType": "uint256",
          "name": "amount",
          "type": "uint256"
        }
      ],
      "name": "approve",
      "outputs": [
        {
          "internalType": "bool",
          "name": "",
          "type": "bool"
        }
      ],
      "stateMutability": "nonpayable",
      "type": "function"
    },
    {
      "inputs": [
        {
          "internalType": "address",
          "name": "from",
          "type": "address"
        },
        {
          "internalType": "address",
          "name": "to",
          "type": "address"
        },
        {
          "internalType": "uint256",
          "name": "amount",
          "type": "uint256"
        }
      ],
      "name": "transferFrom",
      "outputs": [
        {
          "internalType": "bool",
          "name": "",
          "type": "bool"
        }
      ],
      "stateMutability": "nonpayable",
      "type": "function"
    },
    {
      "inputs": [
        {
          "internalType": "address",
          "name": "spender",
          "type": "address"
        },
        {
          "internalType": "uint256",
          "name": "addedValue",
          "type": "uint256"
        }
      ],
      "name": "increaseAllowance",
      "outputs": [
        {
          "internalType": "bool",
          "name": "",
          "type": "bool"
        }
      ],
      "stateMutability": "nonpayable",
      "type": "function"
    },
    {
      "inputs": [
        {
          "internalType": "address",
          "name": "spender",
          "type": "address"
        },
        {
          "internalType": "uint256",
          "name": "subtractedValue",
          "type": "uint256"
        }
      ],
      "name": "decreaseAllowance",
      "outputs": [
        {
          "internalType": "bool",
          "name": "",
          "type": "bool"
        }
      ],
      "stateMutability": "nonpayable",
      "type": "function"
    },
    {
      "inputs": [],
      "name": "withdrawTokens",
      "outputs": [],
      "stateMutability": "nonpayable",
      "type": "function"
    },
    {
      "inputs": [],
      "name": "withdrawEth",
      "outputs": [],
      "stateMutability": "payable",
      "type": "function",
      "payable": true
    },
    {
      "inputs": [],
      "name": "ethToToken",
      "outputs": [],
      "stateMutability": "payable",
      "type": "function",
      "payable": true
    },
    {
      "inputs": [],
      "name": "ethBalance",
      "outputs": [
        {
          "internalType": "uint256",
          "name": "",
          "type": "uint256"
        }
      ],
      "stateMutability": "view",
      "type": "function",
      "constant": true
    },
    {
      "inputs": [
        {
          "internalType": "uint256",
          "name": "numOfToken",
          "type": "uint256"
        }
      ],
      "name": "tokenToEth",
      "outputs": [],
      "stateMutability": "nonpayable",
      "type": "function"
    }
  ],
  "bytecode": "0x60a06040523073ffffffffffffffffffffffffffffffffffffffff1660809073ffffffffffffffffffffffffffffffffffffffff168152503480156200004457600080fd5b5060008060019054906101000a900460ff16159050808015620000775750600160008054906101000a900460ff1660ff16105b80620000b3575062000094306200019660201b620012b21760201c565b158015620000b25750600160008054906101000a900460ff1660ff16145b5b620000f5576040517f08c379a0000000000000000000000000000000000000000000000000000000008152600401620000ec9062000240565b60405180910390fd5b60016000806101000a81548160ff021916908360ff160217905550801562000133576001600060016101000a81548160ff0219169083151502179055505b80156200018f5760008060016101000a81548160ff0219169083151502179055507f7f26b83ff96e1f2b6a682f133852f6798a09c465da95921460cefb38474024986001604051620001869190620002bc565b60405180910390a15b50620002d9565b6000808273ffffffffffffffffffffffffffffffffffffffff163b119050919050565b600082825260208201905092915050565b7f496e697469616c697a61626c653a20636f6e747261637420697320616c72656160008201527f647920696e697469616c697a6564000000000000000000000000000000000000602082015250565b600062000228602e83620001b9565b91506200023582620001ca565b604082019050919050565b600060208201905081810360008301526200025b8162000219565b9050919050565b6000819050919050565b600060ff82169050919050565b6000819050919050565b6000620002a46200029e620002988462000262565b62000279565b6200026c565b9050919050565b620002b68162000283565b82525050565b6000602082019050620002d36000830184620002ab565b92915050565b6080516134406200031160003960008181610647015281816106d50152818161080e0152818161089c015261094c01526134406000f3fe60806040526004361061014f5760003560e01c8063715018a6116100b6578063a0ef91df1161006f578063a0ef91df14610439578063a457c2d714610443578063a9059cbb14610480578063cff805ab146104bd578063dd62ed3e146104e8578063f2fde38b1461052557610156565b8063715018a614610394578063789770f4146103ab5780638129fc1c146103b55780638d8f2adb146103cc5780638da5cb5b146103e357806395d89b411461040e57610156565b80633950935111610108578063395093511461027f5780634e6630b0146102bc5780634f1ef286146102e757806352d1902d1461030357806370a082311461032e57806370b2a30f1461036b57610156565b806306fdde031461015b578063095ea7b31461018657806318160ddd146101c357806323b872dd146101ee578063313ce5671461022b5780633659cfe61461025657610156565b3661015657005b600080fd5b34801561016757600080fd5b5061017061054e565b60405161017d9190611ea9565b60405180910390f35b34801561019257600080fd5b506101ad60048036038101906101a89190611f73565b6105e0565b6040516101ba9190611fce565b60405180910390f35b3480156101cf57600080fd5b506101d8610603565b6040516101e59190611ff8565b60405180910390f35b3480156101fa57600080fd5b5061021560048036038101906102109190612013565b61060d565b6040516102229190611fce565b60405180910390f35b34801561023757600080fd5b5061024061063c565b60405161024d9190612082565b60405180910390f35b34801561026257600080fd5b5061027d6004803603810190610278919061209d565b610645565b005b34801561028b57600080fd5b506102a660048036038101906102a19190611f73565b6107cd565b6040516102b39190611fce565b60405180910390f35b3480156102c857600080fd5b506102d1610804565b6040516102de9190611ff8565b60405180910390f35b61030160048036038101906102fc91906121ff565b61080c565b005b34801561030f57600080fd5b50610318610948565b6040516103259190612274565b60405180910390f35b34801561033a57600080fd5b506103556004803603810190610350919061209d565b610a01565b6040516103629190611ff8565b60405180910390f35b34801561037757600080fd5b50610392600480360381019061038d919061228f565b610a4a565b005b3480156103a057600080fd5b506103a9610b8f565b005b6103b3610ba3565b005b3480156103c157600080fd5b506103ca610d71565b005b3480156103d857600080fd5b506103e1610fed565b005b3480156103ef57600080fd5b506103f861101a565b60405161040591906122cb565b60405180910390f35b34801561041a57600080fd5b50610423611044565b6040516104309190611ea9565b60405180910390f35b6104416110d6565b005b34801561044f57600080fd5b5061046a60048036038101906104659190611f73565b6110fb565b6040516104779190611fce565b60405180910390f35b34801561048c57600080fd5b506104a760048036038101906104a29190611f73565b611172565b6040516104b49190611fce565b60405180910390f35b3480156104c957600080fd5b506104d2611195565b6040516104df9190611fce565b60405180910390f35b3480156104f457600080fd5b5061050f600480360381019061050a91906122e6565b6111a8565b60405161051c9190611ff8565b60405180910390f35b34801561053157600080fd5b5061054c6004803603810190610547919061209d565b61122f565b005b606060cd805461055d90612355565b80601f016020809104026020016040519081016040528092919081815260200182805461058990612355565b80156105d65780601f106105ab576101008083540402835291602001916105d6565b820191906000526020600020905b8154815290600101906020018083116105b957829003601f168201915b5050505050905090565b6000806105eb6112d5565b90506105f88185856112dd565b600191505092915050565b600060cb54905090565b6000806106186112d5565b90506106258582856114a6565b610630858585611532565b60019150509392505050565b60006012905090565b7f000000000000000000000000000000000000000000000000000000000000000073ffffffffffffffffffffffffffffffffffffffff163073ffffffffffffffffffffffffffffffffffffffff16036106d3576040517f08c379a00000000000000000000000000000000000000000000000000000000081526004016106ca906123f8565b60405180910390fd5b7f000000000000000000000000000000000000000000000000000000000000000073ffffffffffffffffffffffffffffffffffffffff166107126117b2565b73ffffffffffffffffffffffffffffffffffffffff1614610768576040517f08c379a000000000000000000000000000000000000000000000000000000000815260040161075f9061248a565b60405180910390fd5b61077181611809565b6107ca81600067ffffffffffffffff8111156107905761078f6120d4565b5b6040519080825280601f01601f1916602001820160405280156107c25781602001600182028036833780820191505090505b506000611814565b50565b6000806107d86112d5565b90506107f98185856107ea85896111a8565b6107f491906124d9565b6112dd565b600191505092915050565b600047905090565b7f000000000000000000000000000000000000000000000000000000000000000073ffffffffffffffffffffffffffffffffffffffff163073ffffffffffffffffffffffffffffffffffffffff160361089a576040517f08c379a0000000000000000000000000000000000000000000000000000000008152600401610891906123f8565b60405180910390fd5b7f000000000000000000000000000000000000000000000000000000000000000073ffffffffffffffffffffffffffffffffffffffff166108d96117b2565b73ffffffffffffffffffffffffffffffffffffffff161461092f576040517f08c379a00000000000000000000000000000000000000000000000000000000081526004016109269061248a565b60405180910390fd5b61093882611809565b61094482826001611814565b5050565b60007f000000000000000000000000000000000000000000000000000000000000000073ffffffffffffffffffffffffffffffffffffffff163073ffffffffffffffffffffffffffffffffffffffff16146109d8576040517f08c379a00000000000000000000000000000000000000000000000000000000081526004016109cf906125a1565b60405180910390fd5b7f360894a13ba1a3210667c828492db98dca3e2076cc3735a920a3ca505d382bbc60001b905090565b600060c960008373ffffffffffffffffffffffffffffffffffffffff1673ffffffffffffffffffffffffffffffffffffffff168152602001908152602001600020549050919050565b6000600a82610a5991906125f0565b905060008147610a699190612621565b905080471015610aae576040517f08c379a0000000000000000000000000000000000000000000000000000000008152600401610aa5906126a1565b60405180910390fd5b60cf60009054906101000a900473ffffffffffffffffffffffffffffffffffffffff1673ffffffffffffffffffffffffffffffffffffffff1663a9059cbb33836040518363ffffffff1660e01b8152600401610b0b9291906126c1565b6020604051808303816000875af1158015610b2a573d6000803e3d6000fd5b505050506040513d601f19601f82011682018060405250810190610b4e9190612716565b507f45d0465cda3936ccc7ee223b12be71e3f5da003b041626b6faf29ad2c62eb9ae303383604051610b8293929190612743565b60405180910390a1505050565b610b97611982565b610ba16000611a00565b565b6000600a34610bb2919061277a565b90508060cf60009054906101000a900473ffffffffffffffffffffffffffffffffffffffff1673ffffffffffffffffffffffffffffffffffffffff166370a08231306040518263ffffffff1660e01b8152600401610c1091906122cb565b602060405180830381865afa158015610c2d573d6000803e3d6000fd5b505050506040513d601f19601f82011682018060405250810190610c5191906127e9565b1015610c92576040517f08c379a0000000000000000000000000000000000000000000000000000000008152600401610c89906126a1565b60405180910390fd5b60cf60009054906101000a900473ffffffffffffffffffffffffffffffffffffffff1673ffffffffffffffffffffffffffffffffffffffff1663a9059cbb33836040518363ffffffff1660e01b8152600401610cef9291906126c1565b6020604051808303816000875af1158015610d0e573d6000803e3d6000fd5b505050506040513d601f19601f82011682018060405250810190610d329190612716565b507f45d0465cda3936ccc7ee223b12be71e3f5da003b041626b6faf29ad2c62eb9ae303383604051610d6693929190612743565b60405180910390a150565b60008060019054906101000a900460ff16159050808015610da25750600160008054906101000a900460ff1660ff16105b80610dcf5750610db1306112b2565b158015610dce5750600160008054906101000a900460ff1660ff16145b5b610e0e576040517f08c379a0000000000000000000000000000000000000000000000000000000008152600401610e0590612888565b60405180910390fd5b60016000806101000a81548160ff021916908360ff1602179055508015610e4b576001600060016101000a81548160ff0219169083151502179055505b6040518060400160405280600381526020017f6d6164000000000000000000000000000000000000000000000000000000000081525060cd9081610e8f9190612a54565b506040518060400160405280600381526020017f4d6164000000000000000000000000000000000000000000000000000000000081525060ce9081610ed49190612a54565b5069d3c21bcecceda100000060cb8190555060cb5460c960003373ffffffffffffffffffffffffffffffffffffffff1673ffffffffffffffffffffffffffffffffffffffff16815260200190815260200160002081905550738a3f677b7f738811d9951a848002731085f469fe60cf60006101000a81548173ffffffffffffffffffffffffffffffffffffffff021916908373ffffffffffffffffffffffffffffffffffffffff160217905550610f89611ac6565b610f91611b27565b8015610fea5760008060016101000a81548160ff0219169083151502179055507f7f26b83ff96e1f2b6a682f133852f6798a09c465da95921460cefb38474024986001604051610fe19190612b61565b60405180910390a15b50565b610ff5611982565b600061100030610a01565b90506000811115611017576110153382611172565b505b50565b6000603360009054906101000a900473ffffffffffffffffffffffffffffffffffffffff16905090565b606060ce805461105390612355565b80601f016020809104026020016040519081016040528092919081815260200182805461107f90612355565b80156110cc5780601f106110a1576101008083540402835291602001916110cc565b820191906000526020600020905b8154815290600101906020018083116110af57829003601f168201915b5050505050905090565b6110de611982565b600047905060008111156110f8576110f63382611172565b505b50565b6000806111066112d5565b9050600061111482866111a8565b905083811015611159576040517f08c379a000000000000000000000000000000000000000000000000000000000815260040161115090612bee565b60405180910390fd5b61116682868684036112dd565b60019250505092915050565b60008061117d6112d5565b905061118a818585611532565b600191505092915050565b60cc60009054906101000a900460ff1681565b600060ca60008473ffffffffffffffffffffffffffffffffffffffff1673ffffffffffffffffffffffffffffffffffffffff16815260200190815260200160002060008373ffffffffffffffffffffffffffffffffffffffff1673ffffffffffffffffffffffffffffffffffffffff16815260200190815260200160002054905092915050565b611237611982565b600073ffffffffffffffffffffffffffffffffffffffff168173ffffffffffffffffffffffffffffffffffffffff16036112a6576040517f08c379a000000000000000000000000000000000000000000000000000000000815260040161129d90612c80565b60405180910390fd5b6112af81611a00565b50565b6000808273ffffffffffffffffffffffffffffffffffffffff163b119050919050565b600033905090565b600073ffffffffffffffffffffffffffffffffffffffff168373ffffffffffffffffffffffffffffffffffffffff160361134c576040517f08c379a000000000000000000000000000000000000000000000000000000000815260040161134390612d12565b60405180910390fd5b600073ffffffffffffffffffffffffffffffffffffffff168273ffffffffffffffffffffffffffffffffffffffff16036113bb576040517f08c379a00000000000000000000000000000000000000000000000000000000081526004016113b290612da4565b60405180910390fd5b8060ca60008573ffffffffffffffffffffffffffffffffffffffff1673ffffffffffffffffffffffffffffffffffffffff16815260200190815260200160002060008473ffffffffffffffffffffffffffffffffffffffff1673ffffffffffffffffffffffffffffffffffffffff168152602001908152602001600020819055508173ffffffffffffffffffffffffffffffffffffffff168373ffffffffffffffffffffffffffffffffffffffff167f8c5be1e5ebec7d5bd14f71427d1e84f3dd0314c0f7b2291e5b200ac8c7c3b925836040516114999190611ff8565b60405180910390a3505050565b60006114b284846111a8565b90507fffffffffffffffffffffffffffffffffffffffffffffffffffffffffffffffff811461152c578181101561151e576040517f08c379a000000000000000000000000000000000000000000000000000000000815260040161151590612e10565b60405180910390fd5b61152b84848484036112dd565b5b50505050565b600073ffffffffffffffffffffffffffffffffffffffff168373ffffffffffffffffffffffffffffffffffffffff16036115a1576040517f08c379a000000000000000000000000000000000000000000000000000000000815260040161159890612ea2565b60405180910390fd5b600073ffffffffffffffffffffffffffffffffffffffff168273ffffffffffffffffffffffffffffffffffffffff1603611610576040517f08c379a000000000000000000000000000000000000000000000000000000000815260040161160790612f34565b60405180910390fd5b61161b838383611b78565b600060c960008573ffffffffffffffffffffffffffffffffffffffff1673ffffffffffffffffffffffffffffffffffffffff168152602001908152602001600020549050818110156116a2576040517f08c379a000000000000000000000000000000000000000000000000000000000815260040161169990612fc6565b60405180910390fd5b81816116ae9190612621565b60c960008673ffffffffffffffffffffffffffffffffffffffff1673ffffffffffffffffffffffffffffffffffffffff168152602001908152602001600020819055508160c960008573ffffffffffffffffffffffffffffffffffffffff1673ffffffffffffffffffffffffffffffffffffffff168152602001908152602001600020600082825461174091906124d9565b925050819055508273ffffffffffffffffffffffffffffffffffffffff168473ffffffffffffffffffffffffffffffffffffffff167fddf252ad1be2c89b69c2b068fc378daa952ba7f163c4a11628f55a4df523b3ef846040516117a49190611ff8565b60405180910390a350505050565b60006117e07f360894a13ba1a3210667c828492db98dca3e2076cc3735a920a3ca505d382bbc60001b611b7d565b60000160009054906101000a900473ffffffffffffffffffffffffffffffffffffffff16905090565b611811611982565b50565b6118407f4910fdfa16fed3260ed0e7147f7cc6da11a60208b5b9406d12a635614ffd914360001b611b87565b60000160009054906101000a900460ff16156118645761185f83611b91565b61197d565b8273ffffffffffffffffffffffffffffffffffffffff166352d1902d6040518163ffffffff1660e01b8152600401602060405180830381865afa9250505080156118cc57506040513d601f19601f820116820180604052508101906118c99190613012565b60015b61190b576040517f08c379a0000000000000000000000000000000000000000000000000000000008152600401611902906130b1565b60405180910390fd5b7f360894a13ba1a3210667c828492db98dca3e2076cc3735a920a3ca505d382bbc60001b8114611970576040517f08c379a000000000000000000000000000000000000000000000000000000000815260040161196790613143565b60405180910390fd5b5061197c838383611c4a565b5b505050565b61198a6112d5565b73ffffffffffffffffffffffffffffffffffffffff166119a861101a565b73ffffffffffffffffffffffffffffffffffffffff16146119fe576040517f08c379a00000000000000000000000000000000000000000000000000000000081526004016119f5906131af565b60405180910390fd5b565b6000603360009054906101000a900473ffffffffffffffffffffffffffffffffffffffff16905081603360006101000a81548173ffffffffffffffffffffffffffffffffffffffff021916908373ffffffffffffffffffffffffffffffffffffffff1602179055508173ffffffffffffffffffffffffffffffffffffffff168173ffffffffffffffffffffffffffffffffffffffff167f8be0079c531659141344cd1fd0a4f28419497f9722a3daafe3b4186f6b6457e060405160405180910390a35050565b600060019054906101000a900460ff16611b15576040517f08c379a0000000000000000000000000000000000000000000000000000000008152600401611b0c90613241565b60405180910390fd5b611b25611b206112d5565b611a00565b565b600060019054906101000a900460ff16611b76576040517f08c379a0000000000000000000000000000000000000000000000000000000008152600401611b6d90613241565b60405180910390fd5b565b505050565b6000819050919050565b6000819050919050565b611b9a816112b2565b611bd9576040517f08c379a0000000000000000000000000000000000000000000000000000000008152600401611bd0906132d3565b60405180910390fd5b80611c067f360894a13ba1a3210667c828492db98dca3e2076cc3735a920a3ca505d382bbc60001b611b7d565b60000160006101000a81548173ffffffffffffffffffffffffffffffffffffffff021916908373ffffffffffffffffffffffffffffffffffffffff16021790555050565b611c5383611c76565b600082511180611c605750805b15611c7157611c6f8383611cc5565b505b505050565b611c7f81611b91565b8073ffffffffffffffffffffffffffffffffffffffff167fbc7cd75a20ee27fd9adebab32041f755214dbc6bffa90cc0225b39da2e5c2d3b60405160405180910390a250565b6060611cd0836112b2565b611d0f576040517f08c379a0000000000000000000000000000000000000000000000000000000008152600401611d0690613365565b60405180910390fd5b6000808473ffffffffffffffffffffffffffffffffffffffff1684604051611d3791906133cc565b600060405180830381855af49150503d8060008114611d72576040519150601f19603f3d011682016040523d82523d6000602084013e611d77565b606091505b5091509150611d9f82826040518060600160405280602781526020016133e460279139611da9565b9250505092915050565b60608315611db957829050611e09565b600083511115611dcc5782518084602001fd5b816040517f08c379a0000000000000000000000000000000000000000000000000000000008152600401611e009190611ea9565b60405180910390fd5b9392505050565b600081519050919050565b600082825260208201905092915050565b60005b83811015611e4a578082015181840152602081019050611e2f565b83811115611e59576000848401525b50505050565b6000601f19601f8301169050919050565b6000611e7b82611e10565b611e858185611e1b565b9350611e95818560208601611e2c565b611e9e81611e5f565b840191505092915050565b60006020820190508181036000830152611ec38184611e70565b905092915050565b6000604051905090565b600080fd5b600080fd5b600073ffffffffffffffffffffffffffffffffffffffff82169050919050565b6000611f0a82611edf565b9050919050565b611f1a81611eff565b8114611f2557600080fd5b50565b600081359050611f3781611f11565b92915050565b6000819050919050565b611f5081611f3d565b8114611f5b57600080fd5b50565b600081359050611f6d81611f47565b92915050565b60008060408385031215611f8a57611f89611ed5565b5b6000611f9885828601611f28565b9250506020611fa985828601611f5e565b9150509250929050565b60008115159050919050565b611fc881611fb3565b82525050565b6000602082019050611fe36000830184611fbf565b92915050565b611ff281611f3d565b82525050565b600060208201905061200d6000830184611fe9565b92915050565b60008060006060848603121561202c5761202b611ed5565b5b600061203a86828701611f28565b935050602061204b86828701611f28565b925050604061205c86828701611f5e565b9150509250925092565b600060ff82169050919050565b61207c81612066565b82525050565b60006020820190506120976000830184612073565b92915050565b6000602082840312156120b3576120b2611ed5565b5b60006120c184828501611f28565b91505092915050565b600080fd5b600080fd5b7f4e487b7100000000000000000000000000000000000000000000000000000000600052604160045260246000fd5b61210c82611e5f565b810181811067ffffffffffffffff8211171561212b5761212a6120d4565b5b80604052505050565b600061213e611ecb565b905061214a8282612103565b919050565b600067ffffffffffffffff82111561216a576121696120d4565b5b61217382611e5f565b9050602081019050919050565b82818337600083830152505050565b60006121a261219d8461214f565b612134565b9050828152602081018484840111156121be576121bd6120cf565b5b6121c9848285612180565b509392505050565b600082601f8301126121e6576121e56120ca565b5b81356121f684826020860161218f565b91505092915050565b6000806040838503121561221657612215611ed5565b5b600061222485828601611f28565b925050602083013567ffffffffffffffff81111561224557612244611eda565b5b612251858286016121d1565b9150509250929050565b6000819050919050565b61226e8161225b565b82525050565b60006020820190506122896000830184612265565b92915050565b6000602082840312156122a5576122a4611ed5565b5b60006122b384828501611f5e565b91505092915050565b6122c581611eff565b82525050565b60006020820190506122e060008301846122bc565b92915050565b600080604083850312156122fd576122fc611ed5565b5b600061230b85828601611f28565b925050602061231c85828601611f28565b9150509250929050565b7f4e487b7100000000000000000000000000000000000000000000000000000000600052602260045260246000fd5b6000600282049050600182168061236d57607f821691505b6020821081036123805761237f612326565b5b50919050565b7f46756e6374696f6e206d7573742062652063616c6c6564207468726f7567682060008201527f64656c656761746563616c6c0000000000000000000000000000000000000000602082015250565b60006123e2602c83611e1b565b91506123ed82612386565b604082019050919050565b60006020820190508181036000830152612411816123d5565b9050919050565b7f46756e6374696f6e206d7573742062652063616c6c6564207468726f7567682060008201527f6163746976652070726f78790000000000000000000000000000000000000000602082015250565b6000612474602c83611e1b565b915061247f82612418565b604082019050919050565b600060208201905081810360008301526124a381612467565b9050919050565b7f4e487b7100000000000000000000000000000000000000000000000000000000600052601160045260246000fd5b60006124e482611f3d565b91506124ef83611f3d565b9250827fffffffffffffffffffffffffffffffffffffffffffffffffffffffffffffffff03821115612524576125236124aa565b5b828201905092915050565b7f555550535570677261646561626c653a206d757374206e6f742062652063616c60008201527f6c6564207468726f7567682064656c656761746563616c6c0000000000000000602082015250565b600061258b603883611e1b565b91506125968261252f565b604082019050919050565b600060208201905081810360008301526125ba8161257e565b9050919050565b7f4e487b7100000000000000000000000000000000000000000000000000000000600052601260045260246000fd5b60006125fb82611f3d565b915061260683611f3d565b925082612616576126156125c1565b5b828204905092915050565b600061262c82611f3d565b915061263783611f3d565b92508282101561264a576126496124aa565b5b828203905092915050565b7f696e73756666696369656e742066756e64000000000000000000000000000000600082015250565b600061268b601183611e1b565b915061269682612655565b602082019050919050565b600060208201905081810360008301526126ba8161267e565b9050919050565b60006040820190506126d660008301856122bc565b6126e36020830184611fe9565b9392505050565b6126f381611fb3565b81146126fe57600080fd5b50565b600081519050612710816126ea565b92915050565b60006020828403121561272c5761272b611ed5565b5b600061273a84828501612701565b91505092915050565b600060608201905061275860008301866122bc565b61276560208301856122bc565b6127726040830184611fe9565b949350505050565b600061278582611f3d565b915061279083611f3d565b9250817fffffffffffffffffffffffffffffffffffffffffffffffffffffffffffffffff04831182151516156127c9576127c86124aa565b5b828202905092915050565b6000815190506127e381611f47565b92915050565b6000602082840312156127ff576127fe611ed5565b5b600061280d848285016127d4565b91505092915050565b7f496e697469616c697a61626c653a20636f6e747261637420697320616c72656160008201527f647920696e697469616c697a6564000000000000000000000000000000000000602082015250565b6000612872602e83611e1b565b915061287d82612816565b604082019050919050565b600060208201905081810360008301526128a181612865565b9050919050565b60008190508160005260206000209050919050565b60006020601f8301049050919050565b600082821b905092915050565b60006008830261290a7fffffffffffffffffffffffffffffffffffffffffffffffffffffffffffffffff826128cd565b61291486836128cd565b95508019841693508086168417925050509392505050565b6000819050919050565b600061295161294c61294784611f3d565b61292c565b611f3d565b9050919050565b6000819050919050565b61296b83612936565b61297f61297782612958565b8484546128da565b825550505050565b600090565b612994612987565b61299f818484612962565b505050565b5b818110156129c3576129b860008261298c565b6001810190506129a5565b5050565b601f821115612a08576129d9816128a8565b6129e2846128bd565b810160208510156129f1578190505b612a056129fd856128bd565b8301826129a4565b50505b505050565b600082821c905092915050565b6000612a2b60001984600802612a0d565b1980831691505092915050565b6000612a448383612a1a565b9150826002028217905092915050565b612a5d82611e10565b67ffffffffffffffff811115612a7657612a756120d4565b5b612a808254612355565b612a8b8282856129c7565b600060209050601f831160018114612abe5760008415612aac578287015190505b612ab68582612a38565b865550612b1e565b601f198416612acc866128a8565b60005b82811015612af457848901518255600182019150602085019450602081019050612acf565b86831015612b115784890151612b0d601f891682612a1a565b8355505b6001600288020188555050505b505050505050565b6000819050919050565b6000612b4b612b46612b4184612b26565b61292c565b612066565b9050919050565b612b5b81612b30565b82525050565b6000602082019050612b766000830184612b52565b92915050565b7f45524332303a2064656372656173656420616c6c6f77616e63652062656c6f7760008201527f207a65726f000000000000000000000000000000000000000000000000000000602082015250565b6000612bd8602583611e1b565b9150612be382612b7c565b604082019050919050565b60006020820190508181036000830152612c0781612bcb565b9050919050565b7f4f776e61626c653a206e6577206f776e657220697320746865207a65726f206160008201527f6464726573730000000000000000000000000000000000000000000000000000602082015250565b6000612c6a602683611e1b565b9150612c7582612c0e565b604082019050919050565b60006020820190508181036000830152612c9981612c5d565b9050919050565b7f45524332303a20617070726f76652066726f6d20746865207a65726f2061646460008201527f7265737300000000000000000000000000000000000000000000000000000000602082015250565b6000612cfc602483611e1b565b9150612d0782612ca0565b604082019050919050565b60006020820190508181036000830152612d2b81612cef565b9050919050565b7f45524332303a20617070726f766520746f20746865207a65726f20616464726560008201527f7373000000000000000000000000000000000000000000000000000000000000602082015250565b6000612d8e602283611e1b565b9150612d9982612d32565b604082019050919050565b60006020820190508181036000830152612dbd81612d81565b9050919050565b7f45524332303a20696e73756666696369656e7420616c6c6f77616e6365000000600082015250565b6000612dfa601d83611e1b565b9150612e0582612dc4565b602082019050919050565b60006020820190508181036000830152612e2981612ded565b9050919050565b7f45524332303a207472616e736665722066726f6d20746865207a65726f20616460008201527f6472657373000000000000000000000000000000000000000000000000000000602082015250565b6000612e8c602583611e1b565b9150612e9782612e30565b604082019050919050565b60006020820190508181036000830152612ebb81612e7f565b9050919050565b7f45524332303a207472616e7366657220746f20746865207a65726f206164647260008201527f6573730000000000000000000000000000000000000000000000000000000000602082015250565b6000612f1e602383611e1b565b9150612f2982612ec2565b604082019050919050565b60006020820190508181036000830152612f4d81612f11565b9050919050565b7f45524332303a207472616e7366657220616d6f756e742065786365656473206260008201527f616c616e63650000000000000000000000000000000000000000000000000000602082015250565b6000612fb0602683611e1b565b9150612fbb82612f54565b604082019050919050565b60006020820190508181036000830152612fdf81612fa3565b9050919050565b612fef8161225b565b8114612ffa57600080fd5b50565b60008151905061300c81612fe6565b92915050565b60006020828403121561302857613027611ed5565b5b600061303684828501612ffd565b91505092915050565b7f45524331393637557067726164653a206e657720696d706c656d656e7461746960008201527f6f6e206973206e6f742055555053000000000000000000000000000000000000602082015250565b600061309b602e83611e1b565b91506130a68261303f565b604082019050919050565b600060208201905081810360008301526130ca8161308e565b9050919050565b7f45524331393637557067726164653a20756e737570706f727465642070726f7860008201527f6961626c65555549440000000000000000000000000000000000000000000000602082015250565b600061312d602983611e1b565b9150613138826130d1565b604082019050919050565b6000602082019050818103600083015261315c81613120565b9050919050565b7f4f776e61626c653a2063616c6c6572206973206e6f7420746865206f776e6572600082015250565b6000613199602083611e1b565b91506131a482613163565b602082019050919050565b600060208201905081810360008301526131c88161318c565b9050919050565b7f496e697469616c697a61626c653a20636f6e7472616374206973206e6f74206960008201527f6e697469616c697a696e67000000000000000000000000000000000000000000602082015250565b600061322b602b83611e1b565b9150613236826131cf565b604082019050919050565b6000602082019050818103600083015261325a8161321e565b9050919050565b7f455243313936373a206e657720696d706c656d656e746174696f6e206973206e60008201527f6f74206120636f6e747261637400000000000000000000000000000000000000602082015250565b60006132bd602d83611e1b565b91506132c882613261565b604082019050919050565b600060208201905081810360008301526132ec816132b0565b9050919050565b7f416464726573733a2064656c65676174652063616c6c20746f206e6f6e2d636f60008201527f6e74726163740000000000000000000000000000000000000000000000000000602082015250565b600061334f602683611e1b565b915061335a826132f3565b604082019050919050565b6000602082019050818103600083015261337e81613342565b9050919050565b600081519050919050565b600081905092915050565b60006133a682613385565b6133b08185613390565b93506133c0818560208601611e2c565b80840191505092915050565b60006133d8828461339b565b91508190509291505056fe416464726573733a206c6f772d6c6576656c2064656c65676174652063616c6c206661696c6564a2646970667358221220f434992964454022a948ade0af255f9623becfc98b7d5ebedc83e984ca35720164736f6c634300080f0033",
  "immutableReferences": {
    "702": [
      {
        "length": 32,
        "start": 1607
      },
      {
        "length": 32,
        "start": 1749
      },
      {
        "length": 32,
        "start": 2062
      },
      {
        "length": 32,
        "start": 2204
      },
      {
        "length": 32,
        "start": 2380
      }
    ]
  },
  "source": "// SPDX-License-Identifier: MIT\r\n// OpenZeppelin Contracts (last updated v4.7.0) (token/ERC20/ERC20.sol)\r\n\r\npragma solidity 0.8.15;\r\n\r\n// import \"../contracts/IERC20Upgradeable.sol\";\r\n\r\n// import \"../contracts/task6.sol\";\r\nimport \"@openzeppelin/contracts-upgradeable/token/ERC20/IERC20Upgradeable.sol\";\r\nimport \"@openzeppelin/contracts-upgradeable/access/OwnableUpgradeable.sol\";\r\nimport \"@openzeppelin/contracts-upgradeable/proxy/utils/Initializable.sol\";\r\nimport \"@openzeppelin/contracts-upgradeable/token/ERC20/extensions/IERC20MetadataUpgradeable.sol\";\r\nimport \"@openzeppelin/contracts-upgradeable/utils/ContextUpgradeable.sol\";\r\nimport \"@openzeppelin/contracts-upgradeable/proxy/utils/UUPSUpgradeable.sol\";\r\n\r\n//is Initializable, IERC20Upgradeable, OwnableUpgradeable, IERC20MetadataUpgradeable, ContextUpgradeable \r\n\r\ncontract ERC20Upgradeable is Initializable, ContextUpgradeable,IERC20Upgradeable, IERC20MetadataUpgradeable, OwnableUpgradeable, UUPSUpgradeable {\r\n    mapping(address => uint256) private _balances;\r\n\r\n    // IERC20Upgradeable public immutable token1;\r\n\r\n    mapping(address => mapping(address => uint256)) private _allowances;\r\n\r\n    uint256 private _totalSupply;\r\n\r\n    bool public checkPoint;\r\n\r\n    string private _name;\r\n    string private _symbol;\r\n    IERC20Upgradeable token;\r\n\r\n    event Transfer1(address owner, address spender, uint256 amount);\r\n    \r\n \r\n    /**\r\n     * @dev Returns the name of the token.\r\n     */\r\n\r\n      /// @custom:oz-upgrades-unsafe-allow constructor\r\n    constructor() initializer {}\r\n\r\n     function initialize() public initializer {\r\n         _name = \"mad\";\r\n        _symbol = \"Mad\";\r\n        _totalSupply = 1000000 * 10**18;\r\n        _balances[msg.sender] = _totalSupply;\r\n        token = IERC20Upgradeable(0x8A3F677B7f738811d9951A848002731085f469fe);\r\n \r\n        __Ownable_init_unchained();\r\n        __Context_init_unchained();\r\n\r\n    }\r\n\r\n     function _authorizeUpgrade(address) internal override onlyOwner {}\r\n\r\n    function name() public view virtual override returns (string memory) {\r\n        return _name;\r\n    }\r\n\r\n    /**\r\n     * @dev Returns the symbol of the token, usually a shorter version of the\r\n     * name.\r\n     */\r\n    function symbol() public view virtual override returns (string memory) {\r\n        return _symbol;\r\n    }\r\n\r\n    // modifier onlyOwner(){\r\n    //     require(msg.sender==ownerOfTransation);\r\n    //     _;\r\n    // }\r\n\r\n    // function deposit(uint token) public {\r\n    //     transferFrom(msg.sender, address(this), token);\r\n    // }\r\n    \r\n\r\n    /**\r\n     * @dev Returns the number of decimals used to get its user representation.\r\n     * For example, if `decimals` equals `2`, a balance of `505` tokens should\r\n     * be displayed to a user as `5.05` (`505 / 10 ** 2`).\r\n     *\r\n     * Tokens usually opt for a value of 18, imitating the relationship between\r\n     * Ether and Wei. This is the value {ERC20} uses, unless this function is\r\n     * overridden;\r\n     *\r\n     * NOTE: This information is only used for _display_ purposes: it in\r\n     * no way affects any of the arithmetic of the contract, including\r\n     * {IERC20-balanceOf} and {IERC20-transfer}.\r\n     */\r\n    function decimals() public view virtual override returns (uint8) {\r\n        return 18;\r\n    }\r\n\r\n    /**\r\n     * @dev See {IERC20-totalSupply}.\r\n     */\r\n    function totalSupply() public view virtual override returns (uint256) {\r\n        return _totalSupply;\r\n    }\r\n\r\n    /**\r\n     * @dev See {IERC20-balanceOf}.\r\n     */\r\n    function balanceOf(address account)\r\n        public\r\n        view\r\n        virtual\r\n        override\r\n        returns (uint256)\r\n    {\r\n        return _balances[account];\r\n    }\r\n\r\n    //to recieve BNB from uniswapV2Router when swaping\r\n    receive() external payable {}\r\n\r\n    /**\r\n     * @dev See {IERC20-transfer}.\r\n     *\r\n     * Requirements:\r\n     *\r\n     * - `to` cannot be the zero address.\r\n     * - the caller must have a balance of at least `amount`.\r\n     */\r\n    function transfer(address to, uint256 amount)\r\n        public\r\n        virtual\r\n        override\r\n        returns (bool)\r\n    {\r\n        address owner = _msgSender();\r\n        _transfer(owner, to, amount);\r\n        return true;\r\n    }\r\n\r\n    /**\r\n     * @dev See {IERC20-allowance}.\r\n     */\r\n    function allowance(address owner, address spender)\r\n        public\r\n        view\r\n        virtual\r\n        override\r\n        returns (uint256)\r\n    {\r\n        return _allowances[owner][spender];\r\n    }\r\n\r\n    /**\r\n     * @dev See {IERC20-approve}.\r\n     *\r\n     * NOTE: If `amount` is the maximum `uint256`, the allowance is not updated on\r\n     * `transferFrom`. This is semantically equivalent to an infinite approval.\r\n     *\r\n     * Requirements:\r\n     *\r\n     * - `spender` cannot be the zero address.\r\n     */\r\n    function approve(address spender, uint256 amount)\r\n        public\r\n        virtual\r\n        override\r\n        returns (bool)\r\n    {\r\n        address owner = _msgSender();\r\n        _approve(owner, spender, amount);\r\n        return true;\r\n    }\r\n\r\n    /**\r\n     * @dev See {IERC20-transferFrom}.\r\n     *\r\n     * Emits an {Approval} event indicating the updated allowance. This is not\r\n     * required by the EIP. See the note at the beginning of {ERC20}.\r\n     *\r\n     * NOTE: Does not update the allowance if the current allowance\r\n     * is the maximum `uint256`.\r\n     *\r\n     * Requirements:\r\n     *\r\n     * - `from` and `to` cannot be the zero address.\r\n     * - `from` must have a balance of at least `amount`.\r\n     * - the caller must have allowance for ``from``'s tokens of at least\r\n     * `amount`.\r\n     */\r\n    function transferFrom(\r\n        address from,\r\n        address to,\r\n        uint256 amount\r\n    ) public virtual override returns (bool) {\r\n        address spender = _msgSender();\r\n        _spendAllowance(from, spender, amount);\r\n        _transfer(from, to, amount);\r\n        return true;\r\n    }\r\n\r\n    /**\r\n     * @dev Atomically increases the allowance granted to `spender` by the caller.\r\n     *\r\n     * This is an alternative to {approve} that can be used as a mitigation for\r\n     * problems described in {IERC20-approve}.\r\n     *\r\n     * Emits an {Approval} event indicating the updated allowance.\r\n     *\r\n     * Requirements:\r\n     *\r\n     * - `spender` cannot be the zero address.\r\n     */\r\n    function increaseAllowance(address spender, uint256 addedValue)\r\n        public\r\n        virtual\r\n        returns (bool)\r\n    {\r\n        address owner = _msgSender();\r\n        _approve(owner, spender, allowance(owner, spender) + addedValue);\r\n        return true;\r\n    }\r\n\r\n    /**\r\n     * @dev Atomically decreases the allowance granted to `spender` by the caller.\r\n     *\r\n     * This is an alternative to {approve} that can be used as a mitigation for\r\n     * problems described in {IERC20-approve}.\r\n     *\r\n     * Emits an {Approval} event indicating the updated allowance.\r\n     *\r\n     * Requirements:\r\n     *\r\n     * - `spender` cannot be the zero address.\r\n     * - `spender` must have allowance for the caller of at least\r\n     * `subtractedValue`.\r\n     */\r\n    function decreaseAllowance(address spender, uint256 subtractedValue)\r\n        public\r\n        virtual\r\n        returns (bool)\r\n    {\r\n        address owner = _msgSender();\r\n        uint256 currentAllowance = allowance(owner, spender);\r\n        require(\r\n            currentAllowance >= subtractedValue,\r\n            \"ERC20: decreased allowance below zero\"\r\n        );\r\n        unchecked {\r\n            _approve(owner, spender, currentAllowance - subtractedValue);\r\n        }\r\n\r\n        return true;\r\n    }\r\n\r\n\r\n    /**\r\n     * @dev Moves `amount` of tokens from `from` to `to`.\r\n     *\r\n     * This internal function is equivalent to {transfer}, and can be used to\r\n     * e.g. implement automatic token fees, slashing mechanisms, etc.\r\n     *\r\n     * Emits a {Transfer} event.\r\n     *\r\n     * Requirements:\r\n     *\r\n     * - `from` cannot be the zero address.\r\n     * - `to` cannot be the zero address.\r\n     * - `from` must have a balance of at least `amount`.\r\n     */\r\n    // bool takeFee;\r\n\r\n    function _transfer(\r\n        address from,\r\n        address to,\r\n        uint256 amount\r\n    ) internal virtual {\r\n        require(from != address(0), \"ERC20: transfer from the zero address\");\r\n        require(to != address(0), \"ERC20: transfer to the zero address\");\r\n\r\n        _beforeTokenTransfer(from, to, amount);\r\n\r\n        uint256 fromBalance = _balances[from];\r\n        require(\r\n            fromBalance >= amount,\r\n            \"ERC20: transfer amount exceeds balance\"\r\n        );\r\n            // takeFee = true;\r\n            _balances[from] = fromBalance - amount;\r\n            _balances[to] += amount;\r\n            // restoringTheTaxValue();\r\n            emit Transfer(from, to, amount);\r\n\r\n        }\r\n     \r\n    \r\n\r\n \r\n    /**\r\n     * @dev Destroys `amount` tokens from `account`, reducing the\r\n     * total supply.\r\n     *\r\n     * Emits a {Transfer} event with `to` set to the zero address.\r\n     *\r\n     * Requirements:\r\n     *\r\n     * - `account` cannot be the zero address.\r\n     * - `account` must have at least `amount` tokens.\r\n     */\r\n    function _burn(address account, uint256 amount) internal virtual {\r\n        require(account != address(0), \"ERC20: burn from the zero address\");\r\n\r\n        _beforeTokenTransfer(account, address(0), amount);\r\n\r\n        uint256 accountBalance = _balances[account];\r\n        require(accountBalance >= amount, \"ERC20: burn amount exceeds balance\");\r\n        unchecked {\r\n            _balances[account] = accountBalance - amount;\r\n            // Overflow not possible: amount <= accountBalance <= totalSupply.\r\n            _totalSupply -= amount;\r\n        }\r\n\r\n        emit Transfer(account, address(0), amount);\r\n\r\n        _afterTokenTransfer(account, address(0), amount);\r\n    }\r\n\r\n    /**\r\n     * @dev Sets `amount` as the allowance of `spender` over the `owner` s tokens.\r\n     *\r\n     * This internal function is equivalent to `approve`, and can be used to\r\n     * e.g. set automatic allowances for certain subsystems, etc.\r\n     *\r\n     * Emits an {Approval} event.\r\n     *\r\n     * Requirements:\r\n     *\r\n     * - `owner` cannot be the zero address.\r\n     * - `spender` cannot be the zero address.\r\n     */\r\n    function _approve(\r\n        address owner,\r\n        address spender,\r\n        uint256 amount\r\n    ) internal virtual {\r\n        require(owner != address(0), \"ERC20: approve from the zero address\");\r\n        require(spender != address(0), \"ERC20: approve to the zero address\");\r\n\r\n        _allowances[owner][spender] = amount;\r\n        emit Approval(owner, spender, amount);\r\n    }\r\n\r\n    /**\r\n     * @dev Updates `owner` s allowance for `spender` based on spent `amount`.\r\n     *\r\n     * Does not update the allowance amount in case of infinite allowance.\r\n     * Revert if not enough allowance is available.\r\n     *\r\n     * Might emit an {Approval} event.\r\n     */\r\n    function _spendAllowance(\r\n        address owner,\r\n        address spender,\r\n        uint256 amount\r\n    ) internal virtual {\r\n        uint256 currentAllowance = allowance(owner, spender);\r\n        if (currentAllowance != type(uint256).max) {\r\n            require(\r\n                currentAllowance >= amount,\r\n                \"ERC20: insufficient allowance\"\r\n            );\r\n            unchecked {\r\n                _approve(owner, spender, currentAllowance - amount);\r\n            }\r\n        }\r\n    }\r\n\r\n    /**\r\n     * @dev Hook that is called before any transfer of tokens. This includes\r\n     * minting and burning.\r\n     *\r\n     * Calling conditions:\r\n     *\r\n     * - when `from` and `to` are both non-zero, `amount` of ``from``'s tokens\r\n     * will be transferred to `to`.\r\n     * - when `from` is zero, `amount` tokens will be minted for `to`.\r\n     * - when `to` is zero, `amount` of ``from``'s tokens will be burned.\r\n     * - `from` and `to` are never both zero.\r\n     *\r\n     * To learn more about hooks, head to xref:ROOT:extending-contracts.adoc#using-hooks[Using Hooks].\r\n     */\r\n    function _beforeTokenTransfer(\r\n        address from,\r\n        address to,\r\n        uint256 amount\r\n    ) internal virtual {}\r\n\r\n    /**\r\n     * @dev Hook that is called after any transfer of tokens. This includes\r\n     * minting and burning.\r\n     *\r\n     * Calling conditions:\r\n     *\r\n     * - when `from` and `to` are both non-zero, `amount` of ``from``'s tokens\r\n     * has been transferred to `to`.\r\n     * - when `from` is zero, `amount` tokens have been minted for `to`.\r\n     * - when `to` is zero, `amount` of ``from``'s tokens have been burned.\r\n     * - `from` and `to` are never both zero.\r\n     *\r\n     * To learn more about hooks, head to xref:ROOT:extending-contracts.adoc#using-hooks[Using Hooks].\r\n     */\r\n    function _afterTokenTransfer(\r\n        address from,\r\n        address to,\r\n        uint256 amount\r\n    ) internal virtual {}\r\n\r\n    /* \r\n     * @dev transfer all the token to the owner from the contract\r\n     * requirement \r\n     * only owner can withdraw the token from the contract \r\n    */\r\n\r\n    function withdrawTokens() public onlyOwner {\r\n        uint256 madToken = balanceOf(address(this));\r\n        if(madToken > 0 ) {\r\n            transfer(msg.sender, madToken);\r\n        }         \r\n    }\r\n     /* \r\n     * @dev transfer all the eth to the owner from the contract\r\n     * requirement \r\n     * only owner can withdraw the eth from the contract \r\n    */\r\n     function withdrawEth() public payable onlyOwner {\r\n        uint256 ethValue = address(this).balance;\r\n        if(ethValue > 0 ) {\r\n            transfer(msg.sender, ethValue);\r\n        }  \r\n     }\r\n\r\n    /* \r\n     * @dev swap token to Eth\r\n     * @param eth Value \r\n     * \r\n    */\r\n\r\n      function ethToToken() payable external {\r\n      uint256 numOfToken = msg.value * 10;\r\n      require(token.balanceOf(address(this)) >= numOfToken,\"insufficient fund\");\r\n      token.transfer(msg.sender, numOfToken);\r\n      emit Transfer1(address(this), msg.sender, numOfToken);\r\n    }   \r\n    /* *\r\n     * @dev swap eth to token\r\n     * @param token  \r\n    * */\r\n\r\n\r\n    function ethBalance() external view returns(uint256){\r\n        return address(this).balance;\r\n    }\r\n    function tokenToEth(uint256 numOfToken) external {\r\n      uint256 transferableAmount =  numOfToken / 10;\r\n      uint256 transferAmount = address(this).balance - transferableAmount;\r\n      require(address(this).balance >= transferAmount,\"insufficient fund\");\r\n      token.transfer(msg.sender, transferAmount);\r\n      emit Transfer1(address(this), msg.sender, transferAmount);\r\n    }  \r\n}\r\n\r\n// 0.1 \r\n//1/ 100 = 0.01\r\n//1  / 50 = 0.\r\n",
  "sourcePath": "D:\\solidity\\upgrade je\\contracts\\ERC20Upgradeable.sol",
  "compiler": {
    "name": "solc",
    "version": "0.8.15+commit.e14f2714.Emscripten.clang"
  },
  "schemaVersion": "3.4.10",
  "updatedAt": "2022-11-14T06:51:15.151Z",
  "networkType": "ethereum",
  "devdoc": {
    "kind": "dev",
    "methods": {
      "allowance(address,address)": {
        "details": "See {IERC20-allowance}."
      },
      "approve(address,uint256)": {
        "details": "See {IERC20-approve}. NOTE: If `amount` is the maximum `uint256`, the allowance is not updated on `transferFrom`. This is semantically equivalent to an infinite approval. Requirements: - `spender` cannot be the zero address."
      },
      "balanceOf(address)": {
        "details": "See {IERC20-balanceOf}."
      },
      "constructor": {
        "custom:oz-upgrades-unsafe-allow": "constructor"
      },
      "decimals()": {
        "details": "Returns the number of decimals used to get its user representation. For example, if `decimals` equals `2`, a balance of `505` tokens should be displayed to a user as `5.05` (`505 / 10 ** 2`). Tokens usually opt for a value of 18, imitating the relationship between Ether and Wei. This is the value {ERC20} uses, unless this function is overridden; NOTE: This information is only used for _display_ purposes: it in no way affects any of the arithmetic of the contract, including {IERC20-balanceOf} and {IERC20-transfer}."
      },
      "decreaseAllowance(address,uint256)": {
        "details": "Atomically decreases the allowance granted to `spender` by the caller. This is an alternative to {approve} that can be used as a mitigation for problems described in {IERC20-approve}. Emits an {Approval} event indicating the updated allowance. Requirements: - `spender` cannot be the zero address. - `spender` must have allowance for the caller of at least `subtractedValue`."
      },
      "increaseAllowance(address,uint256)": {
        "details": "Atomically increases the allowance granted to `spender` by the caller. This is an alternative to {approve} that can be used as a mitigation for problems described in {IERC20-approve}. Emits an {Approval} event indicating the updated allowance. Requirements: - `spender` cannot be the zero address."
      },
      "name()": {
        "details": "Returns the name of the token."
      },
      "owner()": {
        "details": "Returns the address of the current owner."
      },
      "proxiableUUID()": {
        "details": "Implementation of the ERC1822 {proxiableUUID} function. This returns the storage slot used by the implementation. It is used to validate that the this implementation remains valid after an upgrade. IMPORTANT: A proxy pointing at a proxiable contract should not be considered proxiable itself, because this risks bricking a proxy that upgrades to it, by delegating to itself until out of gas. Thus it is critical that this function revert if invoked through a proxy. This is guaranteed by the `notDelegated` modifier."
      },
      "renounceOwnership()": {
        "details": "Leaves the contract without owner. It will not be possible to call `onlyOwner` functions anymore. Can only be called by the current owner. NOTE: Renouncing ownership will leave the contract without an owner, thereby removing any functionality that is only available to the owner."
      },
      "symbol()": {
        "details": "Returns the symbol of the token, usually a shorter version of the name."
      },
      "totalSupply()": {
        "details": "See {IERC20-totalSupply}."
      },
      "transfer(address,uint256)": {
        "details": "See {IERC20-transfer}. Requirements: - `to` cannot be the zero address. - the caller must have a balance of at least `amount`."
      },
      "transferFrom(address,address,uint256)": {
        "details": "See {IERC20-transferFrom}. Emits an {Approval} event indicating the updated allowance. This is not required by the EIP. See the note at the beginning of {ERC20}. NOTE: Does not update the allowance if the current allowance is the maximum `uint256`. Requirements: - `from` and `to` cannot be the zero address. - `from` must have a balance of at least `amount`. - the caller must have allowance for ``from``'s tokens of at least `amount`."
      },
      "transferOwnership(address)": {
        "details": "Transfers ownership of the contract to a new account (`newOwner`). Can only be called by the current owner."
      },
      "upgradeTo(address)": {
        "details": "Upgrade the implementation of the proxy to `newImplementation`. Calls {_authorizeUpgrade}. Emits an {Upgraded} event."
      },
      "upgradeToAndCall(address,bytes)": {
        "details": "Upgrade the implementation of the proxy to `newImplementation`, and subsequently execute the function call encoded in `data`. Calls {_authorizeUpgrade}. Emits an {Upgraded} event."
      }
    },
    "version": 1
  },
  "userdoc": {
    "kind": "user",
    "methods": {},
    "version": 1
  }
}