{
  "contractName": "FactoryToken",
  "abi": [
    {
      "inputs": [
        {
          "internalType": "address",
          "name": "_implementation",
          "type": "address"
        }
      ],
      "stateMutability": "nonpayable",
      "type": "constructor"
    },
    {
      "anonymous": false,
      "inputs": [
        {
          "indexed": false,
          "internalType": "address",
          "name": "token",
          "type": "address"
        },
        {
          "indexed": false,
          "internalType": "address",
          "name": "sender",
          "type": "address"
        }
      ],
      "name": "CreatedERC20",
      "type": "event"
    },
    {
      "inputs": [],
      "name": "implementation",
      "outputs": [
        {
          "internalType": "address",
          "name": "",
          "type": "address"
        }
      ],
      "stateMutability": "view",
      "type": "function",
      "constant": true
    },
    {
      "inputs": [
        {
          "internalType": "string",
          "name": "tokenName",
          "type": "string"
        },
        {
          "internalType": "string",
          "name": "tokenSymbol",
          "type": "string"
        },
        {
          "internalType": "uint256",
          "name": "totalSupply",
          "type": "uint256"
        },
        {
          "internalType": "uint8",
          "name": "_decimals",
          "type": "uint8"
        }
      ],
      "name": "createToken",
      "outputs": [],
      "stateMutability": "nonpayable",
      "type": "function"
    }
  ],
  "bytecode": "0x608060405234801561001057600080fd5b506040516107c73803806107c7833981810160405281019061003291906100db565b806000806101000a81548173ffffffffffffffffffffffffffffffffffffffff021916908373ffffffffffffffffffffffffffffffffffffffff16021790555050610108565b600080fd5b600073ffffffffffffffffffffffffffffffffffffffff82169050919050565b60006100a88261007d565b9050919050565b6100b88161009d565b81146100c357600080fd5b50565b6000815190506100d5816100af565b92915050565b6000602082840312156100f1576100f0610078565b5b60006100ff848285016100c6565b91505092915050565b6106b0806101176000396000f3fe608060405234801561001057600080fd5b50600436106100365760003560e01c80635c60da1b1461003b578063b64acddd14610059575b600080fd5b610043610075565b6040516100509190610272565b60405180910390f35b610073600480360381019061006e9190610456565b610099565b005b60008054906101000a900473ffffffffffffffffffffffffffffffffffffffff1681565b60006100c460008054906101000a900473ffffffffffffffffffffffffffffffffffffffff16610177565b90508073ffffffffffffffffffffffffffffffffffffffff166341658f3c868686866040518563ffffffff1660e01b81526004016101059493929190610592565b600060405180830381600087803b15801561011f57600080fd5b505af1158015610133573d6000803e3d6000fd5b505050507f655cc6a4f815441bd1d596408fd0aa1836d4bb4ae007e4154a8ce4fc23cf488681336040516101689291906105e5565b60405180910390a15050505050565b6000763d602d80600a3d3981f3363d3d373d3d3d363d730000008260601b60e81c176000526e5af43d82803e903d91602b57fd5bf38260781b17602052603760096000f09050600073ffffffffffffffffffffffffffffffffffffffff168173ffffffffffffffffffffffffffffffffffffffff160361022c576040517f08c379a00000000000000000000000000000000000000000000000000000000081526004016102239061065a565b60405180910390fd5b919050565b600073ffffffffffffffffffffffffffffffffffffffff82169050919050565b600061025c82610231565b9050919050565b61026c81610251565b82525050565b60006020820190506102876000830184610263565b92915050565b6000604051905090565b600080fd5b600080fd5b600080fd5b600080fd5b6000601f19601f8301169050919050565b7f4e487b7100000000000000000000000000000000000000000000000000000000600052604160045260246000fd5b6102f4826102ab565b810181811067ffffffffffffffff82111715610313576103126102bc565b5b80604052505050565b600061032661028d565b905061033282826102eb565b919050565b600067ffffffffffffffff821115610352576103516102bc565b5b61035b826102ab565b9050602081019050919050565b82818337600083830152505050565b600061038a61038584610337565b61031c565b9050828152602081018484840111156103a6576103a56102a6565b5b6103b1848285610368565b509392505050565b600082601f8301126103ce576103cd6102a1565b5b81356103de848260208601610377565b91505092915050565b6000819050919050565b6103fa816103e7565b811461040557600080fd5b50565b600081359050610417816103f1565b92915050565b600060ff82169050919050565b6104338161041d565b811461043e57600080fd5b50565b6000813590506104508161042a565b92915050565b600080600080608085870312156104705761046f610297565b5b600085013567ffffffffffffffff81111561048e5761048d61029c565b5b61049a878288016103b9565b945050602085013567ffffffffffffffff8111156104bb576104ba61029c565b5b6104c7878288016103b9565b93505060406104d887828801610408565b92505060606104e987828801610441565b91505092959194509250565b600081519050919050565b600082825260208201905092915050565b60005b8381101561052f578082015181840152602081019050610514565b60008484015250505050565b6000610546826104f5565b6105508185610500565b9350610560818560208601610511565b610569816102ab565b840191505092915050565b61057d816103e7565b82525050565b61058c8161041d565b82525050565b600060808201905081810360008301526105ac818761053b565b905081810360208301526105c0818661053b565b90506105cf6040830185610574565b6105dc6060830184610583565b95945050505050565b60006040820190506105fa6000830185610263565b6106076020830184610263565b9392505050565b7f455243313136373a20637265617465206661696c656400000000000000000000600082015250565b6000610644601683610500565b915061064f8261060e565b602082019050919050565b6000602082019050818103600083015261067381610637565b905091905056fea26469706673582212200039c5f88f5643ce39e7809aa0d38b54455774a7de92acecfcc57aa513159f0b64736f6c63430008110033",
  "immutableReferences": {},
  "source": "// SPDX-License-Identifier: MIT\r\n\r\npragma solidity 0.8.17;\r\n\r\nimport \"@openzeppelin/contracts-upgradeable/proxy/ClonesUpgradeable.sol\";\r\nimport \"./IToken.sol\";\r\n\r\ncontract FactoryToken {\r\n    address public implementation;\r\n    event CreatedERC20(address token, address sender);\r\n\r\n    constructor(address _implementation){\r\n        implementation = _implementation;\r\n    }\r\n\r\n    function createToken(\r\n        string memory tokenName,\r\n        string memory tokenSymbol,\r\n        uint256 totalSupply, \r\n        uint8 _decimals\r\n    ) external {\r\n        address token = ClonesUpgradeable.clone(implementation);\r\n        IToken(token).initialize(tokenName, tokenSymbol, totalSupply, _decimals);\r\n        emit CreatedERC20(token, msg.sender);\r\n    }\r\n}",
  "sourcePath": "D:\\solidity\\factory1\\contracts\\FactoryToken.sol",
  "compiler": {
    "name": "solc",
    "version": "0.8.17+commit.8df45f5f.Emscripten.clang"
  },
  "schemaVersion": "3.4.11",
  "updatedAt": "2022-12-13T05:36:20.601Z",
  "networkType": "ethereum",
  "devdoc": {
    "kind": "dev",
    "methods": {},
    "version": 1
  },
  "userdoc": {
    "kind": "user",
    "methods": {},
    "version": 1
  }
}