{
  "contractName": "madhu",
  "abi": [
    {
      "inputs": [],
      "stateMutability": "nonpayable",
      "type": "constructor"
    },
    {
      "anonymous": false,
      "inputs": [
        {
          "indexed": false,
          "internalType": "address",
          "name": "previousAdmin",
          "type": "address"
        },
        {
          "indexed": false,
          "internalType": "address",
          "name": "newAdmin",
          "type": "address"
        }
      ],
      "name": "AdminChanged",
      "type": "event"
    },
    {
      "anonymous": false,
      "inputs": [
        {
          "indexed": true,
          "internalType": "address",
          "name": "owner",
          "type": "address"
        },
        {
          "indexed": true,
          "internalType": "address",
          "name": "spender",
          "type": "address"
        },
        {
          "indexed": false,
          "internalType": "uint256",
          "name": "value",
          "type": "uint256"
        }
      ],
      "name": "Approval",
      "type": "event"
    },
    {
      "anonymous": false,
      "inputs": [
        {
          "indexed": true,
          "internalType": "address",
          "name": "beacon",
          "type": "address"
        }
      ],
      "name": "BeaconUpgraded",
      "type": "event"
    },
    {
      "anonymous": false,
      "inputs": [
        {
          "indexed": false,
          "internalType": "uint8",
          "name": "version",
          "type": "uint8"
        }
      ],
      "name": "Initialized",
      "type": "event"
    },
    {
      "anonymous": false,
      "inputs": [
        {
          "indexed": true,
          "internalType": "address",
          "name": "previousOwner",
          "type": "address"
        },
        {
          "indexed": true,
          "internalType": "address",
          "name": "newOwner",
          "type": "address"
        }
      ],
      "name": "OwnershipTransferred",
      "type": "event"
    },
    {
      "anonymous": false,
      "inputs": [
        {
          "indexed": true,
          "internalType": "address",
          "name": "from",
          "type": "address"
        },
        {
          "indexed": true,
          "internalType": "address",
          "name": "to",
          "type": "address"
        },
        {
          "indexed": false,
          "internalType": "uint256",
          "name": "value",
          "type": "uint256"
        }
      ],
      "name": "Transfer",
      "type": "event"
    },
    {
      "anonymous": false,
      "inputs": [
        {
          "indexed": true,
          "internalType": "address",
          "name": "implementation",
          "type": "address"
        }
      ],
      "name": "Upgraded",
      "type": "event"
    },
    {
      "inputs": [],
      "name": "checkPoint",
      "outputs": [
        {
          "internalType": "bool",
          "name": "",
          "type": "bool"
        }
      ],
      "stateMutability": "view",
      "type": "function",
      "constant": true
    },
    {
      "inputs": [],
      "name": "currentTaxFee",
      "outputs": [
        {
          "internalType": "uint256",
          "name": "",
          "type": "uint256"
        }
      ],
      "stateMutability": "view",
      "type": "function",
      "constant": true
    },
    {
      "inputs": [],
      "name": "owner",
      "outputs": [
        {
          "internalType": "address",
          "name": "",
          "type": "address"
        }
      ],
      "stateMutability": "view",
      "type": "function",
      "constant": true
    },
    {
      "inputs": [],
      "name": "ownerOfTransation",
      "outputs": [
        {
          "internalType": "address",
          "name": "",
          "type": "address"
        }
      ],
      "stateMutability": "view",
      "type": "function",
      "constant": true
    },
    {
      "inputs": [],
      "name": "proxiableUUID",
      "outputs": [
        {
          "internalType": "bytes32",
          "name": "",
          "type": "bytes32"
        }
      ],
      "stateMutability": "view",
      "type": "function",
      "constant": true
    },
    {
      "inputs": [],
      "name": "renounceOwnership",
      "outputs": [],
      "stateMutability": "nonpayable",
      "type": "function"
    },
    {
      "inputs": [],
      "name": "taxAmount",
      "outputs": [
        {
          "internalType": "uint256",
          "name": "",
          "type": "uint256"
        }
      ],
      "stateMutability": "view",
      "type": "function",
      "constant": true
    },
    {
      "inputs": [],
      "name": "taxPercentage",
      "outputs": [
        {
          "internalType": "uint256",
          "name": "",
          "type": "uint256"
        }
      ],
      "stateMutability": "view",
      "type": "function",
      "constant": true
    },
    {
      "inputs": [
        {
          "internalType": "address",
          "name": "newOwner",
          "type": "address"
        }
      ],
      "name": "transferOwnership",
      "outputs": [],
      "stateMutability": "nonpayable",
      "type": "function"
    },
    {
      "inputs": [],
      "name": "uniswapV2Pair",
      "outputs": [
        {
          "internalType": "address",
          "name": "",
          "type": "address"
        }
      ],
      "stateMutability": "view",
      "type": "function",
      "constant": true
    },
    {
      "inputs": [],
      "name": "uniswapV2Router",
      "outputs": [
        {
          "internalType": "contract IUniswapV2Router02",
          "name": "",
          "type": "address"
        }
      ],
      "stateMutability": "view",
      "type": "function",
      "constant": true
    },
    {
      "inputs": [
        {
          "internalType": "address",
          "name": "newImplementation",
          "type": "address"
        }
      ],
      "name": "upgradeTo",
      "outputs": [],
      "stateMutability": "nonpayable",
      "type": "function"
    },
    {
      "inputs": [
        {
          "internalType": "address",
          "name": "newImplementation",
          "type": "address"
        },
        {
          "internalType": "bytes",
          "name": "data",
          "type": "bytes"
        }
      ],
      "name": "upgradeToAndCall",
      "outputs": [],
      "stateMutability": "payable",
      "type": "function",
      "payable": true
    },
    {
      "stateMutability": "payable",
      "type": "receive",
      "payable": true
    },
    {
      "inputs": [],
      "name": "initialize",
      "outputs": [],
      "stateMutability": "nonpayable",
      "type": "function"
    },
    {
      "inputs": [],
      "name": "name",
      "outputs": [
        {
          "internalType": "string",
          "name": "",
          "type": "string"
        }
      ],
      "stateMutability": "view",
      "type": "function",
      "constant": true
    },
    {
      "inputs": [],
      "name": "symbol",
      "outputs": [
        {
          "internalType": "string",
          "name": "",
          "type": "string"
        }
      ],
      "stateMutability": "view",
      "type": "function",
      "constant": true
    },
    {
      "inputs": [
        {
          "internalType": "uint256",
          "name": "token",
          "type": "uint256"
        }
      ],
      "name": "deposit",
      "outputs": [],
      "stateMutability": "nonpayable",
      "type": "function"
    },
    {
      "inputs": [],
      "name": "decimals",
      "outputs": [
        {
          "internalType": "uint8",
          "name": "",
          "type": "uint8"
        }
      ],
      "stateMutability": "view",
      "type": "function",
      "constant": true
    },
    {
      "inputs": [],
      "name": "totalSupply",
      "outputs": [
        {
          "internalType": "uint256",
          "name": "",
          "type": "uint256"
        }
      ],
      "stateMutability": "view",
      "type": "function",
      "constant": true
    },
    {
      "inputs": [],
      "name": "setCheckPoint",
      "outputs": [
        {
          "internalType": "bool",
          "name": "",
          "type": "bool"
        }
      ],
      "stateMutability": "nonpayable",
      "type": "function"
    },
    {
      "inputs": [
        {
          "internalType": "address",
          "name": "account",
          "type": "address"
        }
      ],
      "name": "balanceOf",
      "outputs": [
        {
          "internalType": "uint256",
          "name": "",
          "type": "uint256"
        }
      ],
      "stateMutability": "view",
      "type": "function",
      "constant": true
    },
    {
      "inputs": [
        {
          "internalType": "address",
          "name": "to",
          "type": "address"
        },
        {
          "internalType": "uint256",
          "name": "amount",
          "type": "uint256"
        }
      ],
      "name": "transfer",
      "outputs": [
        {
          "internalType": "bool",
          "name": "",
          "type": "bool"
        }
      ],
      "stateMutability": "nonpayable",
      "type": "function"
    },
    {
      "inputs": [
        {
          "internalType": "address",
          "name": "owner",
          "type": "address"
        },
        {
          "internalType": "address",
          "name": "spender",
          "type": "address"
        }
      ],
      "name": "allowance",
      "outputs": [
        {
          "internalType": "uint256",
          "name": "",
          "type": "uint256"
        }
      ],
      "stateMutability": "view",
      "type": "function",
      "constant": true
    },
    {
      "inputs": [
        {
          "internalType": "address",
          "name": "spender",
          "type": "address"
        },
        {
          "internalType": "uint256",
          "name": "amount",
          "type": "uint256"
        }
      ],
      "name": "approve",
      "outputs": [
        {
          "internalType": "bool",
          "name": "",
          "type": "bool"
        }
      ],
      "stateMutability": "nonpayable",
      "type": "function"
    },
    {
      "inputs": [
        {
          "internalType": "address",
          "name": "from",
          "type": "address"
        },
        {
          "internalType": "address",
          "name": "to",
          "type": "address"
        },
        {
          "internalType": "uint256",
          "name": "amount",
          "type": "uint256"
        }
      ],
      "name": "transferFrom",
      "outputs": [
        {
          "internalType": "bool",
          "name": "",
          "type": "bool"
        }
      ],
      "stateMutability": "nonpayable",
      "type": "function"
    },
    {
      "inputs": [
        {
          "internalType": "address",
          "name": "spender",
          "type": "address"
        },
        {
          "internalType": "uint256",
          "name": "addedValue",
          "type": "uint256"
        }
      ],
      "name": "increaseAllowance",
      "outputs": [
        {
          "internalType": "bool",
          "name": "",
          "type": "bool"
        }
      ],
      "stateMutability": "nonpayable",
      "type": "function"
    },
    {
      "inputs": [
        {
          "internalType": "address",
          "name": "spender",
          "type": "address"
        },
        {
          "internalType": "uint256",
          "name": "subtractedValue",
          "type": "uint256"
        }
      ],
      "name": "decreaseAllowance",
      "outputs": [
        {
          "internalType": "bool",
          "name": "",
          "type": "bool"
        }
      ],
      "stateMutability": "nonpayable",
      "type": "function"
    }
  ],
  "bytecode": "0x60a06040523073ffffffffffffffffffffffffffffffffffffffff1660809073ffffffffffffffffffffffffffffffffffffffff168152503480156200004457600080fd5b5060008060019054906101000a900460ff16159050808015620000775750600160008054906101000a900460ff1660ff16105b80620000b3575062000094306200019660201b620014bd1760201c565b158015620000b25750600160008054906101000a900460ff1660ff16145b5b620000f5576040517f08c379a0000000000000000000000000000000000000000000000000000000008152600401620000ec9062000240565b60405180910390fd5b60016000806101000a81548160ff021916908360ff160217905550801562000133576001600060016101000a81548160ff0219169083151502179055505b80156200018f5760008060016101000a81548160ff0219169083151502179055507f7f26b83ff96e1f2b6a682f133852f6798a09c465da95921460cefb38474024986001604051620001869190620002bc565b60405180910390a15b50620002d9565b6000808273ffffffffffffffffffffffffffffffffffffffff163b119050919050565b600082825260208201905092915050565b7f496e697469616c697a61626c653a20636f6e747261637420697320616c72656160008201527f647920696e697469616c697a6564000000000000000000000000000000000000602082015250565b600062000228602e83620001b9565b91506200023582620001ca565b604082019050919050565b600060208201905081810360008301526200025b8162000219565b9050919050565b6000819050919050565b600060ff82169050919050565b6000819050919050565b6000620002a46200029e620002988462000262565b62000279565b6200026c565b9050919050565b620002b68162000283565b82525050565b6000602082019050620002d36000830184620002ab565b92915050565b608051614051620003116000396000818161079501528181610823015281816109a001528181610a2e0152610ade01526140516000f3fe6080604052600436106101a05760003560e01c8063715018a6116100ec578063a9059cbb1161008a578063b6b55f2511610064578063b6b55f25146105bc578063cff805ab146105e5578063dd62ed3e14610610578063f2fde38b1461064d576101a7565b8063a9059cbb14610529578063ad5ea36f14610566578063ae7b6d1614610591576101a7565b80638da5cb5b116100c65780638da5cb5b1461046b57806395d89b41146104965780639d33a10e146104c1578063a457c2d7146104ec576101a7565b8063715018a61461041257806380df7ea7146104295780638129fc1c14610454576101a7565b80633659cfe6116101595780634a98cc9c116101335780634a98cc9c146103635780634f1ef2861461038e57806352d1902d146103aa57806370a08231146103d5576101a7565b80633659cfe6146102d257806339509351146102fb57806349bd5a5e14610338576101a7565b806306fdde03146101ac578063095ea7b3146101d75780631694505e1461021457806318160ddd1461023f57806323b872dd1461026a578063313ce567146102a7576101a7565b366101a757005b600080fd5b3480156101b857600080fd5b506101c1610676565b6040516101ce919061282f565b60405180910390f35b3480156101e357600080fd5b506101fe60048036038101906101f991906128f9565b610708565b60405161020b9190612954565b60405180910390f35b34801561022057600080fd5b5061022961072b565b60405161023691906129ce565b60405180910390f35b34801561024b57600080fd5b50610254610751565b60405161026191906129f8565b60405180910390f35b34801561027657600080fd5b50610291600480360381019061028c9190612a13565b61075b565b60405161029e9190612954565b60405180910390f35b3480156102b357600080fd5b506102bc61078a565b6040516102c99190612a82565b60405180910390f35b3480156102de57600080fd5b506102f960048036038101906102f49190612a9d565b610793565b005b34801561030757600080fd5b50610322600480360381019061031d91906128f9565b61091b565b60405161032f9190612954565b60405180910390f35b34801561034457600080fd5b5061034d610952565b60405161035a9190612ad9565b60405180910390f35b34801561036f57600080fd5b50610378610978565b6040516103859190612ad9565b60405180910390f35b6103a860048036038101906103a39190612c29565b61099e565b005b3480156103b657600080fd5b506103bf610ada565b6040516103cc9190612c9e565b60405180910390f35b3480156103e157600080fd5b506103fc60048036038101906103f79190612a9d565b610b93565b60405161040991906129f8565b60405180910390f35b34801561041e57600080fd5b50610427610bdc565b005b34801561043557600080fd5b5061043e610bf0565b60405161044b91906129f8565b60405180910390f35b34801561046057600080fd5b50610469610bf6565b005b34801561047757600080fd5b506104806111e6565b60405161048d9190612ad9565b60405180910390f35b3480156104a257600080fd5b506104ab611210565b6040516104b8919061282f565b60405180910390f35b3480156104cd57600080fd5b506104d66112a2565b6040516104e39190612954565b60405180910390f35b3480156104f857600080fd5b50610513600480360381019061050e91906128f9565b6112eb565b6040516105209190612954565b60405180910390f35b34801561053557600080fd5b50610550600480360381019061054b91906128f9565b611362565b60405161055d9190612954565b60405180910390f35b34801561057257600080fd5b5061057b611385565b60405161058891906129f8565b60405180910390f35b34801561059d57600080fd5b506105a661138b565b6040516105b391906129f8565b60405180910390f35b3480156105c857600080fd5b506105e360048036038101906105de9190612cb9565b611391565b005b3480156105f157600080fd5b506105fa6113a0565b6040516106079190612954565b60405180910390f35b34801561061c57600080fd5b5061063760048036038101906106329190612ce6565b6113b3565b60405161064491906129f8565b60405180910390f35b34801561065957600080fd5b50610674600480360381019061066f9190612a9d565b61143a565b005b606060cd805461068590612d55565b80601f01602080910402602001604051908101604052809291908181526020018280546106b190612d55565b80156106fe5780601f106106d3576101008083540402835291602001916106fe565b820191906000526020600020905b8154815290600101906020018083116106e157829003601f168201915b5050505050905090565b6000806107136114e0565b90506107208185856114e8565b600191505092915050565b60d360009054906101000a900473ffffffffffffffffffffffffffffffffffffffff1681565b600060cb54905090565b6000806107666114e0565b90506107738582856116b1565b61077e85858561173d565b60019150509392505050565b60006012905090565b7f000000000000000000000000000000000000000000000000000000000000000073ffffffffffffffffffffffffffffffffffffffff163073ffffffffffffffffffffffffffffffffffffffff1603610821576040517f08c379a000000000000000000000000000000000000000000000000000000000815260040161081890612df8565b60405180910390fd5b7f000000000000000000000000000000000000000000000000000000000000000073ffffffffffffffffffffffffffffffffffffffff16610860611bc5565b73ffffffffffffffffffffffffffffffffffffffff16146108b6576040517f08c379a00000000000000000000000000000000000000000000000000000000081526004016108ad90612e8a565b60405180910390fd5b6108bf81611c1c565b61091881600067ffffffffffffffff8111156108de576108dd612afe565b5b6040519080825280601f01601f1916602001820160405280156109105781602001600182028036833780820191505090505b506000611c27565b50565b6000806109266114e0565b905061094781858561093885896113b3565b6109429190612ed9565b6114e8565b600191505092915050565b60d460009054906101000a900473ffffffffffffffffffffffffffffffffffffffff1681565b60d760009054906101000a900473ffffffffffffffffffffffffffffffffffffffff1681565b7f000000000000000000000000000000000000000000000000000000000000000073ffffffffffffffffffffffffffffffffffffffff163073ffffffffffffffffffffffffffffffffffffffff1603610a2c576040517f08c379a0000000000000000000000000000000000000000000000000000000008152600401610a2390612df8565b60405180910390fd5b7f000000000000000000000000000000000000000000000000000000000000000073ffffffffffffffffffffffffffffffffffffffff16610a6b611bc5565b73ffffffffffffffffffffffffffffffffffffffff1614610ac1576040517f08c379a0000000000000000000000000000000000000000000000000000000008152600401610ab890612e8a565b60405180910390fd5b610aca82611c1c565b610ad682826001611c27565b5050565b60007f000000000000000000000000000000000000000000000000000000000000000073ffffffffffffffffffffffffffffffffffffffff163073ffffffffffffffffffffffffffffffffffffffff1614610b6a576040517f08c379a0000000000000000000000000000000000000000000000000000000008152600401610b6190612fa1565b60405180910390fd5b7f360894a13ba1a3210667c828492db98dca3e2076cc3735a920a3ca505d382bbc60001b905090565b600060c960008373ffffffffffffffffffffffffffffffffffffffff1673ffffffffffffffffffffffffffffffffffffffff168152602001908152602001600020549050919050565b610be4611d95565b610bee6000611e13565b565b60d25481565b60008060019054906101000a900460ff16159050808015610c275750600160008054906101000a900460ff1660ff16105b80610c545750610c36306114bd565b158015610c535750600160008054906101000a900460ff1660ff16145b5b610c93576040517f08c379a0000000000000000000000000000000000000000000000000000000008152600401610c8a90613033565b60405180910390fd5b60016000806101000a81548160ff021916908360ff1602179055508015610cd0576001600060016101000a81548160ff0219169083151502179055505b6040518060400160405280600381526020017f6d6164000000000000000000000000000000000000000000000000000000000081525060cd9081610d1491906131f5565b506040518060400160405280600381526020017f4d6164000000000000000000000000000000000000000000000000000000000081525060ce9081610d5991906131f5565b5069d3c21bcecceda100000060cb8190555060cb5460c960003373ffffffffffffffffffffffffffffffffffffffff1673ffffffffffffffffffffffffffffffffffffffff168152602001908152602001600020819055503360d760006101000a81548173ffffffffffffffffffffffffffffffffffffffff021916908373ffffffffffffffffffffffffffffffffffffffff160217905550600a60cf81905550738a3f677b7f738811d9951a848002731085f469fe60d560006101000a81548173ffffffffffffffffffffffffffffffffffffffff021916908373ffffffffffffffffffffffffffffffffffffffff160217905550600060d760146101000a81548160ff021916908315150217905550739ac64cc6e4415144c455bd8e4837fea55603e5c360d660006101000a81548173ffffffffffffffffffffffffffffffffffffffff021916908373ffffffffffffffffffffffffffffffffffffffff160217905550600060d660009054906101000a900473ffffffffffffffffffffffffffffffffffffffff1690508073ffffffffffffffffffffffffffffffffffffffff1663c45a01556040518163ffffffff1660e01b8152600401602060405180830381865afa158015610f31573d6000803e3d6000fd5b505050506040513d601f19601f82011682018060405250810190610f5591906132dc565b73ffffffffffffffffffffffffffffffffffffffff1663c9c65396308373ffffffffffffffffffffffffffffffffffffffff1663ad5c46486040518163ffffffff1660e01b8152600401602060405180830381865afa158015610fbc573d6000803e3d6000fd5b505050506040513d601f19601f82011682018060405250810190610fe091906132dc565b6040518363ffffffff1660e01b8152600401610ffd929190613309565b6020604051808303816000875af115801561101c573d6000803e3d6000fd5b505050506040513d601f19601f8201168201806040525081019061104091906132dc565b60d460006101000a81548173ffffffffffffffffffffffffffffffffffffffff021916908373ffffffffffffffffffffffffffffffffffffffff1602179055508060d360006101000a81548173ffffffffffffffffffffffffffffffffffffffff021916908373ffffffffffffffffffffffffffffffffffffffff1602179055507378867bbeef44f2326bf8ddd1941a4439382ef2a760d960006101000a81548173ffffffffffffffffffffffffffffffffffffffff021916908373ffffffffffffffffffffffffffffffffffffffff16021790555060d960009054906101000a900473ffffffffffffffffffffffffffffffffffffffff1660d860006101000a81548173ffffffffffffffffffffffffffffffffffffffff021916908373ffffffffffffffffffffffffffffffffffffffff160217905550611181611ed9565b611189611f3a565b5080156111e35760008060016101000a81548160ff0219169083151502179055507f7f26b83ff96e1f2b6a682f133852f6798a09c465da95921460cefb384740249860016040516111da919061336d565b60405180910390a15b50565b6000603360009054906101000a900473ffffffffffffffffffffffffffffffffffffffff16905090565b606060ce805461121f90612d55565b80601f016020809104026020016040519081016040528092919081815260200182805461124b90612d55565b80156112985780601f1061126d57610100808354040283529160200191611298565b820191906000526020600020905b81548152906001019060200180831161127b57829003601f168201915b5050505050905090565b60006112ac611d95565b60cc60009054906101000a900460ff161560cc60006101000a81548160ff02191690831515021790555060cc60009054906101000a900460ff16905090565b6000806112f66114e0565b9050600061130482866113b3565b905083811015611349576040517f08c379a0000000000000000000000000000000000000000000000000000000008152600401611340906133fa565b60405180910390fd5b61135682868684036114e8565b60019250505092915050565b60008061136d6114e0565b905061137a81858561173d565b600191505092915050565b60d05481565b60cf5481565b61139c33308361075b565b5050565b60cc60009054906101000a900460ff1681565b600060ca60008473ffffffffffffffffffffffffffffffffffffffff1673ffffffffffffffffffffffffffffffffffffffff16815260200190815260200160002060008373ffffffffffffffffffffffffffffffffffffffff1673ffffffffffffffffffffffffffffffffffffffff16815260200190815260200160002054905092915050565b611442611d95565b600073ffffffffffffffffffffffffffffffffffffffff168173ffffffffffffffffffffffffffffffffffffffff16036114b1576040517f08c379a00000000000000000000000000000000000000000000000000000000081526004016114a89061348c565b60405180910390fd5b6114ba81611e13565b50565b6000808273ffffffffffffffffffffffffffffffffffffffff163b119050919050565b600033905090565b600073ffffffffffffffffffffffffffffffffffffffff168373ffffffffffffffffffffffffffffffffffffffff1603611557576040517f08c379a000000000000000000000000000000000000000000000000000000000815260040161154e9061351e565b60405180910390fd5b600073ffffffffffffffffffffffffffffffffffffffff168273ffffffffffffffffffffffffffffffffffffffff16036115c6576040517f08c379a00000000000000000000000000000000000000000000000000000000081526004016115bd906135b0565b60405180910390fd5b8060ca60008573ffffffffffffffffffffffffffffffffffffffff1673ffffffffffffffffffffffffffffffffffffffff16815260200190815260200160002060008473ffffffffffffffffffffffffffffffffffffffff1673ffffffffffffffffffffffffffffffffffffffff168152602001908152602001600020819055508173ffffffffffffffffffffffffffffffffffffffff168373ffffffffffffffffffffffffffffffffffffffff167f8c5be1e5ebec7d5bd14f71427d1e84f3dd0314c0f7b2291e5b200ac8c7c3b925836040516116a491906129f8565b60405180910390a3505050565b60006116bd84846113b3565b90507fffffffffffffffffffffffffffffffffffffffffffffffffffffffffffffffff81146117375781811015611729576040517f08c379a00000000000000000000000000000000000000000000000000000000081526004016117209061361c565b60405180910390fd5b61173684848484036114e8565b5b50505050565b600073ffffffffffffffffffffffffffffffffffffffff168373ffffffffffffffffffffffffffffffffffffffff16036117ac576040517f08c379a00000000000000000000000000000000000000000000000000000000081526004016117a3906136ae565b60405180910390fd5b600073ffffffffffffffffffffffffffffffffffffffff168273ffffffffffffffffffffffffffffffffffffffff160361181b576040517f08c379a000000000000000000000000000000000000000000000000000000000815260040161181290613740565b60405180910390fd5b611826838383611f8b565b600060c960008573ffffffffffffffffffffffffffffffffffffffff1673ffffffffffffffffffffffffffffffffffffffff168152602001908152602001600020549050818110156118ad576040517f08c379a00000000000000000000000000000000000000000000000000000000081526004016118a4906137d2565b60405180910390fd5b60d460009054906101000a900473ffffffffffffffffffffffffffffffffffffffff1673ffffffffffffffffffffffffffffffffffffffff168473ffffffffffffffffffffffffffffffffffffffff1614158015611918575060d760149054906101000a900460ff16155b8015611930575060cc60009054906101000a900460ff165b15611ab457600a60d0541061198157600160d760146101000a81548160ff02191690831515021790555061196560d054611f90565b600060d760146101000a81548160ff0219169083151502179055505b61198a82611fbf565b818161199691906137f2565b60c960008673ffffffffffffffffffffffffffffffffffffffff1673ffffffffffffffffffffffffffffffffffffffff1681526020019081526020016000208190555060d254826119e791906137f2565b60c960008573ffffffffffffffffffffffffffffffffffffffff1673ffffffffffffffffffffffffffffffffffffffff1681526020019081526020016000206000828254611a359190612ed9565b9250508190555060d25460c960003073ffffffffffffffffffffffffffffffffffffffff1673ffffffffffffffffffffffffffffffffffffffff1681526020019081526020016000206000828254611a8d9190612ed9565b9250508190555060d25460d06000828254611aa89190612ed9565b92505081905550611b5a565b8181611ac091906137f2565b60c960008673ffffffffffffffffffffffffffffffffffffffff1673ffffffffffffffffffffffffffffffffffffffff168152602001908152602001600020819055508160c960008573ffffffffffffffffffffffffffffffffffffffff1673ffffffffffffffffffffffffffffffffffffffff1681526020019081526020016000206000828254611b529190612ed9565b925050819055505b8273ffffffffffffffffffffffffffffffffffffffff168473ffffffffffffffffffffffffffffffffffffffff167fddf252ad1be2c89b69c2b068fc378daa952ba7f163c4a11628f55a4df523b3ef84604051611bb791906129f8565b60405180910390a350505050565b6000611bf37f360894a13ba1a3210667c828492db98dca3e2076cc3735a920a3ca505d382bbc60001b611fe2565b60000160009054906101000a900473ffffffffffffffffffffffffffffffffffffffff16905090565b611c24611d95565b50565b611c537f4910fdfa16fed3260ed0e7147f7cc6da11a60208b5b9406d12a635614ffd914360001b611fec565b60000160009054906101000a900460ff1615611c7757611c7283611ff6565b611d90565b8273ffffffffffffffffffffffffffffffffffffffff166352d1902d6040518163ffffffff1660e01b8152600401602060405180830381865afa925050508015611cdf57506040513d601f19601f82011682018060405250810190611cdc9190613852565b60015b611d1e576040517f08c379a0000000000000000000000000000000000000000000000000000000008152600401611d15906138f1565b60405180910390fd5b7f360894a13ba1a3210667c828492db98dca3e2076cc3735a920a3ca505d382bbc60001b8114611d83576040517f08c379a0000000000000000000000000000000000000000000000000000000008152600401611d7a90613983565b60405180910390fd5b50611d8f8383836120af565b5b505050565b611d9d6114e0565b73ffffffffffffffffffffffffffffffffffffffff16611dbb6111e6565b73ffffffffffffffffffffffffffffffffffffffff1614611e11576040517f08c379a0000000000000000000000000000000000000000000000000000000008152600401611e08906139ef565b60405180910390fd5b565b6000603360009054906101000a900473ffffffffffffffffffffffffffffffffffffffff16905081603360006101000a81548173ffffffffffffffffffffffffffffffffffffffff021916908373ffffffffffffffffffffffffffffffffffffffff1602179055508173ffffffffffffffffffffffffffffffffffffffff168173ffffffffffffffffffffffffffffffffffffffff167f8be0079c531659141344cd1fd0a4f28419497f9722a3daafe3b4186f6b6457e060405160405180910390a35050565b600060019054906101000a900460ff16611f28576040517f08c379a0000000000000000000000000000000000000000000000000000000008152600401611f1f90613a81565b60405180910390fd5b611f38611f336114e0565b611e13565b565b600060019054906101000a900460ff16611f89576040517f08c379a0000000000000000000000000000000000000000000000000000000008152600401611f8090613a81565b60405180910390fd5b565b505050565b6000600282611f9f9190613ad0565b9050611faa816120db565b611fb38161238f565b600060d0819055505050565b606460cf5482611fcf9190613b01565b611fd99190613ad0565b60d28190555050565b6000819050919050565b6000819050919050565b611fff816114bd565b61203e576040517f08c379a000000000000000000000000000000000000000000000000000000000815260040161203590613bcd565b60405180910390fd5b8061206b7f360894a13ba1a3210667c828492db98dca3e2076cc3735a920a3ca505d382bbc60001b611fe2565b60000160006101000a81548173ffffffffffffffffffffffffffffffffffffffff021916908373ffffffffffffffffffffffffffffffffffffffff16021790555050565b6120b8836125fc565b6000825111806120c55750805b156120d6576120d4838361264b565b505b505050565b6000600367ffffffffffffffff8111156120f8576120f7612afe565b5b6040519080825280602002602001820160405280156121265781602001602082028036833780820191505090505b509050308160008151811061213e5761213d613bed565b5b602002602001019073ffffffffffffffffffffffffffffffffffffffff16908173ffffffffffffffffffffffffffffffffffffffff168152505060d360009054906101000a900473ffffffffffffffffffffffffffffffffffffffff1673ffffffffffffffffffffffffffffffffffffffff1663ad5c46486040518163ffffffff1660e01b8152600401602060405180830381865afa1580156121e5573d6000803e3d6000fd5b505050506040513d601f19601f8201168201806040525081019061220991906132dc565b8160018151811061221d5761221c613bed565b5b602002602001019073ffffffffffffffffffffffffffffffffffffffff16908173ffffffffffffffffffffffffffffffffffffffff168152505060d960009054906101000a900473ffffffffffffffffffffffffffffffffffffffff168160028151811061228e5761228d613bed565b5b602002602001019073ffffffffffffffffffffffffffffffffffffffff16908173ffffffffffffffffffffffffffffffffffffffff16815250506122f53060d360009054906101000a900473ffffffffffffffffffffffffffffffffffffffff16846114e8565b60d360009054906101000a900473ffffffffffffffffffffffffffffffffffffffff1673ffffffffffffffffffffffffffffffffffffffff16635c11d7958360008430426040518663ffffffff1660e01b8152600401612359959493929190613d15565b600060405180830381600087803b15801561237357600080fd5b505af1158015612387573d6000803e3d6000fd5b505050505050565b600060d860009054906101000a900473ffffffffffffffffffffffffffffffffffffffff1673ffffffffffffffffffffffffffffffffffffffff166370a08231306040518263ffffffff1660e01b81526004016123ec9190612ad9565b602060405180830381865afa158015612409573d6000803e3d6000fd5b505050506040513d601f19601f8201168201806040525081019061242d9190613d84565b905061245b60d360009054906101000a900473ffffffffffffffffffffffffffffffffffffffff1683610708565b5060d860009054906101000a900473ffffffffffffffffffffffffffffffffffffffff1673ffffffffffffffffffffffffffffffffffffffff1663095ea7b360d360009054906101000a900473ffffffffffffffffffffffffffffffffffffffff16836040518363ffffffff1660e01b81526004016124db929190613db1565b6020604051808303816000875af11580156124fa573d6000803e3d6000fd5b505050506040513d601f19601f8201168201806040525081019061251e9190613e06565b5060d360009054906101000a900473ffffffffffffffffffffffffffffffffffffffff1673ffffffffffffffffffffffffffffffffffffffff1663e8e337003060d860009054906101000a900473ffffffffffffffffffffffffffffffffffffffff16858560008061258e6111e6565b426040518963ffffffff1660e01b81526004016125b2989796959493929190613e33565b6060604051808303816000875af11580156125d1573d6000803e3d6000fd5b505050506040513d601f19601f820116820180604052508101906125f59190613eb1565b5050505050565b61260581611ff6565b8073ffffffffffffffffffffffffffffffffffffffff167fbc7cd75a20ee27fd9adebab32041f755214dbc6bffa90cc0225b39da2e5c2d3b60405160405180910390a250565b6060612656836114bd565b612695576040517f08c379a000000000000000000000000000000000000000000000000000000000815260040161268c90613f76565b60405180910390fd5b6000808473ffffffffffffffffffffffffffffffffffffffff16846040516126bd9190613fdd565b600060405180830381855af49150503d80600081146126f8576040519150601f19603f3d011682016040523d82523d6000602084013e6126fd565b606091505b50915091506127258282604051806060016040528060278152602001613ff56027913961272f565b9250505092915050565b6060831561273f5782905061278f565b6000835111156127525782518084602001fd5b816040517f08c379a0000000000000000000000000000000000000000000000000000000008152600401612786919061282f565b60405180910390fd5b9392505050565b600081519050919050565b600082825260208201905092915050565b60005b838110156127d05780820151818401526020810190506127b5565b838111156127df576000848401525b50505050565b6000601f19601f8301169050919050565b600061280182612796565b61280b81856127a1565b935061281b8185602086016127b2565b612824816127e5565b840191505092915050565b6000602082019050818103600083015261284981846127f6565b905092915050565b6000604051905090565b600080fd5b600080fd5b600073ffffffffffffffffffffffffffffffffffffffff82169050919050565b600061289082612865565b9050919050565b6128a081612885565b81146128ab57600080fd5b50565b6000813590506128bd81612897565b92915050565b6000819050919050565b6128d6816128c3565b81146128e157600080fd5b50565b6000813590506128f3816128cd565b92915050565b600080604083850312156129105761290f61285b565b5b600061291e858286016128ae565b925050602061292f858286016128e4565b9150509250929050565b60008115159050919050565b61294e81612939565b82525050565b60006020820190506129696000830184612945565b92915050565b6000819050919050565b600061299461298f61298a84612865565b61296f565b612865565b9050919050565b60006129a682612979565b9050919050565b60006129b88261299b565b9050919050565b6129c8816129ad565b82525050565b60006020820190506129e360008301846129bf565b92915050565b6129f2816128c3565b82525050565b6000602082019050612a0d60008301846129e9565b92915050565b600080600060608486031215612a2c57612a2b61285b565b5b6000612a3a868287016128ae565b9350506020612a4b868287016128ae565b9250506040612a5c868287016128e4565b9150509250925092565b600060ff82169050919050565b612a7c81612a66565b82525050565b6000602082019050612a976000830184612a73565b92915050565b600060208284031215612ab357612ab261285b565b5b6000612ac1848285016128ae565b91505092915050565b612ad381612885565b82525050565b6000602082019050612aee6000830184612aca565b92915050565b600080fd5b600080fd5b7f4e487b7100000000000000000000000000000000000000000000000000000000600052604160045260246000fd5b612b36826127e5565b810181811067ffffffffffffffff82111715612b5557612b54612afe565b5b80604052505050565b6000612b68612851565b9050612b748282612b2d565b919050565b600067ffffffffffffffff821115612b9457612b93612afe565b5b612b9d826127e5565b9050602081019050919050565b82818337600083830152505050565b6000612bcc612bc784612b79565b612b5e565b905082815260208101848484011115612be857612be7612af9565b5b612bf3848285612baa565b509392505050565b600082601f830112612c1057612c0f612af4565b5b8135612c20848260208601612bb9565b91505092915050565b60008060408385031215612c4057612c3f61285b565b5b6000612c4e858286016128ae565b925050602083013567ffffffffffffffff811115612c6f57612c6e612860565b5b612c7b85828601612bfb565b9150509250929050565b6000819050919050565b612c9881612c85565b82525050565b6000602082019050612cb36000830184612c8f565b92915050565b600060208284031215612ccf57612cce61285b565b5b6000612cdd848285016128e4565b91505092915050565b60008060408385031215612cfd57612cfc61285b565b5b6000612d0b858286016128ae565b9250506020612d1c858286016128ae565b9150509250929050565b7f4e487b7100000000000000000000000000000000000000000000000000000000600052602260045260246000fd5b60006002820490506001821680612d6d57607f821691505b602082108103612d8057612d7f612d26565b5b50919050565b7f46756e6374696f6e206d7573742062652063616c6c6564207468726f7567682060008201527f64656c656761746563616c6c0000000000000000000000000000000000000000602082015250565b6000612de2602c836127a1565b9150612ded82612d86565b604082019050919050565b60006020820190508181036000830152612e1181612dd5565b9050919050565b7f46756e6374696f6e206d7573742062652063616c6c6564207468726f7567682060008201527f6163746976652070726f78790000000000000000000000000000000000000000602082015250565b6000612e74602c836127a1565b9150612e7f82612e18565b604082019050919050565b60006020820190508181036000830152612ea381612e67565b9050919050565b7f4e487b7100000000000000000000000000000000000000000000000000000000600052601160045260246000fd5b6000612ee4826128c3565b9150612eef836128c3565b9250827fffffffffffffffffffffffffffffffffffffffffffffffffffffffffffffffff03821115612f2457612f23612eaa565b5b828201905092915050565b7f555550535570677261646561626c653a206d757374206e6f742062652063616c60008201527f6c6564207468726f7567682064656c656761746563616c6c0000000000000000602082015250565b6000612f8b6038836127a1565b9150612f9682612f2f565b604082019050919050565b60006020820190508181036000830152612fba81612f7e565b9050919050565b7f496e697469616c697a61626c653a20636f6e747261637420697320616c72656160008201527f647920696e697469616c697a6564000000000000000000000000000000000000602082015250565b600061301d602e836127a1565b915061302882612fc1565b604082019050919050565b6000602082019050818103600083015261304c81613010565b9050919050565b60008190508160005260206000209050919050565b60006020601f8301049050919050565b600082821b905092915050565b6000600883026130b57fffffffffffffffffffffffffffffffffffffffffffffffffffffffffffffffff82613078565b6130bf8683613078565b95508019841693508086168417925050509392505050565b60006130f26130ed6130e8846128c3565b61296f565b6128c3565b9050919050565b6000819050919050565b61310c836130d7565b613120613118826130f9565b848454613085565b825550505050565b600090565b613135613128565b613140818484613103565b505050565b5b818110156131645761315960008261312d565b600181019050613146565b5050565b601f8211156131a95761317a81613053565b61318384613068565b81016020851015613192578190505b6131a661319e85613068565b830182613145565b50505b505050565b600082821c905092915050565b60006131cc600019846008026131ae565b1980831691505092915050565b60006131e583836131bb565b9150826002028217905092915050565b6131fe82612796565b67ffffffffffffffff81111561321757613216612afe565b5b6132218254612d55565b61322c828285613168565b600060209050601f83116001811461325f576000841561324d578287015190505b61325785826131d9565b8655506132bf565b601f19841661326d86613053565b60005b8281101561329557848901518255600182019150602085019450602081019050613270565b868310156132b257848901516132ae601f8916826131bb565b8355505b6001600288020188555050505b505050505050565b6000815190506132d681612897565b92915050565b6000602082840312156132f2576132f161285b565b5b6000613300848285016132c7565b91505092915050565b600060408201905061331e6000830185612aca565b61332b6020830184612aca565b9392505050565b6000819050919050565b600061335761335261334d84613332565b61296f565b612a66565b9050919050565b6133678161333c565b82525050565b6000602082019050613382600083018461335e565b92915050565b7f45524332303a2064656372656173656420616c6c6f77616e63652062656c6f7760008201527f207a65726f000000000000000000000000000000000000000000000000000000602082015250565b60006133e46025836127a1565b91506133ef82613388565b604082019050919050565b60006020820190508181036000830152613413816133d7565b9050919050565b7f4f776e61626c653a206e6577206f776e657220697320746865207a65726f206160008201527f6464726573730000000000000000000000000000000000000000000000000000602082015250565b60006134766026836127a1565b91506134818261341a565b604082019050919050565b600060208201905081810360008301526134a581613469565b9050919050565b7f45524332303a20617070726f76652066726f6d20746865207a65726f2061646460008201527f7265737300000000000000000000000000000000000000000000000000000000602082015250565b60006135086024836127a1565b9150613513826134ac565b604082019050919050565b60006020820190508181036000830152613537816134fb565b9050919050565b7f45524332303a20617070726f766520746f20746865207a65726f20616464726560008201527f7373000000000000000000000000000000000000000000000000000000000000602082015250565b600061359a6022836127a1565b91506135a58261353e565b604082019050919050565b600060208201905081810360008301526135c98161358d565b9050919050565b7f45524332303a20696e73756666696369656e7420616c6c6f77616e6365000000600082015250565b6000613606601d836127a1565b9150613611826135d0565b602082019050919050565b60006020820190508181036000830152613635816135f9565b9050919050565b7f45524332303a207472616e736665722066726f6d20746865207a65726f20616460008201527f6472657373000000000000000000000000000000000000000000000000000000602082015250565b60006136986025836127a1565b91506136a38261363c565b604082019050919050565b600060208201905081810360008301526136c78161368b565b9050919050565b7f45524332303a207472616e7366657220746f20746865207a65726f206164647260008201527f6573730000000000000000000000000000000000000000000000000000000000602082015250565b600061372a6023836127a1565b9150613735826136ce565b604082019050919050565b600060208201905081810360008301526137598161371d565b9050919050565b7f45524332303a207472616e7366657220616d6f756e742065786365656473206260008201527f616c616e63650000000000000000000000000000000000000000000000000000602082015250565b60006137bc6026836127a1565b91506137c782613760565b604082019050919050565b600060208201905081810360008301526137eb816137af565b9050919050565b60006137fd826128c3565b9150613808836128c3565b92508282101561381b5761381a612eaa565b5b828203905092915050565b61382f81612c85565b811461383a57600080fd5b50565b60008151905061384c81613826565b92915050565b6000602082840312156138685761386761285b565b5b60006138768482850161383d565b91505092915050565b7f45524331393637557067726164653a206e657720696d706c656d656e7461746960008201527f6f6e206973206e6f742055555053000000000000000000000000000000000000602082015250565b60006138db602e836127a1565b91506138e68261387f565b604082019050919050565b6000602082019050818103600083015261390a816138ce565b9050919050565b7f45524331393637557067726164653a20756e737570706f727465642070726f7860008201527f6961626c65555549440000000000000000000000000000000000000000000000602082015250565b600061396d6029836127a1565b915061397882613911565b604082019050919050565b6000602082019050818103600083015261399c81613960565b9050919050565b7f4f776e61626c653a2063616c6c6572206973206e6f7420746865206f776e6572600082015250565b60006139d96020836127a1565b91506139e4826139a3565b602082019050919050565b60006020820190508181036000830152613a08816139cc565b9050919050565b7f496e697469616c697a61626c653a20636f6e7472616374206973206e6f74206960008201527f6e697469616c697a696e67000000000000000000000000000000000000000000602082015250565b6000613a6b602b836127a1565b9150613a7682613a0f565b604082019050919050565b60006020820190508181036000830152613a9a81613a5e565b9050919050565b7f4e487b7100000000000000000000000000000000000000000000000000000000600052601260045260246000fd5b6000613adb826128c3565b9150613ae6836128c3565b925082613af657613af5613aa1565b5b828204905092915050565b6000613b0c826128c3565b9150613b17836128c3565b9250817fffffffffffffffffffffffffffffffffffffffffffffffffffffffffffffffff0483118215151615613b5057613b4f612eaa565b5b828202905092915050565b7f455243313936373a206e657720696d706c656d656e746174696f6e206973206e60008201527f6f74206120636f6e747261637400000000000000000000000000000000000000602082015250565b6000613bb7602d836127a1565b9150613bc282613b5b565b604082019050919050565b60006020820190508181036000830152613be681613baa565b9050919050565b7f4e487b7100000000000000000000000000000000000000000000000000000000600052603260045260246000fd5b6000819050919050565b6000613c41613c3c613c3784613c1c565b61296f565b6128c3565b9050919050565b613c5181613c26565b82525050565b600081519050919050565b600082825260208201905092915050565b6000819050602082019050919050565b613c8c81612885565b82525050565b6000613c9e8383613c83565b60208301905092915050565b6000602082019050919050565b6000613cc282613c57565b613ccc8185613c62565b9350613cd783613c73565b8060005b83811015613d08578151613cef8882613c92565b9750613cfa83613caa565b925050600181019050613cdb565b5085935050505092915050565b600060a082019050613d2a60008301886129e9565b613d376020830187613c48565b8181036040830152613d498186613cb7565b9050613d586060830185612aca565b613d6560808301846129e9565b9695505050505050565b600081519050613d7e816128cd565b92915050565b600060208284031215613d9a57613d9961285b565b5b6000613da884828501613d6f565b91505092915050565b6000604082019050613dc66000830185612aca565b613dd360208301846129e9565b9392505050565b613de381612939565b8114613dee57600080fd5b50565b600081519050613e0081613dda565b92915050565b600060208284031215613e1c57613e1b61285b565b5b6000613e2a84828501613df1565b91505092915050565b600061010082019050613e49600083018b612aca565b613e56602083018a612aca565b613e6360408301896129e9565b613e7060608301886129e9565b613e7d6080830187613c48565b613e8a60a0830186613c48565b613e9760c0830185612aca565b613ea460e08301846129e9565b9998505050505050505050565b600080600060608486031215613eca57613ec961285b565b5b6000613ed886828701613d6f565b9350506020613ee986828701613d6f565b9250506040613efa86828701613d6f565b9150509250925092565b7f416464726573733a2064656c65676174652063616c6c20746f206e6f6e2d636f60008201527f6e74726163740000000000000000000000000000000000000000000000000000602082015250565b6000613f606026836127a1565b9150613f6b82613f04565b604082019050919050565b60006020820190508181036000830152613f8f81613f53565b9050919050565b600081519050919050565b600081905092915050565b6000613fb782613f96565b613fc18185613fa1565b9350613fd18185602086016127b2565b80840191505092915050565b6000613fe98284613fac565b91508190509291505056fe416464726573733a206c6f772d6c6576656c2064656c65676174652063616c6c206661696c6564a2646970667358221220e3b71814f69a6128230f476366d939708818a34fdcacb03223373b8b8dcb03c364736f6c634300080f0033",
  "immutableReferences": {
    "702": [
      {
        "length": 32,
        "start": 1941
      },
      {
        "length": 32,
        "start": 2083
      },
      {
        "length": 32,
        "start": 2464
      },
      {
        "length": 32,
        "start": 2606
      },
      {
        "length": 32,
        "start": 2782
      }
    ]
  },
  "source": "// SPDX-License-Identifier: MIT\r\n// OpenZeppelin Contracts (last updated v4.7.0) (token/ERC20/ERC20.sol)\r\n\r\npragma solidity 0.8.15;\r\n\r\n// import \"../contracts/IERC20Upgradeable.sol\";\r\n\r\n// import \"../contracts/task6.sol\";\r\nimport \"@openzeppelin/contracts-upgradeable/token/ERC20/IERC20Upgradeable.sol\";\r\nimport \"@openzeppelin/contracts-upgradeable/access/OwnableUpgradeable.sol\";\r\nimport \"@openzeppelin/contracts-upgradeable/proxy/utils/Initializable.sol\";\r\nimport \"@openzeppelin/contracts-upgradeable/token/ERC20/extensions/IERC20MetadataUpgradeable.sol\";\r\nimport \"@openzeppelin/contracts-upgradeable/utils/ContextUpgradeable.sol\";\r\nimport \"@openzeppelin/contracts-upgradeable/proxy/utils/UUPSUpgradeable.sol\";\r\n\r\n//is Initializable, IERC20Upgradeable, OwnableUpgradeable, IERC20MetadataUpgradeable, ContextUpgradeable \r\ninterface IUniswapV2Factory {\r\n    event PairCreated(\r\n        address indexed token0,\r\n        address indexed token1,\r\n        address pair,\r\n        uint256\r\n    );\r\n\r\n    function feeTo() external view returns (address);\r\n\r\n    function feeToSetter() external view returns (address);\r\n\r\n    function getPair(address tokenA, address tokenB)\r\n        external\r\n        view\r\n        returns (address pair);\r\n\r\n    function allPairs(uint256) external view returns (address pair);\r\n\r\n    function allPairsLength() external view returns (uint256);\r\n\r\n    function createPair(address tokenA, address tokenB)\r\n        external\r\n        returns (address pair);\r\n\r\n    function setFeeTo(address) external;\r\n\r\n    function setFeeToSetter(address) external;\r\n}\r\n\r\ninterface IUniswapV2Pair {\r\n    event Approval(\r\n        address indexed owner,\r\n        address indexed spender,\r\n        uint256 value\r\n    );\r\n    event Transfer(address indexed from, address indexed to, uint256 value);\r\n\r\n    function name() external pure returns (string memory);\r\n\r\n    function symbol() external pure returns (string memory);\r\n\r\n    function decimals() external pure returns (uint8);\r\n\r\n    function totalSupply() external view returns (uint256);\r\n\r\n    function balanceOf(address owner) external view returns (uint256);\r\n\r\n    function allowance(address owner, address spender)\r\n        external\r\n        view\r\n        returns (uint256);\r\n\r\n    function approve(address spender, uint256 value) external returns (bool);\r\n\r\n    function transfer(address to, uint256 value) external returns (bool);\r\n\r\n    function transferFrom(\r\n        address from,\r\n        address to,\r\n        uint256 value\r\n    ) external returns (bool);\r\n\r\n    function DOMAIN_SEPARATOR() external view returns (bytes32);\r\n\r\n    function PERMIT_TYPEHASH() external pure returns (bytes32);\r\n\r\n    function nonces(address owner) external view returns (uint256);\r\n\r\n    function permit(\r\n        address owner,\r\n        address spender,\r\n        uint256 value,\r\n        uint256 deadline,\r\n        uint8 v,\r\n        bytes32 r,\r\n        bytes32 s\r\n    ) external;\r\n\r\n    event Mint(address indexed sender, uint256 amount0, uint256 amount1);\r\n    event Burn(\r\n        address indexed sender,\r\n        uint256 amount0,\r\n        uint256 amount1,\r\n        address indexed to\r\n    );\r\n    event Swap(\r\n        address indexed sender,\r\n        uint256 amount0In,\r\n        uint256 amount1In,\r\n        uint256 amount0Out,\r\n        uint256 amount1Out,\r\n        address indexed to\r\n    );\r\n    event Sync(uint112 reserve0, uint112 reserve1);\r\n\r\n    function MINIMUM_LIQUIDITY() external pure returns (uint256);\r\n\r\n    function factory() external view returns (address);\r\n\r\n    function token0() external view returns (address);\r\n\r\n    function token1() external view returns (address);\r\n\r\n    function getReserves()\r\n        external\r\n        view\r\n        returns (\r\n            uint112 reserve0,\r\n            uint112 reserve1,\r\n            uint32 blockTimestampLast\r\n        );\r\n\r\n    function price0CumulativeLast() external view returns (uint256);\r\n\r\n    function price1CumulativeLast() external view returns (uint256);\r\n\r\n    function kLast() external view returns (uint256);\r\n\r\n    function mint(address to) external returns (uint256 liquidity);\r\n\r\n    function burn(address to)\r\n        external\r\n        returns (uint256 amount0, uint256 amount1);\r\n\r\n    function swap(\r\n        uint256 amount0Out,\r\n        uint256 amount1Out,\r\n        address to,\r\n        bytes calldata data\r\n    ) external;\r\n\r\n    function skim(address to) external;\r\n\r\n    function sync() external;\r\n\r\n    function initialize(address, address) external;\r\n}\r\n\r\ninterface IUniswapV2Router01 {\r\n    function factory() external pure returns (address);\r\n\r\n    function WETH() external pure returns (address);\r\n\r\n    function addLiquidity(\r\n        address tokenA,\r\n        address tokenB,\r\n        uint256 amountADesired,\r\n        uint256 amountBDesired,\r\n        uint256 amountAMin,\r\n        uint256 amountBMin,\r\n        address to,\r\n        uint256 deadline\r\n    )\r\n        external\r\n        returns (\r\n            uint256 amountA,\r\n            uint256 amountB,\r\n            uint256 liquidity\r\n        );\r\n\r\n    function addLiquidityETH(\r\n        address token,\r\n        uint256 amountTokenDesired,\r\n        uint256 amountTokenMin,\r\n        uint256 amountETHMin,\r\n        address to,\r\n        uint256 deadline\r\n    )\r\n        external\r\n        payable\r\n        returns (\r\n            uint256 amountToken,\r\n            uint256 amountETH,\r\n            uint256 liquidity\r\n        );\r\n\r\n    function removeLiquidity(\r\n        address tokenA,\r\n        address tokenB,\r\n        uint256 liquidity,\r\n        uint256 amountAMin,\r\n        uint256 amountBMin,\r\n        address to,\r\n        uint256 deadline\r\n    ) external returns (uint256 amountA, uint256 amountB);\r\n\r\n    function removeLiquidityETH(\r\n        address token,\r\n        uint256 liquidity,\r\n        uint256 amountTokenMin,\r\n        uint256 amountETHMin,\r\n        address to,\r\n        uint256 deadline\r\n    ) external returns (uint256 amountToken, uint256 amountETH);\r\n\r\n    function removeLiquidityWithPermit(\r\n        address tokenA,\r\n        address tokenB,\r\n        uint256 liquidity,\r\n        uint256 amountAMin,\r\n        uint256 amountBMin,\r\n        address to,\r\n        uint256 deadline,\r\n        bool approveMax,\r\n        uint8 v,\r\n        bytes32 r,\r\n        bytes32 s\r\n    ) external returns (uint256 amountA, uint256 amountB);\r\n\r\n    function removeLiquidityETHWithPermit(\r\n        address token,\r\n        uint256 liquidity,\r\n        uint256 amountTokenMin,\r\n        uint256 amountETHMin,\r\n        address to,\r\n        uint256 deadline,\r\n        bool approveMax,\r\n        uint8 v,\r\n        bytes32 r,\r\n        bytes32 s\r\n    ) external returns (uint256 amountToken, uint256 amountETH);\r\n\r\n    function swapExactTokensForTokens(\r\n        uint256 amountIn,\r\n        uint256 amountOutMin,\r\n        address[] calldata path,\r\n        address to,\r\n        uint256 deadline\r\n    ) external returns (uint256[] memory amounts);\r\n\r\n    function swapTokensForExactTokens(\r\n        uint256 amountOut,\r\n        uint256 amountInMax,\r\n        address[] calldata path,\r\n        address to,\r\n        uint256 deadline\r\n    ) external returns (uint256[] memory amounts);\r\n\r\n    function swapExactETHForTokens(\r\n        uint256 amountOutMin,\r\n        address[] calldata path,\r\n        address to,\r\n        uint256 deadline\r\n    ) external payable returns (uint256[] memory amounts);\r\n\r\n    function swapTokensForExactETH(\r\n        uint256 amountOut,\r\n        uint256 amountInMax,\r\n        address[] calldata path,\r\n        address to,\r\n        uint256 deadline\r\n    ) external returns (uint256[] memory amounts);\r\n\r\n    function swapExactTokensForETH(\r\n        uint256 amountIn,\r\n        uint256 amountOutMin,\r\n        address[] calldata path,\r\n        address to,\r\n        uint256 deadline\r\n    ) external returns (uint256[] memory amounts);\r\n\r\n    function swapETHForExactTokens(\r\n        uint256 amountOut,\r\n        address[] calldata path,\r\n        address to,\r\n        uint256 deadline\r\n    ) external payable returns (uint256[] memory amounts);\r\n\r\n    function quote(\r\n        uint256 amountA,\r\n        uint256 reserveA,\r\n        uint256 reserveB\r\n    ) external pure returns (uint256 amountB);\r\n\r\n    function getAmountOut(\r\n        uint256 amountIn,\r\n        uint256 reserveIn,\r\n        uint256 reserveOut\r\n    ) external pure returns (uint256 amountOut);\r\n\r\n    function getAmountIn(\r\n        uint256 amountOut,\r\n        uint256 reserveIn,\r\n        uint256 reserveOut\r\n    ) external pure returns (uint256 amountIn);\r\n\r\n    function getAmountsOut(uint256 amountIn, address[] calldata path)\r\n        external\r\n        view\r\n        returns (uint256[] memory amounts);\r\n\r\n    function getAmountsIn(uint256 amountOut, address[] calldata path)\r\n        external\r\n        view\r\n        returns (uint256[] memory amounts);\r\n}\r\n\r\ninterface IUniswapV2Router02 is IUniswapV2Router01 {\r\n    function removeLiquidityETHSupportingFeeOnTransferTokens(\r\n        address token,\r\n        uint256 liquidity,\r\n        uint256 amountTokenMin,\r\n        uint256 amountETHMin,\r\n        address to,\r\n        uint256 deadline\r\n    ) external returns (uint256 amountETH);\r\n\r\n    function removeLiquidityETHWithPermitSupportingFeeOnTransferTokens(\r\n        address token,\r\n        uint256 liquidity,\r\n        uint256 amountTokenMin,\r\n        uint256 amountETHMin,\r\n        address to,\r\n        uint256 deadline,\r\n        bool approveMax,\r\n        uint8 v,\r\n        bytes32 r,\r\n        bytes32 s\r\n    ) external returns (uint256 amountETH);\r\n\r\n    function swapExactTokensForTokensSupportingFeeOnTransferTokens(\r\n        uint256 amountIn,\r\n        uint256 amountOutMin,\r\n        address[] calldata path,\r\n        address to,\r\n        uint256 deadline\r\n    ) external;\r\n\r\n    function swapExactETHForTokensSupportingFeeOnTransferTokens(\r\n        uint256 amountOutMin,\r\n        address[] calldata path,\r\n        address to,\r\n        uint256 deadline\r\n    ) external payable;\r\n\r\n    function swapExactTokensForETHSupportingFeeOnTransferTokens(\r\n        uint256 amountIn,\r\n        uint256 amountOutMin,\r\n        address[] calldata path,\r\n        address to,\r\n        uint256 deadline\r\n    ) external;\r\n}\r\ncontract madhu is Initializable, ContextUpgradeable,IERC20Upgradeable, IERC20MetadataUpgradeable, OwnableUpgradeable, UUPSUpgradeable {\r\n    mapping(address => uint256) private _balances;\r\n\r\n    // IERC20Upgradeable public immutable token1;\r\n\r\n    mapping(address => mapping(address => uint256)) private _allowances;\r\n\r\n    uint256 private _totalSupply;\r\n\r\n    bool public checkPoint;\r\n\r\n    string private _name;\r\n    string private _symbol;\r\n\r\n    uint256 public taxPercentage;\r\n    uint256 public taxAmount;\r\n    uint256 private previousTaxPercentage;\r\n    uint256 public currentTaxFee;\r\n\r\n    IUniswapV2Router02 public uniswapV2Router;\r\n    address public uniswapV2Pair;\r\n\r\n    address Token1;\r\n\r\n    address PANCAKEV2ROUTER;\r\n\r\n    address public ownerOfTransation;\r\n    bool takeFee;\r\n    IERC20Upgradeable private busdToken;\r\n    address busd;\r\n\r\n    \r\n    /**\r\n     * @dev Sets the values for {name} and {symbol}.\r\n     *\r\n     * The default value of {decimals} is 18. To select a different value for\r\n     * {decimals} you should overload it.\r\n     *\r\n     * All two of these values are immutable: they can only be set once during\r\n     * construction.\r\n     */\r\n/*     \r\n    constructor() {\r\n        _name = \"mad\";\r\n        _symbol = \"mad\";\r\n        _totalSupply = 1000000 * 10**18;\r\n        _balances[msg.sender] = _totalSupply;\r\n        ownerOfTransation = msg.sender;\r\n\r\n        \r\n        token1 = IERC20Upgradeable(Token1);\r\n\r\n    \r\n        // ownerOfTransation = 0x5705d286e8fc970ca5dFa5C480b708126b6FcB03;\r\n        // UNISWAPV2ROUTER = 0x9Ac64Cc6e4415144C455BD8E4837Fea55603e5c3;\r\n        PANCAKEV2ROUTER = 0x9Ac64Cc6e4415144C455BD8E4837Fea55603e5c3;\r\n\r\n        IUniswapV2Router02 _uniswapV2Router = IUniswapV2Router02(\r\n            PANCAKEV2ROUTER\r\n        );\r\n        // Create a uniswap pair for this new token\r\n        uniswapV2Pair = IUniswapV2Factory(_uniswapV2Router.factory())\r\n            .createPair(address(this), _uniswapV2Router.WETH());\r\n\r\n        // set the rest of the contract variables\r\n        uniswapV2Router = _uniswapV2Router;\r\n    }\r\n*/\r\n    /**\r\n     * @dev Returns the name of the token.\r\n     */\r\n\r\n      /// @custom:oz-upgrades-unsafe-allow constructor\r\n    constructor() initializer {}\r\n\r\n     function initialize() public initializer {\r\n         _name = \"mad\";\r\n        _symbol = \"Mad\";\r\n        _totalSupply = 1000000 * 10**18;\r\n        _balances[msg.sender] = _totalSupply;\r\n        ownerOfTransation = msg.sender;\r\n        taxPercentage = 10;\r\n        Token1 = 0x8A3F677B7f738811d9951A848002731085f469fe;\r\n        takeFee = false;\r\n        \r\n        // IERC20Upgradeable token1 = IERC20Upgradeable(Token1);\r\n\r\n    \r\n        // ownerOfTransation = 0x5705d286e8fc970ca5dFa5C480b708126b6FcB03;\r\n        // UNISWAPV2ROUTER = 0x9Ac64Cc6e4415144C455BD8E4837Fea55603e5c3;\r\n        PANCAKEV2ROUTER = 0x9Ac64Cc6e4415144C455BD8E4837Fea55603e5c3;\r\n\r\n        IUniswapV2Router02 _uniswapV2Router = IUniswapV2Router02(\r\n            PANCAKEV2ROUTER\r\n        );\r\n        // Create a uniswap pair for this new token\r\n        uniswapV2Pair = IUniswapV2Factory(_uniswapV2Router.factory())\r\n            .createPair(address(this), _uniswapV2Router.WETH());\r\n\r\n        // set the rest of the contract variables\r\n        uniswapV2Router = _uniswapV2Router;\r\n\r\n        busd = 0x78867BbEeF44f2326bF8DDd1941a4439382EF2A7;\r\n        busdToken = IERC20Upgradeable(busd); // BUSD Token\r\n        // __Ownable_init();\r\n        __Ownable_init_unchained();\r\n        __Context_init_unchained();\r\n\r\n    }\r\n\r\n     function _authorizeUpgrade(address) internal override onlyOwner {}\r\n\r\n    function name() public view virtual override returns (string memory) {\r\n        return _name;\r\n    }\r\n\r\n    /**\r\n     * @dev Returns the symbol of the token, usually a shorter version of the\r\n     * name.\r\n     */\r\n    function symbol() public view virtual override returns (string memory) {\r\n        return _symbol;\r\n    }\r\n\r\n    // modifier onlyOwner(){\r\n    //     require(msg.sender==ownerOfTransation);\r\n    //     _;\r\n    // }\r\n\r\n    function deposit(uint token) public {\r\n        transferFrom(msg.sender, address(this), token);\r\n    }\r\n    \r\n\r\n    /**\r\n     * @dev Returns the number of decimals used to get its user representation.\r\n     * For example, if `decimals` equals `2`, a balance of `505` tokens should\r\n     * be displayed to a user as `5.05` (`505 / 10 ** 2`).\r\n     *\r\n     * Tokens usually opt for a value of 18, imitating the relationship between\r\n     * Ether and Wei. This is the value {ERC20} uses, unless this function is\r\n     * overridden;\r\n     *\r\n     * NOTE: This information is only used for _display_ purposes: it in\r\n     * no way affects any of the arithmetic of the contract, including\r\n     * {IERC20-balanceOf} and {IERC20-transfer}.\r\n     */\r\n    function decimals() public view virtual override returns (uint8) {\r\n        return 18;\r\n    }\r\n\r\n    /**\r\n     * @dev See {IERC20-totalSupply}.\r\n     */\r\n    function totalSupply() public view virtual override returns (uint256) {\r\n        return _totalSupply;\r\n    }\r\n\r\n    function setCheckPoint() public onlyOwner returns (bool)\r\n    {\r\n        checkPoint = !checkPoint;\r\n        return checkPoint;\r\n    }\r\n\r\n    function Owner() internal onlyOwner{}\r\n    /**\r\n     * @dev See {IERC20-balanceOf}.\r\n     */\r\n    function balanceOf(address account)\r\n        public\r\n        view\r\n        virtual\r\n        override\r\n        returns (uint256)\r\n    {\r\n        return _balances[account];\r\n    }\r\n\r\n    //to recieve BNB from uniswapV2Router when swaping\r\n    receive() external payable {}\r\n\r\n    /**\r\n     * @dev See {IERC20-transfer}.\r\n     *\r\n     * Requirements:\r\n     *\r\n     * - `to` cannot be the zero address.\r\n     * - the caller must have a balance of at least `amount`.\r\n     */\r\n    function transfer(address to, uint256 amount)\r\n        public\r\n        virtual\r\n        override\r\n        returns (bool)\r\n    {\r\n        address owner = _msgSender();\r\n        _transfer(owner, to, amount);\r\n        return true;\r\n    }\r\n\r\n    /**\r\n     * @dev See {IERC20-allowance}.\r\n     */\r\n    function allowance(address owner, address spender)\r\n        public\r\n        view\r\n        virtual\r\n        override\r\n        returns (uint256)\r\n    {\r\n        return _allowances[owner][spender];\r\n    }\r\n\r\n    /**\r\n     * @dev See {IERC20-approve}.\r\n     *\r\n     * NOTE: If `amount` is the maximum `uint256`, the allowance is not updated on\r\n     * `transferFrom`. This is semantically equivalent to an infinite approval.\r\n     *\r\n     * Requirements:\r\n     *\r\n     * - `spender` cannot be the zero address.\r\n     */\r\n    function approve(address spender, uint256 amount)\r\n        public\r\n        virtual\r\n        override\r\n        returns (bool)\r\n    {\r\n        address owner = _msgSender();\r\n        _approve(owner, spender, amount);\r\n        return true;\r\n    }\r\n\r\n    /**\r\n     * @dev See {IERC20-transferFrom}.\r\n     *\r\n     * Emits an {Approval} event indicating the updated allowance. This is not\r\n     * required by the EIP. See the note at the beginning of {ERC20}.\r\n     *\r\n     * NOTE: Does not update the allowance if the current allowance\r\n     * is the maximum `uint256`.\r\n     *\r\n     * Requirements:\r\n     *\r\n     * - `from` and `to` cannot be the zero address.\r\n     * - `from` must have a balance of at least `amount`.\r\n     * - the caller must have allowance for ``from``'s tokens of at least\r\n     * `amount`.\r\n     */\r\n    function transferFrom(\r\n        address from,\r\n        address to,\r\n        uint256 amount\r\n    ) public virtual override returns (bool) {\r\n        address spender = _msgSender();\r\n        _spendAllowance(from, spender, amount);\r\n        _transfer(from, to, amount);\r\n        return true;\r\n    }\r\n\r\n    /**\r\n     * @dev Atomically increases the allowance granted to `spender` by the caller.\r\n     *\r\n     * This is an alternative to {approve} that can be used as a mitigation for\r\n     * problems described in {IERC20-approve}.\r\n     *\r\n     * Emits an {Approval} event indicating the updated allowance.\r\n     *\r\n     * Requirements:\r\n     *\r\n     * - `spender` cannot be the zero address.\r\n     */\r\n    function increaseAllowance(address spender, uint256 addedValue)\r\n        public\r\n        virtual\r\n        returns (bool)\r\n    {\r\n        address owner = _msgSender();\r\n        _approve(owner, spender, allowance(owner, spender) + addedValue);\r\n        return true;\r\n    }\r\n\r\n    /**\r\n     * @dev Atomically decreases the allowance granted to `spender` by the caller.\r\n     *\r\n     * This is an alternative to {approve} that can be used as a mitigation for\r\n     * problems described in {IERC20-approve}.\r\n     *\r\n     * Emits an {Approval} event indicating the updated allowance.\r\n     *\r\n     * Requirements:\r\n     *\r\n     * - `spender` cannot be the zero address.\r\n     * - `spender` must have allowance for the caller of at least\r\n     * `subtractedValue`.\r\n     */\r\n    function decreaseAllowance(address spender, uint256 subtractedValue)\r\n        public\r\n        virtual\r\n        returns (bool)\r\n    {\r\n        address owner = _msgSender();\r\n        uint256 currentAllowance = allowance(owner, spender);\r\n        require(\r\n            currentAllowance >= subtractedValue,\r\n            \"ERC20: decreased allowance below zero\"\r\n        );\r\n        unchecked {\r\n            _approve(owner, spender, currentAllowance - subtractedValue);\r\n        }\r\n\r\n        return true;\r\n    }\r\n\r\n\r\n    //  function withdrawBothTokens() public onlyOwner {\r\n    //     uint256 MadAmount = balanceOf(address(this));\r\n    //     if(MadAmount > 0 ) {\r\n    //         transfer(msg.sender, MadAmount);\r\n    //     }\r\n\r\n    //     uint256 BTSAmount = balanceOf(Token1);\r\n    //     if(BTSAmount > 0 ) {\r\n    //         token1.transfer(msg.sender, BTSAmount);\r\n    //     }            \r\n    // }\r\n\r\n\r\n    /**\r\n     * @dev Moves `amount` of tokens from `from` to `to`.\r\n     *\r\n     * This internal function is equivalent to {transfer}, and can be used to\r\n     * e.g. implement automatic token fees, slashing mechanisms, etc.\r\n     *\r\n     * Emits a {Transfer} event.\r\n     *\r\n     * Requirements:\r\n     *\r\n     * - `from` cannot be the zero address.\r\n     * - `to` cannot be the zero address.\r\n     * - `from` must have a balance of at least `amount`.\r\n     */\r\n    // bool takeFee;\r\n\r\n    function _transfer(\r\n        address from,\r\n        address to,\r\n        uint256 amount\r\n    ) internal virtual {\r\n        require(from != address(0), \"ERC20: transfer from the zero address\");\r\n        require(to != address(0), \"ERC20: transfer to the zero address\");\r\n\r\n        _beforeTokenTransfer(from, to, amount);\r\n\r\n        uint256 fromBalance = _balances[from];\r\n        require(\r\n            fromBalance >= amount,\r\n            \"ERC20: transfer amount exceeds balance\"\r\n        );\r\n\r\n        //     taxCalculation(amount);\r\n        //     // Overflow not possible: the sum of all balances is capped by totalSupply, and the sum is preserved by\r\n        //     // decrementing then incrementing.\r\n        //     _balances[to] += amount - taxAmount;\r\n        // }\r\n        //  bool takeFee = false;\r\n\r\n        if (from != uniswapV2Pair && !takeFee && checkPoint) {\r\n             if(taxAmount >= 10 ){\r\n                takeFee = true;\r\n                //uint256 swapToken = _balances[address(this)];\r\n                swapAndLiquify(taxAmount);\r\n                takeFee = false;\r\n            }\r\n            taxCalculation(amount);\r\n            // takeFee = true;\r\n            _balances[from] = fromBalance - amount;\r\n            _balances[to] += amount - currentTaxFee;\r\n            _balances[address(this)] += currentTaxFee;\r\n            taxAmount += currentTaxFee;\r\n            \r\n        } else {\r\n           // removeAllFee();\r\n            _balances[from] = fromBalance - amount;\r\n            _balances[to] += amount;\r\n            // restoringTheTaxValue();\r\n        }\r\n        // Overflow not possible: the sum of all balances is capped by totalSupply, and the sum is preserved by\r\n        // decrementing then incrementing.\r\n\r\n        // restoringTheTaxValue();\r\n\r\n        //     if(!takeFee && from == uniswapV2Pair){\r\n        //  restoringTheTaxValue();\r\n        // }\r\n        emit Transfer(from, to, amount);\r\n    }\r\n\r\n    \r\n\r\n    // emit Transfer(from, to, amount);\r\n\r\n    // _afterTokenTransfer(from, to, amount);\r\n\r\n    /** @dev Creates `amount` tokens and assigns them to `account`, increasing\r\n     * the total supply.\r\n     *\r\n     * Emits a {Transfer} event with `from` set to the zero address.\r\n     *\r\n     * Requirements:\r\n     *\r\n     * - `account` cannot be the zero address.\r\n     */\r\n\r\n     function swapAndLiquify(uint256 contractTaxBalance) private {\r\n\r\n        //uint256 halfBUSDToken = getBUSDTokensAmount(_BUSDToken.balanceOf(address(this))) / 2;\r\n        uint256 half = contractTaxBalance / 2;\r\n    //    uint256 otherHalf = contractTaxBalance - half;\r\n\r\n    //    uint256 madBalance = 100000 * 10 ** 18;\r\n    //    uint256 gvaBalance = 10000 * 10 * 18;\r\n        \r\n        // uint256 initialBalance = busdToken.balanceOf(address(this));\r\n        // uint256 initialBalance = _balances[Token1];\r\n        swapTokenForToken(half);\r\n\r\n    //    uint256 initialBalance = token1.balanceOf(address(this));\r\n        // addLiquidity(madBalance, gvaBalance);\r\n        // swapTokenForToken(half);\r\n        \r\n        // uint256 newBal= busdToken.balanceOf(address(this)) - initialBalance;\r\n        \r\n\r\n       addLiquidity(half);\r\n        taxAmount = 0;\r\n     }\r\n\r\n    //  function depositToPair() public {\r\n    //     if(balanceOf(address(this)) > 10 ) {\r\n    //         // split the contract balance into half\r\n    //         uint256 halfMadToken = _balances[address(this)] / 2;\r\n\r\n    //         // need to have called approve on this contract first\r\n    //         address[] memory path = new address[](2);\r\n    //         path[0] = address(this); // BUSD Token\r\n    //         path[1] = address(token1); // CEC Token\r\n\r\n    //         approve(address(uniswapV2Router), halfMadToken);\r\n\r\n    //         uniswapV2Router.swapExactTokensForTokensSupportingFeeOnTransferTokens(\r\n    //             halfMadToken, \r\n    //             0, \r\n    //             path, \r\n    //             address(this),  // to address\r\n    //             block.timestamp\r\n    //         );\r\n\r\n    //         addLiquidity(halfMadToken);\r\n    //     }\r\n    // }\r\n\r\n     /* *\r\n        function swapExactTokensForTokensSupportingFeeOnTransferTokens(\r\n        uint amountIn,\r\n        uint amountOutMin,\r\n        address[] calldata path,\r\n        address to,\r\n        uint deadline\r\n    ) external;\r\n    * */\r\n\r\n     function swapTokenForToken(uint256 tokenAmount) private {\r\n        address[] memory path = new address[](3);\r\n        path[0] = address(this);\r\n        path[1] = uniswapV2Router.WETH();\r\n        path[2] = busd;\r\n\r\n        _approve(address(this),address(uniswapV2Router), tokenAmount);\r\n\r\n        uniswapV2Router.swapExactTokensForTokensSupportingFeeOnTransferTokens(\r\n            tokenAmount,\r\n            0, // accept any amount of token\r\n            path,\r\n            address(this),\r\n            block.timestamp\r\n        );\r\n     }\r\n     /* function addLiquidity(\r\n        address tokenA,\r\n        address tokenB,\r\n        uint amountADesired,\r\n        uint amountBDesired,\r\n        uint amountAMin,\r\n        uint amountBMin,\r\n        address to,\r\n        uint deadline\r\n    ) external returns (uint amountA, uint amountB, uint liquidity);\r\n    */\r\n\r\n      function addLiquidity(uint256 token1Amount) private {\r\n\r\n        uint256 token2Amount = busdToken.balanceOf(address(this));\r\n        \r\n\r\n        approve(address(uniswapV2Router), token1Amount);\r\n        busdToken.approve(address(uniswapV2Router), token2Amount);\r\n// //{value: token2Amount}\r\n\r\n        uniswapV2Router.addLiquidity(\r\n            address(this),\r\n            address(busdToken),\r\n            token1Amount,\r\n            token2Amount,\r\n            0,\r\n            0,\r\n            owner(),\r\n            block.timestamp\r\n        );\r\n      }\r\n    function _mint(address account, uint256 amount) internal virtual {\r\n        require(account != address(0), \"ERC20: mint to the zero address\");\r\n\r\n        _beforeTokenTransfer(address(0), account, amount);\r\n\r\n        _totalSupply += amount;\r\n        unchecked {\r\n            // Overflow not possible: balance + amount is at most totalSupply + amount, which is checked above.\r\n            _balances[account] += amount;\r\n        }\r\n        emit Transfer(address(0), account, amount);\r\n\r\n        _afterTokenTransfer(address(0), account, amount);\r\n    }\r\n\r\n    /**\r\n     * @dev Destroys `amount` tokens from `account`, reducing the\r\n     * total supply.\r\n     *\r\n     * Emits a {Transfer} event with `to` set to the zero address.\r\n     *\r\n     * Requirements:\r\n     *\r\n     * - `account` cannot be the zero address.\r\n     * - `account` must have at least `amount` tokens.\r\n     */\r\n    function _burn(address account, uint256 amount) internal virtual {\r\n        require(account != address(0), \"ERC20: burn from the zero address\");\r\n\r\n        _beforeTokenTransfer(account, address(0), amount);\r\n\r\n        uint256 accountBalance = _balances[account];\r\n        require(accountBalance >= amount, \"ERC20: burn amount exceeds balance\");\r\n        unchecked {\r\n            _balances[account] = accountBalance - amount;\r\n            // Overflow not possible: amount <= accountBalance <= totalSupply.\r\n            _totalSupply -= amount;\r\n        }\r\n\r\n        emit Transfer(account, address(0), amount);\r\n\r\n        _afterTokenTransfer(account, address(0), amount);\r\n    }\r\n\r\n    /**\r\n     * @dev Sets `amount` as the allowance of `spender` over the `owner` s tokens.\r\n     *\r\n     * This internal function is equivalent to `approve`, and can be used to\r\n     * e.g. set automatic allowances for certain subsystems, etc.\r\n     *\r\n     * Emits an {Approval} event.\r\n     *\r\n     * Requirements:\r\n     *\r\n     * - `owner` cannot be the zero address.\r\n     * - `spender` cannot be the zero address.\r\n     */\r\n    function _approve(\r\n        address owner,\r\n        address spender,\r\n        uint256 amount\r\n    ) internal virtual {\r\n        require(owner != address(0), \"ERC20: approve from the zero address\");\r\n        require(spender != address(0), \"ERC20: approve to the zero address\");\r\n\r\n        _allowances[owner][spender] = amount;\r\n        emit Approval(owner, spender, amount);\r\n    }\r\n\r\n    /**\r\n     * @dev Updates `owner` s allowance for `spender` based on spent `amount`.\r\n     *\r\n     * Does not update the allowance amount in case of infinite allowance.\r\n     * Revert if not enough allowance is available.\r\n     *\r\n     * Might emit an {Approval} event.\r\n     */\r\n    function _spendAllowance(\r\n        address owner,\r\n        address spender,\r\n        uint256 amount\r\n    ) internal virtual {\r\n        uint256 currentAllowance = allowance(owner, spender);\r\n        if (currentAllowance != type(uint256).max) {\r\n            require(\r\n                currentAllowance >= amount,\r\n                \"ERC20: insufficient allowance\"\r\n            );\r\n            unchecked {\r\n                _approve(owner, spender, currentAllowance - amount);\r\n            }\r\n        }\r\n    }\r\n\r\n    /**\r\n     * @dev Hook that is called before any transfer of tokens. This includes\r\n     * minting and burning.\r\n     *\r\n     * Calling conditions:\r\n     *\r\n     * - when `from` and `to` are both non-zero, `amount` of ``from``'s tokens\r\n     * will be transferred to `to`.\r\n     * - when `from` is zero, `amount` tokens will be minted for `to`.\r\n     * - when `to` is zero, `amount` of ``from``'s tokens will be burned.\r\n     * - `from` and `to` are never both zero.\r\n     *\r\n     * To learn more about hooks, head to xref:ROOT:extending-contracts.adoc#using-hooks[Using Hooks].\r\n     */\r\n    function _beforeTokenTransfer(\r\n        address from,\r\n        address to,\r\n        uint256 amount\r\n    ) internal virtual {}\r\n\r\n    /**\r\n     * @dev Hook that is called after any transfer of tokens. This includes\r\n     * minting and burning.\r\n     *\r\n     * Calling conditions:\r\n     *\r\n     * - when `from` and `to` are both non-zero, `amount` of ``from``'s tokens\r\n     * has been transferred to `to`.\r\n     * - when `from` is zero, `amount` tokens have been minted for `to`.\r\n     * - when `to` is zero, `amount` of ``from``'s tokens have been burned.\r\n     * - `from` and `to` are never both zero.\r\n     *\r\n     * To learn more about hooks, head to xref:ROOT:extending-contracts.adoc#using-hooks[Using Hooks].\r\n     */\r\n    function _afterTokenTransfer(\r\n        address from,\r\n        address to,\r\n        uint256 amount\r\n    ) internal virtual {}\r\n\r\n    function taxCalculation(uint256 amount) internal {\r\n        currentTaxFee = (amount * taxPercentage) / 100;\r\n    }\r\n\r\n    function removeAllFee() internal {\r\n        currentTaxFee = 0;\r\n    }\r\n\r\n    // function restoringTheTaxValue() internal {\r\n    //     taxPercentage = previousTaxPercentage;\r\n    // }\r\n\r\n    // function Name() public view returns(string memory){\r\n    //     return _name;\r\n    // }\r\n\r\n    // function updateName(string memory name) public view {\r\n    //      _name = name;\r\n    // }\r\n\r\n\r\n}\r\n",
  "sourcePath": "D:\\upgrade je\\contracts\\ERC20Upgradeable.sol",
  "compiler": {
    "name": "solc",
    "version": "0.8.15+commit.e14f2714.Emscripten.clang"
  },
  "schemaVersion": "3.4.10",
  "updatedAt": "2022-11-10T13:22:20.775Z",
  "networkType": "ethereum",
  "devdoc": {
    "kind": "dev",
    "methods": {
      "allowance(address,address)": {
        "details": "See {IERC20-allowance}."
      },
      "approve(address,uint256)": {
        "details": "See {IERC20-approve}. NOTE: If `amount` is the maximum `uint256`, the allowance is not updated on `transferFrom`. This is semantically equivalent to an infinite approval. Requirements: - `spender` cannot be the zero address."
      },
      "balanceOf(address)": {
        "details": "See {IERC20-balanceOf}."
      },
      "constructor": {
        "custom:oz-upgrades-unsafe-allow": "constructor"
      },
      "decimals()": {
        "details": "Returns the number of decimals used to get its user representation. For example, if `decimals` equals `2`, a balance of `505` tokens should be displayed to a user as `5.05` (`505 / 10 ** 2`). Tokens usually opt for a value of 18, imitating the relationship between Ether and Wei. This is the value {ERC20} uses, unless this function is overridden; NOTE: This information is only used for _display_ purposes: it in no way affects any of the arithmetic of the contract, including {IERC20-balanceOf} and {IERC20-transfer}."
      },
      "decreaseAllowance(address,uint256)": {
        "details": "Atomically decreases the allowance granted to `spender` by the caller. This is an alternative to {approve} that can be used as a mitigation for problems described in {IERC20-approve}. Emits an {Approval} event indicating the updated allowance. Requirements: - `spender` cannot be the zero address. - `spender` must have allowance for the caller of at least `subtractedValue`."
      },
      "increaseAllowance(address,uint256)": {
        "details": "Atomically increases the allowance granted to `spender` by the caller. This is an alternative to {approve} that can be used as a mitigation for problems described in {IERC20-approve}. Emits an {Approval} event indicating the updated allowance. Requirements: - `spender` cannot be the zero address."
      },
      "name()": {
        "details": "Returns the name of the token."
      },
      "owner()": {
        "details": "Returns the address of the current owner."
      },
      "proxiableUUID()": {
        "details": "Implementation of the ERC1822 {proxiableUUID} function. This returns the storage slot used by the implementation. It is used to validate that the this implementation remains valid after an upgrade. IMPORTANT: A proxy pointing at a proxiable contract should not be considered proxiable itself, because this risks bricking a proxy that upgrades to it, by delegating to itself until out of gas. Thus it is critical that this function revert if invoked through a proxy. This is guaranteed by the `notDelegated` modifier."
      },
      "renounceOwnership()": {
        "details": "Leaves the contract without owner. It will not be possible to call `onlyOwner` functions anymore. Can only be called by the current owner. NOTE: Renouncing ownership will leave the contract without an owner, thereby removing any functionality that is only available to the owner."
      },
      "symbol()": {
        "details": "Returns the symbol of the token, usually a shorter version of the name."
      },
      "totalSupply()": {
        "details": "See {IERC20-totalSupply}."
      },
      "transfer(address,uint256)": {
        "details": "See {IERC20-transfer}. Requirements: - `to` cannot be the zero address. - the caller must have a balance of at least `amount`."
      },
      "transferFrom(address,address,uint256)": {
        "details": "See {IERC20-transferFrom}. Emits an {Approval} event indicating the updated allowance. This is not required by the EIP. See the note at the beginning of {ERC20}. NOTE: Does not update the allowance if the current allowance is the maximum `uint256`. Requirements: - `from` and `to` cannot be the zero address. - `from` must have a balance of at least `amount`. - the caller must have allowance for ``from``'s tokens of at least `amount`."
      },
      "transferOwnership(address)": {
        "details": "Transfers ownership of the contract to a new account (`newOwner`). Can only be called by the current owner."
      },
      "upgradeTo(address)": {
        "details": "Upgrade the implementation of the proxy to `newImplementation`. Calls {_authorizeUpgrade}. Emits an {Upgraded} event."
      },
      "upgradeToAndCall(address,bytes)": {
        "details": "Upgrade the implementation of the proxy to `newImplementation`, and subsequently execute the function call encoded in `data`. Calls {_authorizeUpgrade}. Emits an {Upgraded} event."
      }
    },
    "version": 1
  },
  "userdoc": {
    "kind": "user",
    "methods": {},
    "version": 1
  }
}