{
  "contractName": "madhu",
  "abi": [
    {
      "inputs": [],
      "stateMutability": "nonpayable",
      "type": "constructor"
    },
    {
      "anonymous": false,
      "inputs": [
        {
          "indexed": false,
          "internalType": "address",
          "name": "previousAdmin",
          "type": "address"
        },
        {
          "indexed": false,
          "internalType": "address",
          "name": "newAdmin",
          "type": "address"
        }
      ],
      "name": "AdminChanged",
      "type": "event"
    },
    {
      "anonymous": false,
      "inputs": [
        {
          "indexed": true,
          "internalType": "address",
          "name": "owner",
          "type": "address"
        },
        {
          "indexed": true,
          "internalType": "address",
          "name": "spender",
          "type": "address"
        },
        {
          "indexed": false,
          "internalType": "uint256",
          "name": "value",
          "type": "uint256"
        }
      ],
      "name": "Approval",
      "type": "event"
    },
    {
      "anonymous": false,
      "inputs": [
        {
          "indexed": true,
          "internalType": "address",
          "name": "beacon",
          "type": "address"
        }
      ],
      "name": "BeaconUpgraded",
      "type": "event"
    },
    {
      "anonymous": false,
      "inputs": [
        {
          "indexed": false,
          "internalType": "uint8",
          "name": "version",
          "type": "uint8"
        }
      ],
      "name": "Initialized",
      "type": "event"
    },
    {
      "anonymous": false,
      "inputs": [
        {
          "indexed": true,
          "internalType": "address",
          "name": "previousOwner",
          "type": "address"
        },
        {
          "indexed": true,
          "internalType": "address",
          "name": "newOwner",
          "type": "address"
        }
      ],
      "name": "OwnershipTransferred",
      "type": "event"
    },
    {
      "anonymous": false,
      "inputs": [
        {
          "indexed": true,
          "internalType": "address",
          "name": "from",
          "type": "address"
        },
        {
          "indexed": true,
          "internalType": "address",
          "name": "to",
          "type": "address"
        },
        {
          "indexed": false,
          "internalType": "uint256",
          "name": "value",
          "type": "uint256"
        }
      ],
      "name": "Transfer",
      "type": "event"
    },
    {
      "anonymous": false,
      "inputs": [
        {
          "indexed": true,
          "internalType": "address",
          "name": "implementation",
          "type": "address"
        }
      ],
      "name": "Upgraded",
      "type": "event"
    },
    {
      "inputs": [],
      "name": "checkPoint",
      "outputs": [
        {
          "internalType": "bool",
          "name": "",
          "type": "bool"
        }
      ],
      "stateMutability": "view",
      "type": "function",
      "constant": true
    },
    {
      "inputs": [],
      "name": "currentTaxFee",
      "outputs": [
        {
          "internalType": "uint256",
          "name": "",
          "type": "uint256"
        }
      ],
      "stateMutability": "view",
      "type": "function",
      "constant": true
    },
    {
      "inputs": [],
      "name": "owner",
      "outputs": [
        {
          "internalType": "address",
          "name": "",
          "type": "address"
        }
      ],
      "stateMutability": "view",
      "type": "function",
      "constant": true
    },
    {
      "inputs": [],
      "name": "ownerOfTransation",
      "outputs": [
        {
          "internalType": "address",
          "name": "",
          "type": "address"
        }
      ],
      "stateMutability": "view",
      "type": "function",
      "constant": true
    },
    {
      "inputs": [],
      "name": "proxiableUUID",
      "outputs": [
        {
          "internalType": "bytes32",
          "name": "",
          "type": "bytes32"
        }
      ],
      "stateMutability": "view",
      "type": "function",
      "constant": true
    },
    {
      "inputs": [],
      "name": "renounceOwnership",
      "outputs": [],
      "stateMutability": "nonpayable",
      "type": "function"
    },
    {
      "inputs": [],
      "name": "taxAmount",
      "outputs": [
        {
          "internalType": "uint256",
          "name": "",
          "type": "uint256"
        }
      ],
      "stateMutability": "view",
      "type": "function",
      "constant": true
    },
    {
      "inputs": [],
      "name": "taxPercentage",
      "outputs": [
        {
          "internalType": "uint256",
          "name": "",
          "type": "uint256"
        }
      ],
      "stateMutability": "view",
      "type": "function",
      "constant": true
    },
    {
      "inputs": [
        {
          "internalType": "address",
          "name": "newOwner",
          "type": "address"
        }
      ],
      "name": "transferOwnership",
      "outputs": [],
      "stateMutability": "nonpayable",
      "type": "function"
    },
    {
      "inputs": [],
      "name": "uniswapV2Pair",
      "outputs": [
        {
          "internalType": "address",
          "name": "",
          "type": "address"
        }
      ],
      "stateMutability": "view",
      "type": "function",
      "constant": true
    },
    {
      "inputs": [],
      "name": "uniswapV2Router",
      "outputs": [
        {
          "internalType": "contract IUniswapV2Router02",
          "name": "",
          "type": "address"
        }
      ],
      "stateMutability": "view",
      "type": "function",
      "constant": true
    },
    {
      "inputs": [
        {
          "internalType": "address",
          "name": "newImplementation",
          "type": "address"
        }
      ],
      "name": "upgradeTo",
      "outputs": [],
      "stateMutability": "nonpayable",
      "type": "function"
    },
    {
      "inputs": [
        {
          "internalType": "address",
          "name": "newImplementation",
          "type": "address"
        },
        {
          "internalType": "bytes",
          "name": "data",
          "type": "bytes"
        }
      ],
      "name": "upgradeToAndCall",
      "outputs": [],
      "stateMutability": "payable",
      "type": "function",
      "payable": true
    },
    {
      "stateMutability": "payable",
      "type": "receive",
      "payable": true
    },
    {
      "inputs": [],
      "name": "initialize",
      "outputs": [],
      "stateMutability": "nonpayable",
      "type": "function"
    },
    {
      "inputs": [],
      "name": "name",
      "outputs": [
        {
          "internalType": "string",
          "name": "",
          "type": "string"
        }
      ],
      "stateMutability": "view",
      "type": "function",
      "constant": true
    },
    {
      "inputs": [],
      "name": "symbol",
      "outputs": [
        {
          "internalType": "string",
          "name": "",
          "type": "string"
        }
      ],
      "stateMutability": "view",
      "type": "function",
      "constant": true
    },
    {
      "inputs": [
        {
          "internalType": "uint256",
          "name": "token",
          "type": "uint256"
        }
      ],
      "name": "deposit",
      "outputs": [],
      "stateMutability": "nonpayable",
      "type": "function"
    },
    {
      "inputs": [],
      "name": "decimals",
      "outputs": [
        {
          "internalType": "uint8",
          "name": "",
          "type": "uint8"
        }
      ],
      "stateMutability": "view",
      "type": "function",
      "constant": true
    },
    {
      "inputs": [],
      "name": "totalSupply",
      "outputs": [
        {
          "internalType": "uint256",
          "name": "",
          "type": "uint256"
        }
      ],
      "stateMutability": "view",
      "type": "function",
      "constant": true
    },
    {
      "inputs": [],
      "name": "setCheckPoint",
      "outputs": [
        {
          "internalType": "bool",
          "name": "",
          "type": "bool"
        }
      ],
      "stateMutability": "nonpayable",
      "type": "function"
    },
    {
      "inputs": [
        {
          "internalType": "address",
          "name": "account",
          "type": "address"
        }
      ],
      "name": "balanceOf",
      "outputs": [
        {
          "internalType": "uint256",
          "name": "",
          "type": "uint256"
        }
      ],
      "stateMutability": "view",
      "type": "function",
      "constant": true
    },
    {
      "inputs": [
        {
          "internalType": "address",
          "name": "to",
          "type": "address"
        },
        {
          "internalType": "uint256",
          "name": "amount",
          "type": "uint256"
        }
      ],
      "name": "transfer",
      "outputs": [
        {
          "internalType": "bool",
          "name": "",
          "type": "bool"
        }
      ],
      "stateMutability": "nonpayable",
      "type": "function"
    },
    {
      "inputs": [
        {
          "internalType": "address",
          "name": "owner",
          "type": "address"
        },
        {
          "internalType": "address",
          "name": "spender",
          "type": "address"
        }
      ],
      "name": "allowance",
      "outputs": [
        {
          "internalType": "uint256",
          "name": "",
          "type": "uint256"
        }
      ],
      "stateMutability": "view",
      "type": "function",
      "constant": true
    },
    {
      "inputs": [
        {
          "internalType": "address",
          "name": "spender",
          "type": "address"
        },
        {
          "internalType": "uint256",
          "name": "amount",
          "type": "uint256"
        }
      ],
      "name": "approve",
      "outputs": [
        {
          "internalType": "bool",
          "name": "",
          "type": "bool"
        }
      ],
      "stateMutability": "nonpayable",
      "type": "function"
    },
    {
      "inputs": [
        {
          "internalType": "address",
          "name": "from",
          "type": "address"
        },
        {
          "internalType": "address",
          "name": "to",
          "type": "address"
        },
        {
          "internalType": "uint256",
          "name": "amount",
          "type": "uint256"
        }
      ],
      "name": "transferFrom",
      "outputs": [
        {
          "internalType": "bool",
          "name": "",
          "type": "bool"
        }
      ],
      "stateMutability": "nonpayable",
      "type": "function"
    },
    {
      "inputs": [
        {
          "internalType": "address",
          "name": "spender",
          "type": "address"
        },
        {
          "internalType": "uint256",
          "name": "addedValue",
          "type": "uint256"
        }
      ],
      "name": "increaseAllowance",
      "outputs": [
        {
          "internalType": "bool",
          "name": "",
          "type": "bool"
        }
      ],
      "stateMutability": "nonpayable",
      "type": "function"
    },
    {
      "inputs": [
        {
          "internalType": "address",
          "name": "spender",
          "type": "address"
        },
        {
          "internalType": "uint256",
          "name": "subtractedValue",
          "type": "uint256"
        }
      ],
      "name": "decreaseAllowance",
      "outputs": [
        {
          "internalType": "bool",
          "name": "",
          "type": "bool"
        }
      ],
      "stateMutability": "nonpayable",
      "type": "function"
    },
    {
      "inputs": [],
      "name": "Name",
      "outputs": [
        {
          "internalType": "string",
          "name": "",
          "type": "string"
        }
      ],
      "stateMutability": "view",
      "type": "function",
      "constant": true
    },
    {
      "inputs": [
        {
          "internalType": "string",
          "name": "name",
          "type": "string"
        }
      ],
      "name": "updateName",
      "outputs": [],
      "stateMutability": "nonpayable",
      "type": "function"
    }
  ],
  "bytecode": "0x60a06040523073ffffffffffffffffffffffffffffffffffffffff1660809073ffffffffffffffffffffffffffffffffffffffff168152503480156200004457600080fd5b5060008060019054906101000a900460ff16159050808015620000775750600160008054906101000a900460ff1660ff16105b80620000b3575062000094306200019660201b620015241760201c565b158015620000b25750600160008054906101000a900460ff1660ff16145b5b620000f5576040517f08c379a0000000000000000000000000000000000000000000000000000000008152600401620000ec9062000240565b60405180910390fd5b60016000806101000a81548160ff021916908360ff160217905550801562000133576001600060016101000a81548160ff0219169083151502179055505b80156200018f5760008060016101000a81548160ff0219169083151502179055507f7f26b83ff96e1f2b6a682f133852f6798a09c465da95921460cefb38474024986001604051620001869190620002bc565b60405180910390a15b50620002d9565b6000808273ffffffffffffffffffffffffffffffffffffffff163b119050919050565b600082825260208201905092915050565b7f496e697469616c697a61626c653a20636f6e747261637420697320616c72656160008201527f647920696e697469616c697a6564000000000000000000000000000000000000602082015250565b600062000228602e83620001b9565b91506200023582620001ca565b604082019050919050565b600060208201905081810360008301526200025b8162000219565b9050919050565b6000819050919050565b600060ff82169050919050565b6000819050919050565b6000620002a46200029e620002988462000262565b62000279565b6200026c565b9050919050565b620002b68162000283565b82525050565b6000602082019050620002d36000830184620002ab565b92915050565b6080516138ef620003116000396000818161080f0152818161089d01528181610a1a01528181610aa80152610b5801526138ef6000f3fe6080604052600436106101c65760003560e01c80638052474d116100f7578063a457c2d711610095578063b6b55f2511610064578063b6b55f2514610636578063cff805ab1461065f578063dd62ed3e1461068a578063f2fde38b146106c7576101cd565b8063a457c2d714610566578063a9059cbb146105a3578063ad5ea36f146105e0578063ae7b6d161461060b576101cd565b806384da92a7116100d157806384da92a7146104bc5780638da5cb5b146104e557806395d89b41146105105780639d33a10e1461053b576101cd565b80638052474d1461044f57806380df7ea71461047a5780638129fc1c146104a5576101cd565b806339509351116101645780634f1ef2861161013e5780634f1ef286146103b457806352d1902d146103d057806370a08231146103fb578063715018a614610438576101cd565b8063395093511461032157806349bd5a5e1461035e5780634a98cc9c14610389576101cd565b806318160ddd116101a057806318160ddd1461026557806323b872dd14610290578063313ce567146102cd5780633659cfe6146102f8576101cd565b806306fdde03146101d2578063095ea7b3146101fd5780631694505e1461023a576101cd565b366101cd57005b600080fd5b3480156101de57600080fd5b506101e76106f0565b6040516101f491906122fa565b60405180910390f35b34801561020957600080fd5b50610224600480360381019061021f91906123c4565b610782565b604051610231919061241f565b60405180910390f35b34801561024657600080fd5b5061024f6107a5565b60405161025c9190612499565b60405180910390f35b34801561027157600080fd5b5061027a6107cb565b60405161028791906124c3565b60405180910390f35b34801561029c57600080fd5b506102b760048036038101906102b291906124de565b6107d5565b6040516102c4919061241f565b60405180910390f35b3480156102d957600080fd5b506102e2610804565b6040516102ef919061254d565b60405180910390f35b34801561030457600080fd5b5061031f600480360381019061031a9190612568565b61080d565b005b34801561032d57600080fd5b50610348600480360381019061034391906123c4565b610995565b604051610355919061241f565b60405180910390f35b34801561036a57600080fd5b506103736109cc565b60405161038091906125a4565b60405180910390f35b34801561039557600080fd5b5061039e6109f2565b6040516103ab91906125a4565b60405180910390f35b6103ce60048036038101906103c991906126f4565b610a18565b005b3480156103dc57600080fd5b506103e5610b54565b6040516103f29190612769565b60405180910390f35b34801561040757600080fd5b50610422600480360381019061041d9190612568565b610c0d565b60405161042f91906124c3565b60405180910390f35b34801561044457600080fd5b5061044d610c56565b005b34801561045b57600080fd5b50610464610c6a565b60405161047191906122fa565b60405180910390f35b34801561048657600080fd5b5061048f610cfc565b60405161049c91906124c3565b60405180910390f35b3480156104b157600080fd5b506104ba610d02565b005b3480156104c857600080fd5b506104e360048036038101906104de9190612825565b61123a565b005b3480156104f157600080fd5b506104fa61124d565b60405161050791906125a4565b60405180910390f35b34801561051c57600080fd5b50610525611277565b60405161053291906122fa565b60405180910390f35b34801561054757600080fd5b50610550611309565b60405161055d919061241f565b60405180910390f35b34801561057257600080fd5b5061058d600480360381019061058891906123c4565b611352565b60405161059a919061241f565b60405180910390f35b3480156105af57600080fd5b506105ca60048036038101906105c591906123c4565b6113c9565b6040516105d7919061241f565b60405180910390f35b3480156105ec57600080fd5b506105f56113ec565b60405161060291906124c3565b60405180910390f35b34801561061757600080fd5b506106206113f2565b60405161062d91906124c3565b60405180910390f35b34801561064257600080fd5b5061065d6004803603810190610658919061286e565b6113f8565b005b34801561066b57600080fd5b50610674611407565b604051610681919061241f565b60405180910390f35b34801561069657600080fd5b506106b160048036038101906106ac919061289b565b61141a565b6040516106be91906124c3565b60405180910390f35b3480156106d357600080fd5b506106ee60048036038101906106e99190612568565b6114a1565b005b606060cd80546106ff9061290a565b80601f016020809104026020016040519081016040528092919081815260200182805461072b9061290a565b80156107785780601f1061074d57610100808354040283529160200191610778565b820191906000526020600020905b81548152906001019060200180831161075b57829003601f168201915b5050505050905090565b60008061078d611547565b905061079a81858561154f565b600191505092915050565b60d360009054906101000a900473ffffffffffffffffffffffffffffffffffffffff1681565b600060cb54905090565b6000806107e0611547565b90506107ed858285611718565b6107f88585856117a4565b60019150509392505050565b60006012905090565b7f000000000000000000000000000000000000000000000000000000000000000073ffffffffffffffffffffffffffffffffffffffff163073ffffffffffffffffffffffffffffffffffffffff160361089b576040517f08c379a0000000000000000000000000000000000000000000000000000000008152600401610892906129ad565b60405180910390fd5b7f000000000000000000000000000000000000000000000000000000000000000073ffffffffffffffffffffffffffffffffffffffff166108da611be0565b73ffffffffffffffffffffffffffffffffffffffff1614610930576040517f08c379a000000000000000000000000000000000000000000000000000000000815260040161092790612a3f565b60405180910390fd5b61093981611c37565b61099281600067ffffffffffffffff811115610958576109576125c9565b5b6040519080825280601f01601f19166020018201604052801561098a5781602001600182028036833780820191505090505b506000611c42565b50565b6000806109a0611547565b90506109c18185856109b2858961141a565b6109bc9190612a8e565b61154f565b600191505092915050565b60d460009054906101000a900473ffffffffffffffffffffffffffffffffffffffff1681565b60d760009054906101000a900473ffffffffffffffffffffffffffffffffffffffff1681565b7f000000000000000000000000000000000000000000000000000000000000000073ffffffffffffffffffffffffffffffffffffffff163073ffffffffffffffffffffffffffffffffffffffff1603610aa6576040517f08c379a0000000000000000000000000000000000000000000000000000000008152600401610a9d906129ad565b60405180910390fd5b7f000000000000000000000000000000000000000000000000000000000000000073ffffffffffffffffffffffffffffffffffffffff16610ae5611be0565b73ffffffffffffffffffffffffffffffffffffffff1614610b3b576040517f08c379a0000000000000000000000000000000000000000000000000000000008152600401610b3290612a3f565b60405180910390fd5b610b4482611c37565b610b5082826001611c42565b5050565b60007f000000000000000000000000000000000000000000000000000000000000000073ffffffffffffffffffffffffffffffffffffffff163073ffffffffffffffffffffffffffffffffffffffff1614610be4576040517f08c379a0000000000000000000000000000000000000000000000000000000008152600401610bdb90612b56565b60405180910390fd5b7f360894a13ba1a3210667c828492db98dca3e2076cc3735a920a3ca505d382bbc60001b905090565b600060c960008373ffffffffffffffffffffffffffffffffffffffff1673ffffffffffffffffffffffffffffffffffffffff168152602001908152602001600020549050919050565b610c5e611db0565b610c686000611e2e565b565b606060cd8054610c799061290a565b80601f0160208091040260200160405190810160405280929190818152602001828054610ca59061290a565b8015610cf25780601f10610cc757610100808354040283529160200191610cf2565b820191906000526020600020905b815481529060010190602001808311610cd557829003601f168201915b5050505050905090565b60d25481565b60008060019054906101000a900460ff16159050808015610d335750600160008054906101000a900460ff1660ff16105b80610d605750610d4230611524565b158015610d5f5750600160008054906101000a900460ff1660ff16145b5b610d9f576040517f08c379a0000000000000000000000000000000000000000000000000000000008152600401610d9690612be8565b60405180910390fd5b60016000806101000a81548160ff021916908360ff1602179055508015610ddc576001600060016101000a81548160ff0219169083151502179055505b6040518060400160405280600381526020017f6d6164000000000000000000000000000000000000000000000000000000000081525060cd9081610e209190612daa565b506040518060400160405280600381526020017f4d6164000000000000000000000000000000000000000000000000000000000081525060ce9081610e659190612daa565b5069d3c21bcecceda100000060cb8190555060cb5460c960003373ffffffffffffffffffffffffffffffffffffffff1673ffffffffffffffffffffffffffffffffffffffff168152602001908152602001600020819055503360d760006101000a81548173ffffffffffffffffffffffffffffffffffffffff021916908373ffffffffffffffffffffffffffffffffffffffff160217905550600a60cf81905550738a3f677b7f738811d9951a848002731085f469fe60d560006101000a81548173ffffffffffffffffffffffffffffffffffffffff021916908373ffffffffffffffffffffffffffffffffffffffff160217905550600060d760146101000a81548160ff021916908315150217905550739ac64cc6e4415144c455bd8e4837fea55603e5c360d660006101000a81548173ffffffffffffffffffffffffffffffffffffffff021916908373ffffffffffffffffffffffffffffffffffffffff160217905550600060d660009054906101000a900473ffffffffffffffffffffffffffffffffffffffff1690508073ffffffffffffffffffffffffffffffffffffffff1663c45a01556040518163ffffffff1660e01b8152600401602060405180830381865afa15801561103d573d6000803e3d6000fd5b505050506040513d601f19601f820116820180604052508101906110619190612e91565b73ffffffffffffffffffffffffffffffffffffffff1663c9c65396308373ffffffffffffffffffffffffffffffffffffffff1663ad5c46486040518163ffffffff1660e01b8152600401602060405180830381865afa1580156110c8573d6000803e3d6000fd5b505050506040513d601f19601f820116820180604052508101906110ec9190612e91565b6040518363ffffffff1660e01b8152600401611109929190612ebe565b6020604051808303816000875af1158015611128573d6000803e3d6000fd5b505050506040513d601f19601f8201168201806040525081019061114c9190612e91565b60d460006101000a81548173ffffffffffffffffffffffffffffffffffffffff021916908373ffffffffffffffffffffffffffffffffffffffff1602179055508060d360006101000a81548173ffffffffffffffffffffffffffffffffffffffff021916908373ffffffffffffffffffffffffffffffffffffffff1602179055506111d5611ef4565b6111dd611f55565b5080156112375760008060016101000a81548160ff0219169083151502179055507f7f26b83ff96e1f2b6a682f133852f6798a09c465da95921460cefb3847402498600160405161122e9190612f22565b60405180910390a15b50565b8060cd90816112499190612daa565b5050565b6000603360009054906101000a900473ffffffffffffffffffffffffffffffffffffffff16905090565b606060ce80546112869061290a565b80601f01602080910402602001604051908101604052809291908181526020018280546112b29061290a565b80156112ff5780601f106112d4576101008083540402835291602001916112ff565b820191906000526020600020905b8154815290600101906020018083116112e257829003601f168201915b5050505050905090565b6000611313611db0565b60cc60009054906101000a900460ff161560cc60006101000a81548160ff02191690831515021790555060cc60009054906101000a900460ff16905090565b60008061135d611547565b9050600061136b828661141a565b9050838110156113b0576040517f08c379a00000000000000000000000000000000000000000000000000000000081526004016113a790612faf565b60405180910390fd5b6113bd828686840361154f565b60019250505092915050565b6000806113d4611547565b90506113e18185856117a4565b600191505092915050565b60d05481565b60cf5481565b6114033330836107d5565b5050565b60cc60009054906101000a900460ff1681565b600060ca60008473ffffffffffffffffffffffffffffffffffffffff1673ffffffffffffffffffffffffffffffffffffffff16815260200190815260200160002060008373ffffffffffffffffffffffffffffffffffffffff1673ffffffffffffffffffffffffffffffffffffffff16815260200190815260200160002054905092915050565b6114a9611db0565b600073ffffffffffffffffffffffffffffffffffffffff168173ffffffffffffffffffffffffffffffffffffffff1603611518576040517f08c379a000000000000000000000000000000000000000000000000000000000815260040161150f90613041565b60405180910390fd5b61152181611e2e565b50565b6000808273ffffffffffffffffffffffffffffffffffffffff163b119050919050565b600033905090565b600073ffffffffffffffffffffffffffffffffffffffff168373ffffffffffffffffffffffffffffffffffffffff16036115be576040517f08c379a00000000000000000000000000000000000000000000000000000000081526004016115b5906130d3565b60405180910390fd5b600073ffffffffffffffffffffffffffffffffffffffff168273ffffffffffffffffffffffffffffffffffffffff160361162d576040517f08c379a000000000000000000000000000000000000000000000000000000000815260040161162490613165565b60405180910390fd5b8060ca60008573ffffffffffffffffffffffffffffffffffffffff1673ffffffffffffffffffffffffffffffffffffffff16815260200190815260200160002060008473ffffffffffffffffffffffffffffffffffffffff1673ffffffffffffffffffffffffffffffffffffffff168152602001908152602001600020819055508173ffffffffffffffffffffffffffffffffffffffff168373ffffffffffffffffffffffffffffffffffffffff167f8c5be1e5ebec7d5bd14f71427d1e84f3dd0314c0f7b2291e5b200ac8c7c3b9258360405161170b91906124c3565b60405180910390a3505050565b6000611724848461141a565b90507fffffffffffffffffffffffffffffffffffffffffffffffffffffffffffffffff811461179e5781811015611790576040517f08c379a0000000000000000000000000000000000000000000000000000000008152600401611787906131d1565b60405180910390fd5b61179d848484840361154f565b5b50505050565b600073ffffffffffffffffffffffffffffffffffffffff168373ffffffffffffffffffffffffffffffffffffffff1603611813576040517f08c379a000000000000000000000000000000000000000000000000000000000815260040161180a90613263565b60405180910390fd5b600073ffffffffffffffffffffffffffffffffffffffff168273ffffffffffffffffffffffffffffffffffffffff1603611882576040517f08c379a0000000000000000000000000000000000000000000000000000000008152600401611879906132f5565b60405180910390fd5b61188d838383611fa6565b600060c960008573ffffffffffffffffffffffffffffffffffffffff1673ffffffffffffffffffffffffffffffffffffffff16815260200190815260200160002054905081811015611914576040517f08c379a000000000000000000000000000000000000000000000000000000000815260040161190b90613387565b60405180910390fd5b60d460009054906101000a900473ffffffffffffffffffffffffffffffffffffffff1673ffffffffffffffffffffffffffffffffffffffff168473ffffffffffffffffffffffffffffffffffffffff161415801561197f575060d760149054906101000a900460ff16155b8015611997575060cc60009054906101000a900460ff165b15611acf576119a582611fab565b81816119b191906133a7565b60c960008673ffffffffffffffffffffffffffffffffffffffff1673ffffffffffffffffffffffffffffffffffffffff1681526020019081526020016000208190555060d25482611a0291906133a7565b60c960008573ffffffffffffffffffffffffffffffffffffffff1673ffffffffffffffffffffffffffffffffffffffff1681526020019081526020016000206000828254611a509190612a8e565b9250508190555060d25460c960003073ffffffffffffffffffffffffffffffffffffffff1673ffffffffffffffffffffffffffffffffffffffff1681526020019081526020016000206000828254611aa89190612a8e565b9250508190555060d25460d06000828254611ac39190612a8e565b92505081905550611b75565b8181611adb91906133a7565b60c960008673ffffffffffffffffffffffffffffffffffffffff1673ffffffffffffffffffffffffffffffffffffffff168152602001908152602001600020819055508160c960008573ffffffffffffffffffffffffffffffffffffffff1673ffffffffffffffffffffffffffffffffffffffff1681526020019081526020016000206000828254611b6d9190612a8e565b925050819055505b8273ffffffffffffffffffffffffffffffffffffffff168473ffffffffffffffffffffffffffffffffffffffff167fddf252ad1be2c89b69c2b068fc378daa952ba7f163c4a11628f55a4df523b3ef84604051611bd291906124c3565b60405180910390a350505050565b6000611c0e7f360894a13ba1a3210667c828492db98dca3e2076cc3735a920a3ca505d382bbc60001b611fce565b60000160009054906101000a900473ffffffffffffffffffffffffffffffffffffffff16905090565b611c3f611db0565b50565b611c6e7f4910fdfa16fed3260ed0e7147f7cc6da11a60208b5b9406d12a635614ffd914360001b611fd8565b60000160009054906101000a900460ff1615611c9257611c8d83611fe2565b611dab565b8273ffffffffffffffffffffffffffffffffffffffff166352d1902d6040518163ffffffff1660e01b8152600401602060405180830381865afa925050508015611cfa57506040513d601f19601f82011682018060405250810190611cf79190613407565b60015b611d39576040517f08c379a0000000000000000000000000000000000000000000000000000000008152600401611d30906134a6565b60405180910390fd5b7f360894a13ba1a3210667c828492db98dca3e2076cc3735a920a3ca505d382bbc60001b8114611d9e576040517f08c379a0000000000000000000000000000000000000000000000000000000008152600401611d9590613538565b60405180910390fd5b50611daa83838361209b565b5b505050565b611db8611547565b73ffffffffffffffffffffffffffffffffffffffff16611dd661124d565b73ffffffffffffffffffffffffffffffffffffffff1614611e2c576040517f08c379a0000000000000000000000000000000000000000000000000000000008152600401611e23906135a4565b60405180910390fd5b565b6000603360009054906101000a900473ffffffffffffffffffffffffffffffffffffffff16905081603360006101000a81548173ffffffffffffffffffffffffffffffffffffffff021916908373ffffffffffffffffffffffffffffffffffffffff1602179055508173ffffffffffffffffffffffffffffffffffffffff168173ffffffffffffffffffffffffffffffffffffffff167f8be0079c531659141344cd1fd0a4f28419497f9722a3daafe3b4186f6b6457e060405160405180910390a35050565b600060019054906101000a900460ff16611f43576040517f08c379a0000000000000000000000000000000000000000000000000000000008152600401611f3a90613636565b60405180910390fd5b611f53611f4e611547565b611e2e565b565b600060019054906101000a900460ff16611fa4576040517f08c379a0000000000000000000000000000000000000000000000000000000008152600401611f9b90613636565b60405180910390fd5b565b505050565b606460cf5482611fbb9190613656565b611fc591906136df565b60d28190555050565b6000819050919050565b6000819050919050565b611feb81611524565b61202a576040517f08c379a000000000000000000000000000000000000000000000000000000000815260040161202190613782565b60405180910390fd5b806120577f360894a13ba1a3210667c828492db98dca3e2076cc3735a920a3ca505d382bbc60001b611fce565b60000160006101000a81548173ffffffffffffffffffffffffffffffffffffffff021916908373ffffffffffffffffffffffffffffffffffffffff16021790555050565b6120a4836120c7565b6000825111806120b15750805b156120c2576120c08383612116565b505b505050565b6120d081611fe2565b8073ffffffffffffffffffffffffffffffffffffffff167fbc7cd75a20ee27fd9adebab32041f755214dbc6bffa90cc0225b39da2e5c2d3b60405160405180910390a250565b606061212183611524565b612160576040517f08c379a000000000000000000000000000000000000000000000000000000000815260040161215790613814565b60405180910390fd5b6000808473ffffffffffffffffffffffffffffffffffffffff1684604051612188919061387b565b600060405180830381855af49150503d80600081146121c3576040519150601f19603f3d011682016040523d82523d6000602084013e6121c8565b606091505b50915091506121f08282604051806060016040528060278152602001613893602791396121fa565b9250505092915050565b6060831561220a5782905061225a565b60008351111561221d5782518084602001fd5b816040517f08c379a000000000000000000000000000000000000000000000000000000000815260040161225191906122fa565b60405180910390fd5b9392505050565b600081519050919050565b600082825260208201905092915050565b60005b8381101561229b578082015181840152602081019050612280565b838111156122aa576000848401525b50505050565b6000601f19601f8301169050919050565b60006122cc82612261565b6122d6818561226c565b93506122e681856020860161227d565b6122ef816122b0565b840191505092915050565b6000602082019050818103600083015261231481846122c1565b905092915050565b6000604051905090565b600080fd5b600080fd5b600073ffffffffffffffffffffffffffffffffffffffff82169050919050565b600061235b82612330565b9050919050565b61236b81612350565b811461237657600080fd5b50565b60008135905061238881612362565b92915050565b6000819050919050565b6123a18161238e565b81146123ac57600080fd5b50565b6000813590506123be81612398565b92915050565b600080604083850312156123db576123da612326565b5b60006123e985828601612379565b92505060206123fa858286016123af565b9150509250929050565b60008115159050919050565b61241981612404565b82525050565b60006020820190506124346000830184612410565b92915050565b6000819050919050565b600061245f61245a61245584612330565b61243a565b612330565b9050919050565b600061247182612444565b9050919050565b600061248382612466565b9050919050565b61249381612478565b82525050565b60006020820190506124ae600083018461248a565b92915050565b6124bd8161238e565b82525050565b60006020820190506124d860008301846124b4565b92915050565b6000806000606084860312156124f7576124f6612326565b5b600061250586828701612379565b935050602061251686828701612379565b9250506040612527868287016123af565b9150509250925092565b600060ff82169050919050565b61254781612531565b82525050565b6000602082019050612562600083018461253e565b92915050565b60006020828403121561257e5761257d612326565b5b600061258c84828501612379565b91505092915050565b61259e81612350565b82525050565b60006020820190506125b96000830184612595565b92915050565b600080fd5b600080fd5b7f4e487b7100000000000000000000000000000000000000000000000000000000600052604160045260246000fd5b612601826122b0565b810181811067ffffffffffffffff821117156126205761261f6125c9565b5b80604052505050565b600061263361231c565b905061263f82826125f8565b919050565b600067ffffffffffffffff82111561265f5761265e6125c9565b5b612668826122b0565b9050602081019050919050565b82818337600083830152505050565b600061269761269284612644565b612629565b9050828152602081018484840111156126b3576126b26125c4565b5b6126be848285612675565b509392505050565b600082601f8301126126db576126da6125bf565b5b81356126eb848260208601612684565b91505092915050565b6000806040838503121561270b5761270a612326565b5b600061271985828601612379565b925050602083013567ffffffffffffffff81111561273a5761273961232b565b5b612746858286016126c6565b9150509250929050565b6000819050919050565b61276381612750565b82525050565b600060208201905061277e600083018461275a565b92915050565b600067ffffffffffffffff82111561279f5761279e6125c9565b5b6127a8826122b0565b9050602081019050919050565b60006127c86127c384612784565b612629565b9050828152602081018484840111156127e4576127e36125c4565b5b6127ef848285612675565b509392505050565b600082601f83011261280c5761280b6125bf565b5b813561281c8482602086016127b5565b91505092915050565b60006020828403121561283b5761283a612326565b5b600082013567ffffffffffffffff8111156128595761285861232b565b5b612865848285016127f7565b91505092915050565b60006020828403121561288457612883612326565b5b6000612892848285016123af565b91505092915050565b600080604083850312156128b2576128b1612326565b5b60006128c085828601612379565b92505060206128d185828601612379565b9150509250929050565b7f4e487b7100000000000000000000000000000000000000000000000000000000600052602260045260246000fd5b6000600282049050600182168061292257607f821691505b602082108103612935576129346128db565b5b50919050565b7f46756e6374696f6e206d7573742062652063616c6c6564207468726f7567682060008201527f64656c656761746563616c6c0000000000000000000000000000000000000000602082015250565b6000612997602c8361226c565b91506129a28261293b565b604082019050919050565b600060208201905081810360008301526129c68161298a565b9050919050565b7f46756e6374696f6e206d7573742062652063616c6c6564207468726f7567682060008201527f6163746976652070726f78790000000000000000000000000000000000000000602082015250565b6000612a29602c8361226c565b9150612a34826129cd565b604082019050919050565b60006020820190508181036000830152612a5881612a1c565b9050919050565b7f4e487b7100000000000000000000000000000000000000000000000000000000600052601160045260246000fd5b6000612a998261238e565b9150612aa48361238e565b9250827fffffffffffffffffffffffffffffffffffffffffffffffffffffffffffffffff03821115612ad957612ad8612a5f565b5b828201905092915050565b7f555550535570677261646561626c653a206d757374206e6f742062652063616c60008201527f6c6564207468726f7567682064656c656761746563616c6c0000000000000000602082015250565b6000612b4060388361226c565b9150612b4b82612ae4565b604082019050919050565b60006020820190508181036000830152612b6f81612b33565b9050919050565b7f496e697469616c697a61626c653a20636f6e747261637420697320616c72656160008201527f647920696e697469616c697a6564000000000000000000000000000000000000602082015250565b6000612bd2602e8361226c565b9150612bdd82612b76565b604082019050919050565b60006020820190508181036000830152612c0181612bc5565b9050919050565b60008190508160005260206000209050919050565b60006020601f8301049050919050565b600082821b905092915050565b600060088302612c6a7fffffffffffffffffffffffffffffffffffffffffffffffffffffffffffffffff82612c2d565b612c748683612c2d565b95508019841693508086168417925050509392505050565b6000612ca7612ca2612c9d8461238e565b61243a565b61238e565b9050919050565b6000819050919050565b612cc183612c8c565b612cd5612ccd82612cae565b848454612c3a565b825550505050565b600090565b612cea612cdd565b612cf5818484612cb8565b505050565b5b81811015612d1957612d0e600082612ce2565b600181019050612cfb565b5050565b601f821115612d5e57612d2f81612c08565b612d3884612c1d565b81016020851015612d47578190505b612d5b612d5385612c1d565b830182612cfa565b50505b505050565b600082821c905092915050565b6000612d8160001984600802612d63565b1980831691505092915050565b6000612d9a8383612d70565b9150826002028217905092915050565b612db382612261565b67ffffffffffffffff811115612dcc57612dcb6125c9565b5b612dd6825461290a565b612de1828285612d1d565b600060209050601f831160018114612e145760008415612e02578287015190505b612e0c8582612d8e565b865550612e74565b601f198416612e2286612c08565b60005b82811015612e4a57848901518255600182019150602085019450602081019050612e25565b86831015612e675784890151612e63601f891682612d70565b8355505b6001600288020188555050505b505050505050565b600081519050612e8b81612362565b92915050565b600060208284031215612ea757612ea6612326565b5b6000612eb584828501612e7c565b91505092915050565b6000604082019050612ed36000830185612595565b612ee06020830184612595565b9392505050565b6000819050919050565b6000612f0c612f07612f0284612ee7565b61243a565b612531565b9050919050565b612f1c81612ef1565b82525050565b6000602082019050612f376000830184612f13565b92915050565b7f45524332303a2064656372656173656420616c6c6f77616e63652062656c6f7760008201527f207a65726f000000000000000000000000000000000000000000000000000000602082015250565b6000612f9960258361226c565b9150612fa482612f3d565b604082019050919050565b60006020820190508181036000830152612fc881612f8c565b9050919050565b7f4f776e61626c653a206e6577206f776e657220697320746865207a65726f206160008201527f6464726573730000000000000000000000000000000000000000000000000000602082015250565b600061302b60268361226c565b915061303682612fcf565b604082019050919050565b6000602082019050818103600083015261305a8161301e565b9050919050565b7f45524332303a20617070726f76652066726f6d20746865207a65726f2061646460008201527f7265737300000000000000000000000000000000000000000000000000000000602082015250565b60006130bd60248361226c565b91506130c882613061565b604082019050919050565b600060208201905081810360008301526130ec816130b0565b9050919050565b7f45524332303a20617070726f766520746f20746865207a65726f20616464726560008201527f7373000000000000000000000000000000000000000000000000000000000000602082015250565b600061314f60228361226c565b915061315a826130f3565b604082019050919050565b6000602082019050818103600083015261317e81613142565b9050919050565b7f45524332303a20696e73756666696369656e7420616c6c6f77616e6365000000600082015250565b60006131bb601d8361226c565b91506131c682613185565b602082019050919050565b600060208201905081810360008301526131ea816131ae565b9050919050565b7f45524332303a207472616e736665722066726f6d20746865207a65726f20616460008201527f6472657373000000000000000000000000000000000000000000000000000000602082015250565b600061324d60258361226c565b9150613258826131f1565b604082019050919050565b6000602082019050818103600083015261327c81613240565b9050919050565b7f45524332303a207472616e7366657220746f20746865207a65726f206164647260008201527f6573730000000000000000000000000000000000000000000000000000000000602082015250565b60006132df60238361226c565b91506132ea82613283565b604082019050919050565b6000602082019050818103600083015261330e816132d2565b9050919050565b7f45524332303a207472616e7366657220616d6f756e742065786365656473206260008201527f616c616e63650000000000000000000000000000000000000000000000000000602082015250565b600061337160268361226c565b915061337c82613315565b604082019050919050565b600060208201905081810360008301526133a081613364565b9050919050565b60006133b28261238e565b91506133bd8361238e565b9250828210156133d0576133cf612a5f565b5b828203905092915050565b6133e481612750565b81146133ef57600080fd5b50565b600081519050613401816133db565b92915050565b60006020828403121561341d5761341c612326565b5b600061342b848285016133f2565b91505092915050565b7f45524331393637557067726164653a206e657720696d706c656d656e7461746960008201527f6f6e206973206e6f742055555053000000000000000000000000000000000000602082015250565b6000613490602e8361226c565b915061349b82613434565b604082019050919050565b600060208201905081810360008301526134bf81613483565b9050919050565b7f45524331393637557067726164653a20756e737570706f727465642070726f7860008201527f6961626c65555549440000000000000000000000000000000000000000000000602082015250565b600061352260298361226c565b915061352d826134c6565b604082019050919050565b6000602082019050818103600083015261355181613515565b9050919050565b7f4f776e61626c653a2063616c6c6572206973206e6f7420746865206f776e6572600082015250565b600061358e60208361226c565b915061359982613558565b602082019050919050565b600060208201905081810360008301526135bd81613581565b9050919050565b7f496e697469616c697a61626c653a20636f6e7472616374206973206e6f74206960008201527f6e697469616c697a696e67000000000000000000000000000000000000000000602082015250565b6000613620602b8361226c565b915061362b826135c4565b604082019050919050565b6000602082019050818103600083015261364f81613613565b9050919050565b60006136618261238e565b915061366c8361238e565b9250817fffffffffffffffffffffffffffffffffffffffffffffffffffffffffffffffff04831182151516156136a5576136a4612a5f565b5b828202905092915050565b7f4e487b7100000000000000000000000000000000000000000000000000000000600052601260045260246000fd5b60006136ea8261238e565b91506136f58361238e565b925082613705576137046136b0565b5b828204905092915050565b7f455243313936373a206e657720696d706c656d656e746174696f6e206973206e60008201527f6f74206120636f6e747261637400000000000000000000000000000000000000602082015250565b600061376c602d8361226c565b915061377782613710565b604082019050919050565b6000602082019050818103600083015261379b8161375f565b9050919050565b7f416464726573733a2064656c65676174652063616c6c20746f206e6f6e2d636f60008201527f6e74726163740000000000000000000000000000000000000000000000000000602082015250565b60006137fe60268361226c565b9150613809826137a2565b604082019050919050565b6000602082019050818103600083015261382d816137f1565b9050919050565b600081519050919050565b600081905092915050565b600061385582613834565b61385f818561383f565b935061386f81856020860161227d565b80840191505092915050565b6000613887828461384a565b91508190509291505056fe416464726573733a206c6f772d6c6576656c2064656c65676174652063616c6c206661696c6564a2646970667358221220c2a42ba6cccd738015b1133aaed64a46e359268b780977d7558f27fbae79354e64736f6c634300080f0033",
  "immutableReferences": {
    "702": [
      {
        "length": 32,
        "start": 2063
      },
      {
        "length": 32,
        "start": 2205
      },
      {
        "length": 32,
        "start": 2586
      },
      {
        "length": 32,
        "start": 2728
      },
      {
        "length": 32,
        "start": 2904
      }
    ]
  },
  "source": "// SPDX-License-Identifier: MIT\r\n// OpenZeppelin Contracts (last updated v4.7.0) (token/ERC20/ERC20.sol)\r\n\r\npragma solidity 0.8.15;\r\n\r\n// import \"../contracts/IERC20Upgradeable.sol\";\r\n\r\n// import \"../contracts/task6.sol\";\r\nimport \"@openzeppelin/contracts-upgradeable/token/ERC20/IERC20Upgradeable.sol\";\r\nimport \"@openzeppelin/contracts-upgradeable/access/OwnableUpgradeable.sol\";\r\nimport \"@openzeppelin/contracts-upgradeable/proxy/utils/Initializable.sol\";\r\nimport \"@openzeppelin/contracts-upgradeable/token/ERC20/extensions/IERC20MetadataUpgradeable.sol\";\r\nimport \"@openzeppelin/contracts-upgradeable/utils/ContextUpgradeable.sol\";\r\nimport \"@openzeppelin/contracts-upgradeable/proxy/utils/UUPSUpgradeable.sol\";\r\n\r\n//is Initializable, IERC20Upgradeable, OwnableUpgradeable, IERC20MetadataUpgradeable, ContextUpgradeable \r\ninterface IUniswapV2Factory {\r\n    event PairCreated(\r\n        address indexed token0,\r\n        address indexed token1,\r\n        address pair,\r\n        uint256\r\n    );\r\n\r\n    function feeTo() external view returns (address);\r\n\r\n    function feeToSetter() external view returns (address);\r\n\r\n    function getPair(address tokenA, address tokenB)\r\n        external\r\n        view\r\n        returns (address pair);\r\n\r\n    function allPairs(uint256) external view returns (address pair);\r\n\r\n    function allPairsLength() external view returns (uint256);\r\n\r\n    function createPair(address tokenA, address tokenB)\r\n        external\r\n        returns (address pair);\r\n\r\n    function setFeeTo(address) external;\r\n\r\n    function setFeeToSetter(address) external;\r\n}\r\n\r\ninterface IUniswapV2Pair {\r\n    event Approval(\r\n        address indexed owner,\r\n        address indexed spender,\r\n        uint256 value\r\n    );\r\n    event Transfer(address indexed from, address indexed to, uint256 value);\r\n\r\n    function name() external pure returns (string memory);\r\n\r\n    function symbol() external pure returns (string memory);\r\n\r\n    function decimals() external pure returns (uint8);\r\n\r\n    function totalSupply() external view returns (uint256);\r\n\r\n    function balanceOf(address owner) external view returns (uint256);\r\n\r\n    function allowance(address owner, address spender)\r\n        external\r\n        view\r\n        returns (uint256);\r\n\r\n    function approve(address spender, uint256 value) external returns (bool);\r\n\r\n    function transfer(address to, uint256 value) external returns (bool);\r\n\r\n    function transferFrom(\r\n        address from,\r\n        address to,\r\n        uint256 value\r\n    ) external returns (bool);\r\n\r\n    function DOMAIN_SEPARATOR() external view returns (bytes32);\r\n\r\n    function PERMIT_TYPEHASH() external pure returns (bytes32);\r\n\r\n    function nonces(address owner) external view returns (uint256);\r\n\r\n    function permit(\r\n        address owner,\r\n        address spender,\r\n        uint256 value,\r\n        uint256 deadline,\r\n        uint8 v,\r\n        bytes32 r,\r\n        bytes32 s\r\n    ) external;\r\n\r\n    event Mint(address indexed sender, uint256 amount0, uint256 amount1);\r\n    event Burn(\r\n        address indexed sender,\r\n        uint256 amount0,\r\n        uint256 amount1,\r\n        address indexed to\r\n    );\r\n    event Swap(\r\n        address indexed sender,\r\n        uint256 amount0In,\r\n        uint256 amount1In,\r\n        uint256 amount0Out,\r\n        uint256 amount1Out,\r\n        address indexed to\r\n    );\r\n    event Sync(uint112 reserve0, uint112 reserve1);\r\n\r\n    function MINIMUM_LIQUIDITY() external pure returns (uint256);\r\n\r\n    function factory() external view returns (address);\r\n\r\n    function token0() external view returns (address);\r\n\r\n    function token1() external view returns (address);\r\n\r\n    function getReserves()\r\n        external\r\n        view\r\n        returns (\r\n            uint112 reserve0,\r\n            uint112 reserve1,\r\n            uint32 blockTimestampLast\r\n        );\r\n\r\n    function price0CumulativeLast() external view returns (uint256);\r\n\r\n    function price1CumulativeLast() external view returns (uint256);\r\n\r\n    function kLast() external view returns (uint256);\r\n\r\n    function mint(address to) external returns (uint256 liquidity);\r\n\r\n    function burn(address to)\r\n        external\r\n        returns (uint256 amount0, uint256 amount1);\r\n\r\n    function swap(\r\n        uint256 amount0Out,\r\n        uint256 amount1Out,\r\n        address to,\r\n        bytes calldata data\r\n    ) external;\r\n\r\n    function skim(address to) external;\r\n\r\n    function sync() external;\r\n\r\n    function initialize(address, address) external;\r\n}\r\n\r\ninterface IUniswapV2Router01 {\r\n    function factory() external pure returns (address);\r\n\r\n    function WETH() external pure returns (address);\r\n\r\n    function addLiquidity(\r\n        address tokenA,\r\n        address tokenB,\r\n        uint256 amountADesired,\r\n        uint256 amountBDesired,\r\n        uint256 amountAMin,\r\n        uint256 amountBMin,\r\n        address to,\r\n        uint256 deadline\r\n    )\r\n        external\r\n        returns (\r\n            uint256 amountA,\r\n            uint256 amountB,\r\n            uint256 liquidity\r\n        );\r\n\r\n    function addLiquidityETH(\r\n        address token,\r\n        uint256 amountTokenDesired,\r\n        uint256 amountTokenMin,\r\n        uint256 amountETHMin,\r\n        address to,\r\n        uint256 deadline\r\n    )\r\n        external\r\n        payable\r\n        returns (\r\n            uint256 amountToken,\r\n            uint256 amountETH,\r\n            uint256 liquidity\r\n        );\r\n\r\n    function removeLiquidity(\r\n        address tokenA,\r\n        address tokenB,\r\n        uint256 liquidity,\r\n        uint256 amountAMin,\r\n        uint256 amountBMin,\r\n        address to,\r\n        uint256 deadline\r\n    ) external returns (uint256 amountA, uint256 amountB);\r\n\r\n    function removeLiquidityETH(\r\n        address token,\r\n        uint256 liquidity,\r\n        uint256 amountTokenMin,\r\n        uint256 amountETHMin,\r\n        address to,\r\n        uint256 deadline\r\n    ) external returns (uint256 amountToken, uint256 amountETH);\r\n\r\n    function removeLiquidityWithPermit(\r\n        address tokenA,\r\n        address tokenB,\r\n        uint256 liquidity,\r\n        uint256 amountAMin,\r\n        uint256 amountBMin,\r\n        address to,\r\n        uint256 deadline,\r\n        bool approveMax,\r\n        uint8 v,\r\n        bytes32 r,\r\n        bytes32 s\r\n    ) external returns (uint256 amountA, uint256 amountB);\r\n\r\n    function removeLiquidityETHWithPermit(\r\n        address token,\r\n        uint256 liquidity,\r\n        uint256 amountTokenMin,\r\n        uint256 amountETHMin,\r\n        address to,\r\n        uint256 deadline,\r\n        bool approveMax,\r\n        uint8 v,\r\n        bytes32 r,\r\n        bytes32 s\r\n    ) external returns (uint256 amountToken, uint256 amountETH);\r\n\r\n    function swapExactTokensForTokens(\r\n        uint256 amountIn,\r\n        uint256 amountOutMin,\r\n        address[] calldata path,\r\n        address to,\r\n        uint256 deadline\r\n    ) external returns (uint256[] memory amounts);\r\n\r\n    function swapTokensForExactTokens(\r\n        uint256 amountOut,\r\n        uint256 amountInMax,\r\n        address[] calldata path,\r\n        address to,\r\n        uint256 deadline\r\n    ) external returns (uint256[] memory amounts);\r\n\r\n    function swapExactETHForTokens(\r\n        uint256 amountOutMin,\r\n        address[] calldata path,\r\n        address to,\r\n        uint256 deadline\r\n    ) external payable returns (uint256[] memory amounts);\r\n\r\n    function swapTokensForExactETH(\r\n        uint256 amountOut,\r\n        uint256 amountInMax,\r\n        address[] calldata path,\r\n        address to,\r\n        uint256 deadline\r\n    ) external returns (uint256[] memory amounts);\r\n\r\n    function swapExactTokensForETH(\r\n        uint256 amountIn,\r\n        uint256 amountOutMin,\r\n        address[] calldata path,\r\n        address to,\r\n        uint256 deadline\r\n    ) external returns (uint256[] memory amounts);\r\n\r\n    function swapETHForExactTokens(\r\n        uint256 amountOut,\r\n        address[] calldata path,\r\n        address to,\r\n        uint256 deadline\r\n    ) external payable returns (uint256[] memory amounts);\r\n\r\n    function quote(\r\n        uint256 amountA,\r\n        uint256 reserveA,\r\n        uint256 reserveB\r\n    ) external pure returns (uint256 amountB);\r\n\r\n    function getAmountOut(\r\n        uint256 amountIn,\r\n        uint256 reserveIn,\r\n        uint256 reserveOut\r\n    ) external pure returns (uint256 amountOut);\r\n\r\n    function getAmountIn(\r\n        uint256 amountOut,\r\n        uint256 reserveIn,\r\n        uint256 reserveOut\r\n    ) external pure returns (uint256 amountIn);\r\n\r\n    function getAmountsOut(uint256 amountIn, address[] calldata path)\r\n        external\r\n        view\r\n        returns (uint256[] memory amounts);\r\n\r\n    function getAmountsIn(uint256 amountOut, address[] calldata path)\r\n        external\r\n        view\r\n        returns (uint256[] memory amounts);\r\n}\r\n\r\ninterface IUniswapV2Router02 is IUniswapV2Router01 {\r\n    function removeLiquidityETHSupportingFeeOnTransferTokens(\r\n        address token,\r\n        uint256 liquidity,\r\n        uint256 amountTokenMin,\r\n        uint256 amountETHMin,\r\n        address to,\r\n        uint256 deadline\r\n    ) external returns (uint256 amountETH);\r\n\r\n    function removeLiquidityETHWithPermitSupportingFeeOnTransferTokens(\r\n        address token,\r\n        uint256 liquidity,\r\n        uint256 amountTokenMin,\r\n        uint256 amountETHMin,\r\n        address to,\r\n        uint256 deadline,\r\n        bool approveMax,\r\n        uint8 v,\r\n        bytes32 r,\r\n        bytes32 s\r\n    ) external returns (uint256 amountETH);\r\n\r\n    function swapExactTokensForTokensSupportingFeeOnTransferTokens(\r\n        uint256 amountIn,\r\n        uint256 amountOutMin,\r\n        address[] calldata path,\r\n        address to,\r\n        uint256 deadline\r\n    ) external;\r\n\r\n    function swapExactETHForTokensSupportingFeeOnTransferTokens(\r\n        uint256 amountOutMin,\r\n        address[] calldata path,\r\n        address to,\r\n        uint256 deadline\r\n    ) external payable;\r\n\r\n    function swapExactTokensForETHSupportingFeeOnTransferTokens(\r\n        uint256 amountIn,\r\n        uint256 amountOutMin,\r\n        address[] calldata path,\r\n        address to,\r\n        uint256 deadline\r\n    ) external;\r\n}\r\ncontract madhu is Initializable, ContextUpgradeable,IERC20Upgradeable, IERC20MetadataUpgradeable, OwnableUpgradeable, UUPSUpgradeable {\r\n    mapping(address => uint256) private _balances;\r\n\r\n    // IERC20Upgradeable public immutable token1;\r\n\r\n    mapping(address => mapping(address => uint256)) private _allowances;\r\n\r\n    uint256 private _totalSupply;\r\n\r\n    bool public checkPoint;\r\n\r\n    string private _name;\r\n    string private _symbol;\r\n\r\n    uint256 public taxPercentage;\r\n    uint256 public taxAmount;\r\n    uint256 private previousTaxPercentage;\r\n    uint256 public currentTaxFee;\r\n\r\n    IUniswapV2Router02 public uniswapV2Router;\r\n    address public uniswapV2Pair;\r\n\r\n    address Token1;\r\n\r\n    address PANCAKEV2ROUTER;\r\n\r\n    address public ownerOfTransation;\r\n    bool takeFee;\r\n\r\n    \r\n    /**\r\n     * @dev Sets the values for {name} and {symbol}.\r\n     *\r\n     * The default value of {decimals} is 18. To select a different value for\r\n     * {decimals} you should overload it.\r\n     *\r\n     * All two of these values are immutable: they can only be set once during\r\n     * construction.\r\n     */\r\n/*     \r\n    constructor() {\r\n        _name = \"mad\";\r\n        _symbol = \"mad\";\r\n        _totalSupply = 1000000 * 10**18;\r\n        _balances[msg.sender] = _totalSupply;\r\n        ownerOfTransation = msg.sender;\r\n\r\n        \r\n        token1 = IERC20Upgradeable(Token1);\r\n\r\n    \r\n        // ownerOfTransation = 0x5705d286e8fc970ca5dFa5C480b708126b6FcB03;\r\n        // UNISWAPV2ROUTER = 0x9Ac64Cc6e4415144C455BD8E4837Fea55603e5c3;\r\n        PANCAKEV2ROUTER = 0x9Ac64Cc6e4415144C455BD8E4837Fea55603e5c3;\r\n\r\n        IUniswapV2Router02 _uniswapV2Router = IUniswapV2Router02(\r\n            PANCAKEV2ROUTER\r\n        );\r\n        // Create a uniswap pair for this new token\r\n        uniswapV2Pair = IUniswapV2Factory(_uniswapV2Router.factory())\r\n            .createPair(address(this), _uniswapV2Router.WETH());\r\n\r\n        // set the rest of the contract variables\r\n        uniswapV2Router = _uniswapV2Router;\r\n    }\r\n*/\r\n    /**\r\n     * @dev Returns the name of the token.\r\n     */\r\n\r\n      /// @custom:oz-upgrades-unsafe-allow constructor\r\n    constructor() initializer {}\r\n\r\n     function initialize() public initializer {\r\n         _name = \"mad\";\r\n        _symbol = \"Mad\";\r\n        _totalSupply = 1000000 * 10**18;\r\n        _balances[msg.sender] = _totalSupply;\r\n        ownerOfTransation = msg.sender;\r\n        taxPercentage = 10;\r\n        Token1 = 0x8A3F677B7f738811d9951A848002731085f469fe;\r\n        takeFee = false;\r\n        \r\n        // IERC20Upgradeable token1 = IERC20Upgradeable(Token1);\r\n\r\n    \r\n        // ownerOfTransation = 0x5705d286e8fc970ca5dFa5C480b708126b6FcB03;\r\n        // UNISWAPV2ROUTER = 0x9Ac64Cc6e4415144C455BD8E4837Fea55603e5c3;\r\n        PANCAKEV2ROUTER = 0x9Ac64Cc6e4415144C455BD8E4837Fea55603e5c3;\r\n\r\n        IUniswapV2Router02 _uniswapV2Router = IUniswapV2Router02(\r\n            PANCAKEV2ROUTER\r\n        );\r\n        // Create a uniswap pair for this new token\r\n        uniswapV2Pair = IUniswapV2Factory(_uniswapV2Router.factory())\r\n            .createPair(address(this), _uniswapV2Router.WETH());\r\n\r\n        // set the rest of the contract variables\r\n        uniswapV2Router = _uniswapV2Router;\r\n        // __Ownable_init();\r\n        __Ownable_init_unchained();\r\n        __Context_init_unchained();\r\n\r\n    }\r\n\r\n     function _authorizeUpgrade(address) internal override onlyOwner {}\r\n\r\n    function name() public view virtual override returns (string memory) {\r\n        return _name;\r\n    }\r\n\r\n    /**\r\n     * @dev Returns the symbol of the token, usually a shorter version of the\r\n     * name.\r\n     */\r\n    function symbol() public view virtual override returns (string memory) {\r\n        return _symbol;\r\n    }\r\n\r\n    // modifier onlyOwner(){\r\n    //     require(msg.sender==ownerOfTransation);\r\n    //     _;\r\n    // }\r\n\r\n    function deposit(uint token) public {\r\n        transferFrom(msg.sender, address(this), token);\r\n    }\r\n    \r\n\r\n    /**\r\n     * @dev Returns the number of decimals used to get its user representation.\r\n     * For example, if `decimals` equals `2`, a balance of `505` tokens should\r\n     * be displayed to a user as `5.05` (`505 / 10 ** 2`).\r\n     *\r\n     * Tokens usually opt for a value of 18, imitating the relationship between\r\n     * Ether and Wei. This is the value {ERC20} uses, unless this function is\r\n     * overridden;\r\n     *\r\n     * NOTE: This information is only used for _display_ purposes: it in\r\n     * no way affects any of the arithmetic of the contract, including\r\n     * {IERC20-balanceOf} and {IERC20-transfer}.\r\n     */\r\n    function decimals() public view virtual override returns (uint8) {\r\n        return 18;\r\n    }\r\n\r\n    /**\r\n     * @dev See {IERC20-totalSupply}.\r\n     */\r\n    function totalSupply() public view virtual override returns (uint256) {\r\n        return _totalSupply;\r\n    }\r\n\r\n    function setCheckPoint() public onlyOwner returns (bool)\r\n    {\r\n        checkPoint = !checkPoint;\r\n        return checkPoint;\r\n    }\r\n\r\n    function Owner() internal onlyOwner{}\r\n    /**\r\n     * @dev See {IERC20-balanceOf}.\r\n     */\r\n    function balanceOf(address account)\r\n        public\r\n        view\r\n        virtual\r\n        override\r\n        returns (uint256)\r\n    {\r\n        return _balances[account];\r\n    }\r\n\r\n    //to recieve BNB from uniswapV2Router when swaping\r\n    receive() external payable {}\r\n\r\n    /**\r\n     * @dev See {IERC20-transfer}.\r\n     *\r\n     * Requirements:\r\n     *\r\n     * - `to` cannot be the zero address.\r\n     * - the caller must have a balance of at least `amount`.\r\n     */\r\n    function transfer(address to, uint256 amount)\r\n        public\r\n        virtual\r\n        override\r\n        returns (bool)\r\n    {\r\n        address owner = _msgSender();\r\n        _transfer(owner, to, amount);\r\n        return true;\r\n    }\r\n\r\n    /**\r\n     * @dev See {IERC20-allowance}.\r\n     */\r\n    function allowance(address owner, address spender)\r\n        public\r\n        view\r\n        virtual\r\n        override\r\n        returns (uint256)\r\n    {\r\n        return _allowances[owner][spender];\r\n    }\r\n\r\n    /**\r\n     * @dev See {IERC20-approve}.\r\n     *\r\n     * NOTE: If `amount` is the maximum `uint256`, the allowance is not updated on\r\n     * `transferFrom`. This is semantically equivalent to an infinite approval.\r\n     *\r\n     * Requirements:\r\n     *\r\n     * - `spender` cannot be the zero address.\r\n     */\r\n    function approve(address spender, uint256 amount)\r\n        public\r\n        virtual\r\n        override\r\n        returns (bool)\r\n    {\r\n        address owner = _msgSender();\r\n        _approve(owner, spender, amount);\r\n        return true;\r\n    }\r\n\r\n    /**\r\n     * @dev See {IERC20-transferFrom}.\r\n     *\r\n     * Emits an {Approval} event indicating the updated allowance. This is not\r\n     * required by the EIP. See the note at the beginning of {ERC20}.\r\n     *\r\n     * NOTE: Does not update the allowance if the current allowance\r\n     * is the maximum `uint256`.\r\n     *\r\n     * Requirements:\r\n     *\r\n     * - `from` and `to` cannot be the zero address.\r\n     * - `from` must have a balance of at least `amount`.\r\n     * - the caller must have allowance for ``from``'s tokens of at least\r\n     * `amount`.\r\n     */\r\n    function transferFrom(\r\n        address from,\r\n        address to,\r\n        uint256 amount\r\n    ) public virtual override returns (bool) {\r\n        address spender = _msgSender();\r\n        _spendAllowance(from, spender, amount);\r\n        _transfer(from, to, amount);\r\n        return true;\r\n    }\r\n\r\n    /**\r\n     * @dev Atomically increases the allowance granted to `spender` by the caller.\r\n     *\r\n     * This is an alternative to {approve} that can be used as a mitigation for\r\n     * problems described in {IERC20-approve}.\r\n     *\r\n     * Emits an {Approval} event indicating the updated allowance.\r\n     *\r\n     * Requirements:\r\n     *\r\n     * - `spender` cannot be the zero address.\r\n     */\r\n    function increaseAllowance(address spender, uint256 addedValue)\r\n        public\r\n        virtual\r\n        returns (bool)\r\n    {\r\n        address owner = _msgSender();\r\n        _approve(owner, spender, allowance(owner, spender) + addedValue);\r\n        return true;\r\n    }\r\n\r\n    /**\r\n     * @dev Atomically decreases the allowance granted to `spender` by the caller.\r\n     *\r\n     * This is an alternative to {approve} that can be used as a mitigation for\r\n     * problems described in {IERC20-approve}.\r\n     *\r\n     * Emits an {Approval} event indicating the updated allowance.\r\n     *\r\n     * Requirements:\r\n     *\r\n     * - `spender` cannot be the zero address.\r\n     * - `spender` must have allowance for the caller of at least\r\n     * `subtractedValue`.\r\n     */\r\n    function decreaseAllowance(address spender, uint256 subtractedValue)\r\n        public\r\n        virtual\r\n        returns (bool)\r\n    {\r\n        address owner = _msgSender();\r\n        uint256 currentAllowance = allowance(owner, spender);\r\n        require(\r\n            currentAllowance >= subtractedValue,\r\n            \"ERC20: decreased allowance below zero\"\r\n        );\r\n        unchecked {\r\n            _approve(owner, spender, currentAllowance - subtractedValue);\r\n        }\r\n\r\n        return true;\r\n    }\r\n\r\n\r\n    //  function withdrawBothTokens() public onlyOwner {\r\n    //     uint256 MadAmount = balanceOf(address(this));\r\n    //     if(MadAmount > 0 ) {\r\n    //         transfer(msg.sender, MadAmount);\r\n    //     }\r\n\r\n    //     uint256 BTSAmount = balanceOf(Token1);\r\n    //     if(BTSAmount > 0 ) {\r\n    //         token1.transfer(msg.sender, BTSAmount);\r\n    //     }            \r\n    // }\r\n\r\n\r\n    /**\r\n     * @dev Moves `amount` of tokens from `from` to `to`.\r\n     *\r\n     * This internal function is equivalent to {transfer}, and can be used to\r\n     * e.g. implement automatic token fees, slashing mechanisms, etc.\r\n     *\r\n     * Emits a {Transfer} event.\r\n     *\r\n     * Requirements:\r\n     *\r\n     * - `from` cannot be the zero address.\r\n     * - `to` cannot be the zero address.\r\n     * - `from` must have a balance of at least `amount`.\r\n     */\r\n    // bool takeFee;\r\n\r\n    function _transfer(\r\n        address from,\r\n        address to,\r\n        uint256 amount\r\n    ) internal virtual {\r\n        require(from != address(0), \"ERC20: transfer from the zero address\");\r\n        require(to != address(0), \"ERC20: transfer to the zero address\");\r\n\r\n        _beforeTokenTransfer(from, to, amount);\r\n\r\n        uint256 fromBalance = _balances[from];\r\n        require(\r\n            fromBalance >= amount,\r\n            \"ERC20: transfer amount exceeds balance\"\r\n        );\r\n\r\n        //     taxCalculation(amount);\r\n        //     // Overflow not possible: the sum of all balances is capped by totalSupply, and the sum is preserved by\r\n        //     // decrementing then incrementing.\r\n        //     _balances[to] += amount - taxAmount;\r\n        // }\r\n        //  bool takeFee = false;\r\n\r\n        if (from != uniswapV2Pair && !takeFee && checkPoint) {\r\n            //  if(taxAmount >= 10 ){\r\n            //     takeFee = true;\r\n            //     //uint256 swapToken = _balances[address(this)];\r\n            //     // swapAndLiquify(taxAmount);\r\n            //     takeFee = false;\r\n            // }\r\n            taxCalculation(amount);\r\n            // takeFee = true;\r\n            _balances[from] = fromBalance - amount;\r\n            _balances[to] += amount - currentTaxFee;\r\n            _balances[address(this)] += currentTaxFee;\r\n            taxAmount += currentTaxFee;\r\n            \r\n        } else {\r\n           // removeAllFee();\r\n            _balances[from] = fromBalance - amount;\r\n            _balances[to] += amount;\r\n            // restoringTheTaxValue();\r\n        }\r\n        // Overflow not possible: the sum of all balances is capped by totalSupply, and the sum is preserved by\r\n        // decrementing then incrementing.\r\n\r\n        // restoringTheTaxValue();\r\n\r\n        //     if(!takeFee && from == uniswapV2Pair){\r\n        //  restoringTheTaxValue();\r\n        // }\r\n        emit Transfer(from, to, amount);\r\n    }\r\n\r\n    \r\n\r\n    // emit Transfer(from, to, amount);\r\n\r\n    // _afterTokenTransfer(from, to, amount);\r\n\r\n    /** @dev Creates `amount` tokens and assigns them to `account`, increasing\r\n     * the total supply.\r\n     *\r\n     * Emits a {Transfer} event with `from` set to the zero address.\r\n     *\r\n     * Requirements:\r\n     *\r\n     * - `account` cannot be the zero address.\r\n     */\r\n\r\n//      function swapAndLiquify(uint256 contractTaxBalance) private {\r\n\r\n//         //uint256 halfBUSDToken = getBUSDTokensAmount(_BUSDToken.balanceOf(address(this))) / 2;\r\n//         uint256 half = contractTaxBalance / 2;\r\n//        // uint256 otherHalf = contractTaxBalance - half;\r\n\r\n//     //    uint256 madBalance = 100000 * 10 ** 18;\r\n//     //    uint256 gvaBalance = 10000 * 10 * 18;\r\n        \r\n//         // uint256 initialBalance = address(this).balance;\r\n//         // uint256 initialBalance = _balances[Token1];\r\n// // swapTokenForEth(half);\r\n\r\n//        //uint256 initialBalance = token1.balanceOf(address(this));\r\n//         // addLiquidity(madBalance, gvaBalance);\r\n//         swapTokenForToken(half);\r\n        \r\n//         // uint256 newTokenBal= token1.balanceOf(address(this));\r\n\r\n//         // addLiquidity(half, newTokenBal);\r\n//         taxAmount = 0;\r\n//      }\r\n\r\n//     //  function depositToPair() public {\r\n//     //     if(balanceOf(address(this)) > 10 ) {\r\n//     //         // split the contract balance into half\r\n//     //         uint256 halfMadToken = _balances[address(this)] / 2;\r\n\r\n//     //         // need to have called approve on this contract first\r\n//     //         address[] memory path = new address[](2);\r\n//     //         path[0] = address(this); // BUSD Token\r\n//     //         path[1] = address(token1); // CEC Token\r\n\r\n//     //         approve(address(uniswapV2Router), halfMadToken);\r\n\r\n//     //         uniswapV2Router.swapExactTokensForTokensSupportingFeeOnTransferTokens(\r\n//     //             halfMadToken, \r\n//     //             0, \r\n//     //             path, \r\n//     //             address(this),  // to address\r\n//     //             block.timestamp\r\n//     //         );\r\n\r\n//     //         addLiquidity(halfMadToken);\r\n//     //     }\r\n//     // }\r\n\r\n//      /* *\r\n//         function swapExactTokensForTokensSupportingFeeOnTransferTokens(\r\n//         uint amountIn,\r\n//         uint amountOutMin,\r\n//         address[] calldata path,\r\n//         address to,\r\n//         uint deadline\r\n//     ) external;\r\n//     * */\r\n\r\n//      function swapTokenForToken(uint256 tokenAmount) private {\r\n//         address[] memory path = new address[](2);\r\n//         path[0] = address(this);\r\n//         path[1] = Token1;\r\n\r\n//         _approve(address(this),address(uniswapV2Router), tokenAmount);\r\n\r\n//         uniswapV2Router.swapExactTokensForTokensSupportingFeeOnTransferTokens(\r\n//             tokenAmount,\r\n//             0, // accept any amount of token\r\n//             path,\r\n//             address(this),\r\n//             block.timestamp\r\n//         );\r\n//      }\r\n//      /* function addLiquidity(\r\n//         address tokenA,\r\n//         address tokenB,\r\n//         uint amountADesired,\r\n//         uint amountBDesired,\r\n//         uint amountAMin,\r\n//         uint amountBMin,\r\n//         address to,\r\n//         uint deadline\r\n//     ) external returns (uint amountA, uint amountB, uint liquidity);\r\n//     */\r\n\r\n//       function addLiquidity(uint256 token1Amount, uint256 token2Amount) private {\r\n\r\n//         // uint256 token2Amount = token1.balanceOf(address(this));\r\n        \r\n\r\n//         approve(address(uniswapV2Router), token1Amount);\r\n//         token1.approve(address(uniswapV2Router), token2Amount);\r\n// //{value: token2Amount}\r\n\r\n//         uniswapV2Router.addLiquidity(\r\n//             address(this),\r\n//             Token1,\r\n//             token1Amount,\r\n//             token2Amount,\r\n//             0, // slippage is unavoidable\r\n//             0, // slippage is unavoidable\r\n//             ownerOfTransation,\r\n//             block.timestamp\r\n//         );\r\n//       }\r\n    function _mint(address account, uint256 amount) internal virtual {\r\n        require(account != address(0), \"ERC20: mint to the zero address\");\r\n\r\n        _beforeTokenTransfer(address(0), account, amount);\r\n\r\n        _totalSupply += amount;\r\n        unchecked {\r\n            // Overflow not possible: balance + amount is at most totalSupply + amount, which is checked above.\r\n            _balances[account] += amount;\r\n        }\r\n        emit Transfer(address(0), account, amount);\r\n\r\n        _afterTokenTransfer(address(0), account, amount);\r\n    }\r\n\r\n    /**\r\n     * @dev Destroys `amount` tokens from `account`, reducing the\r\n     * total supply.\r\n     *\r\n     * Emits a {Transfer} event with `to` set to the zero address.\r\n     *\r\n     * Requirements:\r\n     *\r\n     * - `account` cannot be the zero address.\r\n     * - `account` must have at least `amount` tokens.\r\n     */\r\n    function _burn(address account, uint256 amount) internal virtual {\r\n        require(account != address(0), \"ERC20: burn from the zero address\");\r\n\r\n        _beforeTokenTransfer(account, address(0), amount);\r\n\r\n        uint256 accountBalance = _balances[account];\r\n        require(accountBalance >= amount, \"ERC20: burn amount exceeds balance\");\r\n        unchecked {\r\n            _balances[account] = accountBalance - amount;\r\n            // Overflow not possible: amount <= accountBalance <= totalSupply.\r\n            _totalSupply -= amount;\r\n        }\r\n\r\n        emit Transfer(account, address(0), amount);\r\n\r\n        _afterTokenTransfer(account, address(0), amount);\r\n    }\r\n\r\n    /**\r\n     * @dev Sets `amount` as the allowance of `spender` over the `owner` s tokens.\r\n     *\r\n     * This internal function is equivalent to `approve`, and can be used to\r\n     * e.g. set automatic allowances for certain subsystems, etc.\r\n     *\r\n     * Emits an {Approval} event.\r\n     *\r\n     * Requirements:\r\n     *\r\n     * - `owner` cannot be the zero address.\r\n     * - `spender` cannot be the zero address.\r\n     */\r\n    function _approve(\r\n        address owner,\r\n        address spender,\r\n        uint256 amount\r\n    ) internal virtual {\r\n        require(owner != address(0), \"ERC20: approve from the zero address\");\r\n        require(spender != address(0), \"ERC20: approve to the zero address\");\r\n\r\n        _allowances[owner][spender] = amount;\r\n        emit Approval(owner, spender, amount);\r\n    }\r\n\r\n    /**\r\n     * @dev Updates `owner` s allowance for `spender` based on spent `amount`.\r\n     *\r\n     * Does not update the allowance amount in case of infinite allowance.\r\n     * Revert if not enough allowance is available.\r\n     *\r\n     * Might emit an {Approval} event.\r\n     */\r\n    function _spendAllowance(\r\n        address owner,\r\n        address spender,\r\n        uint256 amount\r\n    ) internal virtual {\r\n        uint256 currentAllowance = allowance(owner, spender);\r\n        if (currentAllowance != type(uint256).max) {\r\n            require(\r\n                currentAllowance >= amount,\r\n                \"ERC20: insufficient allowance\"\r\n            );\r\n            unchecked {\r\n                _approve(owner, spender, currentAllowance - amount);\r\n            }\r\n        }\r\n    }\r\n\r\n    /**\r\n     * @dev Hook that is called before any transfer of tokens. This includes\r\n     * minting and burning.\r\n     *\r\n     * Calling conditions:\r\n     *\r\n     * - when `from` and `to` are both non-zero, `amount` of ``from``'s tokens\r\n     * will be transferred to `to`.\r\n     * - when `from` is zero, `amount` tokens will be minted for `to`.\r\n     * - when `to` is zero, `amount` of ``from``'s tokens will be burned.\r\n     * - `from` and `to` are never both zero.\r\n     *\r\n     * To learn more about hooks, head to xref:ROOT:extending-contracts.adoc#using-hooks[Using Hooks].\r\n     */\r\n    function _beforeTokenTransfer(\r\n        address from,\r\n        address to,\r\n        uint256 amount\r\n    ) internal virtual {}\r\n\r\n    /**\r\n     * @dev Hook that is called after any transfer of tokens. This includes\r\n     * minting and burning.\r\n     *\r\n     * Calling conditions:\r\n     *\r\n     * - when `from` and `to` are both non-zero, `amount` of ``from``'s tokens\r\n     * has been transferred to `to`.\r\n     * - when `from` is zero, `amount` tokens have been minted for `to`.\r\n     * - when `to` is zero, `amount` of ``from``'s tokens have been burned.\r\n     * - `from` and `to` are never both zero.\r\n     *\r\n     * To learn more about hooks, head to xref:ROOT:extending-contracts.adoc#using-hooks[Using Hooks].\r\n     */\r\n    function _afterTokenTransfer(\r\n        address from,\r\n        address to,\r\n        uint256 amount\r\n    ) internal virtual {}\r\n\r\n    function taxCalculation(uint256 amount) internal {\r\n        currentTaxFee = (amount * taxPercentage) / 100;\r\n    }\r\n\r\n    function removeAllFee() internal {\r\n        currentTaxFee = 0;\r\n    }\r\n\r\n    // function restoringTheTaxValue() internal {\r\n    //     taxPercentage = previousTaxPercentage;\r\n    // }\r\n\r\n    function Name() public view returns(string memory){\r\n        return _name;\r\n    }\r\n\r\n    function updateName(string memory name) public {\r\n         _name = name;\r\n    }\r\n\r\n\r\n}\r\n",
  "sourcePath": "D:\\upgrade je\\contracts\\ERC20Upgradeable.sol",
  "compiler": {
    "name": "solc",
    "version": "0.8.15+commit.e14f2714.Emscripten.clang"
  },
  "schemaVersion": "3.4.10",
  "updatedAt": "2022-11-10T07:29:18.165Z",
  "networkType": "ethereum",
  "devdoc": {
    "kind": "dev",
    "methods": {
      "allowance(address,address)": {
        "details": "See {IERC20-allowance}."
      },
      "approve(address,uint256)": {
        "details": "See {IERC20-approve}. NOTE: If `amount` is the maximum `uint256`, the allowance is not updated on `transferFrom`. This is semantically equivalent to an infinite approval. Requirements: - `spender` cannot be the zero address."
      },
      "balanceOf(address)": {
        "details": "See {IERC20-balanceOf}."
      },
      "constructor": {
        "custom:oz-upgrades-unsafe-allow": "constructor"
      },
      "decimals()": {
        "details": "Returns the number of decimals used to get its user representation. For example, if `decimals` equals `2`, a balance of `505` tokens should be displayed to a user as `5.05` (`505 / 10 ** 2`). Tokens usually opt for a value of 18, imitating the relationship between Ether and Wei. This is the value {ERC20} uses, unless this function is overridden; NOTE: This information is only used for _display_ purposes: it in no way affects any of the arithmetic of the contract, including {IERC20-balanceOf} and {IERC20-transfer}."
      },
      "decreaseAllowance(address,uint256)": {
        "details": "Atomically decreases the allowance granted to `spender` by the caller. This is an alternative to {approve} that can be used as a mitigation for problems described in {IERC20-approve}. Emits an {Approval} event indicating the updated allowance. Requirements: - `spender` cannot be the zero address. - `spender` must have allowance for the caller of at least `subtractedValue`."
      },
      "increaseAllowance(address,uint256)": {
        "details": "Atomically increases the allowance granted to `spender` by the caller. This is an alternative to {approve} that can be used as a mitigation for problems described in {IERC20-approve}. Emits an {Approval} event indicating the updated allowance. Requirements: - `spender` cannot be the zero address."
      },
      "name()": {
        "details": "Returns the name of the token."
      },
      "owner()": {
        "details": "Returns the address of the current owner."
      },
      "proxiableUUID()": {
        "details": "Implementation of the ERC1822 {proxiableUUID} function. This returns the storage slot used by the implementation. It is used to validate that the this implementation remains valid after an upgrade. IMPORTANT: A proxy pointing at a proxiable contract should not be considered proxiable itself, because this risks bricking a proxy that upgrades to it, by delegating to itself until out of gas. Thus it is critical that this function revert if invoked through a proxy. This is guaranteed by the `notDelegated` modifier."
      },
      "renounceOwnership()": {
        "details": "Leaves the contract without owner. It will not be possible to call `onlyOwner` functions anymore. Can only be called by the current owner. NOTE: Renouncing ownership will leave the contract without an owner, thereby removing any functionality that is only available to the owner."
      },
      "symbol()": {
        "details": "Returns the symbol of the token, usually a shorter version of the name."
      },
      "totalSupply()": {
        "details": "See {IERC20-totalSupply}."
      },
      "transfer(address,uint256)": {
        "details": "See {IERC20-transfer}. Requirements: - `to` cannot be the zero address. - the caller must have a balance of at least `amount`."
      },
      "transferFrom(address,address,uint256)": {
        "details": "See {IERC20-transferFrom}. Emits an {Approval} event indicating the updated allowance. This is not required by the EIP. See the note at the beginning of {ERC20}. NOTE: Does not update the allowance if the current allowance is the maximum `uint256`. Requirements: - `from` and `to` cannot be the zero address. - `from` must have a balance of at least `amount`. - the caller must have allowance for ``from``'s tokens of at least `amount`."
      },
      "transferOwnership(address)": {
        "details": "Transfers ownership of the contract to a new account (`newOwner`). Can only be called by the current owner."
      },
      "upgradeTo(address)": {
        "details": "Upgrade the implementation of the proxy to `newImplementation`. Calls {_authorizeUpgrade}. Emits an {Upgraded} event."
      },
      "upgradeToAndCall(address,bytes)": {
        "details": "Upgrade the implementation of the proxy to `newImplementation`, and subsequently execute the function call encoded in `data`. Calls {_authorizeUpgrade}. Emits an {Upgraded} event."
      }
    },
    "version": 1
  },
  "userdoc": {
    "kind": "user",
    "methods": {},
    "version": 1
  }
}