{
  "contractName": "SparkTokens",
  "abi": [
    {
      "anonymous": false,
      "inputs": [
        {
          "indexed": false,
          "internalType": "address",
          "name": "previousAdmin",
          "type": "address"
        },
        {
          "indexed": false,
          "internalType": "address",
          "name": "newAdmin",
          "type": "address"
        }
      ],
      "name": "AdminChanged",
      "type": "event"
    },
    {
      "anonymous": false,
      "inputs": [
        {
          "indexed": true,
          "internalType": "address",
          "name": "owner",
          "type": "address"
        },
        {
          "indexed": true,
          "internalType": "address",
          "name": "spender",
          "type": "address"
        },
        {
          "indexed": false,
          "internalType": "uint256",
          "name": "value",
          "type": "uint256"
        }
      ],
      "name": "Approval",
      "type": "event"
    },
    {
      "anonymous": false,
      "inputs": [
        {
          "indexed": true,
          "internalType": "address",
          "name": "beacon",
          "type": "address"
        }
      ],
      "name": "BeaconUpgraded",
      "type": "event"
    },
    {
      "anonymous": false,
      "inputs": [
        {
          "indexed": false,
          "internalType": "uint8",
          "name": "version",
          "type": "uint8"
        }
      ],
      "name": "Initialized",
      "type": "event"
    },
    {
      "anonymous": false,
      "inputs": [
        {
          "indexed": true,
          "internalType": "address",
          "name": "previousOwner",
          "type": "address"
        },
        {
          "indexed": true,
          "internalType": "address",
          "name": "newOwner",
          "type": "address"
        }
      ],
      "name": "OwnershipTransferred",
      "type": "event"
    },
    {
      "anonymous": false,
      "inputs": [
        {
          "indexed": false,
          "internalType": "address",
          "name": "account",
          "type": "address"
        }
      ],
      "name": "Paused",
      "type": "event"
    },
    {
      "anonymous": false,
      "inputs": [
        {
          "indexed": true,
          "internalType": "address",
          "name": "from",
          "type": "address"
        },
        {
          "indexed": true,
          "internalType": "address",
          "name": "to",
          "type": "address"
        },
        {
          "indexed": false,
          "internalType": "uint256",
          "name": "value",
          "type": "uint256"
        }
      ],
      "name": "Transfer",
      "type": "event"
    },
    {
      "anonymous": false,
      "inputs": [
        {
          "indexed": false,
          "internalType": "address",
          "name": "account",
          "type": "address"
        }
      ],
      "name": "Unpaused",
      "type": "event"
    },
    {
      "anonymous": false,
      "inputs": [
        {
          "indexed": true,
          "internalType": "address",
          "name": "implementation",
          "type": "address"
        }
      ],
      "name": "Upgraded",
      "type": "event"
    },
    {
      "inputs": [],
      "name": "_check",
      "outputs": [
        {
          "internalType": "bool",
          "name": "",
          "type": "bool"
        }
      ],
      "stateMutability": "view",
      "type": "function"
    },
    {
      "inputs": [],
      "name": "buySellTax",
      "outputs": [
        {
          "internalType": "uint256",
          "name": "",
          "type": "uint256"
        }
      ],
      "stateMutability": "view",
      "type": "function"
    },
    {
      "inputs": [],
      "name": "buyTax",
      "outputs": [
        {
          "internalType": "uint256",
          "name": "",
          "type": "uint256"
        }
      ],
      "stateMutability": "view",
      "type": "function"
    },
    {
      "inputs": [],
      "name": "charity",
      "outputs": [
        {
          "internalType": "address payable",
          "name": "",
          "type": "address"
        }
      ],
      "stateMutability": "view",
      "type": "function"
    },
    {
      "inputs": [],
      "name": "charityFee",
      "outputs": [
        {
          "internalType": "uint256",
          "name": "",
          "type": "uint256"
        }
      ],
      "stateMutability": "view",
      "type": "function"
    },
    {
      "inputs": [],
      "name": "checkPointLiquidity",
      "outputs": [
        {
          "internalType": "bool",
          "name": "",
          "type": "bool"
        }
      ],
      "stateMutability": "view",
      "type": "function"
    },
    {
      "inputs": [],
      "name": "dev",
      "outputs": [
        {
          "internalType": "address payable",
          "name": "",
          "type": "address"
        }
      ],
      "stateMutability": "view",
      "type": "function"
    },
    {
      "inputs": [],
      "name": "devFee",
      "outputs": [
        {
          "internalType": "uint256",
          "name": "",
          "type": "uint256"
        }
      ],
      "stateMutability": "view",
      "type": "function"
    },
    {
      "inputs": [],
      "name": "lpFee",
      "outputs": [
        {
          "internalType": "uint256",
          "name": "",
          "type": "uint256"
        }
      ],
      "stateMutability": "view",
      "type": "function"
    },
    {
      "inputs": [],
      "name": "marketing",
      "outputs": [
        {
          "internalType": "address payable",
          "name": "",
          "type": "address"
        }
      ],
      "stateMutability": "view",
      "type": "function"
    },
    {
      "inputs": [],
      "name": "marketingFee",
      "outputs": [
        {
          "internalType": "uint256",
          "name": "",
          "type": "uint256"
        }
      ],
      "stateMutability": "view",
      "type": "function"
    },
    {
      "inputs": [],
      "name": "owner",
      "outputs": [
        {
          "internalType": "address",
          "name": "",
          "type": "address"
        }
      ],
      "stateMutability": "view",
      "type": "function"
    },
    {
      "inputs": [],
      "name": "paused",
      "outputs": [
        {
          "internalType": "bool",
          "name": "",
          "type": "bool"
        }
      ],
      "stateMutability": "view",
      "type": "function"
    },
    {
      "inputs": [],
      "name": "proxiableUUID",
      "outputs": [
        {
          "internalType": "bytes32",
          "name": "",
          "type": "bytes32"
        }
      ],
      "stateMutability": "view",
      "type": "function"
    },
    {
      "inputs": [],
      "name": "renounceOwnership",
      "outputs": [],
      "stateMutability": "nonpayable",
      "type": "function"
    },
    {
      "inputs": [],
      "name": "sellTax",
      "outputs": [
        {
          "internalType": "uint256",
          "name": "",
          "type": "uint256"
        }
      ],
      "stateMutability": "view",
      "type": "function"
    },
    {
      "inputs": [],
      "name": "tCharityFee",
      "outputs": [
        {
          "internalType": "uint256",
          "name": "",
          "type": "uint256"
        }
      ],
      "stateMutability": "view",
      "type": "function"
    },
    {
      "inputs": [],
      "name": "tDevFee",
      "outputs": [
        {
          "internalType": "uint256",
          "name": "",
          "type": "uint256"
        }
      ],
      "stateMutability": "view",
      "type": "function"
    },
    {
      "inputs": [],
      "name": "tLpFee",
      "outputs": [
        {
          "internalType": "uint256",
          "name": "",
          "type": "uint256"
        }
      ],
      "stateMutability": "view",
      "type": "function"
    },
    {
      "inputs": [],
      "name": "tMarketingFee",
      "outputs": [
        {
          "internalType": "uint256",
          "name": "",
          "type": "uint256"
        }
      ],
      "stateMutability": "view",
      "type": "function"
    },
    {
      "inputs": [
        {
          "internalType": "address",
          "name": "newOwner",
          "type": "address"
        }
      ],
      "name": "transferOwnership",
      "outputs": [],
      "stateMutability": "nonpayable",
      "type": "function"
    },
    {
      "inputs": [],
      "name": "uniswapV2Pair",
      "outputs": [
        {
          "internalType": "address",
          "name": "",
          "type": "address"
        }
      ],
      "stateMutability": "view",
      "type": "function"
    },
    {
      "inputs": [],
      "name": "uniswapV2Router",
      "outputs": [
        {
          "internalType": "contract IUniswapV2Router02",
          "name": "",
          "type": "address"
        }
      ],
      "stateMutability": "view",
      "type": "function"
    },
    {
      "inputs": [
        {
          "internalType": "address",
          "name": "newImplementation",
          "type": "address"
        }
      ],
      "name": "upgradeTo",
      "outputs": [],
      "stateMutability": "nonpayable",
      "type": "function"
    },
    {
      "inputs": [
        {
          "internalType": "address",
          "name": "newImplementation",
          "type": "address"
        },
        {
          "internalType": "bytes",
          "name": "data",
          "type": "bytes"
        }
      ],
      "name": "upgradeToAndCall",
      "outputs": [],
      "stateMutability": "payable",
      "type": "function"
    },
    {
      "stateMutability": "payable",
      "type": "receive"
    },
    {
      "inputs": [],
      "name": "initialize",
      "outputs": [],
      "stateMutability": "nonpayable",
      "type": "function"
    },
    {
      "inputs": [],
      "name": "name",
      "outputs": [
        {
          "internalType": "string",
          "name": "",
          "type": "string"
        }
      ],
      "stateMutability": "view",
      "type": "function"
    },
    {
      "inputs": [],
      "name": "symbol",
      "outputs": [
        {
          "internalType": "string",
          "name": "",
          "type": "string"
        }
      ],
      "stateMutability": "view",
      "type": "function"
    },
    {
      "inputs": [],
      "name": "decimals",
      "outputs": [
        {
          "internalType": "uint8",
          "name": "",
          "type": "uint8"
        }
      ],
      "stateMutability": "view",
      "type": "function"
    },
    {
      "inputs": [],
      "name": "totalSupply",
      "outputs": [
        {
          "internalType": "uint256",
          "name": "",
          "type": "uint256"
        }
      ],
      "stateMutability": "view",
      "type": "function"
    },
    {
      "inputs": [
        {
          "internalType": "address",
          "name": "account",
          "type": "address"
        }
      ],
      "name": "balanceOf",
      "outputs": [
        {
          "internalType": "uint256",
          "name": "",
          "type": "uint256"
        }
      ],
      "stateMutability": "view",
      "type": "function"
    },
    {
      "inputs": [
        {
          "internalType": "uint256",
          "name": "_marketingFee",
          "type": "uint256"
        }
      ],
      "name": "setMarketingFee",
      "outputs": [],
      "stateMutability": "nonpayable",
      "type": "function"
    },
    {
      "inputs": [
        {
          "internalType": "uint256",
          "name": "_devFee",
          "type": "uint256"
        }
      ],
      "name": "setDevFee",
      "outputs": [],
      "stateMutability": "nonpayable",
      "type": "function"
    },
    {
      "inputs": [
        {
          "internalType": "uint256",
          "name": "_charityFee",
          "type": "uint256"
        }
      ],
      "name": "setCharityFee",
      "outputs": [],
      "stateMutability": "nonpayable",
      "type": "function"
    },
    {
      "inputs": [
        {
          "internalType": "uint256",
          "name": "_lpFee",
          "type": "uint256"
        }
      ],
      "name": "setLPFee",
      "outputs": [],
      "stateMutability": "nonpayable",
      "type": "function"
    },
    {
      "inputs": [
        {
          "internalType": "uint256",
          "name": "_buyTax",
          "type": "uint256"
        }
      ],
      "name": "setBuyTax",
      "outputs": [],
      "stateMutability": "nonpayable",
      "type": "function"
    },
    {
      "inputs": [
        {
          "internalType": "uint256",
          "name": "_sellTax",
          "type": "uint256"
        }
      ],
      "name": "setSellTax",
      "outputs": [],
      "stateMutability": "nonpayable",
      "type": "function"
    },
    {
      "inputs": [
        {
          "internalType": "uint256",
          "name": "_contractLimit",
          "type": "uint256"
        }
      ],
      "name": "setContractLimit",
      "outputs": [],
      "stateMutability": "nonpayable",
      "type": "function"
    },
    {
      "inputs": [
        {
          "internalType": "uint256",
          "name": "_limit",
          "type": "uint256"
        }
      ],
      "name": "setAntiWhaleLimit",
      "outputs": [],
      "stateMutability": "nonpayable",
      "type": "function"
    },
    {
      "inputs": [],
      "name": "enableBuySellLimit",
      "outputs": [
        {
          "internalType": "bool",
          "name": "",
          "type": "bool"
        }
      ],
      "stateMutability": "nonpayable",
      "type": "function"
    },
    {
      "inputs": [],
      "name": "disableBuySellLimit",
      "outputs": [
        {
          "internalType": "bool",
          "name": "",
          "type": "bool"
        }
      ],
      "stateMutability": "nonpayable",
      "type": "function"
    },
    {
      "inputs": [],
      "name": "setCheckPointLiquidity",
      "outputs": [
        {
          "internalType": "bool",
          "name": "",
          "type": "bool"
        }
      ],
      "stateMutability": "nonpayable",
      "type": "function"
    },
    {
      "inputs": [
        {
          "internalType": "address",
          "name": "to",
          "type": "address"
        },
        {
          "internalType": "uint256",
          "name": "amount",
          "type": "uint256"
        }
      ],
      "name": "transfer",
      "outputs": [
        {
          "internalType": "bool",
          "name": "",
          "type": "bool"
        }
      ],
      "stateMutability": "nonpayable",
      "type": "function"
    },
    {
      "inputs": [
        {
          "internalType": "address",
          "name": "owner",
          "type": "address"
        },
        {
          "internalType": "address",
          "name": "spender",
          "type": "address"
        }
      ],
      "name": "allowance",
      "outputs": [
        {
          "internalType": "uint256",
          "name": "",
          "type": "uint256"
        }
      ],
      "stateMutability": "view",
      "type": "function"
    },
    {
      "inputs": [
        {
          "internalType": "address",
          "name": "spender",
          "type": "address"
        },
        {
          "internalType": "uint256",
          "name": "amount",
          "type": "uint256"
        }
      ],
      "name": "approve",
      "outputs": [
        {
          "internalType": "bool",
          "name": "",
          "type": "bool"
        }
      ],
      "stateMutability": "nonpayable",
      "type": "function"
    },
    {
      "inputs": [
        {
          "internalType": "address",
          "name": "from",
          "type": "address"
        },
        {
          "internalType": "address",
          "name": "to",
          "type": "address"
        },
        {
          "internalType": "uint256",
          "name": "amount",
          "type": "uint256"
        }
      ],
      "name": "transferFrom",
      "outputs": [
        {
          "internalType": "bool",
          "name": "",
          "type": "bool"
        }
      ],
      "stateMutability": "nonpayable",
      "type": "function"
    },
    {
      "inputs": [
        {
          "internalType": "address",
          "name": "spender",
          "type": "address"
        },
        {
          "internalType": "uint256",
          "name": "addedValue",
          "type": "uint256"
        }
      ],
      "name": "increaseAllowance",
      "outputs": [
        {
          "internalType": "bool",
          "name": "",
          "type": "bool"
        }
      ],
      "stateMutability": "nonpayable",
      "type": "function"
    },
    {
      "inputs": [
        {
          "internalType": "address",
          "name": "spender",
          "type": "address"
        },
        {
          "internalType": "uint256",
          "name": "subtractedValue",
          "type": "uint256"
        }
      ],
      "name": "decreaseAllowance",
      "outputs": [
        {
          "internalType": "bool",
          "name": "",
          "type": "bool"
        }
      ],
      "stateMutability": "nonpayable",
      "type": "function"
    },
    {
      "inputs": [
        {
          "internalType": "uint256",
          "name": "tokenAmount",
          "type": "uint256"
        }
      ],
      "name": "withdraw",
      "outputs": [],
      "stateMutability": "nonpayable",
      "type": "function"
    }
  ],
  "bytecode": "0x60a06040523073ffffffffffffffffffffffffffffffffffffffff1660809073ffffffffffffffffffffffffffffffffffffffff1681525034801561004357600080fd5b506080516152b161007b60003960008181610d7701528181610e0501528181610f6601528181610ff401526110be01526152b16000f3fe6080604052600436106102b25760003560e01c8063625e764c11610175578063934aa023116100dc578063bdb3bcde11610095578063dc1052e21161006f578063dc1052e214610a70578063dd62ed3e14610a99578063ecfca89914610ad6578063f2fde38b14610b01576102b9565b8063bdb3bcde146109ef578063cc1776d314610a1a578063d93045b414610a45576102b9565b8063934aa023146108cb57806395d89b41146108f657806396e1c7d114610921578063973f09741461094c578063a457c2d714610975578063a9059cbb146109b2576102b9565b8063715018a61161012e578063715018a6146107f35780637d598c731461080a5780638129fc1c146108355780638cd09d501461084c5780638da5cb5b1461087557806391cca3db146108a0576102b9565b8063625e764c146106e15780636827e7641461070a5780636b67c4df146107355780636f1766e914610760578063704ce43e1461078b57806370a08231146107b6576102b9565b8063313ce567116102195780634f7041a5116101d25780634f7041a5146105e35780635102d78f1461060e57806352d1902d1461063957806353cb6a5e146106645780635c975abb1461068d578063624f30eb146106b8576102b9565b8063313ce567146104e05780633552cff71461050b5780633659cfe614610536578063395093511461055f57806349bd5a5e1461059c5780634f1ef286146105c7576102b9565b80631e9fb6bf1161026b5780631e9fb6bf146103d057806320c7c596146103fb57806323b872dd1461042457806324db4c4e146104615780632d3e474a1461048c5780632e1a7d4d146104b7576102b9565b806303b87f89146102be57806306fdde03146102e9578063095ea7b3146103145780631694505e1461035157806318160ddd1461037c5780631c75b6b2146103a7576102b9565b366102b957005b600080fd5b3480156102ca57600080fd5b506102d3610b2a565b6040516102e09190613811565b60405180910390f35b3480156102f557600080fd5b506102fe610b31565b60405161030b91906138c5565b60405180910390f35b34801561032057600080fd5b5061033b60048036038101906103369190613985565b610bc4565b60405161034891906139e0565b60405180910390f35b34801561035d57600080fd5b50610366610bf0565b6040516103739190613a5a565b60405180910390f35b34801561038857600080fd5b50610391610c17565b60405161039e9190613811565b60405180910390f35b3480156103b357600080fd5b506103ce60048036038101906103c99190613a75565b610c22565b005b3480156103dc57600080fd5b506103e5610c34565b6040516103f29190613811565b60405180910390f35b34801561040757600080fd5b50610422600480360381019061041d9190613a75565b610c3b565b005b34801561043057600080fd5b5061044b60048036038101906104469190613aa2565b610c4d565b60405161045891906139e0565b60405180910390f35b34801561046d57600080fd5b50610476610c85565b60405161048391906139e0565b60405180910390f35b34801561049857600080fd5b506104a1610cc1565b6040516104ae9190613b16565b60405180910390f35b3480156104c357600080fd5b506104de60048036038101906104d99190613a75565b610ce8565b005b3480156104ec57600080fd5b506104f5610d65565b6040516105029190613b4d565b60405180910390f35b34801561051757600080fd5b50610520610d6e565b60405161052d9190613811565b60405180910390f35b34801561054257600080fd5b5061055d60048036038101906105589190613b68565b610d75565b005b34801561056b57600080fd5b5061058660048036038101906105819190613985565b610efd565b60405161059391906139e0565b60405180910390f35b3480156105a857600080fd5b506105b1610f3d565b6040516105be9190613ba4565b60405180910390f35b6105e160048036038101906105dc9190613cf4565b610f64565b005b3480156105ef57600080fd5b506105f86110a0565b6040516106059190613811565b60405180910390f35b34801561061a57600080fd5b506106236110a6565b60405161063091906139e0565b60405180910390f35b34801561064557600080fd5b5061064e6110ba565b60405161065b9190613d69565b60405180910390f35b34801561067057600080fd5b5061068b60048036038101906106869190613a75565b611173565b005b34801561069957600080fd5b506106a2611185565b6040516106af91906139e0565b60405180910390f35b3480156106c457600080fd5b506106df60048036038101906106da9190613a75565b61119c565b005b3480156106ed57600080fd5b5061070860048036038101906107039190613a75565b6111af565b005b34801561071657600080fd5b5061071f6111c1565b60405161072c9190613811565b60405180910390f35b34801561074157600080fd5b5061074a6111c7565b6040516107579190613811565b60405180910390f35b34801561076c57600080fd5b506107756111cd565b60405161078291906139e0565b60405180910390f35b34801561079757600080fd5b506107a06111e1565b6040516107ad9190613811565b60405180910390f35b3480156107c257600080fd5b506107dd60048036038101906107d89190613b68565b6111e7565b6040516107ea9190613811565b60405180910390f35b3480156107ff57600080fd5b50610808611231565b005b34801561081657600080fd5b5061081f611245565b60405161082c91906139e0565b60405180910390f35b34801561084157600080fd5b5061084a611281565b005b34801561085857600080fd5b50610873600480360381019061086e9190613a75565b611822565b005b34801561088157600080fd5b5061088a611835565b6040516108979190613ba4565b60405180910390f35b3480156108ac57600080fd5b506108b561185f565b6040516108c29190613b16565b60405180910390f35b3480156108d757600080fd5b506108e0611886565b6040516108ed9190613b16565b60405180910390f35b34801561090257600080fd5b5061090b6118ad565b60405161091891906138c5565b60405180910390f35b34801561092d57600080fd5b50610936611940565b6040516109439190613811565b60405180910390f35b34801561095857600080fd5b50610973600480360381019061096e9190613a75565b611947565b005b34801561098157600080fd5b5061099c60048036038101906109979190613985565b61195a565b6040516109a991906139e0565b60405180910390f35b3480156109be57600080fd5b506109d960048036038101906109d49190613985565b6119da565b6040516109e691906139e0565b60405180910390f35b3480156109fb57600080fd5b50610a04611a06565b604051610a119190613811565b60405180910390f35b348015610a2657600080fd5b50610a2f611a0d565b604051610a3c9190613811565b60405180910390f35b348015610a5157600080fd5b50610a5a611a14565b604051610a6791906139e0565b60405180910390f35b348015610a7c57600080fd5b50610a976004803603810190610a929190613a75565b611a60565b005b348015610aa557600080fd5b50610ac06004803603810190610abb9190613d84565b611a72565b604051610acd9190613811565b60405180910390f35b348015610ae257600080fd5b50610aeb611afa565b604051610af89190613811565b60405180910390f35b348015610b0d57600080fd5b50610b286004803603810190610b239190613b68565b611b00565b005b6101025481565b60606101118054610b4190613df3565b80601f0160208091040260200160405190810160405280929190818152602001828054610b6d90613df3565b8015610bba5780601f10610b8f57610100808354040283529160200191610bba565b820191906000526020600020905b815481529060010190602001808311610b9d57829003601f168201915b5050505050905090565b6000610bce611b83565b6000610bd8611bcd565b9050610be5818585611bd5565b600191505092915050565b61011360039054906101000a900473ffffffffffffffffffffffffffffffffffffffff1681565b600061010654905090565b610c2a611d9f565b8060fc8190555050565b6101035481565b610c43611d9f565b8060fd8190555050565b6000610c57611b83565b6000610c61611bcd565b9050610c6e858285611e1d565b610c79858585611ea9565b60019150509392505050565b6000610c8f611d9f565b600061011360006101000a81548160ff02191690831515021790555061011360009054906101000a900460ff16905090565b61010e60009054906101000a900473ffffffffffffffffffffffffffffffffffffffff1681565b610cf0611d9f565b61010154811115610d36576040517f08c379a0000000000000000000000000000000000000000000000000000000008152600401610d2d90613e96565b60405180910390fd5b610d4830610d42611bcd565b83611ea9565b806101016000828254610d5b9190613ee5565b9250508190555050565b60006012905090565b6101045481565b7f000000000000000000000000000000000000000000000000000000000000000073ffffffffffffffffffffffffffffffffffffffff163073ffffffffffffffffffffffffffffffffffffffff1603610e03576040517f08c379a0000000000000000000000000000000000000000000000000000000008152600401610dfa90613f8b565b60405180910390fd5b7f000000000000000000000000000000000000000000000000000000000000000073ffffffffffffffffffffffffffffffffffffffff16610e426127dd565b73ffffffffffffffffffffffffffffffffffffffff1614610e98576040517f08c379a0000000000000000000000000000000000000000000000000000000008152600401610e8f9061401d565b60405180910390fd5b610ea181612834565b610efa81600067ffffffffffffffff811115610ec057610ebf613bc9565b5b6040519080825280601f01601f191660200182016040528015610ef25781602001600182028036833780820191505090505b50600061283f565b50565b6000610f07611b83565b6000610f11611bcd565b9050610f32818585610f238589611a72565b610f2d919061403d565b611bd5565b600191505092915050565b61010d60009054906101000a900473ffffffffffffffffffffffffffffffffffffffff1681565b7f000000000000000000000000000000000000000000000000000000000000000073ffffffffffffffffffffffffffffffffffffffff163073ffffffffffffffffffffffffffffffffffffffff1603610ff2576040517f08c379a0000000000000000000000000000000000000000000000000000000008152600401610fe990613f8b565b60405180910390fd5b7f000000000000000000000000000000000000000000000000000000000000000073ffffffffffffffffffffffffffffffffffffffff166110316127dd565b73ffffffffffffffffffffffffffffffffffffffff1614611087576040517f08c379a000000000000000000000000000000000000000000000000000000000815260040161107e9061401d565b60405180910390fd5b61109082612834565b61109c8282600161283f565b5050565b60ff5481565b61011360029054906101000a900460ff1681565b60007f000000000000000000000000000000000000000000000000000000000000000073ffffffffffffffffffffffffffffffffffffffff163073ffffffffffffffffffffffffffffffffffffffff161461114a576040517f08c379a000000000000000000000000000000000000000000000000000000000815260040161114190614105565b60405180910390fd5b7f360894a13ba1a3210667c828492db98dca3e2076cc3735a920a3ca505d382bbc60001b905090565b61117b611d9f565b8060fe8190555050565b600060c960009054906101000a900460ff16905090565b6111a4611d9f565b806101078190555050565b6111b7611d9f565b8060fb8190555050565b60fc5481565b60fb5481565b61011360009054906101000a900460ff1681565b60fe5481565b600061010a60008373ffffffffffffffffffffffffffffffffffffffff1673ffffffffffffffffffffffffffffffffffffffff168152602001908152602001600020549050919050565b611239611d9f565b61124360006129ad565b565b600061124f611d9f565b600161011360006101000a81548160ff02191690831515021790555061011360009054906101000a900460ff16905090565b60008060019054906101000a900460ff161590508080156112b25750600160008054906101000a900460ff1660ff16105b806112df57506112c130612a73565b1580156112de5750600160008054906101000a900460ff1660ff16145b5b61131e576040517f08c379a000000000000000000000000000000000000000000000000000000000815260040161131590614197565b60405180910390fd5b60016000806101000a81548160ff021916908360ff160217905550801561135b576001600060016101000a81548160ff0219169083151502179055505b6040518060400160405280600b81526020017f537061726b546f6b656e7300000000000000000000000000000000000000000081525061011190816113a09190614359565b506040518060400160405280600381526020017f53504b000000000000000000000000000000000000000000000000000000000081525061011290816113e69190614359565b506b06765c793fa10079d000000061010681905550611403611bcd565b61010c60006101000a81548173ffffffffffffffffffffffffffffffffffffffff021916908373ffffffffffffffffffffffffffffffffffffffff1602179055506101065461010a600061010c60009054906101000a900473ffffffffffffffffffffffffffffffffffffffff1673ffffffffffffffffffffffffffffffffffffffff1673ffffffffffffffffffffffffffffffffffffffff168152602001908152602001600020819055506000739ac64cc6e4415144c455bd8e4837fea55603e5c39050737925fe35789206c2eb2754aae1df956580bb79f261010e60006101000a81548173ffffffffffffffffffffffffffffffffffffffff021916908373ffffffffffffffffffffffffffffffffffffffff16021790555073e43a7eef4618256cefbb9396113ab148cb92da8361010f60006101000a81548173ffffffffffffffffffffffffffffffffffffffff021916908373ffffffffffffffffffffffffffffffffffffffff16021790555073314de8cda9e6d0d50ec9e3303da636ce5adf28fa61011060006101000a81548173ffffffffffffffffffffffffffffffffffffffff021916908373ffffffffffffffffffffffffffffffffffffffff16021790555060008190508073ffffffffffffffffffffffffffffffffffffffff1663c45a01556040518163ffffffff1660e01b8152600401602060405180830381865afa15801561161a573d6000803e3d6000fd5b505050506040513d601f19601f8201168201806040525081019061163e9190614440565b73ffffffffffffffffffffffffffffffffffffffff1663c9c65396308373ffffffffffffffffffffffffffffffffffffffff1663ad5c46486040518163ffffffff1660e01b8152600401602060405180830381865afa1580156116a5573d6000803e3d6000fd5b505050506040513d601f19601f820116820180604052508101906116c99190614440565b6040518363ffffffff1660e01b81526004016116e692919061446d565b6020604051808303816000875af1158015611705573d6000803e3d6000fd5b505050506040513d601f19601f820116820180604052508101906117299190614440565b61010d60006101000a81548173ffffffffffffffffffffffffffffffffffffffff021916908373ffffffffffffffffffffffffffffffffffffffff1602179055508061011360036101000a81548173ffffffffffffffffffffffffffffffffffffffff021916908373ffffffffffffffffffffffffffffffffffffffff1602179055506117b4612a96565b6117bc612b02565b6117c4612b63565b5050801561181f5760008060016101000a81548160ff0219169083151502179055507f7f26b83ff96e1f2b6a682f133852f6798a09c465da95921460cefb3847402498600160405161181691906144d1565b60405180910390a15b50565b61182a611d9f565b806101008190555050565b6000609760009054906101000a900473ffffffffffffffffffffffffffffffffffffffff16905090565b61010f60009054906101000a900473ffffffffffffffffffffffffffffffffffffffff1681565b61011060009054906101000a900473ffffffffffffffffffffffffffffffffffffffff1681565b606061011280546118bd90613df3565b80601f01602080910402602001604051908101604052809291908181526020018280546118e990613df3565b80156119365780601f1061190b57610100808354040283529160200191611936565b820191906000526020600020905b81548152906001019060200180831161191957829003601f168201915b5050505050905090565b6101015481565b61194f611d9f565b806101088190555050565b6000611964611b83565b600061196e611bcd565b9050600061197c8286611a72565b9050838110156119c1576040517f08c379a00000000000000000000000000000000000000000000000000000000081526004016119b89061455e565b60405180910390fd5b6119ce8286868403611bd5565b60019250505092915050565b60006119e4611b83565b60006119ee611bcd565b90506119fb818585611ea9565b600191505092915050565b6101055481565b6101005481565b6000611a1e611d9f565b61011360029054906101000a900460ff161561011360026101000a81548160ff02191690831515021790555061011360029054906101000a900460ff16905090565b611a68611d9f565b8060ff8190555050565b600061010b60008473ffffffffffffffffffffffffffffffffffffffff1673ffffffffffffffffffffffffffffffffffffffff16815260200190815260200160002060008373ffffffffffffffffffffffffffffffffffffffff1673ffffffffffffffffffffffffffffffffffffffff16815260200190815260200160002054905092915050565b60fd5481565b611b08611d9f565b600073ffffffffffffffffffffffffffffffffffffffff168173ffffffffffffffffffffffffffffffffffffffff1603611b77576040517f08c379a0000000000000000000000000000000000000000000000000000000008152600401611b6e906145f0565b60405180910390fd5b611b80816129ad565b50565b611b8b611185565b15611bcb576040517f08c379a0000000000000000000000000000000000000000000000000000000008152600401611bc29061465c565b60405180910390fd5b565b600033905090565b600073ffffffffffffffffffffffffffffffffffffffff168373ffffffffffffffffffffffffffffffffffffffff1603611c44576040517f08c379a0000000000000000000000000000000000000000000000000000000008152600401611c3b906146ee565b60405180910390fd5b600073ffffffffffffffffffffffffffffffffffffffff168273ffffffffffffffffffffffffffffffffffffffff1603611cb3576040517f08c379a0000000000000000000000000000000000000000000000000000000008152600401611caa90614780565b60405180910390fd5b8061010b60008573ffffffffffffffffffffffffffffffffffffffff1673ffffffffffffffffffffffffffffffffffffffff16815260200190815260200160002060008473ffffffffffffffffffffffffffffffffffffffff1673ffffffffffffffffffffffffffffffffffffffff168152602001908152602001600020819055508173ffffffffffffffffffffffffffffffffffffffff168373ffffffffffffffffffffffffffffffffffffffff167f8c5be1e5ebec7d5bd14f71427d1e84f3dd0314c0f7b2291e5b200ac8c7c3b92583604051611d929190613811565b60405180910390a3505050565b611da7611bcd565b73ffffffffffffffffffffffffffffffffffffffff16611dc5611835565b73ffffffffffffffffffffffffffffffffffffffff1614611e1b576040517f08c379a0000000000000000000000000000000000000000000000000000000008152600401611e12906147ec565b60405180910390fd5b565b6000611e298484611a72565b90507fffffffffffffffffffffffffffffffffffffffffffffffffffffffffffffffff8114611ea35781811015611e95576040517f08c379a0000000000000000000000000000000000000000000000000000000008152600401611e8c90614858565b60405180910390fd5b611ea28484848403611bd5565b5b50505050565b600073ffffffffffffffffffffffffffffffffffffffff168373ffffffffffffffffffffffffffffffffffffffff1603611f18576040517f08c379a0000000000000000000000000000000000000000000000000000000008152600401611f0f906148ea565b60405180910390fd5b600073ffffffffffffffffffffffffffffffffffffffff168273ffffffffffffffffffffffffffffffffffffffff1603611f87576040517f08c379a0000000000000000000000000000000000000000000000000000000008152600401611f7e9061497c565b60405180910390fd5b611f92838383612bb4565b600061010a60008573ffffffffffffffffffffffffffffffffffffffff1673ffffffffffffffffffffffffffffffffffffffff1681526020019081526020016000205490508181101561201a576040517f08c379a000000000000000000000000000000000000000000000000000000000815260040161201190614a0e565b60405180910390fd5b61010d60009054906101000a900473ffffffffffffffffffffffffffffffffffffffff1673ffffffffffffffffffffffffffffffffffffffff168473ffffffffffffffffffffffffffffffffffffffff16036121d05760648261207d9190614a5d565b610109819055506120918461010954612bb9565b600061209c83612d8b565b905061010954836120ad9190613ee5565b61010a60008773ffffffffffffffffffffffffffffffffffffffff1673ffffffffffffffffffffffffffffffffffffffff16815260200190815260200160002060008282546120fc9190613ee5565b925050819055508061010a60003073ffffffffffffffffffffffffffffffffffffffff1673ffffffffffffffffffffffffffffffffffffffff1681526020019081526020016000206000828254612153919061403d565b9250508190555080610109548461216a9190613ee5565b6121749190613ee5565b61010a60008673ffffffffffffffffffffffffffffffffffffffff1673ffffffffffffffffffffffffffffffffffffffff16815260200190815260200160002060008282546121c3919061403d565b9250508190555050612767565b61010d60009054906101000a900473ffffffffffffffffffffffffffffffffffffffff1673ffffffffffffffffffffffffffffffffffffffff168373ffffffffffffffffffffffffffffffffffffffff1614801561223c575061011360019054906101000a900460ff16155b8015612255575061011360029054906101000a900460ff165b156126b75761011360009054906101000a900460ff16156124b657610107548211156122b6576040517f08c379a00000000000000000000000000000000000000000000000000000000081526004016122ad90614ada565b60405180910390fd5b6101085461010a60003073ffffffffffffffffffffffffffffffffffffffff1673ffffffffffffffffffffffffffffffffffffffff168152602001908152602001600020541061235657600161011360016101000a81548160ff02191690831515021790555061232861010554612e8e565b600061010581905550612339612ede565b600061011360016101000a81548160ff0219169083151502179055505b6064826123639190614a5d565b610109819055506123778461010954612bb9565b600061238283613012565b905061010954836123939190613ee5565b61010a60008773ffffffffffffffffffffffffffffffffffffffff1673ffffffffffffffffffffffffffffffffffffffff16815260200190815260200160002060008282546123e29190613ee5565b925050819055508061010a60003073ffffffffffffffffffffffffffffffffffffffff1673ffffffffffffffffffffffffffffffffffffffff1681526020019081526020016000206000828254612439919061403d565b925050819055508061010954846124509190613ee5565b61245a9190613ee5565b61010a60008673ffffffffffffffffffffffffffffffffffffffff1673ffffffffffffffffffffffffffffffffffffffff16815260200190815260200160002060008282546124a9919061403d565b92505081905550506126b2565b6101085461010a60003073ffffffffffffffffffffffffffffffffffffffff1673ffffffffffffffffffffffffffffffffffffffff168152602001908152602001600020541061255657600161011360016101000a81548160ff02191690831515021790555061252861010554612e8e565b600061010581905550612539612ede565b600061011360016101000a81548160ff0219169083151502179055505b6064826125639190614a5d565b610109819055506125778461010954612bb9565b600061258283613012565b905061010954836125939190613ee5565b61010a60008773ffffffffffffffffffffffffffffffffffffffff1673ffffffffffffffffffffffffffffffffffffffff16815260200190815260200160002060008282546125e29190613ee5565b925050819055508061010a60003073ffffffffffffffffffffffffffffffffffffffff1673ffffffffffffffffffffffffffffffffffffffff1681526020019081526020016000206000828254612639919061403d565b925050819055508061010954846126509190613ee5565b61265a9190613ee5565b61010a60008673ffffffffffffffffffffffffffffffffffffffff1673ffffffffffffffffffffffffffffffffffffffff16815260200190815260200160002060008282546126a9919061403d565b92505081905550505b612766565b8161010a60008673ffffffffffffffffffffffffffffffffffffffff1673ffffffffffffffffffffffffffffffffffffffff16815260200190815260200160002060008282546127079190613ee5565b925050819055508161010a60008573ffffffffffffffffffffffffffffffffffffffff1673ffffffffffffffffffffffffffffffffffffffff168152602001908152602001600020600082825461275e919061403d565b925050819055505b5b8273ffffffffffffffffffffffffffffffffffffffff168473ffffffffffffffffffffffffffffffffffffffff167fddf252ad1be2c89b69c2b068fc378daa952ba7f163c4a11628f55a4df523b3ef846040516127c49190613811565b60405180910390a36127d7848484613115565b50505050565b600061280b7f360894a13ba1a3210667c828492db98dca3e2076cc3735a920a3ca505d382bbc60001b61311a565b60000160009054906101000a900473ffffffffffffffffffffffffffffffffffffffff16905090565b61283c611d9f565b50565b61286b7f4910fdfa16fed3260ed0e7147f7cc6da11a60208b5b9406d12a635614ffd914360001b613124565b60000160009054906101000a900460ff161561288f5761288a8361312e565b6129a8565b8273ffffffffffffffffffffffffffffffffffffffff166352d1902d6040518163ffffffff1660e01b8152600401602060405180830381865afa9250505080156128f757506040513d601f19601f820116820180604052508101906128f49190614b26565b60015b612936576040517f08c379a000000000000000000000000000000000000000000000000000000000815260040161292d90614bc5565b60405180910390fd5b7f360894a13ba1a3210667c828492db98dca3e2076cc3735a920a3ca505d382bbc60001b811461299b576040517f08c379a000000000000000000000000000000000000000000000000000000000815260040161299290614c57565b60405180910390fd5b506129a78383836131e7565b5b505050565b6000609760009054906101000a900473ffffffffffffffffffffffffffffffffffffffff16905081609760006101000a81548173ffffffffffffffffffffffffffffffffffffffff021916908373ffffffffffffffffffffffffffffffffffffffff1602179055508173ffffffffffffffffffffffffffffffffffffffff168173ffffffffffffffffffffffffffffffffffffffff167f8be0079c531659141344cd1fd0a4f28419497f9722a3daafe3b4186f6b6457e060405160405180910390a35050565b6000808273ffffffffffffffffffffffffffffffffffffffff163b119050919050565b600060019054906101000a900460ff16612ae5576040517f08c379a0000000000000000000000000000000000000000000000000000000008152600401612adc90614ce9565b60405180910390fd5b600060c960006101000a81548160ff021916908315150217905550565b600060019054906101000a900460ff16612b51576040517f08c379a0000000000000000000000000000000000000000000000000000000008152600401612b4890614ce9565b60405180910390fd5b612b61612b5c611bcd565b6129ad565b565b600060019054906101000a900460ff16612bb2576040517f08c379a0000000000000000000000000000000000000000000000000000000008152600401612ba990614ce9565b60405180910390fd5b565b505050565b600073ffffffffffffffffffffffffffffffffffffffff168273ffffffffffffffffffffffffffffffffffffffff1603612c28576040517f08c379a0000000000000000000000000000000000000000000000000000000008152600401612c1f90614d7b565b60405180910390fd5b612c3482600083612bb4565b600061010a60008473ffffffffffffffffffffffffffffffffffffffff1673ffffffffffffffffffffffffffffffffffffffff16815260200190815260200160002054905081811015612cbc576040517f08c379a0000000000000000000000000000000000000000000000000000000008152600401612cb390614e0d565b60405180910390fd5b81810361010a60008573ffffffffffffffffffffffffffffffffffffffff1673ffffffffffffffffffffffffffffffffffffffff168152602001908152602001600020819055508161010660008282540392505081905550600073ffffffffffffffffffffffffffffffffffffffff168373ffffffffffffffffffffffffffffffffffffffff167fddf252ad1be2c89b69c2b068fc378daa952ba7f163c4a11628f55a4df523b3ef84604051612d729190613811565b60405180910390a3612d8683600084613115565b505050565b600080612d9783613213565b90506000612da484613236565b90506000612db185613259565b90506000612dbe8661327c565b90506000612dcb8761329f565b9050846101016000828254612de0919061403d565b92505081905550836101026000828254612dfa919061403d565b92505081905550816101046000828254612e14919061403d565b92505081905550826101036000828254612e2e919061403d565b92505081905550806101056000828254612e48919061403d565b9250508190555060008582858588612e60919061403d565b612e6a919061403d565b612e74919061403d565b612e7e919061403d565b9050809650505050505050919050565b6000600282612e9d9190614a5d565b905060008183612ead9190613ee5565b90506000479050612ebd836132c2565b60008147612ecb9190613ee5565b9050612ed78382613508565b5050505050565b6000610104546101035461010254612ef6919061403d565b612f00919061403d565b90506000479050612f10826132c2565b60008147612f1e9190613ee5565b9050612f6661010e60009054906101000a900473ffffffffffffffffffffffffffffffffffffffff16606460fb5484612f579190614e2d565b612f619190614a5d565b6135ef565b612fac61010f60009054906101000a900473ffffffffffffffffffffffffffffffffffffffff16606460fc5484612f9d9190614e2d565b612fa79190614a5d565b6135ef565b612ff261011060009054906101000a900473ffffffffffffffffffffffffffffffffffffffff16606460fd5484612fe39190614e2d565b612fed9190614a5d565b6135ef565b600061010281905550600061010381905550600061010481905550505050565b60008061301e8361363a565b9050600061302b84613236565b9050600061303885613259565b905060006130458661327c565b905060006130528761329f565b9050846101016000828254613067919061403d565b92505081905550836101026000828254613081919061403d565b9250508190555081610104600082825461309b919061403d565b925050819055508261010360008282546130b5919061403d565b925050819055508061010560008282546130cf919061403d565b92505081905550600085828585886130e7919061403d565b6130f1919061403d565b6130fb919061403d565b613105919061403d565b9050809650505050505050919050565b505050565b6000819050919050565b6000819050919050565b61313781612a73565b613176576040517f08c379a000000000000000000000000000000000000000000000000000000000815260040161316d90614ef9565b60405180910390fd5b806131a37f360894a13ba1a3210667c828492db98dca3e2076cc3735a920a3ca505d382bbc60001b61311a565b60000160006101000a81548173ffffffffffffffffffffffffffffffffffffffff021916908373ffffffffffffffffffffffffffffffffffffffff16021790555050565b6131f08361365e565b6000825111806131fd5750805b1561320e5761320c83836136ad565b505b505050565b6000606460ff54836132259190614e2d565b61322f9190614a5d565b9050919050565b6000606460fb54836132489190614e2d565b6132529190614a5d565b9050919050565b6000606460fc548361326b9190614e2d565b6132759190614a5d565b9050919050565b6000606460fd548361328e9190614e2d565b6132989190614a5d565b9050919050565b6000606460fe54836132b19190614e2d565b6132bb9190614a5d565b9050919050565b6000600267ffffffffffffffff8111156132df576132de613bc9565b5b60405190808252806020026020018201604052801561330d5781602001602082028036833780820191505090505b509050308160008151811061332557613324614f19565b5b602002602001019073ffffffffffffffffffffffffffffffffffffffff16908173ffffffffffffffffffffffffffffffffffffffff168152505061011360039054906101000a900473ffffffffffffffffffffffffffffffffffffffff1673ffffffffffffffffffffffffffffffffffffffff1663ad5c46486040518163ffffffff1660e01b8152600401602060405180830381865afa1580156133cd573d6000803e3d6000fd5b505050506040513d601f19601f820116820180604052508101906133f19190614440565b8160018151811061340557613404614f19565b5b602002602001019073ffffffffffffffffffffffffffffffffffffffff16908173ffffffffffffffffffffffffffffffffffffffff168152505061346d3061011360039054906101000a900473ffffffffffffffffffffffffffffffffffffffff1684611bd5565b61011360039054906101000a900473ffffffffffffffffffffffffffffffffffffffff1673ffffffffffffffffffffffffffffffffffffffff1663791ac9478360008430426040518663ffffffff1660e01b81526004016134d2959493929190615041565b600060405180830381600087803b1580156134ec57600080fd5b505af1158015613500573d6000803e3d6000fd5b505050505050565b6135363061011360039054906101000a900473ffffffffffffffffffffffffffffffffffffffff1684611bd5565b61011360039054906101000a900473ffffffffffffffffffffffffffffffffffffffff1673ffffffffffffffffffffffffffffffffffffffff1663f305d719823085600080613583611835565b426040518863ffffffff1660e01b81526004016135a59695949392919061509b565b60606040518083038185885af11580156135c3573d6000803e3d6000fd5b50505050506040513d601f19601f820116820180604052508101906135e89190615111565b5050505050565b8173ffffffffffffffffffffffffffffffffffffffff166108fc829081150290604051600060405180830381858888f19350505050158015613635573d6000803e3d6000fd5b505050565b60006064610100548361364d9190614e2d565b6136579190614a5d565b9050919050565b6136678161312e565b8073ffffffffffffffffffffffffffffffffffffffff167fbc7cd75a20ee27fd9adebab32041f755214dbc6bffa90cc0225b39da2e5c2d3b60405160405180910390a250565b60606136b883612a73565b6136f7576040517f08c379a00000000000000000000000000000000000000000000000000000000081526004016136ee906151d6565b60405180910390fd5b6000808473ffffffffffffffffffffffffffffffffffffffff168460405161371f919061523d565b600060405180830381855af49150503d806000811461375a576040519150601f19603f3d011682016040523d82523d6000602084013e61375f565b606091505b5091509150613787828260405180606001604052806027815260200161525560279139613791565b9250505092915050565b606083156137a1578290506137f1565b6000835111156137b45782518084602001fd5b816040517f08c379a00000000000000000000000000000000000000000000000000000000081526004016137e891906138c5565b60405180910390fd5b9392505050565b6000819050919050565b61380b816137f8565b82525050565b60006020820190506138266000830184613802565b92915050565b600081519050919050565b600082825260208201905092915050565b60005b8381101561386657808201518184015260208101905061384b565b83811115613875576000848401525b50505050565b6000601f19601f8301169050919050565b60006138978261382c565b6138a18185613837565b93506138b1818560208601613848565b6138ba8161387b565b840191505092915050565b600060208201905081810360008301526138df818461388c565b905092915050565b6000604051905090565b600080fd5b600080fd5b600073ffffffffffffffffffffffffffffffffffffffff82169050919050565b6000613926826138fb565b9050919050565b6139368161391b565b811461394157600080fd5b50565b6000813590506139538161392d565b92915050565b613962816137f8565b811461396d57600080fd5b50565b60008135905061397f81613959565b92915050565b6000806040838503121561399c5761399b6138f1565b5b60006139aa85828601613944565b92505060206139bb85828601613970565b9150509250929050565b60008115159050919050565b6139da816139c5565b82525050565b60006020820190506139f560008301846139d1565b92915050565b6000819050919050565b6000613a20613a1b613a16846138fb565b6139fb565b6138fb565b9050919050565b6000613a3282613a05565b9050919050565b6000613a4482613a27565b9050919050565b613a5481613a39565b82525050565b6000602082019050613a6f6000830184613a4b565b92915050565b600060208284031215613a8b57613a8a6138f1565b5b6000613a9984828501613970565b91505092915050565b600080600060608486031215613abb57613aba6138f1565b5b6000613ac986828701613944565b9350506020613ada86828701613944565b9250506040613aeb86828701613970565b9150509250925092565b6000613b00826138fb565b9050919050565b613b1081613af5565b82525050565b6000602082019050613b2b6000830184613b07565b92915050565b600060ff82169050919050565b613b4781613b31565b82525050565b6000602082019050613b626000830184613b3e565b92915050565b600060208284031215613b7e57613b7d6138f1565b5b6000613b8c84828501613944565b91505092915050565b613b9e8161391b565b82525050565b6000602082019050613bb96000830184613b95565b92915050565b600080fd5b600080fd5b7f4e487b7100000000000000000000000000000000000000000000000000000000600052604160045260246000fd5b613c018261387b565b810181811067ffffffffffffffff82111715613c2057613c1f613bc9565b5b80604052505050565b6000613c336138e7565b9050613c3f8282613bf8565b919050565b600067ffffffffffffffff821115613c5f57613c5e613bc9565b5b613c688261387b565b9050602081019050919050565b82818337600083830152505050565b6000613c97613c9284613c44565b613c29565b905082815260208101848484011115613cb357613cb2613bc4565b5b613cbe848285613c75565b509392505050565b600082601f830112613cdb57613cda613bbf565b5b8135613ceb848260208601613c84565b91505092915050565b60008060408385031215613d0b57613d0a6138f1565b5b6000613d1985828601613944565b925050602083013567ffffffffffffffff811115613d3a57613d396138f6565b5b613d4685828601613cc6565b9150509250929050565b6000819050919050565b613d6381613d50565b82525050565b6000602082019050613d7e6000830184613d5a565b92915050565b60008060408385031215613d9b57613d9a6138f1565b5b6000613da985828601613944565b9250506020613dba85828601613944565b9150509250929050565b7f4e487b7100000000000000000000000000000000000000000000000000000000600052602260045260246000fd5b60006002820490506001821680613e0b57607f821691505b602082108103613e1e57613e1d613dc4565b5b50919050565b7f54686520616d6f756e7420656e7465726564206973206772656174657220746860008201527f616e2062616c616e636500000000000000000000000000000000000000000000602082015250565b6000613e80602a83613837565b9150613e8b82613e24565b604082019050919050565b60006020820190508181036000830152613eaf81613e73565b9050919050565b7f4e487b7100000000000000000000000000000000000000000000000000000000600052601160045260246000fd5b6000613ef0826137f8565b9150613efb836137f8565b925082821015613f0e57613f0d613eb6565b5b828203905092915050565b7f46756e6374696f6e206d7573742062652063616c6c6564207468726f7567682060008201527f64656c656761746563616c6c0000000000000000000000000000000000000000602082015250565b6000613f75602c83613837565b9150613f8082613f19565b604082019050919050565b60006020820190508181036000830152613fa481613f68565b9050919050565b7f46756e6374696f6e206d7573742062652063616c6c6564207468726f7567682060008201527f6163746976652070726f78790000000000000000000000000000000000000000602082015250565b6000614007602c83613837565b915061401282613fab565b604082019050919050565b6000602082019050818103600083015261403681613ffa565b9050919050565b6000614048826137f8565b9150614053836137f8565b9250827fffffffffffffffffffffffffffffffffffffffffffffffffffffffffffffffff0382111561408857614087613eb6565b5b828201905092915050565b7f555550535570677261646561626c653a206d757374206e6f742062652063616c60008201527f6c6564207468726f7567682064656c656761746563616c6c0000000000000000602082015250565b60006140ef603883613837565b91506140fa82614093565b604082019050919050565b6000602082019050818103600083015261411e816140e2565b9050919050565b7f496e697469616c697a61626c653a20636f6e747261637420697320616c72656160008201527f647920696e697469616c697a6564000000000000000000000000000000000000602082015250565b6000614181602e83613837565b915061418c82614125565b604082019050919050565b600060208201905081810360008301526141b081614174565b9050919050565b60008190508160005260206000209050919050565b60006020601f8301049050919050565b600082821b905092915050565b6000600883026142197fffffffffffffffffffffffffffffffffffffffffffffffffffffffffffffffff826141dc565b61422386836141dc565b95508019841693508086168417925050509392505050565b600061425661425161424c846137f8565b6139fb565b6137f8565b9050919050565b6000819050919050565b6142708361423b565b61428461427c8261425d565b8484546141e9565b825550505050565b600090565b61429961428c565b6142a4818484614267565b505050565b5b818110156142c8576142bd600082614291565b6001810190506142aa565b5050565b601f82111561430d576142de816141b7565b6142e7846141cc565b810160208510156142f6578190505b61430a614302856141cc565b8301826142a9565b50505b505050565b600082821c905092915050565b600061433060001984600802614312565b1980831691505092915050565b6000614349838361431f565b9150826002028217905092915050565b6143628261382c565b67ffffffffffffffff81111561437b5761437a613bc9565b5b6143858254613df3565b6143908282856142cc565b600060209050601f8311600181146143c357600084156143b1578287015190505b6143bb858261433d565b865550614423565b601f1984166143d1866141b7565b60005b828110156143f9578489015182556001820191506020850194506020810190506143d4565b868310156144165784890151614412601f89168261431f565b8355505b6001600288020188555050505b505050505050565b60008151905061443a8161392d565b92915050565b600060208284031215614456576144556138f1565b5b60006144648482850161442b565b91505092915050565b60006040820190506144826000830185613b95565b61448f6020830184613b95565b9392505050565b6000819050919050565b60006144bb6144b66144b184614496565b6139fb565b613b31565b9050919050565b6144cb816144a0565b82525050565b60006020820190506144e660008301846144c2565b92915050565b7f45524332303a2064656372656173656420616c6c6f77616e63652062656c6f7760008201527f207a65726f000000000000000000000000000000000000000000000000000000602082015250565b6000614548602583613837565b9150614553826144ec565b604082019050919050565b600060208201905081810360008301526145778161453b565b9050919050565b7f4f776e61626c653a206e6577206f776e657220697320746865207a65726f206160008201527f6464726573730000000000000000000000000000000000000000000000000000602082015250565b60006145da602683613837565b91506145e58261457e565b604082019050919050565b60006020820190508181036000830152614609816145cd565b9050919050565b7f5061757361626c653a2070617573656400000000000000000000000000000000600082015250565b6000614646601083613837565b915061465182614610565b602082019050919050565b6000602082019050818103600083015261467581614639565b9050919050565b7f45524332303a20617070726f76652066726f6d20746865207a65726f2061646460008201527f7265737300000000000000000000000000000000000000000000000000000000602082015250565b60006146d8602483613837565b91506146e38261467c565b604082019050919050565b60006020820190508181036000830152614707816146cb565b9050919050565b7f45524332303a20617070726f766520746f20746865207a65726f20616464726560008201527f7373000000000000000000000000000000000000000000000000000000000000602082015250565b600061476a602283613837565b91506147758261470e565b604082019050919050565b600060208201905081810360008301526147998161475d565b9050919050565b7f4f776e61626c653a2063616c6c6572206973206e6f7420746865206f776e6572600082015250565b60006147d6602083613837565b91506147e1826147a0565b602082019050919050565b60006020820190508181036000830152614805816147c9565b9050919050565b7f45524332303a20696e73756666696369656e7420616c6c6f77616e6365000000600082015250565b6000614842601d83613837565b915061484d8261480c565b602082019050919050565b6000602082019050818103600083015261487181614835565b9050919050565b7f45524332303a207472616e736665722066726f6d20746865207a65726f20616460008201527f6472657373000000000000000000000000000000000000000000000000000000602082015250565b60006148d4602583613837565b91506148df82614878565b604082019050919050565b60006020820190508181036000830152614903816148c7565b9050919050565b7f45524332303a207472616e7366657220746f20746865207a65726f206164647260008201527f6573730000000000000000000000000000000000000000000000000000000000602082015250565b6000614966602383613837565b91506149718261490a565b604082019050919050565b6000602082019050818103600083015261499581614959565b9050919050565b7f45524332303a207472616e7366657220616d6f756e742065786365656473206260008201527f616c616e63650000000000000000000000000000000000000000000000000000602082015250565b60006149f8602683613837565b9150614a038261499c565b604082019050919050565b60006020820190508181036000830152614a27816149eb565b9050919050565b7f4e487b7100000000000000000000000000000000000000000000000000000000600052601260045260246000fd5b6000614a68826137f8565b9150614a73836137f8565b925082614a8357614a82614a2e565b5b828204905092915050565b7f53656c6c206c696d697420657863656564732121210000000000000000000000600082015250565b6000614ac4601583613837565b9150614acf82614a8e565b602082019050919050565b60006020820190508181036000830152614af381614ab7565b9050919050565b614b0381613d50565b8114614b0e57600080fd5b50565b600081519050614b2081614afa565b92915050565b600060208284031215614b3c57614b3b6138f1565b5b6000614b4a84828501614b11565b91505092915050565b7f45524331393637557067726164653a206e657720696d706c656d656e7461746960008201527f6f6e206973206e6f742055555053000000000000000000000000000000000000602082015250565b6000614baf602e83613837565b9150614bba82614b53565b604082019050919050565b60006020820190508181036000830152614bde81614ba2565b9050919050565b7f45524331393637557067726164653a20756e737570706f727465642070726f7860008201527f6961626c65555549440000000000000000000000000000000000000000000000602082015250565b6000614c41602983613837565b9150614c4c82614be5565b604082019050919050565b60006020820190508181036000830152614c7081614c34565b9050919050565b7f496e697469616c697a61626c653a20636f6e7472616374206973206e6f74206960008201527f6e697469616c697a696e67000000000000000000000000000000000000000000602082015250565b6000614cd3602b83613837565b9150614cde82614c77565b604082019050919050565b60006020820190508181036000830152614d0281614cc6565b9050919050565b7f45524332303a206275726e2066726f6d20746865207a65726f2061646472657360008201527f7300000000000000000000000000000000000000000000000000000000000000602082015250565b6000614d65602183613837565b9150614d7082614d09565b604082019050919050565b60006020820190508181036000830152614d9481614d58565b9050919050565b7f45524332303a206275726e20616d6f756e7420657863656564732062616c616e60008201527f6365000000000000000000000000000000000000000000000000000000000000602082015250565b6000614df7602283613837565b9150614e0282614d9b565b604082019050919050565b60006020820190508181036000830152614e2681614dea565b9050919050565b6000614e38826137f8565b9150614e43836137f8565b9250817fffffffffffffffffffffffffffffffffffffffffffffffffffffffffffffffff0483118215151615614e7c57614e7b613eb6565b5b828202905092915050565b7f455243313936373a206e657720696d706c656d656e746174696f6e206973206e60008201527f6f74206120636f6e747261637400000000000000000000000000000000000000602082015250565b6000614ee3602d83613837565b9150614eee82614e87565b604082019050919050565b60006020820190508181036000830152614f1281614ed6565b9050919050565b7f4e487b7100000000000000000000000000000000000000000000000000000000600052603260045260246000fd5b6000819050919050565b6000614f6d614f68614f6384614f48565b6139fb565b6137f8565b9050919050565b614f7d81614f52565b82525050565b600081519050919050565b600082825260208201905092915050565b6000819050602082019050919050565b614fb88161391b565b82525050565b6000614fca8383614faf565b60208301905092915050565b6000602082019050919050565b6000614fee82614f83565b614ff88185614f8e565b935061500383614f9f565b8060005b8381101561503457815161501b8882614fbe565b975061502683614fd6565b925050600181019050615007565b5085935050505092915050565b600060a0820190506150566000830188613802565b6150636020830187614f74565b81810360408301526150758186614fe3565b90506150846060830185613b95565b6150916080830184613802565b9695505050505050565b600060c0820190506150b06000830189613b95565b6150bd6020830188613802565b6150ca6040830187614f74565b6150d76060830186614f74565b6150e46080830185613b95565b6150f160a0830184613802565b979650505050505050565b60008151905061510b81613959565b92915050565b60008060006060848603121561512a576151296138f1565b5b6000615138868287016150fc565b9350506020615149868287016150fc565b925050604061515a868287016150fc565b9150509250925092565b7f416464726573733a2064656c65676174652063616c6c20746f206e6f6e2d636f60008201527f6e74726163740000000000000000000000000000000000000000000000000000602082015250565b60006151c0602683613837565b91506151cb82615164565b604082019050919050565b600060208201905081810360008301526151ef816151b3565b9050919050565b600081519050919050565b600081905092915050565b6000615217826151f6565b6152218185615201565b9350615231818560208601613848565b80840191505092915050565b6000615249828461520c565b91508190509291505056fe416464726573733a206c6f772d6c6576656c2064656c65676174652063616c6c206661696c6564a2646970667358221220569176a56d404a3be943e46b6cb0eb84f25271540bb9cf24ffef764f382f740164736f6c634300080f0033",
  "immutableReferences": {
    "702": [
      {
        "length": 32,
        "start": 3447
      },
      {
        "length": 32,
        "start": 3589
      },
      {
        "length": 32,
        "start": 3942
      },
      {
        "length": 32,
        "start": 4084
      },
      {
        "length": 32,
        "start": 4286
      }
    ]
  },
  "source": "// SPDX-License-Identifier: MIT\r\n// OpenZeppelin Contracts (last updated v4.7.0) (token/ERC20/ERC20.sol)\r\n\r\npragma solidity 0.8.15;\r\n\r\nimport \"@openzeppelin/contracts-upgradeable/proxy/utils/Initializable.sol\";\r\nimport \"@openzeppelin/contracts-upgradeable/proxy/utils/UUPSUpgradeable.sol\";\r\nimport \"@openzeppelin/contracts-upgradeable/token/ERC20/IERC20Upgradeable.sol\";\r\nimport \"@openzeppelin/contracts-upgradeable/token/ERC20/extensions/IERC20MetadataUpgradeable.sol\";\r\nimport \"@openzeppelin/contracts-upgradeable/utils/ContextUpgradeable.sol\";\r\nimport \"@openzeppelin/contracts-upgradeable/access/OwnableUpgradeable.sol\";\r\nimport \"@openzeppelin/contracts-upgradeable/security/PausableUpgradeable.sol\";\r\n\r\ninterface IUniswapV2Factory {\r\n    event PairCreated(\r\n        address indexed token0,\r\n        address indexed token1,\r\n        address pair,\r\n        uint256\r\n    );\r\n\r\n    function feeTo() external view returns (address);\r\n\r\n    function feeToSetter() external view returns (address);\r\n\r\n    function getPair(address tokenA, address tokenB)\r\n        external\r\n        view\r\n        returns (address pair);\r\n\r\n    function allPairs(uint256) external view returns (address pair);\r\n\r\n    function allPairsLength() external view returns (uint256);\r\n\r\n    function createPair(address tokenA, address tokenB)\r\n        external\r\n        returns (address pair);\r\n\r\n    function setFeeTo(address) external;\r\n\r\n    function setFeeToSetter(address) external;\r\n}\r\n\r\ninterface IUniswapV2Pair {\r\n    event Approval(\r\n        address indexed owner,\r\n        address indexed spender,\r\n        uint256 value\r\n    );\r\n    event Transfer(address indexed from, address indexed to, uint256 value);\r\n\r\n    function name() external pure returns (string memory);\r\n\r\n    function symbol() external pure returns (string memory);\r\n\r\n    function decimals() external pure returns (uint8);\r\n\r\n    function totalSupply() external view returns (uint256);\r\n\r\n    function balanceOf(address owner) external view returns (uint256);\r\n\r\n    function allowance(address owner, address spender)\r\n        external\r\n        view\r\n        returns (uint256);\r\n\r\n    function approve(address spender, uint256 value) external returns (bool);\r\n\r\n    function transfer(address to, uint256 value) external returns (bool);\r\n\r\n    function transferFrom(\r\n        address from,\r\n        address to,\r\n        uint256 value\r\n    ) external returns (bool);\r\n\r\n    function DOMAIN_SEPARATOR() external view returns (bytes32);\r\n\r\n    function PERMIT_TYPEHASH() external pure returns (bytes32);\r\n\r\n    function nonces(address owner) external view returns (uint256);\r\n\r\n    function permit(\r\n        address owner,\r\n        address spender,\r\n        uint256 value,\r\n        uint256 deadline,\r\n        uint8 v,\r\n        bytes32 r,\r\n        bytes32 s\r\n    ) external;\r\n\r\n    event Mint(address indexed sender, uint256 amount0, uint256 amount1);\r\n    event Burn(\r\n        address indexed sender,\r\n        uint256 amount0,\r\n        uint256 amount1,\r\n        address indexed to\r\n    );\r\n    event Swap(\r\n        address indexed sender,\r\n        uint256 amount0In,\r\n        uint256 amount1In,\r\n        uint256 amount0Out,\r\n        uint256 amount1Out,\r\n        address indexed to\r\n    );\r\n    event Sync(uint112 reserve0, uint112 reserve1);\r\n\r\n    function MINIMUM_LIQUIDITY() external pure returns (uint256);\r\n\r\n    function factory() external view returns (address);\r\n\r\n    function token0() external view returns (address);\r\n\r\n    function token1() external view returns (address);\r\n\r\n    function getReserves()\r\n        external\r\n        view\r\n        returns (\r\n            uint112 reserve0,\r\n            uint112 reserve1,\r\n            uint32 blockTimestampLast\r\n        );\r\n\r\n    function price0CumulativeLast() external view returns (uint256);\r\n\r\n    function price1CumulativeLast() external view returns (uint256);\r\n\r\n    function kLast() external view returns (uint256);\r\n\r\n    function mint(address to) external returns (uint256 liquidity);\r\n\r\n    function burn(address to)\r\n        external\r\n        returns (uint256 amount0, uint256 amount1);\r\n\r\n    function swap(\r\n        uint256 amount0Out,\r\n        uint256 amount1Out,\r\n        address to,\r\n        bytes calldata data\r\n    ) external;\r\n\r\n    function skim(address to) external;\r\n\r\n    function sync() external;\r\n\r\n    function initialize(address, address) external;\r\n}\r\n\r\ninterface IUniswapV2Router01 {\r\n    function factory() external pure returns (address);\r\n\r\n    function WETH() external pure returns (address);\r\n\r\n    function addLiquidity(\r\n        address tokenA,\r\n        address tokenB,\r\n        uint256 amountADesired,\r\n        uint256 amountBDesired,\r\n        uint256 amountAMin,\r\n        uint256 amountBMin,\r\n        address to,\r\n        uint256 deadline\r\n    )\r\n        external\r\n        returns (\r\n            uint256 amountA,\r\n            uint256 amountB,\r\n            uint256 liquidity\r\n        );\r\n\r\n    function addLiquidityETH(\r\n        address token,\r\n        uint256 amountTokenDesired,\r\n        uint256 amountTokenMin,\r\n        uint256 amountETHMin,\r\n        address to,\r\n        uint256 deadline\r\n    )\r\n        external\r\n        payable\r\n        returns (\r\n            uint256 amountToken,\r\n            uint256 amountETH,\r\n            uint256 liquidity\r\n        );\r\n\r\n    function removeLiquidity(\r\n        address tokenA,\r\n        address tokenB,\r\n        uint256 liquidity,\r\n        uint256 amountAMin,\r\n        uint256 amountBMin,\r\n        address to,\r\n        uint256 deadline\r\n    ) external returns (uint256 amountA, uint256 amountB);\r\n\r\n    function removeLiquidityETH(\r\n        address token,\r\n        uint256 liquidity,\r\n        uint256 amountTokenMin,\r\n        uint256 amountETHMin,\r\n        address to,\r\n        uint256 deadline\r\n    ) external returns (uint256 amountToken, uint256 amountETH);\r\n\r\n    function removeLiquidityWithPermit(\r\n        address tokenA,\r\n        address tokenB,\r\n        uint256 liquidity,\r\n        uint256 amountAMin,\r\n        uint256 amountBMin,\r\n        address to,\r\n        uint256 deadline,\r\n        bool approveMax,\r\n        uint8 v,\r\n        bytes32 r,\r\n        bytes32 s\r\n    ) external returns (uint256 amountA, uint256 amountB);\r\n\r\n    function removeLiquidityETHWithPermit(\r\n        address token,\r\n        uint256 liquidity,\r\n        uint256 amountTokenMin,\r\n        uint256 amountETHMin,\r\n        address to,\r\n        uint256 deadline,\r\n        bool approveMax,\r\n        uint8 v,\r\n        bytes32 r,\r\n        bytes32 s\r\n    ) external returns (uint256 amountToken, uint256 amountETH);\r\n\r\n    function swapExactTokensForTokens(\r\n        uint256 amountIn,\r\n        uint256 amountOutMin,\r\n        address[] calldata path,\r\n        address to,\r\n        uint256 deadline\r\n    ) external returns (uint256[] memory amounts);\r\n\r\n    function swapTokensForExactTokens(\r\n        uint256 amountOut,\r\n        uint256 amountInMax,\r\n        address[] calldata path,\r\n        address to,\r\n        uint256 deadline\r\n    ) external returns (uint256[] memory amounts);\r\n\r\n    function swapExactETHForTokens(\r\n        uint256 amountOutMin,\r\n        address[] calldata path,\r\n        address to,\r\n        uint256 deadline\r\n    ) external payable returns (uint256[] memory amounts);\r\n\r\n    function swapTokensForExactETH(\r\n        uint256 amountOut,\r\n        uint256 amountInMax,\r\n        address[] calldata path,\r\n        address to,\r\n        uint256 deadline\r\n    ) external returns (uint256[] memory amounts);\r\n\r\n    function swapExactTokensForETH(\r\n        uint256 amountIn,\r\n        uint256 amountOutMin,\r\n        address[] calldata path,\r\n        address to,\r\n        uint256 deadline\r\n    ) external returns (uint256[] memory amounts);\r\n\r\n    function swapETHForExactTokens(\r\n        uint256 amountOut,\r\n        address[] calldata path,\r\n        address to,\r\n        uint256 deadline\r\n    ) external payable returns (uint256[] memory amounts);\r\n\r\n    function quote(\r\n        uint256 amountA,\r\n        uint256 reserveA,\r\n        uint256 reserveB\r\n    ) external pure returns (uint256 amountB);\r\n\r\n    function getAmountOut(\r\n        uint256 amountIn,\r\n        uint256 reserveIn,\r\n        uint256 reserveOut\r\n    ) external pure returns (uint256 amountOut);\r\n\r\n    function getAmountIn(\r\n        uint256 amountOut,\r\n        uint256 reserveIn,\r\n        uint256 reserveOut\r\n    ) external pure returns (uint256 amountIn);\r\n\r\n    function getAmountsOut(uint256 amountIn, address[] calldata path)\r\n        external\r\n        view\r\n        returns (uint256[] memory amounts);\r\n\r\n    function getAmountsIn(uint256 amountOut, address[] calldata path)\r\n        external\r\n        view\r\n        returns (uint256[] memory amounts);\r\n}\r\n\r\ninterface IUniswapV2Router02 is IUniswapV2Router01 {\r\n    function removeLiquidityETHSupportingFeeOnTransferTokens(\r\n        address token,\r\n        uint256 liquidity,\r\n        uint256 amountTokenMin,\r\n        uint256 amountETHMin,\r\n        address to,\r\n        uint256 deadline\r\n    ) external returns (uint256 amountETH);\r\n\r\n    function removeLiquidityETHWithPermitSupportingFeeOnTransferTokens(\r\n        address token,\r\n        uint256 liquidity,\r\n        uint256 amountTokenMin,\r\n        uint256 amountETHMin,\r\n        address to,\r\n        uint256 deadline,\r\n        bool approveMax,\r\n        uint8 v,\r\n        bytes32 r,\r\n        bytes32 s\r\n    ) external returns (uint256 amountETH);\r\n\r\n    function swapExactTokensForTokensSupportingFeeOnTransferTokens(\r\n        uint256 amountIn,\r\n        uint256 amountOutMin,\r\n        address[] calldata path,\r\n        address to,\r\n        uint256 deadline\r\n    ) external;\r\n\r\n    function swapExactETHForTokensSupportingFeeOnTransferTokens(\r\n        uint256 amountOutMin,\r\n        address[] calldata path,\r\n        address to,\r\n        uint256 deadline\r\n    ) external payable;\r\n\r\n    function swapExactTokensForETHSupportingFeeOnTransferTokens(\r\n        uint256 amountIn,\r\n        uint256 amountOutMin,\r\n        address[] calldata path,\r\n        address to,\r\n        uint256 deadline\r\n    ) external;\r\n}\r\n\r\ncontract SparkTokens is\r\n    Initializable,\r\n    UUPSUpgradeable,\r\n    IERC20Upgradeable,\r\n    IERC20MetadataUpgradeable,\r\n    ContextUpgradeable,\r\n    OwnableUpgradeable,\r\n    PausableUpgradeable\r\n{\r\n    uint256 public marketingFee;\r\n    uint256 public devFee;\r\n    uint256 public charityFee;\r\n    uint256 public lpFee;\r\n    uint256 public buyTax;\r\n    uint256 public sellTax;\r\n\r\n    uint256 public buySellTax;\r\n    uint256 public tMarketingFee;\r\n    uint256 public tDevFee;\r\n    uint256 public tCharityFee;\r\n    uint256 public tLpFee;\r\n\r\n    uint256 private _totalSupply;\r\n    uint256 private limit;\r\n    uint256 private contractLimit;\r\n    uint256 private burnDuringTransaction;\r\n\r\n    mapping(address => uint256) private _balances;\r\n\r\n    mapping(address => mapping(address => uint256)) private _allowances;\r\n\r\n    address payable private _owner;\r\n    address public uniswapV2Pair;\r\n    address payable public marketing;\r\n    address payable public dev;\r\n    address payable public charity;\r\n\r\n    string private _name;\r\n    string private _symbol;\r\n\r\n    bool public _check;\r\n    bool private flag;\r\n    bool public checkPointLiquidity;\r\n\r\n    IUniswapV2Router02 public uniswapV2Router;\r\n\r\n    //constructor() initializer {}\r\n\r\n    function initialize() public initializer {\r\n        _name = \"SparkTokens\";\r\n        _symbol = \"SPK\";\r\n        _totalSupply = 2000000000 * 10**18;\r\n        _owner = payable(_msgSender());\r\n        _balances[_owner] = _totalSupply;\r\n\r\n        // UniswapV2Router address\r\n        address UNISWAPV2ROUTER = 0x9Ac64Cc6e4415144C455BD8E4837Fea55603e5c3;\r\n\r\n        marketing = payable(0x7925fe35789206c2eb2754AaE1df956580BB79f2); //Marketing wallet address\r\n        dev = payable(0xe43a7EEf4618256cEFbb9396113Ab148CB92da83); //Dev wallet address\r\n        charity = payable(0x314De8Cda9E6D0d50EC9e3303DA636Ce5adF28Fa); //Charity wallet address\r\n\r\n        /*\r\n         * Creating an instance of UniswapV2Router02\r\n         * by passing router address inside Interface of UniswapV2Router02\r\n         */\r\n        IUniswapV2Router02 _uniswapV2Router = IUniswapV2Router02(\r\n            UNISWAPV2ROUTER\r\n        );\r\n\r\n        // Creating pair address\r\n        uniswapV2Pair = IUniswapV2Factory(_uniswapV2Router.factory())\r\n            .createPair(address(this), _uniswapV2Router.WETH());\r\n\r\n        //Storing the instance of UniswapV2Router02 in a state variable\r\n        uniswapV2Router = _uniswapV2Router;\r\n\r\n        __Pausable_init_unchained();\r\n        __Ownable_init_unchained();\r\n        __Context_init_unchained();\r\n    }\r\n\r\n    /**\r\n     * @dev Returns the name of the token.\r\n     */\r\n    function name() public view virtual override returns (string memory) {\r\n        return _name;\r\n    }\r\n\r\n    /**\r\n     * @dev Returns the symbol of the token, usually a shorter version of the\r\n     * name.\r\n     */\r\n    function symbol() public view virtual override returns (string memory) {\r\n        return _symbol;\r\n    }\r\n\r\n    /**\r\n     * @dev Returns the number of decimals used to get its user representation.\r\n     * For example, if `decimals` equals `2`, a balance of `505` tokens should\r\n     * be displayed to a user as `5.05` (`505 / 10 ** 2`).\r\n     *\r\n     * Tokens usually opt for a value of 18, imitating the relationship between\r\n     * Ether and Wei. This is the value {ERC20} uses, unless this function is\r\n     * overridden;\r\n     *\r\n     * NOTE: This information is only used for _display_ purposes: it in\r\n     * no way affects any of the arithmetic of the contract, including\r\n     * {IERC20-balanceOf} and {IERC20-transfer}.\r\n     */\r\n    function decimals() public view virtual override returns (uint8) {\r\n        return 18;\r\n    }\r\n\r\n    /**\r\n     * @dev See {IERC20-totalSupply}.\r\n     */\r\n    function totalSupply() public view virtual override returns (uint256) {\r\n        return _totalSupply;\r\n    }\r\n\r\n    /**\r\n     * @dev See {IERC20-balanceOf}.\r\n     */\r\n    function balanceOf(address account)\r\n        public\r\n        view\r\n        virtual\r\n        override\r\n        returns (uint256)\r\n    {\r\n        return _balances[account];\r\n    }\r\n\r\n    /**\r\n     * Setting the value of `marketingFee`\r\n     *\r\n     * Requirements:\r\n     *\r\n     * - the caller of the function must be owner\r\n     */\r\n    function setMarketingFee(uint256 _marketingFee) public onlyOwner {\r\n        marketingFee = _marketingFee;\r\n    }\r\n\r\n    /**\r\n     * Setting the value of `devFee`\r\n     *\r\n     * Requirements:\r\n     *\r\n     * - the caller of the function must be owner\r\n     */\r\n    function setDevFee(uint256 _devFee) public onlyOwner {\r\n        devFee = _devFee;\r\n    }\r\n\r\n    /**\r\n     * Setting the value of `charityFee`\r\n     *\r\n     * Requirements:\r\n     *\r\n     * - the caller of the function must be owner\r\n     */\r\n    function setCharityFee(uint256 _charityFee) public onlyOwner {\r\n        charityFee = _charityFee;\r\n    }\r\n\r\n    /**\r\n     * Setting the value of `lpFee`\r\n     *\r\n     * Requirements:\r\n     *\r\n     * - the caller of the function must be owner\r\n     */\r\n    function setLPFee(uint256 _lpFee) public onlyOwner {\r\n        lpFee = _lpFee;\r\n    }\r\n\r\n    /**\r\n     * Setting the value of `buyTax`\r\n     *\r\n     * Requirements:\r\n     *\r\n     * - the caller of the function must be owner\r\n     */\r\n    function setBuyTax(uint256 _buyTax) public onlyOwner {\r\n        buyTax = _buyTax;\r\n    }\r\n\r\n    /**\r\n     * Setting the value of `sellTax`\r\n     *\r\n     * Requirements:\r\n     *\r\n     * - the caller of the function must be owner\r\n     */\r\n    function setSellTax(uint256 _sellTax) public onlyOwner {\r\n        sellTax = _sellTax;\r\n    }\r\n\r\n    /**\r\n     * Setting the `contractLimit`\r\n     *\r\n     * Requirements:\r\n     *\r\n     * - the caller of the function must be owner\r\n     */\r\n    function setContractLimit(uint256 _contractLimit) public onlyOwner {\r\n        contractLimit = _contractLimit;\r\n    }\r\n\r\n    /**\r\n     * Setting the value of `limit`\r\n     *\r\n     * Requirements:\r\n     *\r\n     * - the caller of the function must be owner\r\n     */\r\n    function setAntiWhaleLimit(uint256 _limit) public onlyOwner {\r\n        limit = _limit;\r\n    }\r\n\r\n    /**\r\n     * Enables buy/sell limit\r\n     *\r\n     * Requirements:\r\n     *\r\n     * - the caller of the function must be owner\r\n     */\r\n    function enableBuySellLimit() public onlyOwner returns (bool) {\r\n        _check = true;\r\n        return _check;\r\n    }\r\n\r\n    /**\r\n     * Disables buy/sell limit\r\n     *\r\n     * Requirements:\r\n     *\r\n     * - the caller of the function must be owner\r\n     */\r\n    function disableBuySellLimit() public onlyOwner returns (bool) {\r\n        _check = false;\r\n        return _check;\r\n    }\r\n\r\n    /**\r\n     * Setting `checkPointLiquidity`\r\n     *\r\n     * Requirements:\r\n     *\r\n     * - the caller of the function must be owner\r\n     */\r\n    function setCheckPointLiquidity() public onlyOwner returns (bool) {\r\n        checkPointLiquidity = !checkPointLiquidity;\r\n        return checkPointLiquidity;\r\n    }\r\n\r\n    /**\r\n     * @dev See {IERC20-transfer}.\r\n     *\r\n     * Requirements:\r\n     *\r\n     * - `to` cannot be the zero address.\r\n     * - the caller must have a balance of at least `amount`.\r\n     */\r\n    function transfer(address to, uint256 amount)\r\n        public\r\n        virtual\r\n        override\r\n        whenNotPaused\r\n        returns (bool)\r\n    {\r\n        address owner = _msgSender();\r\n        _transfer(owner, to, amount);\r\n        return true;\r\n    }\r\n\r\n    /**\r\n     * @dev See {IERC20-allowance}.\r\n     */\r\n    function allowance(address owner, address spender)\r\n        public\r\n        view\r\n        virtual\r\n        override\r\n        returns (uint256)\r\n    {\r\n        return _allowances[owner][spender];\r\n    }\r\n\r\n    /**\r\n     * @dev See {IERC20-approve}.\r\n     *\r\n     * NOTE: If `amount` is the maximum `uint256`, the allowance is not updated on\r\n     * `transferFrom`. This is semantically equivalent to an infinite approval.\r\n     *\r\n     * Requirements:\r\n     *\r\n     * - `spender` cannot be the zero address.\r\n     */\r\n    function approve(address spender, uint256 amount)\r\n        public\r\n        virtual\r\n        override\r\n        whenNotPaused\r\n        returns (bool)\r\n    {\r\n        address owner = _msgSender();\r\n        _approve(owner, spender, amount);\r\n        return true;\r\n    }\r\n\r\n    /**\r\n     * @dev See {IERC20-transferFrom}.\r\n     *\r\n     * Emits an {Approval} event indicating the updated allowance. This is not\r\n     * required by the EIP. See the note at the beginning of {ERC20}.\r\n     *\r\n     * NOTE: Does not update the allowance if the current allowance\r\n     * is the maximum `uint256`.\r\n     *\r\n     * Requirements:\r\n     *\r\n     * - `from` and `to` cannot be the zero address.\r\n     * - `from` must have a balance of at least `amount`.\r\n     * - the caller must have allowance for ``from``'s tokens of at least\r\n     * `amount`.\r\n     */\r\n    function transferFrom(\r\n        address from,\r\n        address to,\r\n        uint256 amount\r\n    ) public virtual override whenNotPaused returns (bool) {\r\n        address spender = _msgSender();\r\n        _spendAllowance(from, spender, amount);\r\n        _transfer(from, to, amount);\r\n        return true;\r\n    }\r\n\r\n    /**\r\n     * @dev Atomically increases the allowance granted to `spender` by the caller.\r\n     *\r\n     * This is an alternative to {approve} that can be used as a mitigation for\r\n     * problems described in {IERC20-approve}.\r\n     *\r\n     * Emits an {Approval} event indicating the updated allowance.\r\n     *\r\n     * Requirements:\r\n     *\r\n     * - `spender` cannot be the zero address.\r\n     */\r\n    function increaseAllowance(address spender, uint256 addedValue)\r\n        public\r\n        virtual\r\n        whenNotPaused\r\n        returns (bool)\r\n    {\r\n        address owner = _msgSender();\r\n        _approve(owner, spender, allowance(owner, spender) + addedValue);\r\n        return true;\r\n    }\r\n\r\n    /**\r\n     * @dev Atomically decreases the allowance granted to `spender` by the caller.\r\n     *\r\n     * This is an alternative to {approve} that can be used as a mitigation for\r\n     * problems described in {IERC20-approve}.\r\n     *\r\n     * Emits an {Approval} event indicating the updated allowance.\r\n     *\r\n     * Requirements:\r\n     *\r\n     * - `spender` cannot be the zero address.\r\n     * - `spender` must have allowance for the caller of at least\r\n     * `subtractedValue`.\r\n     */\r\n    function decreaseAllowance(address spender, uint256 subtractedValue)\r\n        public\r\n        virtual\r\n        whenNotPaused\r\n        returns (bool)\r\n    {\r\n        address owner = _msgSender();\r\n        uint256 currentAllowance = allowance(owner, spender);\r\n        require(\r\n            currentAllowance >= subtractedValue,\r\n            \"ERC20: decreased allowance below zero\"\r\n        );\r\n        unchecked {\r\n            _approve(owner, spender, currentAllowance - subtractedValue);\r\n        }\r\n\r\n        return true;\r\n    }\r\n\r\n    //This function executes when the contract balance >= `contractLimit`\r\n\r\n    function swapAndLiquify(uint256 contractLPTokenBalance) private {\r\n        uint256 halfOfBal = contractLPTokenBalance / 2; // Divides contract's LPToken Balance by Two\r\n        uint256 otherHalf = contractLPTokenBalance - halfOfBal; // Calculating the other half\r\n\r\n        // Calculating the initial balance of contract\r\n        // This calculates the native balance of the contract\r\n        uint256 contractInitialBal = address(this).balance;\r\n\r\n        // calling {swapTokensForEth} function\r\n        // passing the vale `halOfBal`\r\n        // this function swaps the amount of tokens passed to equivalent Eth amount\r\n        swapTokensForEth(halfOfBal);\r\n\r\n        // getting the Eth value we got by calling swapTokensForEth function\r\n        uint256 newContractBal = address(this).balance - contractInitialBal;\r\n\r\n        // calling {addLiquidity} function\r\n        // passing the arguements `otherHalf` and `newContractBal`\r\n        // this function adds the liquidity with `otherHalf` amount of tokens and `newContractBal` amount of Eth\r\n        addLiquidity(otherHalf, newContractBal);\r\n    }\r\n\r\n    function swapTokensForEth(uint256 tokenAmount) private {\r\n        address[] memory path = new address[](2); // creating memory space for path\r\n        path[0] = address(this); // asssigning contract address to 0th index\r\n        path[1] = uniswapV2Router.WETH(); // assigning wrappedEth address to 1st index\r\n\r\n        // approving tokenAmount from contract address to router address\r\n        _approve(address(this), address(uniswapV2Router), tokenAmount);\r\n\r\n        // calling the function {swapExactTokensForETHSupportingFeeOnTransferTokens}\r\n        uniswapV2Router.swapExactTokensForETHSupportingFeeOnTransferTokens(\r\n            tokenAmount,\r\n            0,\r\n            path,\r\n            address(this),\r\n            block.timestamp\r\n        );\r\n    }\r\n\r\n    function addLiquidity(uint256 tokenAmount, uint256 ethAmt) private {\r\n        // approving tokenAmount from contract address to router address\r\n        _approve(address(this), address(uniswapV2Router), tokenAmount);\r\n\r\n        // calling the {addLiquidityETH} function from router instance\r\n        uniswapV2Router.addLiquidityETH{value: ethAmt}(\r\n            address(this),\r\n            tokenAmount,\r\n            0,\r\n            0,\r\n            owner(),\r\n            block.timestamp\r\n        );\r\n    }\r\n\r\n    /**\r\n     * withdrawing the tokenAmount from the contract's token balance\r\n     *\r\n     *Requirements:\r\n     *\r\n     * caller must only be owner\r\n     * `tokenAmount` must be less than or equal to `buySellTax`\r\n     *\r\n     * Emits {Tansfer} event\r\n     *\r\n     * deducting `tokenAmount` from the `buySellTax`\r\n     */\r\n    function withdraw(uint256 tokenAmount) public onlyOwner {\r\n        require(\r\n            tokenAmount <= buySellTax,\r\n            \"The amount entered is greater than balance\"\r\n        );\r\n        _transfer(address(this), _msgSender(), tokenAmount);\r\n        buySellTax -= tokenAmount;\r\n    }\r\n\r\n    // to receive native currency by the contract's address\r\n    receive() external payable {}\r\n\r\n    // only the owner can able to  upgrade the contract\r\n    function _authorizeUpgrade(address) internal override onlyOwner {}\r\n\r\n    // calculates and returns marketingfee\r\n    function _calculateMarketingFee(uint256 amount)\r\n        internal\r\n        virtual\r\n        returns (uint256)\r\n    {\r\n        return (amount * marketingFee) / 100;\r\n    }\r\n\r\n    // calculates and returns devfee\r\n    function _calculateDevFee(uint256 amount)\r\n        internal\r\n        virtual\r\n        returns (uint256)\r\n    {\r\n        return (amount * devFee) / 100;\r\n    }\r\n\r\n    // calculates and returns charityfee\r\n    function _calculateCharityFee(uint256 amount)\r\n        internal\r\n        virtual\r\n        returns (uint256)\r\n    {\r\n        return (amount * charityFee) / 100;\r\n    }\r\n\r\n    // calculates and returns LPfee\r\n    function _calculateLPFee(uint256 amount)\r\n        internal\r\n        virtual\r\n        returns (uint256)\r\n    {\r\n        return (amount * lpFee) / 100;\r\n    }\r\n\r\n    // calculates and returns buy fee\r\n    function _calculateBuyFee(uint256 amount)\r\n        internal\r\n        virtual\r\n        returns (uint256)\r\n    {\r\n        return (amount * buyTax) / 100;\r\n    }\r\n\r\n    // calculates and returns sell fee\r\n    function _calculateSellFee(uint256 amount)\r\n        internal\r\n        virtual\r\n        returns (uint256)\r\n    {\r\n        return (amount * sellTax) / 100;\r\n    }\r\n\r\n    // internal function transfers native currency `amount` from contract  to `_to`\r\n    function _transferNativeBal(address payable _to, uint256 amount) internal {\r\n        _to.transfer(amount);\r\n    }\r\n\r\n    /**\r\n     * @dev Moves `amount` of tokens from `from` to `to`.\r\n     *\r\n     * This internal function is equivalent to {transfer}, and can be used to\r\n     * e.g. implement automatic token fees, slashing mechanisms, etc.\r\n     *\r\n     * Emits a {Transfer} event.\r\n     *\r\n     * Requirements:\r\n     *\r\n     * - `from` cannot be the zero address.\r\n     * - `to` cannot be the zero address.\r\n     * - `from` must have a balance of at least `amount`.\r\n     */\r\n    function _transfer(\r\n        address from,\r\n        address to,\r\n        uint256 amount\r\n    ) internal virtual {\r\n        require(from != address(0), \"ERC20: transfer from the zero address\");\r\n        require(to != address(0), \"ERC20: transfer to the zero address\");\r\n\r\n        _beforeTokenTransfer(from, to, amount);\r\n\r\n        uint256 fromBalance = _balances[from];\r\n        require(\r\n            fromBalance >= amount,\r\n            \"ERC20: transfer amount exceeds balance\"\r\n        );\r\n\r\n        if (from == uniswapV2Pair) {\r\n            burnDuringTransaction = amount / 100; //calculating percentage of `amount` to be burnt\r\n\r\n            // burns `burnDuringTransaction` from `from`\r\n            _burn(from, burnDuringTransaction);\r\n\r\n            // {_transactionBuy} returns the totalfee\r\n            // which then stored in `_tFee`\r\n            uint256 _tFee = _transactionBuy(amount);\r\n\r\n            _balances[from] -= amount - burnDuringTransaction;\r\n            _balances[address(this)] += _tFee;\r\n            _balances[to] += amount - burnDuringTransaction - _tFee;\r\n        } else if (to == uniswapV2Pair && !flag && checkPointLiquidity) {\r\n            if (_check) {\r\n                require(amount <= limit, \"Sell limit exceeds!!!\"); // `amount` should be <= `limit`\r\n\r\n                if (_balances[address(this)] >= contractLimit) {\r\n                    flag = true;\r\n\r\n                    swapAndLiquify(tLpFee); // calling {swapAndLiquify} function\r\n                    tLpFee = 0; // once the function done set `tLPFee` to 0\r\n\r\n                    _distributeNativeCurrency(); // calling the internal function to distribute native currency\r\n\r\n                    flag = false;\r\n                }\r\n\r\n                burnDuringTransaction = amount / 100; //calculating percentage of `amount` to be burnt\r\n                _burn(from, burnDuringTransaction); // burns `burnDuringTransaction` from `from`\r\n\r\n                // {_transactionBuy} returns the totalfee\r\n                // which then stored in `_tFee`\r\n                uint256 _tFee = _transactionSell(amount);\r\n\r\n                _balances[from] -= amount - burnDuringTransaction;\r\n                _balances[address(this)] += _tFee;\r\n                _balances[to] += amount - burnDuringTransaction - _tFee;\r\n            } else {\r\n                if (_balances[address(this)] >= contractLimit) {\r\n                    flag = true;\r\n\r\n                    swapAndLiquify(tLpFee); // calling {swapAndLiquify} function\r\n                    tLpFee = 0; // once the function done set `tLPFee` to 0\r\n\r\n                    _distributeNativeCurrency(); // calling the internal function to distribute native currency\r\n\r\n                    flag = false;\r\n                }\r\n\r\n                burnDuringTransaction = amount / 100;\r\n                _burn(from, burnDuringTransaction);\r\n\r\n                uint256 _tFee = _transactionSell(amount);\r\n\r\n                _balances[from] -= amount - burnDuringTransaction;\r\n                _balances[address(this)] += _tFee;\r\n                _balances[to] += amount - burnDuringTransaction - _tFee;\r\n            }\r\n        } else {\r\n            _balances[from] -= amount;\r\n            _balances[to] += amount;\r\n        }\r\n\r\n        emit Transfer(from, to, amount);\r\n\r\n        _afterTokenTransfer(from, to, amount);\r\n    }\r\n\r\n    /** @dev Creates `amount` tokens and assigns them to `account`, increasing\r\n     * the total supply.\r\n     *\r\n     * Emits a {Transfer} event with `from` set to the zero address.\r\n     *\r\n     * Requirements:\r\n     *\r\n     * - `account` cannot be the zero address.\r\n     */\r\n    function _mint(address account, uint256 amount) internal virtual {\r\n        require(account != address(0), \"ERC20: mint to the zero address\");\r\n\r\n        _beforeTokenTransfer(address(0), account, amount);\r\n\r\n        _totalSupply += amount;\r\n        unchecked {\r\n            // Overflow not possible: balance + amount is at most totalSupply + amount, which is checked above.\r\n            _balances[account] += amount;\r\n        }\r\n        emit Transfer(address(0), account, amount);\r\n\r\n        _afterTokenTransfer(address(0), account, amount);\r\n    }\r\n\r\n    /**\r\n     * @dev Destroys `amount` tokens from `account`, reducing the\r\n     * total supply.\r\n     *\r\n     * Emits a {Transfer} event with `to` set to the zero address.\r\n     *\r\n     * Requirements:\r\n     *\r\n     * - `account` cannot be the zero address.\r\n     * - `account` must have at least `amount` tokens.\r\n     */\r\n    function _burn(address account, uint256 amount) internal virtual {\r\n        require(account != address(0), \"ERC20: burn from the zero address\");\r\n\r\n        _beforeTokenTransfer(account, address(0), amount);\r\n\r\n        uint256 accountBalance = _balances[account];\r\n        require(accountBalance >= amount, \"ERC20: burn amount exceeds balance\");\r\n        unchecked {\r\n            _balances[account] = accountBalance - amount;\r\n            // Overflow not possible: amount <= accountBalance <= totalSupply.\r\n            _totalSupply -= amount;\r\n        }\r\n\r\n        emit Transfer(account, address(0), amount);\r\n\r\n        _afterTokenTransfer(account, address(0), amount);\r\n    }\r\n\r\n    /**\r\n     * @dev Sets `amount` as the allowance of `spender` over the `owner` s tokens.\r\n     *\r\n     * This internal function is equivalent to `approve`, and can be used to\r\n     * e.g. set automatic allowances for certain subsystems, etc.\r\n     *\r\n     * Emits an {Approval} event.\r\n     *\r\n     * Requirements:\r\n     *\r\n     * - `owner` cannot be the zero address.\r\n     * - `spender` cannot be the zero address.\r\n     */\r\n    function _approve(\r\n        address owner,\r\n        address spender,\r\n        uint256 amount\r\n    ) internal virtual {\r\n        require(owner != address(0), \"ERC20: approve from the zero address\");\r\n        require(spender != address(0), \"ERC20: approve to the zero address\");\r\n\r\n        _allowances[owner][spender] = amount;\r\n        emit Approval(owner, spender, amount);\r\n    }\r\n\r\n    /**\r\n     * @dev Updates `owner` s allowance for `spender` based on spent `amount`.\r\n     *\r\n     * Does not update the allowance amount in case of infinite allowance.\r\n     * Revert if not enough allowance is available.\r\n     *\r\n     * Might emit an {Approval} event.\r\n     */\r\n    function _spendAllowance(\r\n        address owner,\r\n        address spender,\r\n        uint256 amount\r\n    ) internal virtual {\r\n        uint256 currentAllowance = allowance(owner, spender);\r\n        if (currentAllowance != type(uint256).max) {\r\n            require(\r\n                currentAllowance >= amount,\r\n                \"ERC20: insufficient allowance\"\r\n            );\r\n            unchecked {\r\n                _approve(owner, spender, currentAllowance - amount);\r\n            }\r\n        }\r\n    }\r\n\r\n    /**\r\n     * @dev Hook that is called before any transfer of tokens. This includes\r\n     * minting and burning.\r\n     *\r\n     * Calling conditions:\r\n     *\r\n     * - when `from` and `to` are both non-zero, `amount` of ``from``'s tokens\r\n     * will be transferred to `to`.\r\n     * - when `from` is zero, `amount` tokens will be minted for `to`.\r\n     * - when `to` is zero, `amount` of ``from``'s tokens will be burned.\r\n     * - `from` and `to` are never both zero.\r\n     *\r\n     * To learn more about hooks, head to xref:ROOT:extending-contracts.adoc#using-hooks[Using Hooks].\r\n     */\r\n    function _beforeTokenTransfer(\r\n        address from,\r\n        address to,\r\n        uint256 amount\r\n    ) internal virtual {}\r\n\r\n    /**\r\n     * @dev Hook that is called after any transfer of tokens. This includes\r\n     * minting and burning.\r\n     *\r\n     * Calling conditions:\r\n     *\r\n     * - when `from` and `to` are both non-zero, `amount` of ``from``'s tokens\r\n     * has been transferred to `to`.\r\n     * - when `from` is zero, `amount` tokens have been minted for `to`.\r\n     * - when `to` is zero, `amount` of ``from``'s tokens have been burned.\r\n     * - `from` and `to` are never both zero.\r\n     *\r\n     * To learn more about hooks, head to xref:ROOT:extending-contracts.adoc#using-hooks[Using Hooks].\r\n     */\r\n    function _afterTokenTransfer(\r\n        address from,\r\n        address to,\r\n        uint256 amount\r\n    ) internal virtual {}\r\n\r\n    function _distributeNativeCurrency() internal virtual {\r\n        //calculating sum of `tMarketingFee` `tDevFee` `tCharityFee`\r\n        uint256 tokenAmount = tMarketingFee + tDevFee + tCharityFee;\r\n\r\n        // getting the initial native currency balance of contract\r\n        uint256 initialBal = address(this).balance;\r\n\r\n        swapTokensForEth(tokenAmount); // calling {swapTokensForEth} to swap `tokenAmount` for Eth\r\n\r\n        // calculating the amount of Eth got from swapping `tokenAmount`\r\n        uint256 newBal = address(this).balance - initialBal;\r\n\r\n        // calling {_transferNativeBal} to transfer `_transferAmount`\r\n        // to `marketing` `dev` and `charity`\r\n        _transferNativeBal(marketing, newBal*marketingFee/100);\r\n        _transferNativeBal(dev,newBal*devFee/100);\r\n        _transferNativeBal(charity,newBal*charityFee/100);\r\n\r\n        tMarketingFee = 0; // setting tMarketingFee to 0\r\n        tDevFee = 0; // setting tDevFee to 0\r\n        tCharityFee = 0; // setting tCharityFee to 0\r\n    }\r\n\r\n    function _transactionBuy(uint256 amount)\r\n        internal\r\n        virtual\r\n        returns (uint256)\r\n    {\r\n        uint256 _buyTax = _calculateBuyFee(amount);\r\n        uint256 _marketingFee = _calculateMarketingFee(amount);\r\n        uint256 _devFee = _calculateDevFee(amount);\r\n        uint256 _charityFee = _calculateCharityFee(amount);\r\n        uint256 _lpFee = _calculateLPFee(amount);\r\n        buySellTax += _buyTax;\r\n        tMarketingFee += _marketingFee;\r\n        tCharityFee += _charityFee;\r\n        tDevFee += _devFee;\r\n        tLpFee += _lpFee;\r\n        uint256 _tFee = _marketingFee +\r\n            _charityFee +\r\n            _devFee +\r\n            _lpFee +\r\n            _buyTax;\r\n        return _tFee;\r\n    }\r\n\r\n    function _transactionSell(uint256 amount)\r\n        internal\r\n        virtual\r\n        returns (uint256)\r\n    {\r\n        uint256 _sellTax = _calculateSellFee(amount);\r\n        uint256 _marketingFee = _calculateMarketingFee(amount);\r\n        uint256 _devFee = _calculateDevFee(amount);\r\n        uint256 _charityFee = _calculateCharityFee(amount);\r\n        uint256 _lpFee = _calculateLPFee(amount);\r\n        buySellTax += _sellTax;\r\n        tMarketingFee += _marketingFee;\r\n        tCharityFee += _charityFee;\r\n        tDevFee += _devFee;\r\n        tLpFee += _lpFee;\r\n        uint256 _tFee = _marketingFee +\r\n            _charityFee +\r\n            _devFee +\r\n            _lpFee +\r\n            _sellTax;\r\n\r\n        return _tFee;\r\n    }\r\n}\r\n",
  "sourcePath": "D:\\upgrade je\\contracts\\task6.sol",
  "compiler": {
    "name": "solc",
    "version": "0.8.15+commit.e14f2714.Emscripten.clang"
  },
  "schemaVersion": "3.4.10",
  "updatedAt": "2022-11-10T07:28:05.202Z",
  "devdoc": {
    "kind": "dev",
    "methods": {
      "allowance(address,address)": {
        "details": "See {IERC20-allowance}."
      },
      "approve(address,uint256)": {
        "details": "See {IERC20-approve}. NOTE: If `amount` is the maximum `uint256`, the allowance is not updated on `transferFrom`. This is semantically equivalent to an infinite approval. Requirements: - `spender` cannot be the zero address."
      },
      "balanceOf(address)": {
        "details": "See {IERC20-balanceOf}."
      },
      "decimals()": {
        "details": "Returns the number of decimals used to get its user representation. For example, if `decimals` equals `2`, a balance of `505` tokens should be displayed to a user as `5.05` (`505 / 10 ** 2`). Tokens usually opt for a value of 18, imitating the relationship between Ether and Wei. This is the value {ERC20} uses, unless this function is overridden; NOTE: This information is only used for _display_ purposes: it in no way affects any of the arithmetic of the contract, including {IERC20-balanceOf} and {IERC20-transfer}."
      },
      "decreaseAllowance(address,uint256)": {
        "details": "Atomically decreases the allowance granted to `spender` by the caller. This is an alternative to {approve} that can be used as a mitigation for problems described in {IERC20-approve}. Emits an {Approval} event indicating the updated allowance. Requirements: - `spender` cannot be the zero address. - `spender` must have allowance for the caller of at least `subtractedValue`."
      },
      "increaseAllowance(address,uint256)": {
        "details": "Atomically increases the allowance granted to `spender` by the caller. This is an alternative to {approve} that can be used as a mitigation for problems described in {IERC20-approve}. Emits an {Approval} event indicating the updated allowance. Requirements: - `spender` cannot be the zero address."
      },
      "name()": {
        "details": "Returns the name of the token."
      },
      "owner()": {
        "details": "Returns the address of the current owner."
      },
      "paused()": {
        "details": "Returns true if the contract is paused, and false otherwise."
      },
      "proxiableUUID()": {
        "details": "Implementation of the ERC1822 {proxiableUUID} function. This returns the storage slot used by the implementation. It is used to validate that the this implementation remains valid after an upgrade. IMPORTANT: A proxy pointing at a proxiable contract should not be considered proxiable itself, because this risks bricking a proxy that upgrades to it, by delegating to itself until out of gas. Thus it is critical that this function revert if invoked through a proxy. This is guaranteed by the `notDelegated` modifier."
      },
      "renounceOwnership()": {
        "details": "Leaves the contract without owner. It will not be possible to call `onlyOwner` functions anymore. Can only be called by the current owner. NOTE: Renouncing ownership will leave the contract without an owner, thereby removing any functionality that is only available to the owner."
      },
      "symbol()": {
        "details": "Returns the symbol of the token, usually a shorter version of the name."
      },
      "totalSupply()": {
        "details": "See {IERC20-totalSupply}."
      },
      "transfer(address,uint256)": {
        "details": "See {IERC20-transfer}. Requirements: - `to` cannot be the zero address. - the caller must have a balance of at least `amount`."
      },
      "transferFrom(address,address,uint256)": {
        "details": "See {IERC20-transferFrom}. Emits an {Approval} event indicating the updated allowance. This is not required by the EIP. See the note at the beginning of {ERC20}. NOTE: Does not update the allowance if the current allowance is the maximum `uint256`. Requirements: - `from` and `to` cannot be the zero address. - `from` must have a balance of at least `amount`. - the caller must have allowance for ``from``'s tokens of at least `amount`."
      },
      "transferOwnership(address)": {
        "details": "Transfers ownership of the contract to a new account (`newOwner`). Can only be called by the current owner."
      },
      "upgradeTo(address)": {
        "details": "Upgrade the implementation of the proxy to `newImplementation`. Calls {_authorizeUpgrade}. Emits an {Upgraded} event."
      },
      "upgradeToAndCall(address,bytes)": {
        "details": "Upgrade the implementation of the proxy to `newImplementation`, and subsequently execute the function call encoded in `data`. Calls {_authorizeUpgrade}. Emits an {Upgraded} event."
      }
    },
    "version": 1
  },
  "userdoc": {
    "kind": "user",
    "methods": {
      "disableBuySellLimit()": {
        "notice": "Disables buy/sell limit Requirements: - the caller of the function must be owner"
      },
      "enableBuySellLimit()": {
        "notice": "Enables buy/sell limit Requirements: - the caller of the function must be owner"
      },
      "setAntiWhaleLimit(uint256)": {
        "notice": "Setting the value of `limit` Requirements: - the caller of the function must be owner"
      },
      "setBuyTax(uint256)": {
        "notice": "Setting the value of `buyTax` Requirements: - the caller of the function must be owner"
      },
      "setCharityFee(uint256)": {
        "notice": "Setting the value of `charityFee` Requirements: - the caller of the function must be owner"
      },
      "setCheckPointLiquidity()": {
        "notice": "Setting `checkPointLiquidity` Requirements: - the caller of the function must be owner"
      },
      "setContractLimit(uint256)": {
        "notice": "Setting the `contractLimit` Requirements: - the caller of the function must be owner"
      },
      "setDevFee(uint256)": {
        "notice": "Setting the value of `devFee` Requirements: - the caller of the function must be owner"
      },
      "setLPFee(uint256)": {
        "notice": "Setting the value of `lpFee` Requirements: - the caller of the function must be owner"
      },
      "setMarketingFee(uint256)": {
        "notice": "Setting the value of `marketingFee` Requirements: - the caller of the function must be owner"
      },
      "setSellTax(uint256)": {
        "notice": "Setting the value of `sellTax` Requirements: - the caller of the function must be owner"
      },
      "withdraw(uint256)": {
        "notice": "withdrawing the tokenAmount from the contract's token balance Requirements: caller must only be owner `tokenAmount` must be less than or equal to `buySellTax` Emits {Tansfer} event deducting `tokenAmount` from the `buySellTax`"
      }
    },
    "version": 1
  }
}