{
  "contractName": "Token",
  "abi": [
    {
      "anonymous": false,
      "inputs": [
        {
          "indexed": true,
          "internalType": "address",
          "name": "owner",
          "type": "address"
        },
        {
          "indexed": true,
          "internalType": "address",
          "name": "spender",
          "type": "address"
        },
        {
          "indexed": false,
          "internalType": "uint256",
          "name": "value",
          "type": "uint256"
        }
      ],
      "name": "Approval",
      "type": "event"
    },
    {
      "anonymous": false,
      "inputs": [
        {
          "indexed": false,
          "internalType": "uint8",
          "name": "version",
          "type": "uint8"
        }
      ],
      "name": "Initialized",
      "type": "event"
    },
    {
      "anonymous": false,
      "inputs": [
        {
          "indexed": true,
          "internalType": "address",
          "name": "from",
          "type": "address"
        },
        {
          "indexed": true,
          "internalType": "address",
          "name": "to",
          "type": "address"
        },
        {
          "indexed": false,
          "internalType": "uint256",
          "name": "value",
          "type": "uint256"
        }
      ],
      "name": "Transfer",
      "type": "event"
    },
    {
      "inputs": [
        {
          "internalType": "address",
          "name": "owner",
          "type": "address"
        },
        {
          "internalType": "address",
          "name": "spender",
          "type": "address"
        }
      ],
      "name": "allowance",
      "outputs": [
        {
          "internalType": "uint256",
          "name": "",
          "type": "uint256"
        }
      ],
      "stateMutability": "view",
      "type": "function",
      "constant": true
    },
    {
      "inputs": [
        {
          "internalType": "address",
          "name": "spender",
          "type": "address"
        },
        {
          "internalType": "uint256",
          "name": "amount",
          "type": "uint256"
        }
      ],
      "name": "approve",
      "outputs": [
        {
          "internalType": "bool",
          "name": "",
          "type": "bool"
        }
      ],
      "stateMutability": "nonpayable",
      "type": "function"
    },
    {
      "inputs": [
        {
          "internalType": "address",
          "name": "account",
          "type": "address"
        }
      ],
      "name": "balanceOf",
      "outputs": [
        {
          "internalType": "uint256",
          "name": "",
          "type": "uint256"
        }
      ],
      "stateMutability": "view",
      "type": "function",
      "constant": true
    },
    {
      "inputs": [
        {
          "internalType": "address",
          "name": "spender",
          "type": "address"
        },
        {
          "internalType": "uint256",
          "name": "subtractedValue",
          "type": "uint256"
        }
      ],
      "name": "decreaseAllowance",
      "outputs": [
        {
          "internalType": "bool",
          "name": "",
          "type": "bool"
        }
      ],
      "stateMutability": "nonpayable",
      "type": "function"
    },
    {
      "inputs": [
        {
          "internalType": "address",
          "name": "spender",
          "type": "address"
        },
        {
          "internalType": "uint256",
          "name": "addedValue",
          "type": "uint256"
        }
      ],
      "name": "increaseAllowance",
      "outputs": [
        {
          "internalType": "bool",
          "name": "",
          "type": "bool"
        }
      ],
      "stateMutability": "nonpayable",
      "type": "function"
    },
    {
      "inputs": [],
      "name": "name",
      "outputs": [
        {
          "internalType": "string",
          "name": "",
          "type": "string"
        }
      ],
      "stateMutability": "view",
      "type": "function",
      "constant": true
    },
    {
      "inputs": [],
      "name": "symbol",
      "outputs": [
        {
          "internalType": "string",
          "name": "",
          "type": "string"
        }
      ],
      "stateMutability": "view",
      "type": "function",
      "constant": true
    },
    {
      "inputs": [],
      "name": "totalSupply",
      "outputs": [
        {
          "internalType": "uint256",
          "name": "",
          "type": "uint256"
        }
      ],
      "stateMutability": "view",
      "type": "function",
      "constant": true
    },
    {
      "inputs": [
        {
          "internalType": "address",
          "name": "to",
          "type": "address"
        },
        {
          "internalType": "uint256",
          "name": "amount",
          "type": "uint256"
        }
      ],
      "name": "transfer",
      "outputs": [
        {
          "internalType": "bool",
          "name": "",
          "type": "bool"
        }
      ],
      "stateMutability": "nonpayable",
      "type": "function"
    },
    {
      "inputs": [
        {
          "internalType": "address",
          "name": "from",
          "type": "address"
        },
        {
          "internalType": "address",
          "name": "to",
          "type": "address"
        },
        {
          "internalType": "uint256",
          "name": "amount",
          "type": "uint256"
        }
      ],
      "name": "transferFrom",
      "outputs": [
        {
          "internalType": "bool",
          "name": "",
          "type": "bool"
        }
      ],
      "stateMutability": "nonpayable",
      "type": "function"
    },
    {
      "inputs": [
        {
          "internalType": "string",
          "name": "name",
          "type": "string"
        },
        {
          "internalType": "string",
          "name": "symbol",
          "type": "string"
        },
        {
          "internalType": "uint256",
          "name": "totalSupply",
          "type": "uint256"
        },
        {
          "internalType": "uint8",
          "name": "_decimals",
          "type": "uint8"
        }
      ],
      "name": "initialize",
      "outputs": [],
      "stateMutability": "nonpayable",
      "type": "function"
    },
    {
      "inputs": [],
      "name": "decimals",
      "outputs": [
        {
          "internalType": "uint8",
          "name": "",
          "type": "uint8"
        }
      ],
      "stateMutability": "view",
      "type": "function",
      "constant": true
    }
  ],
  "bytecode": "0x608060405234801561001057600080fd5b50611c31806100206000396000f3fe608060405234801561001057600080fd5b50600436106100b45760003560e01c806341658f3c1161007157806341658f3c146101a357806370a08231146101bf57806395d89b41146101ef578063a457c2d71461020d578063a9059cbb1461023d578063dd62ed3e1461026d576100b4565b806306fdde03146100b9578063095ea7b3146100d757806318160ddd1461010757806323b872dd14610125578063313ce567146101555780633950935114610173575b600080fd5b6100c161029d565b6040516100ce9190610e9b565b60405180910390f35b6100f160048036038101906100ec9190610f65565b61032f565b6040516100fe9190610fc0565b60405180910390f35b61010f610352565b60405161011c9190610fea565b60405180910390f35b61013f600480360381019061013a9190611005565b61035c565b60405161014c9190610fc0565b60405180910390f35b61015d61038b565b60405161016a9190611074565b60405180910390f35b61018d60048036038101906101889190610f65565b6103a2565b60405161019a9190610fc0565b60405180910390f35b6101bd60048036038101906101b891906111f0565b6103d9565b005b6101d960048036038101906101d4919061128f565b610542565b6040516101e69190610fea565b60405180910390f35b6101f761058b565b6040516102049190610e9b565b60405180910390f35b61022760048036038101906102229190610f65565b61061d565b6040516102349190610fc0565b60405180910390f35b61025760048036038101906102529190610f65565b610694565b6040516102649190610fc0565b60405180910390f35b610287600480360381019061028291906112bc565b6106b7565b6040516102949190610fea565b60405180910390f35b6060603680546102ac9061132b565b80601f01602080910402602001604051908101604052809291908181526020018280546102d89061132b565b80156103255780601f106102fa57610100808354040283529160200191610325565b820191906000526020600020905b81548152906001019060200180831161030857829003601f168201915b5050505050905090565b60008061033a61073e565b9050610347818585610746565b600191505092915050565b6000603554905090565b60008061036761073e565b905061037485828561090f565b61037f85858561099b565b60019150509392505050565b6000606560009054906101000a900460ff16905090565b6000806103ad61073e565b90506103ce8185856103bf85896106b7565b6103c9919061138b565b610746565b600191505092915050565b60008060019054906101000a900460ff1615905080801561040a5750600160008054906101000a900460ff1660ff16105b80610437575061041930610c14565b1580156104365750600160008054906101000a900460ff1660ff16145b5b610476576040517f08c379a000000000000000000000000000000000000000000000000000000000815260040161046d90611431565b60405180910390fd5b60016000806101000a81548160ff021916908360ff16021790555080156104b3576001600060016101000a81548160ff0219169083151502179055505b6104bd8585610c37565b6104c73384610caa565b81606560006101000a81548160ff021916908360ff160217905550801561053b5760008060016101000a81548160ff0219169083151502179055507f7f26b83ff96e1f2b6a682f133852f6798a09c465da95921460cefb384740249860016040516105329190611496565b60405180910390a15b5050505050565b6000603360008373ffffffffffffffffffffffffffffffffffffffff1673ffffffffffffffffffffffffffffffffffffffff168152602001908152602001600020549050919050565b60606037805461059a9061132b565b80601f01602080910402602001604051908101604052809291908181526020018280546105c69061132b565b80156106135780601f106105e857610100808354040283529160200191610613565b820191906000526020600020905b8154815290600101906020018083116105f657829003601f168201915b5050505050905090565b60008061062861073e565b9050600061063682866106b7565b90508381101561067b576040517f08c379a000000000000000000000000000000000000000000000000000000000815260040161067290611523565b60405180910390fd5b6106888286868403610746565b60019250505092915050565b60008061069f61073e565b90506106ac81858561099b565b600191505092915050565b6000603460008473ffffffffffffffffffffffffffffffffffffffff1673ffffffffffffffffffffffffffffffffffffffff16815260200190815260200160002060008373ffffffffffffffffffffffffffffffffffffffff1673ffffffffffffffffffffffffffffffffffffffff16815260200190815260200160002054905092915050565b600033905090565b600073ffffffffffffffffffffffffffffffffffffffff168373ffffffffffffffffffffffffffffffffffffffff16036107b5576040517f08c379a00000000000000000000000000000000000000000000000000000000081526004016107ac906115b5565b60405180910390fd5b600073ffffffffffffffffffffffffffffffffffffffff168273ffffffffffffffffffffffffffffffffffffffff1603610824576040517f08c379a000000000000000000000000000000000000000000000000000000000815260040161081b90611647565b60405180910390fd5b80603460008573ffffffffffffffffffffffffffffffffffffffff1673ffffffffffffffffffffffffffffffffffffffff16815260200190815260200160002060008473ffffffffffffffffffffffffffffffffffffffff1673ffffffffffffffffffffffffffffffffffffffff168152602001908152602001600020819055508173ffffffffffffffffffffffffffffffffffffffff168373ffffffffffffffffffffffffffffffffffffffff167f8c5be1e5ebec7d5bd14f71427d1e84f3dd0314c0f7b2291e5b200ac8c7c3b925836040516109029190610fea565b60405180910390a3505050565b600061091b84846106b7565b90507fffffffffffffffffffffffffffffffffffffffffffffffffffffffffffffffff81146109955781811015610987576040517f08c379a000000000000000000000000000000000000000000000000000000000815260040161097e906116b3565b60405180910390fd5b6109948484848403610746565b5b50505050565b600073ffffffffffffffffffffffffffffffffffffffff168373ffffffffffffffffffffffffffffffffffffffff1603610a0a576040517f08c379a0000000000000000000000000000000000000000000000000000000008152600401610a0190611745565b60405180910390fd5b600073ffffffffffffffffffffffffffffffffffffffff168273ffffffffffffffffffffffffffffffffffffffff1603610a79576040517f08c379a0000000000000000000000000000000000000000000000000000000008152600401610a70906117d7565b60405180910390fd5b610a84838383610e01565b6000603360008573ffffffffffffffffffffffffffffffffffffffff1673ffffffffffffffffffffffffffffffffffffffff16815260200190815260200160002054905081811015610b0b576040517f08c379a0000000000000000000000000000000000000000000000000000000008152600401610b0290611869565b60405180910390fd5b818103603360008673ffffffffffffffffffffffffffffffffffffffff1673ffffffffffffffffffffffffffffffffffffffff1681526020019081526020016000208190555081603360008573ffffffffffffffffffffffffffffffffffffffff1673ffffffffffffffffffffffffffffffffffffffff168152602001908152602001600020600082825401925050819055508273ffffffffffffffffffffffffffffffffffffffff168473ffffffffffffffffffffffffffffffffffffffff167fddf252ad1be2c89b69c2b068fc378daa952ba7f163c4a11628f55a4df523b3ef84604051610bfb9190610fea565b60405180910390a3610c0e848484610e06565b50505050565b6000808273ffffffffffffffffffffffffffffffffffffffff163b119050919050565b600060019054906101000a900460ff16610c86576040517f08c379a0000000000000000000000000000000000000000000000000000000008152600401610c7d906118fb565b60405180910390fd5b8160369081610c959190611abd565b508060379081610ca59190611abd565b505050565b600073ffffffffffffffffffffffffffffffffffffffff168273ffffffffffffffffffffffffffffffffffffffff1603610d19576040517f08c379a0000000000000000000000000000000000000000000000000000000008152600401610d1090611bdb565b60405180910390fd5b610d2560008383610e01565b8060356000828254610d37919061138b565b9250508190555080603360008473ffffffffffffffffffffffffffffffffffffffff1673ffffffffffffffffffffffffffffffffffffffff168152602001908152602001600020600082825401925050819055508173ffffffffffffffffffffffffffffffffffffffff16600073ffffffffffffffffffffffffffffffffffffffff167fddf252ad1be2c89b69c2b068fc378daa952ba7f163c4a11628f55a4df523b3ef83604051610de99190610fea565b60405180910390a3610dfd60008383610e06565b5050565b505050565b505050565b600081519050919050565b600082825260208201905092915050565b60005b83811015610e45578082015181840152602081019050610e2a565b60008484015250505050565b6000601f19601f8301169050919050565b6000610e6d82610e0b565b610e778185610e16565b9350610e87818560208601610e27565b610e9081610e51565b840191505092915050565b60006020820190508181036000830152610eb58184610e62565b905092915050565b6000604051905090565b600080fd5b600080fd5b600073ffffffffffffffffffffffffffffffffffffffff82169050919050565b6000610efc82610ed1565b9050919050565b610f0c81610ef1565b8114610f1757600080fd5b50565b600081359050610f2981610f03565b92915050565b6000819050919050565b610f4281610f2f565b8114610f4d57600080fd5b50565b600081359050610f5f81610f39565b92915050565b60008060408385031215610f7c57610f7b610ec7565b5b6000610f8a85828601610f1a565b9250506020610f9b85828601610f50565b9150509250929050565b60008115159050919050565b610fba81610fa5565b82525050565b6000602082019050610fd56000830184610fb1565b92915050565b610fe481610f2f565b82525050565b6000602082019050610fff6000830184610fdb565b92915050565b60008060006060848603121561101e5761101d610ec7565b5b600061102c86828701610f1a565b935050602061103d86828701610f1a565b925050604061104e86828701610f50565b9150509250925092565b600060ff82169050919050565b61106e81611058565b82525050565b60006020820190506110896000830184611065565b92915050565b600080fd5b600080fd5b7f4e487b7100000000000000000000000000000000000000000000000000000000600052604160045260246000fd5b6110d182610e51565b810181811067ffffffffffffffff821117156110f0576110ef611099565b5b80604052505050565b6000611103610ebd565b905061110f82826110c8565b919050565b600067ffffffffffffffff82111561112f5761112e611099565b5b61113882610e51565b9050602081019050919050565b82818337600083830152505050565b600061116761116284611114565b6110f9565b90508281526020810184848401111561118357611182611094565b5b61118e848285611145565b509392505050565b600082601f8301126111ab576111aa61108f565b5b81356111bb848260208601611154565b91505092915050565b6111cd81611058565b81146111d857600080fd5b50565b6000813590506111ea816111c4565b92915050565b6000806000806080858703121561120a57611209610ec7565b5b600085013567ffffffffffffffff81111561122857611227610ecc565b5b61123487828801611196565b945050602085013567ffffffffffffffff81111561125557611254610ecc565b5b61126187828801611196565b935050604061127287828801610f50565b9250506060611283878288016111db565b91505092959194509250565b6000602082840312156112a5576112a4610ec7565b5b60006112b384828501610f1a565b91505092915050565b600080604083850312156112d3576112d2610ec7565b5b60006112e185828601610f1a565b92505060206112f285828601610f1a565b9150509250929050565b7f4e487b7100000000000000000000000000000000000000000000000000000000600052602260045260246000fd5b6000600282049050600182168061134357607f821691505b602082108103611356576113556112fc565b5b50919050565b7f4e487b7100000000000000000000000000000000000000000000000000000000600052601160045260246000fd5b600061139682610f2f565b91506113a183610f2f565b92508282019050808211156113b9576113b861135c565b5b92915050565b7f496e697469616c697a61626c653a20636f6e747261637420697320616c72656160008201527f647920696e697469616c697a6564000000000000000000000000000000000000602082015250565b600061141b602e83610e16565b9150611426826113bf565b604082019050919050565b6000602082019050818103600083015261144a8161140e565b9050919050565b6000819050919050565b6000819050919050565b600061148061147b61147684611451565b61145b565b611058565b9050919050565b61149081611465565b82525050565b60006020820190506114ab6000830184611487565b92915050565b7f45524332303a2064656372656173656420616c6c6f77616e63652062656c6f7760008201527f207a65726f000000000000000000000000000000000000000000000000000000602082015250565b600061150d602583610e16565b9150611518826114b1565b604082019050919050565b6000602082019050818103600083015261153c81611500565b9050919050565b7f45524332303a20617070726f76652066726f6d20746865207a65726f2061646460008201527f7265737300000000000000000000000000000000000000000000000000000000602082015250565b600061159f602483610e16565b91506115aa82611543565b604082019050919050565b600060208201905081810360008301526115ce81611592565b9050919050565b7f45524332303a20617070726f766520746f20746865207a65726f20616464726560008201527f7373000000000000000000000000000000000000000000000000000000000000602082015250565b6000611631602283610e16565b915061163c826115d5565b604082019050919050565b6000602082019050818103600083015261166081611624565b9050919050565b7f45524332303a20696e73756666696369656e7420616c6c6f77616e6365000000600082015250565b600061169d601d83610e16565b91506116a882611667565b602082019050919050565b600060208201905081810360008301526116cc81611690565b9050919050565b7f45524332303a207472616e736665722066726f6d20746865207a65726f20616460008201527f6472657373000000000000000000000000000000000000000000000000000000602082015250565b600061172f602583610e16565b915061173a826116d3565b604082019050919050565b6000602082019050818103600083015261175e81611722565b9050919050565b7f45524332303a207472616e7366657220746f20746865207a65726f206164647260008201527f6573730000000000000000000000000000000000000000000000000000000000602082015250565b60006117c1602383610e16565b91506117cc82611765565b604082019050919050565b600060208201905081810360008301526117f0816117b4565b9050919050565b7f45524332303a207472616e7366657220616d6f756e742065786365656473206260008201527f616c616e63650000000000000000000000000000000000000000000000000000602082015250565b6000611853602683610e16565b915061185e826117f7565b604082019050919050565b6000602082019050818103600083015261188281611846565b9050919050565b7f496e697469616c697a61626c653a20636f6e7472616374206973206e6f74206960008201527f6e697469616c697a696e67000000000000000000000000000000000000000000602082015250565b60006118e5602b83610e16565b91506118f082611889565b604082019050919050565b60006020820190508181036000830152611914816118d8565b9050919050565b60008190508160005260206000209050919050565b60006020601f8301049050919050565b600082821b905092915050565b60006008830261197d7fffffffffffffffffffffffffffffffffffffffffffffffffffffffffffffffff82611940565b6119878683611940565b95508019841693508086168417925050509392505050565b60006119ba6119b56119b084610f2f565b61145b565b610f2f565b9050919050565b6000819050919050565b6119d48361199f565b6119e86119e0826119c1565b84845461194d565b825550505050565b600090565b6119fd6119f0565b611a088184846119cb565b505050565b5b81811015611a2c57611a216000826119f5565b600181019050611a0e565b5050565b601f821115611a7157611a428161191b565b611a4b84611930565b81016020851015611a5a578190505b611a6e611a6685611930565b830182611a0d565b50505b505050565b600082821c905092915050565b6000611a9460001984600802611a76565b1980831691505092915050565b6000611aad8383611a83565b9150826002028217905092915050565b611ac682610e0b565b67ffffffffffffffff811115611adf57611ade611099565b5b611ae9825461132b565b611af4828285611a30565b600060209050601f831160018114611b275760008415611b15578287015190505b611b1f8582611aa1565b865550611b87565b601f198416611b358661191b565b60005b82811015611b5d57848901518255600182019150602085019450602081019050611b38565b86831015611b7a5784890151611b76601f891682611a83565b8355505b6001600288020188555050505b505050505050565b7f45524332303a206d696e7420746f20746865207a65726f206164647265737300600082015250565b6000611bc5601f83610e16565b9150611bd082611b8f565b602082019050919050565b60006020820190508181036000830152611bf481611bb8565b905091905056fea2646970667358221220f82a0970b3c65aa1a28feadfcb17c4260ee25561affadd952cad679e49c0f11964736f6c63430008110033",
  "immutableReferences": {},
  "source": "// SPDX-License-Identifier: MIT\r\n\r\npragma solidity 0.8.17;\r\n\r\nimport \"@openzeppelin/contracts-upgradeable/token/ERC20/ERC20Upgradeable.sol\";\r\nimport \"@openzeppelin/contracts-upgradeable/proxy/utils/Initializable.sol\";\r\n\r\n\r\ncontract Token is Initializable, ERC20Upgradeable{\r\n\r\n    uint8 decimals_;\r\n\r\n     function initialize(string memory name, string memory symbol, uint256 totalSupply, uint8 _decimals) public initializer {\r\n        __ERC20_init_unchained(name, symbol);\r\n        _mint(msg.sender, totalSupply);\r\n        decimals_ = _decimals;\r\n    }\r\n\r\n     function decimals() public view override returns (uint8) {\r\n        return decimals_;\r\n    }\r\n}",
  "sourcePath": "D:\\solidity\\factory1\\contracts\\Token.sol",
  "compiler": {
    "name": "solc",
    "version": "0.8.17+commit.8df45f5f.Emscripten.clang"
  },
  "schemaVersion": "3.4.11",
  "updatedAt": "2022-12-13T05:36:20.611Z",
  "networkType": "ethereum",
  "devdoc": {
    "kind": "dev",
    "methods": {
      "allowance(address,address)": {
        "details": "See {IERC20-allowance}."
      },
      "approve(address,uint256)": {
        "details": "See {IERC20-approve}. NOTE: If `amount` is the maximum `uint256`, the allowance is not updated on `transferFrom`. This is semantically equivalent to an infinite approval. Requirements: - `spender` cannot be the zero address."
      },
      "balanceOf(address)": {
        "details": "See {IERC20-balanceOf}."
      },
      "decimals()": {
        "details": "Returns the number of decimals used to get its user representation. For example, if `decimals` equals `2`, a balance of `505` tokens should be displayed to a user as `5.05` (`505 / 10 ** 2`). Tokens usually opt for a value of 18, imitating the relationship between Ether and Wei. This is the value {ERC20} uses, unless this function is overridden; NOTE: This information is only used for _display_ purposes: it in no way affects any of the arithmetic of the contract, including {IERC20-balanceOf} and {IERC20-transfer}."
      },
      "decreaseAllowance(address,uint256)": {
        "details": "Atomically decreases the allowance granted to `spender` by the caller. This is an alternative to {approve} that can be used as a mitigation for problems described in {IERC20-approve}. Emits an {Approval} event indicating the updated allowance. Requirements: - `spender` cannot be the zero address. - `spender` must have allowance for the caller of at least `subtractedValue`."
      },
      "increaseAllowance(address,uint256)": {
        "details": "Atomically increases the allowance granted to `spender` by the caller. This is an alternative to {approve} that can be used as a mitigation for problems described in {IERC20-approve}. Emits an {Approval} event indicating the updated allowance. Requirements: - `spender` cannot be the zero address."
      },
      "name()": {
        "details": "Returns the name of the token."
      },
      "symbol()": {
        "details": "Returns the symbol of the token, usually a shorter version of the name."
      },
      "totalSupply()": {
        "details": "See {IERC20-totalSupply}."
      },
      "transfer(address,uint256)": {
        "details": "See {IERC20-transfer}. Requirements: - `to` cannot be the zero address. - the caller must have a balance of at least `amount`."
      },
      "transferFrom(address,address,uint256)": {
        "details": "See {IERC20-transferFrom}. Emits an {Approval} event indicating the updated allowance. This is not required by the EIP. See the note at the beginning of {ERC20}. NOTE: Does not update the allowance if the current allowance is the maximum `uint256`. Requirements: - `from` and `to` cannot be the zero address. - `from` must have a balance of at least `amount`. - the caller must have allowance for ``from``'s tokens of at least `amount`."
      }
    },
    "version": 1
  },
  "userdoc": {
    "kind": "user",
    "methods": {},
    "version": 1
  }
}