{
  "contractName": "Token",
  "abi": [
    {
      "inputs": [
        {
          "internalType": "string",
          "name": "name",
          "type": "string"
        },
        {
          "internalType": "string",
          "name": "symbol",
          "type": "string"
        },
        {
          "internalType": "uint256",
          "name": "totalSupply",
          "type": "uint256"
        },
        {
          "internalType": "uint8",
          "name": "_decimals",
          "type": "uint8"
        }
      ],
      "stateMutability": "nonpayable",
      "type": "constructor"
    },
    {
      "anonymous": false,
      "inputs": [
        {
          "indexed": true,
          "internalType": "address",
          "name": "owner",
          "type": "address"
        },
        {
          "indexed": true,
          "internalType": "address",
          "name": "spender",
          "type": "address"
        },
        {
          "indexed": false,
          "internalType": "uint256",
          "name": "value",
          "type": "uint256"
        }
      ],
      "name": "Approval",
      "type": "event"
    },
    {
      "anonymous": false,
      "inputs": [
        {
          "indexed": true,
          "internalType": "address",
          "name": "previousOwner",
          "type": "address"
        },
        {
          "indexed": true,
          "internalType": "address",
          "name": "newOwner",
          "type": "address"
        }
      ],
      "name": "OwnershipTransferred",
      "type": "event"
    },
    {
      "anonymous": false,
      "inputs": [
        {
          "indexed": false,
          "internalType": "address",
          "name": "account",
          "type": "address"
        }
      ],
      "name": "Paused",
      "type": "event"
    },
    {
      "anonymous": false,
      "inputs": [
        {
          "indexed": true,
          "internalType": "bytes32",
          "name": "role",
          "type": "bytes32"
        },
        {
          "indexed": true,
          "internalType": "bytes32",
          "name": "previousAdminRole",
          "type": "bytes32"
        },
        {
          "indexed": true,
          "internalType": "bytes32",
          "name": "newAdminRole",
          "type": "bytes32"
        }
      ],
      "name": "RoleAdminChanged",
      "type": "event"
    },
    {
      "anonymous": false,
      "inputs": [
        {
          "indexed": true,
          "internalType": "bytes32",
          "name": "role",
          "type": "bytes32"
        },
        {
          "indexed": true,
          "internalType": "address",
          "name": "account",
          "type": "address"
        },
        {
          "indexed": true,
          "internalType": "address",
          "name": "sender",
          "type": "address"
        }
      ],
      "name": "RoleGranted",
      "type": "event"
    },
    {
      "anonymous": false,
      "inputs": [
        {
          "indexed": true,
          "internalType": "bytes32",
          "name": "role",
          "type": "bytes32"
        },
        {
          "indexed": true,
          "internalType": "address",
          "name": "account",
          "type": "address"
        },
        {
          "indexed": true,
          "internalType": "address",
          "name": "sender",
          "type": "address"
        }
      ],
      "name": "RoleRevoked",
      "type": "event"
    },
    {
      "anonymous": false,
      "inputs": [
        {
          "indexed": true,
          "internalType": "address",
          "name": "from",
          "type": "address"
        },
        {
          "indexed": true,
          "internalType": "address",
          "name": "to",
          "type": "address"
        },
        {
          "indexed": false,
          "internalType": "uint256",
          "name": "value",
          "type": "uint256"
        }
      ],
      "name": "Transfer",
      "type": "event"
    },
    {
      "anonymous": false,
      "inputs": [
        {
          "indexed": false,
          "internalType": "address",
          "name": "account",
          "type": "address"
        }
      ],
      "name": "Unpaused",
      "type": "event"
    },
    {
      "inputs": [],
      "name": "DEFAULT_ADMIN_ROLE",
      "outputs": [
        {
          "internalType": "bytes32",
          "name": "",
          "type": "bytes32"
        }
      ],
      "stateMutability": "view",
      "type": "function"
    },
    {
      "inputs": [
        {
          "internalType": "address",
          "name": "owner",
          "type": "address"
        },
        {
          "internalType": "address",
          "name": "spender",
          "type": "address"
        }
      ],
      "name": "allowance",
      "outputs": [
        {
          "internalType": "uint256",
          "name": "",
          "type": "uint256"
        }
      ],
      "stateMutability": "view",
      "type": "function"
    },
    {
      "inputs": [
        {
          "internalType": "address",
          "name": "spender",
          "type": "address"
        },
        {
          "internalType": "uint256",
          "name": "amount",
          "type": "uint256"
        }
      ],
      "name": "approve",
      "outputs": [
        {
          "internalType": "bool",
          "name": "",
          "type": "bool"
        }
      ],
      "stateMutability": "nonpayable",
      "type": "function"
    },
    {
      "inputs": [
        {
          "internalType": "address",
          "name": "account",
          "type": "address"
        }
      ],
      "name": "balanceOf",
      "outputs": [
        {
          "internalType": "uint256",
          "name": "",
          "type": "uint256"
        }
      ],
      "stateMutability": "view",
      "type": "function"
    },
    {
      "inputs": [
        {
          "internalType": "address",
          "name": "spender",
          "type": "address"
        },
        {
          "internalType": "uint256",
          "name": "subtractedValue",
          "type": "uint256"
        }
      ],
      "name": "decreaseAllowance",
      "outputs": [
        {
          "internalType": "bool",
          "name": "",
          "type": "bool"
        }
      ],
      "stateMutability": "nonpayable",
      "type": "function"
    },
    {
      "inputs": [
        {
          "internalType": "bytes32",
          "name": "role",
          "type": "bytes32"
        }
      ],
      "name": "getRoleAdmin",
      "outputs": [
        {
          "internalType": "bytes32",
          "name": "",
          "type": "bytes32"
        }
      ],
      "stateMutability": "view",
      "type": "function"
    },
    {
      "inputs": [
        {
          "internalType": "bytes32",
          "name": "role",
          "type": "bytes32"
        },
        {
          "internalType": "address",
          "name": "account",
          "type": "address"
        }
      ],
      "name": "grantRole",
      "outputs": [],
      "stateMutability": "nonpayable",
      "type": "function"
    },
    {
      "inputs": [
        {
          "internalType": "bytes32",
          "name": "role",
          "type": "bytes32"
        },
        {
          "internalType": "address",
          "name": "account",
          "type": "address"
        }
      ],
      "name": "hasRole",
      "outputs": [
        {
          "internalType": "bool",
          "name": "",
          "type": "bool"
        }
      ],
      "stateMutability": "view",
      "type": "function"
    },
    {
      "inputs": [
        {
          "internalType": "address",
          "name": "spender",
          "type": "address"
        },
        {
          "internalType": "uint256",
          "name": "addedValue",
          "type": "uint256"
        }
      ],
      "name": "increaseAllowance",
      "outputs": [
        {
          "internalType": "bool",
          "name": "",
          "type": "bool"
        }
      ],
      "stateMutability": "nonpayable",
      "type": "function"
    },
    {
      "inputs": [],
      "name": "name",
      "outputs": [
        {
          "internalType": "string",
          "name": "",
          "type": "string"
        }
      ],
      "stateMutability": "view",
      "type": "function"
    },
    {
      "inputs": [],
      "name": "owner",
      "outputs": [
        {
          "internalType": "address",
          "name": "",
          "type": "address"
        }
      ],
      "stateMutability": "view",
      "type": "function"
    },
    {
      "inputs": [],
      "name": "paused",
      "outputs": [
        {
          "internalType": "bool",
          "name": "",
          "type": "bool"
        }
      ],
      "stateMutability": "view",
      "type": "function"
    },
    {
      "inputs": [],
      "name": "renounceOwnership",
      "outputs": [],
      "stateMutability": "nonpayable",
      "type": "function"
    },
    {
      "inputs": [
        {
          "internalType": "bytes32",
          "name": "role",
          "type": "bytes32"
        },
        {
          "internalType": "address",
          "name": "account",
          "type": "address"
        }
      ],
      "name": "renounceRole",
      "outputs": [],
      "stateMutability": "nonpayable",
      "type": "function"
    },
    {
      "inputs": [
        {
          "internalType": "bytes32",
          "name": "role",
          "type": "bytes32"
        },
        {
          "internalType": "address",
          "name": "account",
          "type": "address"
        }
      ],
      "name": "revokeRole",
      "outputs": [],
      "stateMutability": "nonpayable",
      "type": "function"
    },
    {
      "inputs": [
        {
          "internalType": "bytes4",
          "name": "interfaceId",
          "type": "bytes4"
        }
      ],
      "name": "supportsInterface",
      "outputs": [
        {
          "internalType": "bool",
          "name": "",
          "type": "bool"
        }
      ],
      "stateMutability": "view",
      "type": "function"
    },
    {
      "inputs": [],
      "name": "symbol",
      "outputs": [
        {
          "internalType": "string",
          "name": "",
          "type": "string"
        }
      ],
      "stateMutability": "view",
      "type": "function"
    },
    {
      "inputs": [],
      "name": "totalSupply",
      "outputs": [
        {
          "internalType": "uint256",
          "name": "",
          "type": "uint256"
        }
      ],
      "stateMutability": "view",
      "type": "function"
    },
    {
      "inputs": [
        {
          "internalType": "address",
          "name": "to",
          "type": "address"
        },
        {
          "internalType": "uint256",
          "name": "amount",
          "type": "uint256"
        }
      ],
      "name": "transfer",
      "outputs": [
        {
          "internalType": "bool",
          "name": "",
          "type": "bool"
        }
      ],
      "stateMutability": "nonpayable",
      "type": "function"
    },
    {
      "inputs": [
        {
          "internalType": "address",
          "name": "from",
          "type": "address"
        },
        {
          "internalType": "address",
          "name": "to",
          "type": "address"
        },
        {
          "internalType": "uint256",
          "name": "amount",
          "type": "uint256"
        }
      ],
      "name": "transferFrom",
      "outputs": [
        {
          "internalType": "bool",
          "name": "",
          "type": "bool"
        }
      ],
      "stateMutability": "nonpayable",
      "type": "function"
    },
    {
      "inputs": [
        {
          "internalType": "address",
          "name": "newOwner",
          "type": "address"
        }
      ],
      "name": "transferOwnership",
      "outputs": [],
      "stateMutability": "nonpayable",
      "type": "function"
    },
    {
      "inputs": [],
      "name": "decimals",
      "outputs": [
        {
          "internalType": "uint8",
          "name": "",
          "type": "uint8"
        }
      ],
      "stateMutability": "view",
      "type": "function"
    },
    {
      "inputs": [],
      "name": "pauseContract",
      "outputs": [],
      "stateMutability": "nonpayable",
      "type": "function"
    },
    {
      "inputs": [],
      "name": "unPauseContract",
      "outputs": [],
      "stateMutability": "nonpayable",
      "type": "function"
    },
    {
      "inputs": [
        {
          "internalType": "uint256",
          "name": "amount",
          "type": "uint256"
        }
      ],
      "name": "mint",
      "outputs": [],
      "stateMutability": "nonpayable",
      "type": "function"
    }
  ],
  "bytecode": "0x60806040523480156200001157600080fd5b506040516200399838038062003998833981810160405281019062000037919062000a6d565b838381600390816200004a919062000d5e565b5080600490816200005c919062000d5e565b5050506200007f620000736200010660201b60201c565b6200010e60201b60201c565b6000600660146101000a81548160ff021916908315150217905550620000ac3383620001d460201b60201c565b80600660156101000a81548160ff021916908360ff160217905550620000fc7fa729ef4e25027bc652fc8b5c4d1d902947361fa7c8e7b4905e877823f27331b360001b336200034160201b60201c565b5050505062001203565b600033905090565b6000600660009054906101000a900473ffffffffffffffffffffffffffffffffffffffff16905081600660006101000a81548173ffffffffffffffffffffffffffffffffffffffff021916908373ffffffffffffffffffffffffffffffffffffffff1602179055508173ffffffffffffffffffffffffffffffffffffffff168173ffffffffffffffffffffffffffffffffffffffff167f8be0079c531659141344cd1fd0a4f28419497f9722a3daafe3b4186f6b6457e060405160405180910390a35050565b600073ffffffffffffffffffffffffffffffffffffffff168273ffffffffffffffffffffffffffffffffffffffff160362000246576040517f08c379a00000000000000000000000000000000000000000000000000000000081526004016200023d9062000ea6565b60405180910390fd5b6200025a600083836200037a60201b60201c565b80600260008282546200026e919062000ef7565b92505081905550806000808473ffffffffffffffffffffffffffffffffffffffff1673ffffffffffffffffffffffffffffffffffffffff168152602001908152602001600020600082825401925050819055508173ffffffffffffffffffffffffffffffffffffffff16600073ffffffffffffffffffffffffffffffffffffffff167fddf252ad1be2c89b69c2b068fc378daa952ba7f163c4a11628f55a4df523b3ef8360405162000321919062000f43565b60405180910390a36200033d600083836200037f60201b60201c565b5050565b62000352826200038460201b60201c565b6200036381620003a460201b60201c565b620003758383620003c860201b60201c565b505050565b505050565b505050565b600060056000838152602001908152602001600020600101549050919050565b620003c581620003b96200010660201b60201c565b620004ba60201b60201c565b50565b620003da82826200056660201b60201c565b620004b65760016005600084815260200190815260200160002060000160008373ffffffffffffffffffffffffffffffffffffffff1673ffffffffffffffffffffffffffffffffffffffff16815260200190815260200160002060006101000a81548160ff0219169083151502179055506200045b6200010660201b60201c565b73ffffffffffffffffffffffffffffffffffffffff168173ffffffffffffffffffffffffffffffffffffffff16837f2f8788117e7eff1d82e926ec794901d17c78024a50270940304540a733656f0d60405160405180910390a45b5050565b620004cc82826200056660201b60201c565b6200056257620004e781620005d160201b62000b131760201c565b620005028360001c60206200060660201b62000b401760201c565b6040516020016200051592919062001042565b6040516020818303038152906040526040517f08c379a0000000000000000000000000000000000000000000000000000000008152600401620005599190620010c5565b60405180910390fd5b5050565b60006005600084815260200190815260200160002060000160008373ffffffffffffffffffffffffffffffffffffffff1673ffffffffffffffffffffffffffffffffffffffff16815260200190815260200160002060009054906101000a900460ff16905092915050565b6060620005ff8273ffffffffffffffffffffffffffffffffffffffff16601460ff166200060660201b60201c565b9050919050565b6060600060028360026200061b9190620010e9565b62000627919062000ef7565b67ffffffffffffffff81111562000643576200064262000890565b5b6040519080825280601f01601f191660200182016040528015620006765781602001600182028036833780820191505090505b5090507f300000000000000000000000000000000000000000000000000000000000000081600081518110620006b157620006b062001134565b5b60200101907effffffffffffffffffffffffffffffffffffffffffffffffffffffffffffff1916908160001a9053507f78000000000000000000000000000000000000000000000000000000000000008160018151811062000718576200071762001134565b5b60200101907effffffffffffffffffffffffffffffffffffffffffffffffffffffffffffff1916908160001a905350600060018460026200075a9190620010e9565b62000766919062000ef7565b90505b600181111562000810577f3031323334353637383961626364656600000000000000000000000000000000600f861660108110620007ac57620007ab62001134565b5b1a60f81b828281518110620007c657620007c562001134565b5b60200101907effffffffffffffffffffffffffffffffffffffffffffffffffffffffffffff1916908160001a905350600485901c945080620008089062001163565b905062000769565b506000841462000857576040517f08c379a00000000000000000000000000000000000000000000000000000000081526004016200084e90620011e1565b60405180910390fd5b8091505092915050565b6000604051905090565b600080fd5b600080fd5b600080fd5b600080fd5b6000601f19601f8301169050919050565b7f4e487b7100000000000000000000000000000000000000000000000000000000600052604160045260246000fd5b620008ca826200087f565b810181811067ffffffffffffffff82111715620008ec57620008eb62000890565b5b80604052505050565b60006200090162000861565b90506200090f8282620008bf565b919050565b600067ffffffffffffffff82111562000932576200093162000890565b5b6200093d826200087f565b9050602081019050919050565b60005b838110156200096a5780820151818401526020810190506200094d565b60008484015250505050565b60006200098d620009878462000914565b620008f5565b905082815260208101848484011115620009ac57620009ab6200087a565b5b620009b98482856200094a565b509392505050565b600082601f830112620009d957620009d862000875565b5b8151620009eb84826020860162000976565b91505092915050565b6000819050919050565b62000a0981620009f4565b811462000a1557600080fd5b50565b60008151905062000a2981620009fe565b92915050565b600060ff82169050919050565b62000a478162000a2f565b811462000a5357600080fd5b50565b60008151905062000a678162000a3c565b92915050565b6000806000806080858703121562000a8a5762000a896200086b565b5b600085015167ffffffffffffffff81111562000aab5762000aaa62000870565b5b62000ab987828801620009c1565b945050602085015167ffffffffffffffff81111562000add5762000adc62000870565b5b62000aeb87828801620009c1565b935050604062000afe8782880162000a18565b925050606062000b118782880162000a56565b91505092959194509250565b600081519050919050565b7f4e487b7100000000000000000000000000000000000000000000000000000000600052602260045260246000fd5b6000600282049050600182168062000b7057607f821691505b60208210810362000b865762000b8562000b28565b5b50919050565b60008190508160005260206000209050919050565b60006020601f8301049050919050565b600082821b905092915050565b60006008830262000bf07fffffffffffffffffffffffffffffffffffffffffffffffffffffffffffffffff8262000bb1565b62000bfc868362000bb1565b95508019841693508086168417925050509392505050565b6000819050919050565b600062000c3f62000c3962000c3384620009f4565b62000c14565b620009f4565b9050919050565b6000819050919050565b62000c5b8362000c1e565b62000c7362000c6a8262000c46565b84845462000bbe565b825550505050565b600090565b62000c8a62000c7b565b62000c9781848462000c50565b505050565b5b8181101562000cbf5762000cb360008262000c80565b60018101905062000c9d565b5050565b601f82111562000d0e5762000cd88162000b8c565b62000ce38462000ba1565b8101602085101562000cf3578190505b62000d0b62000d028562000ba1565b83018262000c9c565b50505b505050565b600082821c905092915050565b600062000d336000198460080262000d13565b1980831691505092915050565b600062000d4e838362000d20565b9150826002028217905092915050565b62000d698262000b1d565b67ffffffffffffffff81111562000d855762000d8462000890565b5b62000d91825462000b57565b62000d9e82828562000cc3565b600060209050601f83116001811462000dd6576000841562000dc1578287015190505b62000dcd858262000d40565b86555062000e3d565b601f19841662000de68662000b8c565b60005b8281101562000e105784890151825560018201915060208501945060208101905062000de9565b8683101562000e30578489015162000e2c601f89168262000d20565b8355505b6001600288020188555050505b505050505050565b600082825260208201905092915050565b7f45524332303a206d696e7420746f20746865207a65726f206164647265737300600082015250565b600062000e8e601f8362000e45565b915062000e9b8262000e56565b602082019050919050565b6000602082019050818103600083015262000ec18162000e7f565b9050919050565b7f4e487b7100000000000000000000000000000000000000000000000000000000600052601160045260246000fd5b600062000f0482620009f4565b915062000f1183620009f4565b925082820190508082111562000f2c5762000f2b62000ec8565b5b92915050565b62000f3d81620009f4565b82525050565b600060208201905062000f5a600083018462000f32565b92915050565b600081905092915050565b7f416363657373436f6e74726f6c3a206163636f756e7420000000000000000000600082015250565b600062000fa360178362000f60565b915062000fb08262000f6b565b601782019050919050565b600062000fc88262000b1d565b62000fd4818562000f60565b935062000fe68185602086016200094a565b80840191505092915050565b7f206973206d697373696e6720726f6c6520000000000000000000000000000000600082015250565b60006200102a60118362000f60565b9150620010378262000ff2565b601182019050919050565b60006200104f8262000f94565b91506200105d828562000fbb565b91506200106a826200101b565b915062001078828462000fbb565b91508190509392505050565b6000620010918262000b1d565b6200109d818562000e45565b9350620010af8185602086016200094a565b620010ba816200087f565b840191505092915050565b60006020820190508181036000830152620010e1818462001084565b905092915050565b6000620010f682620009f4565b91506200110383620009f4565b92508282026200111381620009f4565b915082820484148315176200112d576200112c62000ec8565b5b5092915050565b7f4e487b7100000000000000000000000000000000000000000000000000000000600052603260045260246000fd5b60006200117082620009f4565b91506000820362001186576200118562000ec8565b5b600182039050919050565b7f537472696e67733a20686578206c656e67746820696e73756666696369656e74600082015250565b6000620011c960208362000e45565b9150620011d68262001191565b602082019050919050565b60006020820190508181036000830152620011fc81620011ba565b9050919050565b61278580620012136000396000f3fe608060405234801561001057600080fd5b50600436106101735760003560e01c806370a08231116100de578063a217fddf11610097578063bac1520311610071578063bac1520314610462578063d547741f1461046c578063dd62ed3e14610488578063f2fde38b146104b857610173565b8063a217fddf146103e4578063a457c2d714610402578063a9059cbb1461043257610173565b806370a0823114610322578063715018a6146103525780638da5cb5b1461035c57806391d148541461037a57806395d89b41146103aa578063a0712d68146103c857610173565b80632f2ff15d116101305780632f2ff15d14610274578063313ce5671461029057806336568abe146102ae57806339509351146102ca578063439766ce146102fa5780635c975abb1461030457610173565b806301ffc9a71461017857806306fdde03146101a8578063095ea7b3146101c657806318160ddd146101f657806323b872dd14610214578063248a9ca314610244575b600080fd5b610192600480360381019061018d919061196f565b6104d4565b60405161019f91906119b7565b60405180910390f35b6101b061054e565b6040516101bd9190611a62565b60405180910390f35b6101e060048036038101906101db9190611b18565b6105e0565b6040516101ed91906119b7565b60405180910390f35b6101fe610603565b60405161020b9190611b67565b60405180910390f35b61022e60048036038101906102299190611b82565b61060d565b60405161023b91906119b7565b60405180910390f35b61025e60048036038101906102599190611c0b565b61063c565b60405161026b9190611c47565b60405180910390f35b61028e60048036038101906102899190611c62565b61065c565b005b61029861067d565b6040516102a59190611cbe565b60405180910390f35b6102c860048036038101906102c39190611c62565b610694565b005b6102e460048036038101906102df9190611b18565b610717565b6040516102f191906119b7565b60405180910390f35b61030261074e565b005b61030c610760565b60405161031991906119b7565b60405180910390f35b61033c60048036038101906103379190611cd9565b610777565b6040516103499190611b67565b60405180910390f35b61035a6107bf565b005b6103646107d3565b6040516103719190611d15565b60405180910390f35b610394600480360381019061038f9190611c62565b6107fd565b6040516103a191906119b7565b60405180910390f35b6103b2610868565b6040516103bf9190611a62565b60405180910390f35b6103e260048036038101906103dd9190611d30565b6108fa565b005b6103ec610935565b6040516103f99190611c47565b60405180910390f35b61041c60048036038101906104179190611b18565b61093c565b60405161042991906119b7565b60405180910390f35b61044c60048036038101906104479190611b18565b6109b3565b60405161045991906119b7565b60405180910390f35b61046a6109d6565b005b61048660048036038101906104819190611c62565b6109e8565b005b6104a2600480360381019061049d9190611d5d565b610a09565b6040516104af9190611b67565b60405180910390f35b6104d260048036038101906104cd9190611cd9565b610a90565b005b60007f7965db0b000000000000000000000000000000000000000000000000000000007bffffffffffffffffffffffffffffffffffffffffffffffffffffffff1916827bffffffffffffffffffffffffffffffffffffffffffffffffffffffff19161480610547575061054682610d7c565b5b9050919050565b60606003805461055d90611dcc565b80601f016020809104026020016040519081016040528092919081815260200182805461058990611dcc565b80156105d65780601f106105ab576101008083540402835291602001916105d6565b820191906000526020600020905b8154815290600101906020018083116105b957829003601f168201915b5050505050905090565b6000806105eb610de6565b90506105f8818585610dee565b600191505092915050565b6000600254905090565b600080610618610de6565b9050610625858285610fb7565b610630858585611043565b60019150509392505050565b600060056000838152602001908152602001600020600101549050919050565b6106658261063c565b61066e816112b9565b61067883836112cd565b505050565b6000600660159054906101000a900460ff16905090565b61069c610de6565b73ffffffffffffffffffffffffffffffffffffffff168173ffffffffffffffffffffffffffffffffffffffff1614610709576040517f08c379a000000000000000000000000000000000000000000000000000000000815260040161070090611e6f565b60405180910390fd5b61071382826113ae565b5050565b600080610722610de6565b90506107438185856107348589610a09565b61073e9190611ebe565b610dee565b600191505092915050565b610756611490565b61075e61150e565b565b6000600660149054906101000a900460ff16905090565b60008060008373ffffffffffffffffffffffffffffffffffffffff1673ffffffffffffffffffffffffffffffffffffffff168152602001908152602001600020549050919050565b6107c7611490565b6107d16000611571565b565b6000600660009054906101000a900473ffffffffffffffffffffffffffffffffffffffff16905090565b60006005600084815260200190815260200160002060000160008373ffffffffffffffffffffffffffffffffffffffff1673ffffffffffffffffffffffffffffffffffffffff16815260200190815260200160002060009054906101000a900460ff16905092915050565b60606004805461087790611dcc565b80601f01602080910402602001604051908101604052809291908181526020018280546108a390611dcc565b80156108f05780601f106108c5576101008083540402835291602001916108f0565b820191906000526020600020905b8154815290600101906020018083116108d357829003601f168201915b5050505050905090565b7fa729ef4e25027bc652fc8b5c4d1d902947361fa7c8e7b4905e877823f27331b360001b610927816112b9565b6109313383611637565b5050565b6000801b81565b600080610947610de6565b905060006109558286610a09565b90508381101561099a576040517f08c379a000000000000000000000000000000000000000000000000000000000815260040161099190611f64565b60405180910390fd5b6109a78286868403610dee565b60019250505092915050565b6000806109be610de6565b90506109cb818585611043565b600191505092915050565b6109de611490565b6109e661178d565b565b6109f18261063c565b6109fa816112b9565b610a0483836113ae565b505050565b6000600160008473ffffffffffffffffffffffffffffffffffffffff1673ffffffffffffffffffffffffffffffffffffffff16815260200190815260200160002060008373ffffffffffffffffffffffffffffffffffffffff1673ffffffffffffffffffffffffffffffffffffffff16815260200190815260200160002054905092915050565b610a98611490565b600073ffffffffffffffffffffffffffffffffffffffff168173ffffffffffffffffffffffffffffffffffffffff1603610b07576040517f08c379a0000000000000000000000000000000000000000000000000000000008152600401610afe90611ff6565b60405180910390fd5b610b1081611571565b50565b6060610b398273ffffffffffffffffffffffffffffffffffffffff16601460ff16610b40565b9050919050565b606060006002836002610b539190612016565b610b5d9190611ebe565b67ffffffffffffffff811115610b7657610b75612058565b5b6040519080825280601f01601f191660200182016040528015610ba85781602001600182028036833780820191505090505b5090507f300000000000000000000000000000000000000000000000000000000000000081600081518110610be057610bdf612087565b5b60200101907effffffffffffffffffffffffffffffffffffffffffffffffffffffffffffff1916908160001a9053507f780000000000000000000000000000000000000000000000000000000000000081600181518110610c4457610c43612087565b5b60200101907effffffffffffffffffffffffffffffffffffffffffffffffffffffffffffff1916908160001a90535060006001846002610c849190612016565b610c8e9190611ebe565b90505b6001811115610d2e577f3031323334353637383961626364656600000000000000000000000000000000600f861660108110610cd057610ccf612087565b5b1a60f81b828281518110610ce757610ce6612087565b5b60200101907effffffffffffffffffffffffffffffffffffffffffffffffffffffffffffff1916908160001a905350600485901c945080610d27906120b6565b9050610c91565b5060008414610d72576040517f08c379a0000000000000000000000000000000000000000000000000000000008152600401610d699061212b565b60405180910390fd5b8091505092915050565b60007f01ffc9a7000000000000000000000000000000000000000000000000000000007bffffffffffffffffffffffffffffffffffffffffffffffffffffffff1916827bffffffffffffffffffffffffffffffffffffffffffffffffffffffff1916149050919050565b600033905090565b600073ffffffffffffffffffffffffffffffffffffffff168373ffffffffffffffffffffffffffffffffffffffff1603610e5d576040517f08c379a0000000000000000000000000000000000000000000000000000000008152600401610e54906121bd565b60405180910390fd5b600073ffffffffffffffffffffffffffffffffffffffff168273ffffffffffffffffffffffffffffffffffffffff1603610ecc576040517f08c379a0000000000000000000000000000000000000000000000000000000008152600401610ec39061224f565b60405180910390fd5b80600160008573ffffffffffffffffffffffffffffffffffffffff1673ffffffffffffffffffffffffffffffffffffffff16815260200190815260200160002060008473ffffffffffffffffffffffffffffffffffffffff1673ffffffffffffffffffffffffffffffffffffffff168152602001908152602001600020819055508173ffffffffffffffffffffffffffffffffffffffff168373ffffffffffffffffffffffffffffffffffffffff167f8c5be1e5ebec7d5bd14f71427d1e84f3dd0314c0f7b2291e5b200ac8c7c3b92583604051610faa9190611b67565b60405180910390a3505050565b6000610fc38484610a09565b90507fffffffffffffffffffffffffffffffffffffffffffffffffffffffffffffffff811461103d578181101561102f576040517f08c379a0000000000000000000000000000000000000000000000000000000008152600401611026906122bb565b60405180910390fd5b61103c8484848403610dee565b5b50505050565b600073ffffffffffffffffffffffffffffffffffffffff168373ffffffffffffffffffffffffffffffffffffffff16036110b2576040517f08c379a00000000000000000000000000000000000000000000000000000000081526004016110a99061234d565b60405180910390fd5b600073ffffffffffffffffffffffffffffffffffffffff168273ffffffffffffffffffffffffffffffffffffffff1603611121576040517f08c379a0000000000000000000000000000000000000000000000000000000008152600401611118906123df565b60405180910390fd5b61112c8383836117f0565b60008060008573ffffffffffffffffffffffffffffffffffffffff1673ffffffffffffffffffffffffffffffffffffffff168152602001908152602001600020549050818110156111b2576040517f08c379a00000000000000000000000000000000000000000000000000000000081526004016111a990612471565b60405180910390fd5b8181036000808673ffffffffffffffffffffffffffffffffffffffff1673ffffffffffffffffffffffffffffffffffffffff16815260200190815260200160002081905550816000808573ffffffffffffffffffffffffffffffffffffffff1673ffffffffffffffffffffffffffffffffffffffff168152602001908152602001600020600082825401925050819055508273ffffffffffffffffffffffffffffffffffffffff168473ffffffffffffffffffffffffffffffffffffffff167fddf252ad1be2c89b69c2b068fc378daa952ba7f163c4a11628f55a4df523b3ef846040516112a09190611b67565b60405180910390a36112b38484846117f5565b50505050565b6112ca816112c5610de6565b6117fa565b50565b6112d782826107fd565b6113aa5760016005600084815260200190815260200160002060000160008373ffffffffffffffffffffffffffffffffffffffff1673ffffffffffffffffffffffffffffffffffffffff16815260200190815260200160002060006101000a81548160ff02191690831515021790555061134f610de6565b73ffffffffffffffffffffffffffffffffffffffff168173ffffffffffffffffffffffffffffffffffffffff16837f2f8788117e7eff1d82e926ec794901d17c78024a50270940304540a733656f0d60405160405180910390a45b5050565b6113b882826107fd565b1561148c5760006005600084815260200190815260200160002060000160008373ffffffffffffffffffffffffffffffffffffffff1673ffffffffffffffffffffffffffffffffffffffff16815260200190815260200160002060006101000a81548160ff021916908315150217905550611431610de6565b73ffffffffffffffffffffffffffffffffffffffff168173ffffffffffffffffffffffffffffffffffffffff16837ff6391f5c32d9c69d2a47ea670b442974b53935d1edc7fd64eb21e047a839171b60405160405180910390a45b5050565b611498610de6565b73ffffffffffffffffffffffffffffffffffffffff166114b66107d3565b73ffffffffffffffffffffffffffffffffffffffff161461150c576040517f08c379a0000000000000000000000000000000000000000000000000000000008152600401611503906124dd565b60405180910390fd5b565b61151661187f565b6001600660146101000a81548160ff0219169083151502179055507f62e78cea01bee320cd4e420270b5ea74000d11b0c9f74754ebdbfc544b05a25861155a610de6565b6040516115679190611d15565b60405180910390a1565b6000600660009054906101000a900473ffffffffffffffffffffffffffffffffffffffff16905081600660006101000a81548173ffffffffffffffffffffffffffffffffffffffff021916908373ffffffffffffffffffffffffffffffffffffffff1602179055508173ffffffffffffffffffffffffffffffffffffffff168173ffffffffffffffffffffffffffffffffffffffff167f8be0079c531659141344cd1fd0a4f28419497f9722a3daafe3b4186f6b6457e060405160405180910390a35050565b600073ffffffffffffffffffffffffffffffffffffffff168273ffffffffffffffffffffffffffffffffffffffff16036116a6576040517f08c379a000000000000000000000000000000000000000000000000000000000815260040161169d90612549565b60405180910390fd5b6116b2600083836117f0565b80600260008282546116c49190611ebe565b92505081905550806000808473ffffffffffffffffffffffffffffffffffffffff1673ffffffffffffffffffffffffffffffffffffffff168152602001908152602001600020600082825401925050819055508173ffffffffffffffffffffffffffffffffffffffff16600073ffffffffffffffffffffffffffffffffffffffff167fddf252ad1be2c89b69c2b068fc378daa952ba7f163c4a11628f55a4df523b3ef836040516117759190611b67565b60405180910390a3611789600083836117f5565b5050565b6117956118c9565b6000600660146101000a81548160ff0219169083151502179055507f5db9ee0a495bf2e6ff9c91a7834c1ba4fdd244a5e8aa4e537bd38aeae4b073aa6117d9610de6565b6040516117e69190611d15565b60405180910390a1565b505050565b505050565b61180482826107fd565b61187b5761181181610b13565b61181f8360001c6020610b40565b60405160200161183092919061263d565b6040516020818303038152906040526040517f08c379a00000000000000000000000000000000000000000000000000000000081526004016118729190611a62565b60405180910390fd5b5050565b611887610760565b156118c7576040517f08c379a00000000000000000000000000000000000000000000000000000000081526004016118be906126c3565b60405180910390fd5b565b6118d1610760565b611910576040517f08c379a00000000000000000000000000000000000000000000000000000000081526004016119079061272f565b60405180910390fd5b565b600080fd5b60007fffffffff0000000000000000000000000000000000000000000000000000000082169050919050565b61194c81611917565b811461195757600080fd5b50565b60008135905061196981611943565b92915050565b60006020828403121561198557611984611912565b5b60006119938482850161195a565b91505092915050565b60008115159050919050565b6119b18161199c565b82525050565b60006020820190506119cc60008301846119a8565b92915050565b600081519050919050565b600082825260208201905092915050565b60005b83811015611a0c5780820151818401526020810190506119f1565b60008484015250505050565b6000601f19601f8301169050919050565b6000611a34826119d2565b611a3e81856119dd565b9350611a4e8185602086016119ee565b611a5781611a18565b840191505092915050565b60006020820190508181036000830152611a7c8184611a29565b905092915050565b600073ffffffffffffffffffffffffffffffffffffffff82169050919050565b6000611aaf82611a84565b9050919050565b611abf81611aa4565b8114611aca57600080fd5b50565b600081359050611adc81611ab6565b92915050565b6000819050919050565b611af581611ae2565b8114611b0057600080fd5b50565b600081359050611b1281611aec565b92915050565b60008060408385031215611b2f57611b2e611912565b5b6000611b3d85828601611acd565b9250506020611b4e85828601611b03565b9150509250929050565b611b6181611ae2565b82525050565b6000602082019050611b7c6000830184611b58565b92915050565b600080600060608486031215611b9b57611b9a611912565b5b6000611ba986828701611acd565b9350506020611bba86828701611acd565b9250506040611bcb86828701611b03565b9150509250925092565b6000819050919050565b611be881611bd5565b8114611bf357600080fd5b50565b600081359050611c0581611bdf565b92915050565b600060208284031215611c2157611c20611912565b5b6000611c2f84828501611bf6565b91505092915050565b611c4181611bd5565b82525050565b6000602082019050611c5c6000830184611c38565b92915050565b60008060408385031215611c7957611c78611912565b5b6000611c8785828601611bf6565b9250506020611c9885828601611acd565b9150509250929050565b600060ff82169050919050565b611cb881611ca2565b82525050565b6000602082019050611cd36000830184611caf565b92915050565b600060208284031215611cef57611cee611912565b5b6000611cfd84828501611acd565b91505092915050565b611d0f81611aa4565b82525050565b6000602082019050611d2a6000830184611d06565b92915050565b600060208284031215611d4657611d45611912565b5b6000611d5484828501611b03565b91505092915050565b60008060408385031215611d7457611d73611912565b5b6000611d8285828601611acd565b9250506020611d9385828601611acd565b9150509250929050565b7f4e487b7100000000000000000000000000000000000000000000000000000000600052602260045260246000fd5b60006002820490506001821680611de457607f821691505b602082108103611df757611df6611d9d565b5b50919050565b7f416363657373436f6e74726f6c3a2063616e206f6e6c792072656e6f756e636560008201527f20726f6c657320666f722073656c660000000000000000000000000000000000602082015250565b6000611e59602f836119dd565b9150611e6482611dfd565b604082019050919050565b60006020820190508181036000830152611e8881611e4c565b9050919050565b7f4e487b7100000000000000000000000000000000000000000000000000000000600052601160045260246000fd5b6000611ec982611ae2565b9150611ed483611ae2565b9250828201905080821115611eec57611eeb611e8f565b5b92915050565b7f45524332303a2064656372656173656420616c6c6f77616e63652062656c6f7760008201527f207a65726f000000000000000000000000000000000000000000000000000000602082015250565b6000611f4e6025836119dd565b9150611f5982611ef2565b604082019050919050565b60006020820190508181036000830152611f7d81611f41565b9050919050565b7f4f776e61626c653a206e6577206f776e657220697320746865207a65726f206160008201527f6464726573730000000000000000000000000000000000000000000000000000602082015250565b6000611fe06026836119dd565b9150611feb82611f84565b604082019050919050565b6000602082019050818103600083015261200f81611fd3565b9050919050565b600061202182611ae2565b915061202c83611ae2565b925082820261203a81611ae2565b9150828204841483151761205157612050611e8f565b5b5092915050565b7f4e487b7100000000000000000000000000000000000000000000000000000000600052604160045260246000fd5b7f4e487b7100000000000000000000000000000000000000000000000000000000600052603260045260246000fd5b60006120c182611ae2565b9150600082036120d4576120d3611e8f565b5b600182039050919050565b7f537472696e67733a20686578206c656e67746820696e73756666696369656e74600082015250565b60006121156020836119dd565b9150612120826120df565b602082019050919050565b6000602082019050818103600083015261214481612108565b9050919050565b7f45524332303a20617070726f76652066726f6d20746865207a65726f2061646460008201527f7265737300000000000000000000000000000000000000000000000000000000602082015250565b60006121a76024836119dd565b91506121b28261214b565b604082019050919050565b600060208201905081810360008301526121d68161219a565b9050919050565b7f45524332303a20617070726f766520746f20746865207a65726f20616464726560008201527f7373000000000000000000000000000000000000000000000000000000000000602082015250565b60006122396022836119dd565b9150612244826121dd565b604082019050919050565b600060208201905081810360008301526122688161222c565b9050919050565b7f45524332303a20696e73756666696369656e7420616c6c6f77616e6365000000600082015250565b60006122a5601d836119dd565b91506122b08261226f565b602082019050919050565b600060208201905081810360008301526122d481612298565b9050919050565b7f45524332303a207472616e736665722066726f6d20746865207a65726f20616460008201527f6472657373000000000000000000000000000000000000000000000000000000602082015250565b60006123376025836119dd565b9150612342826122db565b604082019050919050565b600060208201905081810360008301526123668161232a565b9050919050565b7f45524332303a207472616e7366657220746f20746865207a65726f206164647260008201527f6573730000000000000000000000000000000000000000000000000000000000602082015250565b60006123c96023836119dd565b91506123d48261236d565b604082019050919050565b600060208201905081810360008301526123f8816123bc565b9050919050565b7f45524332303a207472616e7366657220616d6f756e742065786365656473206260008201527f616c616e63650000000000000000000000000000000000000000000000000000602082015250565b600061245b6026836119dd565b9150612466826123ff565b604082019050919050565b6000602082019050818103600083015261248a8161244e565b9050919050565b7f4f776e61626c653a2063616c6c6572206973206e6f7420746865206f776e6572600082015250565b60006124c76020836119dd565b91506124d282612491565b602082019050919050565b600060208201905081810360008301526124f6816124ba565b9050919050565b7f45524332303a206d696e7420746f20746865207a65726f206164647265737300600082015250565b6000612533601f836119dd565b915061253e826124fd565b602082019050919050565b6000602082019050818103600083015261256281612526565b9050919050565b600081905092915050565b7f416363657373436f6e74726f6c3a206163636f756e7420000000000000000000600082015250565b60006125aa601783612569565b91506125b582612574565b601782019050919050565b60006125cb826119d2565b6125d58185612569565b93506125e58185602086016119ee565b80840191505092915050565b7f206973206d697373696e6720726f6c6520000000000000000000000000000000600082015250565b6000612627601183612569565b9150612632826125f1565b601182019050919050565b60006126488261259d565b915061265482856125c0565b915061265f8261261a565b915061266b82846125c0565b91508190509392505050565b7f5061757361626c653a2070617573656400000000000000000000000000000000600082015250565b60006126ad6010836119dd565b91506126b882612677565b602082019050919050565b600060208201905081810360008301526126dc816126a0565b9050919050565b7f5061757361626c653a206e6f7420706175736564000000000000000000000000600082015250565b60006127196014836119dd565b9150612724826126e3565b602082019050919050565b600060208201905081810360008301526127488161270c565b905091905056fea2646970667358221220774b1b00b5107f6a948d57e9d263fdc59b1a7452b6b28ada6e5e331fa2147e7f64736f6c63430008110033",
  "immutableReferences": {},
  "source": "// SPDX-License-Identifier: MIT\r\n// OpenZeppelin Contracts (last updated v4.8.0) (token/ERC20/ERC20.sol)\r\n\r\npragma solidity 0.8.17;\r\n\r\nimport \"@openzeppelin/contracts/token/ERC20/ERC20.sol\";\r\nimport \"@openzeppelin/contracts/access/AccessControl.sol\";\r\nimport \"@openzeppelin/contracts/access/Ownable.sol\";\r\nimport \"@openzeppelin/contracts/security/Pausable.sol\";\r\n\r\ncontract Token is ERC20, AccessControl, Ownable, Pausable{\r\n\r\n uint8 decimals_;\r\n bytes32 private constant Admin = 0xa729ef4e25027bc652fc8b5c4d1d902947361fa7c8e7b4905e877823f27331b3;\r\n\r\n\r\n     constructor(string memory name, string memory symbol, uint256 totalSupply, uint8 _decimals) ERC20(name, symbol){\r\n        _mint(msg.sender, totalSupply);\r\n        decimals_ = _decimals;\r\n        grantRole(Admin, msg.sender);\r\n    }\r\n\r\n     function decimals() public view override returns (uint8) {\r\n        return decimals_;\r\n    }\r\n\r\n      /**\r\n     * @dev Pause `contract` - pause events.\r\n     *\r\n     * See {ERC20Pausable-_pause}.\r\n     */\r\n    function pauseContract() external virtual onlyOwner {\r\n        _pause();\r\n    }\r\n\r\n    /**\r\n     * @dev UnPause `contract` - unpause events.\r\n     *\r\n     * See {ERC20Pausable-_unpause}.\r\n     */\r\n    function unPauseContract() external virtual onlyOwner {\r\n        _unpause();\r\n    }\r\n\r\n    /** @dev Creates `amount` tokens and assigns them to `account`, increasing\r\n     * the total supply.\r\n     */\r\n\r\n    function mint(uint256 amount) external onlyRole(Admin){\r\n        _mint(msg.sender, amount);\r\n    }\r\n\r\n}",
  "sourcePath": "D:\\solidity\\factory1\\contracts\\Token.sol",
  "compiler": {
    "name": "solc",
    "version": "0.8.17+commit.8df45f5f.Emscripten.clang"
  },
  "schemaVersion": "3.4.11",
  "updatedAt": "2022-12-14T09:45:23.605Z",
  "devdoc": {
    "kind": "dev",
    "methods": {
      "allowance(address,address)": {
        "details": "See {IERC20-allowance}."
      },
      "approve(address,uint256)": {
        "details": "See {IERC20-approve}. NOTE: If `amount` is the maximum `uint256`, the allowance is not updated on `transferFrom`. This is semantically equivalent to an infinite approval. Requirements: - `spender` cannot be the zero address."
      },
      "balanceOf(address)": {
        "details": "See {IERC20-balanceOf}."
      },
      "decimals()": {
        "details": "Returns the number of decimals used to get its user representation. For example, if `decimals` equals `2`, a balance of `505` tokens should be displayed to a user as `5.05` (`505 / 10 ** 2`). Tokens usually opt for a value of 18, imitating the relationship between Ether and Wei. This is the value {ERC20} uses, unless this function is overridden; NOTE: This information is only used for _display_ purposes: it in no way affects any of the arithmetic of the contract, including {IERC20-balanceOf} and {IERC20-transfer}."
      },
      "decreaseAllowance(address,uint256)": {
        "details": "Atomically decreases the allowance granted to `spender` by the caller. This is an alternative to {approve} that can be used as a mitigation for problems described in {IERC20-approve}. Emits an {Approval} event indicating the updated allowance. Requirements: - `spender` cannot be the zero address. - `spender` must have allowance for the caller of at least `subtractedValue`."
      },
      "getRoleAdmin(bytes32)": {
        "details": "Returns the admin role that controls `role`. See {grantRole} and {revokeRole}. To change a role's admin, use {_setRoleAdmin}."
      },
      "grantRole(bytes32,address)": {
        "details": "Grants `role` to `account`. If `account` had not been already granted `role`, emits a {RoleGranted} event. Requirements: - the caller must have ``role``'s admin role. May emit a {RoleGranted} event."
      },
      "hasRole(bytes32,address)": {
        "details": "Returns `true` if `account` has been granted `role`."
      },
      "increaseAllowance(address,uint256)": {
        "details": "Atomically increases the allowance granted to `spender` by the caller. This is an alternative to {approve} that can be used as a mitigation for problems described in {IERC20-approve}. Emits an {Approval} event indicating the updated allowance. Requirements: - `spender` cannot be the zero address."
      },
      "mint(uint256)": {
        "details": "Creates `amount` tokens and assigns them to `account`, increasing the total supply."
      },
      "name()": {
        "details": "Returns the name of the token."
      },
      "owner()": {
        "details": "Returns the address of the current owner."
      },
      "pauseContract()": {
        "details": "Pause `contract` - pause events. See {ERC20Pausable-_pause}."
      },
      "paused()": {
        "details": "Returns true if the contract is paused, and false otherwise."
      },
      "renounceOwnership()": {
        "details": "Leaves the contract without owner. It will not be possible to call `onlyOwner` functions anymore. Can only be called by the current owner. NOTE: Renouncing ownership will leave the contract without an owner, thereby removing any functionality that is only available to the owner."
      },
      "renounceRole(bytes32,address)": {
        "details": "Revokes `role` from the calling account. Roles are often managed via {grantRole} and {revokeRole}: this function's purpose is to provide a mechanism for accounts to lose their privileges if they are compromised (such as when a trusted device is misplaced). If the calling account had been revoked `role`, emits a {RoleRevoked} event. Requirements: - the caller must be `account`. May emit a {RoleRevoked} event."
      },
      "revokeRole(bytes32,address)": {
        "details": "Revokes `role` from `account`. If `account` had been granted `role`, emits a {RoleRevoked} event. Requirements: - the caller must have ``role``'s admin role. May emit a {RoleRevoked} event."
      },
      "supportsInterface(bytes4)": {
        "details": "See {IERC165-supportsInterface}."
      },
      "symbol()": {
        "details": "Returns the symbol of the token, usually a shorter version of the name."
      },
      "totalSupply()": {
        "details": "See {IERC20-totalSupply}."
      },
      "transfer(address,uint256)": {
        "details": "See {IERC20-transfer}. Requirements: - `to` cannot be the zero address. - the caller must have a balance of at least `amount`."
      },
      "transferFrom(address,address,uint256)": {
        "details": "See {IERC20-transferFrom}. Emits an {Approval} event indicating the updated allowance. This is not required by the EIP. See the note at the beginning of {ERC20}. NOTE: Does not update the allowance if the current allowance is the maximum `uint256`. Requirements: - `from` and `to` cannot be the zero address. - `from` must have a balance of at least `amount`. - the caller must have allowance for ``from``'s tokens of at least `amount`."
      },
      "transferOwnership(address)": {
        "details": "Transfers ownership of the contract to a new account (`newOwner`). Can only be called by the current owner."
      },
      "unPauseContract()": {
        "details": "UnPause `contract` - unpause events. See {ERC20Pausable-_unpause}."
      }
    },
    "version": 1
  },
  "userdoc": {
    "kind": "user",
    "methods": {},
    "version": 1
  }
}